{
  "contractName": "BaseStorage",
  "abi": [
    {
      "inputs": [],
      "name": "planetImplementation",
      "outputs": [
        {
          "internalType": "address",
          "name": "",
          "type": "address"
        }
      ],
      "stateMutability": "view",
      "type": "function"
    }
  ],
  "bytecode": "0x6080604052348015600f57600080fd5b5060a08061001e6000396000f3fe6080604052348015600f57600080fd5b506004361060285760003560e01c8063ae13887514602d575b600080fd5b60336047565b604051603e91906056565b60405180910390f35b6013546001600160a01b031681565b6001600160a01b039190911681526020019056fea2646970667358221220abf7822af307a8c7387786940ca7bf8362e2a430038abbf273fa0b6598decf8264736f6c634300060c0033",
  "immutableReferences": {},
  "source": "pragma solidity 0.6.12;\npragma experimental ABIEncoderV2;\nimport {Types} from './lib/Types.sol';\n\ncontract BaseStorage {\n    mapping(uint256 => address) internal gameEventIdToAddress;\n    mapping(address => uint256) internal userAddressToGameEvent;\n    mapping(uint256 => address) internal stakedTokenToOwner;\n    mapping(address => uint256) internal proxyAddressToTokenId;\n    mapping(uint256 => address) internal tokenIdToProxyAddress;\n    mapping(uint256 => uint256) internal tokenIdToYield;\n    mapping(address => Types.Position) internal fleetToPosition;\n    mapping(uint256 => Types.SatStats) internal idToSatStats;\n    mapping(uint256 => mapping(uint256 => mapping(uint256 => mapping(uint256 => Types.SystemType))))\n        internal positionToSystemType;\n\n    address internal solar;\n    address internal planetManager;\n    address internal planets;\n    address internal sat;\n    address internal treasury;\n    address internal gameEvents;\n\n    Types.Position startPosition;\n    Types.Position boundaries;\n\n    // PlanetManager\n    address public planetImplementation;\n    mapping(address => bool) operators;\n    mapping(address => uint256) addressToTokenId;\n\n    // Rolling\n    uint256 maxRoll;\n\n    uint256 totalPlanets;\n    uint256 totalSats;\n    uint256 totalGameEvents;\n\n    Types.Range lowYieldRange;\n    Types.Range mediumYieldRange;\n    Types.Range highYieldRange;\n    Types.Range insaneYieldRange;\n\n    Types.RangeUint8 easyAiRange;\n    Types.RangeUint8 mediumAiRange;\n    Types.RangeUint8 hardAiRange;\n    Types.RangeUint8 insaneAiRange;\n}\n",
  "sourcePath": "C:\\Users\\James\\projects\\tsuno-fe\\contracts\\BaseStorage.sol",
  "compiler": {
    "name": "solc",
    "version": "0.6.12+commit.27d51765.Emscripten.clang"
  },
  "schemaVersion": "3.2.5",
  "updatedAt": "2020-11-15T18:28:29.894Z",
  "devdoc": {
    "kind": "dev",
    "methods": {},
    "version": 1
  },
  "userdoc": {
    "kind": "user",
    "methods": {},
    "version": 1
  }
}