{
  "contractName": "Discovery",
  "abi": [
    {
      "inputs": [
        {
          "internalType": "uint256",
          "name": "_seed",
          "type": "uint256"
        }
      ],
      "name": "setSeed",
      "outputs": [],
      "stateMutability": "nonpayable",
      "type": "function"
    },
    {
      "inputs": [
        {
          "internalType": "enum Types.SystemType",
          "name": "systemType",
          "type": "uint8"
        }
      ],
      "name": "getRandomYield",
      "outputs": [
        {
          "internalType": "uint16",
          "name": "rand",
          "type": "uint16"
        }
      ],
      "stateMutability": "view",
      "type": "function"
    }
  ],
  "bytecode": "0x60806040526001805534801561001457600080fd5b5060f5806100236000396000f3fe6080604052348015600f57600080fd5b506004361060315760003560e01c80626c2f3a146036578063c32a50f9146059575b600080fd5b604560413660046075565b606a565b6040516050919060b0565b60405180910390f35b606860643660046099565b6070565b005b50600090565b600055565b6000602082840312156085578081fd5b8135601581106092578182fd5b9392505050565b60006020828403121560a9578081fd5b5035919050565b61ffff9190911681526020019056fea26469706673582212202153f64cbbee90002f123a9f935b333bd5541c4e71db390823ee9236d19fbfae64736f6c634300060c0033",
  "immutableReferences": {},
  "source": "// SPDX-License-Identifier: MIT\n\npragma solidity 0.6.12;\npragma experimental ABIEncoderV2;\n\nimport {Random} from './Random.sol';\nimport {Types} from './lib/Types.sol';\n\ncontract Discovery is Random {\n    enum DiscoveryLevels {\n        OnlyFederation,\n        OnlyAlien,\n        AlienAndFederation,\n        OnlyAncient,\n        OnlyAi,\n        AllButAncient,\n        All\n    }\n\n    function federationShips(uint256 amount) internal returns (Types.SatInfo memory) {\n        uint256[4] memory _ids = Types.getFederationShips();\n\n        uint256 pos = randomrange(0, _ids.length);\n        uint256 _id = _ids[pos];\n\n        return Types.SatInfo({id: _id, amount: amount});\n    }\n\n    function singleFederationShip(uint256 amount) internal returns (Types.SatInfo memory) {\n        uint256[4] memory _ids = Types.getFederationShips();\n\n        uint256 pos = randomrange(0, _ids.length);\n        uint256 _id = _ids[pos];\n\n        return Types.SatInfo({id: _id, amount: 1});\n    }\n\n    function singleAllNonAncientShips() internal returns (Types.SatInfo memory) {\n        uint256[12] memory _ids = Types.getAllNonAncientShips();\n\n        uint256 pos = randomrange(0, _ids.length);\n        uint256 _id = _ids[pos];\n\n        return Types.SatInfo({id: _id, amount: 1});\n    }\n\n    function randomSystemType() internal returns (Types.SystemType systemType, uint256 rand) {\n        uint256 MAX_ROLL = 10000;\n        uint256 ONE_PERCENT = MAX_ROLL / 100;\n        uint256 roll = randomrange(1, MAX_ROLL);\n\n        if (roll == 1) {\n            systemType = Types.SystemType.AncientFleetAggressive;\n        } else if (roll == 42) {\n            systemType = Types.SystemType.SuperComputerEvent;\n        } else if (roll <= ONE_PERCENT * 5) {\n            systemType = Types.SystemType.AdvancedAlienFleetAggressive;\n        } else if (roll > ONE_PERCENT * 5 && roll <= ONE_PERCENT * 10) {\n            systemType = Types.SystemType.AiFleetAggressive;\n        } else if (roll > ONE_PERCENT * 10 && roll <= ONE_PERCENT * 20) {\n            systemType = Types.SystemType.AlienFleetAggressive;\n        } else if (roll > ONE_PERCENT * 20 && roll <= ONE_PERCENT * 30) {\n            systemType = Types.SystemType.PiratesEvent;\n        } else if (roll > ONE_PERCENT * 30 && roll <= ONE_PERCENT * 35) {\n            systemType = Types.SystemType.SolarWinds;\n        } else if (roll > ONE_PERCENT * 35 && roll <= ONE_PERCENT * 40) {\n            systemType = Types.SystemType.Asteroids;\n        } else if (roll > ONE_PERCENT * 40 && roll <= ONE_PERCENT * 65) {\n            systemType = Types.SystemType.LowYieldSystem;\n        } else if (roll > ONE_PERCENT * 65 && roll <= ONE_PERCENT * 70) {\n            systemType = Types.SystemType.RandomEvent;\n        } else if (roll > ONE_PERCENT * 70 && roll <= ONE_PERCENT & 75) {\n            systemType = Types.SystemType.MediumYieldSystem;\n        } else if (roll > ONE_PERCENT * 70 && roll <= ONE_PERCENT & 80) {\n            systemType = Types.SystemType.ShipWreck;\n        } else if (roll > ONE_PERCENT * 80 && roll <= ONE_PERCENT & 85) {\n            systemType = Types.SystemType.HighYieldSystem;\n        } else if (roll > ONE_PERCENT * 85 && roll <= ONE_PERCENT & 90) {\n            systemType = Types.SystemType.AncientMiningSystem;\n        } else if (roll > ONE_PERCENT * 90 && roll <= ONE_PERCENT & 95) {\n            systemType = Types.SystemType.AncientWeaponSystem;\n        } else if (roll > ONE_PERCENT * 95 && roll <= ONE_PERCENT & 99) {\n            systemType = Types.SystemType.AncientShipWreck;\n        } else if (roll > ONE_PERCENT * 99 && roll <= MAX_ROLL - 1) {\n            systemType = Types.SystemType.InsaneYieldSystem;\n        } else if (roll == MAX_ROLL) {\n            systemType = Types.SystemType.AncientRacePassive;\n        } else {\n            systemType = Types.SystemType.Empty;\n        }\n    }\n\n    function getRandomYield(Types.SystemType systemType) public view returns (uint16 rand) {}\n}\n",
  "sourcePath": "C:\\Users\\James\\projects\\tsuno-fe\\contracts\\Discovery.sol",
  "compiler": {
    "name": "solc",
    "version": "0.6.12+commit.27d51765.Emscripten.clang"
  },
  "schemaVersion": "3.2.5",
  "updatedAt": "2020-11-15T18:28:29.903Z",
  "devdoc": {
    "kind": "dev",
    "methods": {},
    "version": 1
  },
  "userdoc": {
    "kind": "user",
    "methods": {},
    "version": 1
  }
}