{
  "contractName": "EternalStorage",
  "abi": [
    {
      "inputs": [],
      "stateMutability": "nonpayable",
      "type": "constructor"
    },
    {
      "anonymous": false,
      "inputs": [
        {
          "indexed": true,
          "internalType": "address",
          "name": "previousOwner",
          "type": "address"
        },
        {
          "indexed": true,
          "internalType": "address",
          "name": "newOwner",
          "type": "address"
        }
      ],
      "name": "OwnershipTransferred",
      "type": "event"
    },
    {
      "inputs": [],
      "name": "owner",
      "outputs": [
        {
          "internalType": "address",
          "name": "",
          "type": "address"
        }
      ],
      "stateMutability": "view",
      "type": "function"
    },
    {
      "inputs": [],
      "name": "renounceOwnership",
      "outputs": [],
      "stateMutability": "nonpayable",
      "type": "function"
    },
    {
      "inputs": [
        {
          "internalType": "address",
          "name": "newOwner",
          "type": "address"
        }
      ],
      "name": "transferOwnership",
      "outputs": [],
      "stateMutability": "nonpayable",
      "type": "function"
    },
    {
      "inputs": [
        {
          "internalType": "bytes32",
          "name": "_key",
          "type": "bytes32"
        }
      ],
      "name": "getAddress",
      "outputs": [
        {
          "internalType": "address",
          "name": "",
          "type": "address"
        }
      ],
      "stateMutability": "view",
      "type": "function"
    },
    {
      "inputs": [
        {
          "internalType": "bytes32",
          "name": "_key",
          "type": "bytes32"
        }
      ],
      "name": "getUint",
      "outputs": [
        {
          "internalType": "uint256",
          "name": "",
          "type": "uint256"
        }
      ],
      "stateMutability": "view",
      "type": "function"
    },
    {
      "inputs": [
        {
          "internalType": "bytes32",
          "name": "_key",
          "type": "bytes32"
        }
      ],
      "name": "getString",
      "outputs": [
        {
          "internalType": "string",
          "name": "",
          "type": "string"
        }
      ],
      "stateMutability": "view",
      "type": "function"
    },
    {
      "inputs": [
        {
          "internalType": "bytes32",
          "name": "_key",
          "type": "bytes32"
        }
      ],
      "name": "getBytes",
      "outputs": [
        {
          "internalType": "bytes",
          "name": "",
          "type": "bytes"
        }
      ],
      "stateMutability": "view",
      "type": "function"
    },
    {
      "inputs": [
        {
          "internalType": "bytes32",
          "name": "_key",
          "type": "bytes32"
        }
      ],
      "name": "getBool",
      "outputs": [
        {
          "internalType": "bool",
          "name": "",
          "type": "bool"
        }
      ],
      "stateMutability": "view",
      "type": "function"
    },
    {
      "inputs": [
        {
          "internalType": "bytes32",
          "name": "_key",
          "type": "bytes32"
        }
      ],
      "name": "getInt",
      "outputs": [
        {
          "internalType": "int256",
          "name": "",
          "type": "int256"
        }
      ],
      "stateMutability": "view",
      "type": "function"
    },
    {
      "inputs": [
        {
          "internalType": "bytes32",
          "name": "_key",
          "type": "bytes32"
        }
      ],
      "name": "getUint8",
      "outputs": [
        {
          "internalType": "uint8",
          "name": "",
          "type": "uint8"
        }
      ],
      "stateMutability": "view",
      "type": "function"
    },
    {
      "inputs": [
        {
          "internalType": "bytes32",
          "name": "_key",
          "type": "bytes32"
        }
      ],
      "name": "getUint16",
      "outputs": [
        {
          "internalType": "uint16",
          "name": "",
          "type": "uint16"
        }
      ],
      "stateMutability": "view",
      "type": "function"
    },
    {
      "inputs": [
        {
          "internalType": "bytes32",
          "name": "_key",
          "type": "bytes32"
        },
        {
          "internalType": "address",
          "name": "_value",
          "type": "address"
        }
      ],
      "name": "setAddress",
      "outputs": [],
      "stateMutability": "nonpayable",
      "type": "function"
    },
    {
      "inputs": [
        {
          "internalType": "bytes32",
          "name": "_key",
          "type": "bytes32"
        },
        {
          "internalType": "uint256",
          "name": "_value",
          "type": "uint256"
        }
      ],
      "name": "setUint",
      "outputs": [],
      "stateMutability": "nonpayable",
      "type": "function"
    },
    {
      "inputs": [
        {
          "internalType": "bytes32",
          "name": "_key",
          "type": "bytes32"
        },
        {
          "internalType": "string",
          "name": "_value",
          "type": "string"
        }
      ],
      "name": "setString",
      "outputs": [],
      "stateMutability": "nonpayable",
      "type": "function"
    },
    {
      "inputs": [
        {
          "internalType": "bytes32",
          "name": "_key",
          "type": "bytes32"
        },
        {
          "internalType": "bytes",
          "name": "_value",
          "type": "bytes"
        }
      ],
      "name": "setBytes",
      "outputs": [],
      "stateMutability": "nonpayable",
      "type": "function"
    },
    {
      "inputs": [
        {
          "internalType": "bytes32",
          "name": "_key",
          "type": "bytes32"
        },
        {
          "internalType": "bool",
          "name": "_value",
          "type": "bool"
        }
      ],
      "name": "setBool",
      "outputs": [],
      "stateMutability": "nonpayable",
      "type": "function"
    },
    {
      "inputs": [
        {
          "internalType": "bytes32",
          "name": "_key",
          "type": "bytes32"
        },
        {
          "internalType": "int256",
          "name": "_value",
          "type": "int256"
        }
      ],
      "name": "setInt",
      "outputs": [],
      "stateMutability": "nonpayable",
      "type": "function"
    },
    {
      "inputs": [
        {
          "internalType": "bytes32",
          "name": "_key",
          "type": "bytes32"
        },
        {
          "internalType": "uint8",
          "name": "_value",
          "type": "uint8"
        }
      ],
      "name": "setUint8",
      "outputs": [],
      "stateMutability": "nonpayable",
      "type": "function"
    },
    {
      "inputs": [
        {
          "internalType": "bytes32",
          "name": "_key",
          "type": "bytes32"
        },
        {
          "internalType": "uint16",
          "name": "_value",
          "type": "uint16"
        }
      ],
      "name": "setUint16",
      "outputs": [],
      "stateMutability": "nonpayable",
      "type": "function"
    },
    {
      "inputs": [
        {
          "internalType": "bytes32",
          "name": "_key",
          "type": "bytes32"
        }
      ],
      "name": "deleteAddress",
      "outputs": [],
      "stateMutability": "nonpayable",
      "type": "function"
    },
    {
      "inputs": [
        {
          "internalType": "bytes32",
          "name": "_key",
          "type": "bytes32"
        }
      ],
      "name": "deleteUint",
      "outputs": [],
      "stateMutability": "nonpayable",
      "type": "function"
    },
    {
      "inputs": [
        {
          "internalType": "bytes32",
          "name": "_key",
          "type": "bytes32"
        }
      ],
      "name": "deleteString",
      "outputs": [],
      "stateMutability": "nonpayable",
      "type": "function"
    },
    {
      "inputs": [
        {
          "internalType": "bytes32",
          "name": "_key",
          "type": "bytes32"
        }
      ],
      "name": "deleteBytes",
      "outputs": [],
      "stateMutability": "nonpayable",
      "type": "function"
    },
    {
      "inputs": [
        {
          "internalType": "bytes32",
          "name": "_key",
          "type": "bytes32"
        }
      ],
      "name": "deleteBool",
      "outputs": [],
      "stateMutability": "nonpayable",
      "type": "function"
    },
    {
      "inputs": [
        {
          "internalType": "bytes32",
          "name": "_key",
          "type": "bytes32"
        }
      ],
      "name": "deleteInt",
      "outputs": [],
      "stateMutability": "nonpayable",
      "type": "function"
    },
    {
      "inputs": [
        {
          "internalType": "bytes32",
          "name": "_key",
          "type": "bytes32"
        }
      ],
      "name": "deleteUint8",
      "outputs": [],
      "stateMutability": "nonpayable",
      "type": "function"
    },
    {
      "inputs": [
        {
          "internalType": "bytes32",
          "name": "_key",
          "type": "bytes32"
        }
      ],
      "name": "deleteUint16",
      "outputs": [],
      "stateMutability": "nonpayable",
      "type": "function"
    }
  ],
  "bytecode": "0x608060405234801561001057600080fd5b50600061001b6100cd565b600080546001600160a01b0319166001600160a01b0383169081178255604051929350917f8be0079c531659141344cd1fd0a4f28419497f9722a3daafe3b4186f6b6457e0908290a350604080516a6163636573732e726f6c6560a81b6020808301919091526437bbb732b960d91b602b8301523360601b603083015282516024818403018152604490920183528151918101919091206000908152600590915220805460ff191660011790556100d1565b3390565b611b19806100e06000396000f3fe608060405234801561001057600080fd5b50600436106101a95760003560e01c80638b23b40b116100f9578063ca446dd911610097578063e2b202bf11610071578063e2b202bf14610652578063e74730a11461066f578063f2fde38b14610695578063f6bb3cc4146106bb576101a9565b8063ca446dd9146105e6578063dc97d96214610612578063e2a4853a1461062f576101a9565b8063986e791a116100d3578063986e791a146104e3578063abfdcced14610575578063bd02d0f51461059a578063c031a180146105c9576101a9565b80638b23b40b1461048b5780638c160095146104be5780638da5cb5b146104db576101a9565b80633e49bed01161016657806365f4f4981161014057806365f4f498146103715780636e899550146103a5578063715018a6146104525780637ae1cfca1461045a576101a9565b80633e49bed0146103145780635701a2bd14610337578063616b59f614610354576101a9565b80630e14a376146101ae57806316816ded146101cd5780631d77667b146101ea57806321f8a721146102115780632c62ff2d1461024a5780632e28d08414610267575b600080fd5b6101cb600480360360208110156101c457600080fd5b50356106d8565b005b6101cb600480360360208110156101e357600080fd5b50356107d2565b6101cb6004803603604081101561020057600080fd5b508035906020013561ffff166108c7565b61022e6004803603602081101561022757600080fd5b50356109c7565b604080516001600160a01b039092168252519081900360200190f35b6101cb6004803603602081101561026057600080fd5b50356109e2565b6101cb6004803603604081101561027d57600080fd5b8135919081019060408101602082013564010000000081111561029f57600080fd5b8201836020820111156102b157600080fd5b803590602001918460018302840111640100000000831117156102d357600080fd5b91908080601f016020809104026020016040519081016040528093929190818152602001838380828437600092019190915250929550610ad6945050505050565b6101cb6004803603604081101561032a57600080fd5b5080359060200135610bd6565b6101cb6004803603602081101561034d57600080fd5b5035610cc4565b6101cb6004803603602081101561036a57600080fd5b5035610db8565b61038e6004803603602081101561038757600080fd5b5035610eae565b6040805161ffff9092168252519081900360200190f35b6101cb600480360360408110156103bb57600080fd5b813591908101906040810160208201356401000000008111156103dd57600080fd5b8201836020820111156103ef57600080fd5b8035906020019184600183028401116401000000008311171561041157600080fd5b91908080601f016020809104026020016040519081016040528093929190818152602001838380828437600092019190915250929550610ec4945050505050565b6101cb610fbf565b6104776004803603602081101561047057600080fd5b5035611073565b604080519115158252519081900360200190f35b6104a8600480360360208110156104a157600080fd5b5035611088565b6040805160ff9092168252519081900360200190f35b6101cb600480360360208110156104d457600080fd5b503561109d565b61022e61118a565b610500600480360360208110156104f957600080fd5b5035611199565b6040805160208082528351818301528351919283929083019185019080838360005b8381101561053a578181015183820152602001610522565b50505050905090810190601f1680156105675780820380516001836020036101000a031916815260200191505b509250505060405180910390f35b6101cb6004803603604081101561058b57600080fd5b50803590602001351515611238565b6105b7600480360360208110156105b057600080fd5b5035611334565b60408051918252519081900360200190f35b610500600480360360208110156105df57600080fd5b5035611346565b6101cb600480360360408110156105fc57600080fd5b50803590602001356001600160a01b03166113b0565b6105b76004803603602081101561062857600080fd5b50356114ba565b6101cb6004803603604081101561064557600080fd5b50803590602001356114cc565b6101cb6004803603602081101561066857600080fd5b50356115ba565b6101cb6004803603604081101561068557600080fd5b508035906020013560ff166116a7565b6101cb600480360360208110156106ab57600080fd5b50356001600160a01b03166117a5565b6101cb600480360360208110156106d157600080fd5b50356118af565b60408051600080516020611a7a8339815191526020808301919091528251808303601c018152603c909201835281519181019190912060009081526005909152205460ff161515600114156107b457604080516e636f6e74726163742e65786973747360881b6020808301919091523360601b602f830152825160238184030181526043909201835281519181019190912060009081526005909152205460ff166107b45760405162461bcd60e51b8152600401808060200182810382526024815260200180611ac06024913960400191505060405180910390fd5b600090815260036020526040902080546001600160a01b0319169055565b60408051600080516020611a7a8339815191526020808301919091528251808303601c018152603c909201835281519181019190912060009081526005909152205460ff161515600114156108ae57604080516e636f6e74726163742e65786973747360881b6020808301919091523360601b602f830152825160238184030181526043909201835281519181019190912060009081526005909152205460ff166108ae5760405162461bcd60e51b8152600401808060200182810382526024815260200180611ac06024913960400191505060405180910390fd5b6000908152600860205260409020805461ffff19169055565b60408051600080516020611a7a8339815191526020808301919091528251808303601c018152603c909201835281519181019190912060009081526005909152205460ff161515600114156109a357604080516e636f6e74726163742e65786973747360881b6020808301919091523360601b602f830152825160238184030181526043909201835281519181019190912060009081526005909152205460ff166109a35760405162461bcd60e51b8152600401808060200182810382526024815260200180611ac06024913960400191505060405180910390fd5b600091825260086020526040909120805461ffff191661ffff909216919091179055565b6000908152600360205260409020546001600160a01b031690565b60408051600080516020611a7a8339815191526020808301919091528251808303601c018152603c909201835281519181019190912060009081526005909152205460ff16151560011415610abe57604080516e636f6e74726163742e65786973747360881b6020808301919091523360601b602f830152825160238184030181526043909201835281519181019190912060009081526005909152205460ff16610abe5760405162461bcd60e51b8152600401808060200182810382526024815260200180611ac06024913960400191505060405180910390fd5b6000908152600560205260409020805460ff19169055565b60408051600080516020611a7a8339815191526020808301919091528251808303601c018152603c909201835281519181019190912060009081526005909152205460ff16151560011415610bb257604080516e636f6e74726163742e65786973747360881b6020808301919091523360601b602f830152825160238184030181526043909201835281519181019190912060009081526005909152205460ff16610bb25760405162461bcd60e51b8152600401808060200182810382526024815260200180611ac06024913960400191505060405180910390fd5b60008281526004602090815260409091208251610bd1928401906119a6565b505050565b60408051600080516020611a7a8339815191526020808301919091528251808303601c018152603c909201835281519181019190912060009081526005909152205460ff16151560011415610cb257604080516e636f6e74726163742e65786973747360881b6020808301919091523360601b602f830152825160238184030181526043909201835281519181019190912060009081526005909152205460ff16610cb25760405162461bcd60e51b8152600401808060200182810382526024815260200180611ac06024913960400191505060405180910390fd5b60009182526006602052604090912055565b60408051600080516020611a7a8339815191526020808301919091528251808303601c018152603c909201835281519181019190912060009081526005909152205460ff16151560011415610da057604080516e636f6e74726163742e65786973747360881b6020808301919091523360601b602f830152825160238184030181526043909201835281519181019190912060009081526005909152205460ff16610da05760405162461bcd60e51b8152600401808060200182810382526024815260200180611ac06024913960400191505060405180910390fd5b6000908152600760205260409020805460ff19169055565b60408051600080516020611a7a8339815191526020808301919091528251808303601c018152603c909201835281519181019190912060009081526005909152205460ff16151560011415610e9457604080516e636f6e74726163742e65786973747360881b6020808301919091523360601b602f830152825160238184030181526043909201835281519181019190912060009081526005909152205460ff16610e945760405162461bcd60e51b8152600401808060200182810382526024815260200180611ac06024913960400191505060405180910390fd5b6000818152600460205260408120610eab91611a24565b50565b60009081526008602052604090205461ffff1690565b60408051600080516020611a7a8339815191526020808301919091528251808303601c018152603c909201835281519181019190912060009081526005909152205460ff16151560011415610fa057604080516e636f6e74726163742e65786973747360881b6020808301919091523360601b602f830152825160238184030181526043909201835281519181019190912060009081526005909152205460ff16610fa05760405162461bcd60e51b8152600401808060200182810382526024815260200180611ac06024913960400191505060405180910390fd5b60008281526002602090815260409091208251610bd1928401906119a6565b610fc76119a2565b6000546001600160a01b03908116911614611029576040805162461bcd60e51b815260206004820181905260248201527f4f776e61626c653a2063616c6c6572206973206e6f7420746865206f776e6572604482015290519081900360640190fd5b600080546040516001600160a01b03909116907f8be0079c531659141344cd1fd0a4f28419497f9722a3daafe3b4186f6b6457e0908390a3600080546001600160a01b0319169055565b60009081526005602052604090205460ff1690565b60009081526007602052604090205460ff1690565b60408051600080516020611a7a8339815191526020808301919091528251808303601c018152603c909201835281519181019190912060009081526005909152205460ff1615156001141561117957604080516e636f6e74726163742e65786973747360881b6020808301919091523360601b602f830152825160238184030181526043909201835281519181019190912060009081526005909152205460ff166111795760405162461bcd60e51b8152600401808060200182810382526024815260200180611ac06024913960400191505060405180910390fd5b600090815260066020526040812055565b6000546001600160a01b031690565b600081815260026020818152604092839020805484516001821615610100026000190190911693909304601f8101839004830284018301909452838352606093909183018282801561122c5780601f106112015761010080835404028352916020019161122c565b820191906000526020600020905b81548152906001019060200180831161120f57829003601f168201915b50505050509050919050565b60408051600080516020611a7a8339815191526020808301919091528251808303601c018152603c909201835281519181019190912060009081526005909152205460ff1615156001141561131457604080516e636f6e74726163742e65786973747360881b6020808301919091523360601b602f830152825160238184030181526043909201835281519181019190912060009081526005909152205460ff166113145760405162461bcd60e51b8152600401808060200182810382526024815260200180611ac06024913960400191505060405180910390fd5b600091825260056020526040909120805460ff1916911515919091179055565b60009081526001602052604090205490565b60008181526004602090815260409182902080548351601f600260001961010060018616150201909316929092049182018490048402810184019094528084526060939283018282801561122c5780601f106112015761010080835404028352916020019161122c565b60408051600080516020611a7a8339815191526020808301919091528251808303601c018152603c909201835281519181019190912060009081526005909152205460ff1615156001141561148c57604080516e636f6e74726163742e65786973747360881b6020808301919091523360601b602f830152825160238184030181526043909201835281519181019190912060009081526005909152205460ff1661148c5760405162461bcd60e51b8152600401808060200182810382526024815260200180611ac06024913960400191505060405180910390fd5b60009182526003602052604090912080546001600160a01b0319166001600160a01b03909216919091179055565b60009081526006602052604090205490565b60408051600080516020611a7a8339815191526020808301919091528251808303601c018152603c909201835281519181019190912060009081526005909152205460ff161515600114156115a857604080516e636f6e74726163742e65786973747360881b6020808301919091523360601b602f830152825160238184030181526043909201835281519181019190912060009081526005909152205460ff166115a85760405162461bcd60e51b8152600401808060200182810382526024815260200180611ac06024913960400191505060405180910390fd5b60009182526001602052604090912055565b60408051600080516020611a7a8339815191526020808301919091528251808303601c018152603c909201835281519181019190912060009081526005909152205460ff1615156001141561169657604080516e636f6e74726163742e65786973747360881b6020808301919091523360601b602f830152825160238184030181526043909201835281519181019190912060009081526005909152205460ff166116965760405162461bcd60e51b8152600401808060200182810382526024815260200180611ac06024913960400191505060405180910390fd5b600090815260016020526040812055565b60408051600080516020611a7a8339815191526020808301919091528251808303601c018152603c909201835281519181019190912060009081526005909152205460ff1615156001141561178357604080516e636f6e74726163742e65786973747360881b6020808301919091523360601b602f830152825160238184030181526043909201835281519181019190912060009081526005909152205460ff166117835760405162461bcd60e51b8152600401808060200182810382526024815260200180611ac06024913960400191505060405180910390fd5b600091825260076020526040909120805460ff191660ff909216919091179055565b6117ad6119a2565b6000546001600160a01b0390811691161461180f576040805162461bcd60e51b815260206004820181905260248201527f4f776e61626c653a2063616c6c6572206973206e6f7420746865206f776e6572604482015290519081900360640190fd5b6001600160a01b0381166118545760405162461bcd60e51b8152600401808060200182810382526026815260200180611a9a6026913960400191505060405180910390fd5b600080546040516001600160a01b03808516939216917f8be0079c531659141344cd1fd0a4f28419497f9722a3daafe3b4186f6b6457e091a3600080546001600160a01b0319166001600160a01b0392909216919091179055565b60408051600080516020611a7a8339815191526020808301919091528251808303601c018152603c909201835281519181019190912060009081526005909152205460ff1615156001141561198b57604080516e636f6e74726163742e65786973747360881b6020808301919091523360601b602f830152825160238184030181526043909201835281519181019190912060009081526005909152205460ff1661198b5760405162461bcd60e51b8152600401808060200182810382526024815260200180611ac06024913960400191505060405180910390fd5b6000818152600260205260408120610eab91611a24565b3390565b828054600181600116156101000203166002900490600052602060002090601f016020900481019282601f106119e757805160ff1916838001178555611a14565b82800160010185558215611a14579182015b82811115611a145782518255916020019190600101906119f9565b50611a20929150611a64565b5090565b50805460018160011615610100020316600290046000825580601f10611a4a5750610eab565b601f016020900490600052602060002090810190610eab91905b5b80821115611a205760008155600101611a6556fe636f6e74726163742e73746f726167652e696e697469616c69736564000000004f776e61626c653a206e6577206f776e657220697320746865207a65726f2061646472657373496e76616c6964206f72206f75746461746564206e6574776f726b20636f6e7472616374a26469706673582212206ad2af928bf2abe098a26aa12a7fa850c2b9c61ba730d8b999523eb839fd5ca164736f6c634300060c0033",
  "immutableReferences": {},
  "source": "pragma solidity 0.6.12;\n\nimport {Ownable} from '@openzeppelin/contracts/access/Ownable.sol';\n\ncontract EternalStorage is Ownable {\n    /**** Storage Types *******/\n\n    mapping(bytes32 => uint256) private uIntStorage;\n    mapping(bytes32 => string) private stringStorage;\n    mapping(bytes32 => address) private addressStorage;\n    mapping(bytes32 => bytes) private bytesStorage;\n    mapping(bytes32 => bool) private boolStorage;\n    mapping(bytes32 => int256) private intStorage;\n    mapping(bytes32 => uint8) private uint8Storage;\n    mapping(bytes32 => uint16) private uint16Storage;\n\n    /*** Modifiers ************/\n\n    /// @dev Only allow access from the latest version of a contract in the Rocket Pool network after deployment\n    modifier onlyLatestRocketNetworkContract() {\n        // The owner and other contracts are only allowed to set the storage upon deployment to register the initial contracts/settings, afterwards their direct access is disabled\n        if (\n            boolStorage[keccak256(\n                abi.encodePacked('contract.storage.initialised')\n            )] == true\n        ) {\n            // Make sure the access is permitted to only contracts in our Dapp\n            require(\n                boolStorage[keccak256(\n                    abi.encodePacked('contract.exists', msg.sender)\n                )],\n                'Invalid or outdated network contract'\n            );\n        }\n        _;\n    }\n\n    /// @dev Construct RocketStorage\n    constructor() public {\n        // Set the main owner upon deployment\n        boolStorage[keccak256(\n            abi.encodePacked('access.role', 'owner', msg.sender)\n        )] = true;\n    }\n\n    /**** Get Methods ***********/\n\n    /// @param _key The key for the record\n    function getAddress(bytes32 _key) external view returns (address) {\n        return addressStorage[_key];\n    }\n\n    /// @param _key The key for the record\n    function getUint(bytes32 _key) external view returns (uint256) {\n        return uIntStorage[_key];\n    }\n\n    /// @param _key The key for the record\n    function getString(bytes32 _key) external view returns (string memory) {\n        return stringStorage[_key];\n    }\n\n    /// @param _key The key for the record\n    function getBytes(bytes32 _key) external view returns (bytes memory) {\n        return bytesStorage[_key];\n    }\n\n    /// @param _key The key for the record\n    function getBool(bytes32 _key) external view returns (bool) {\n        return boolStorage[_key];\n    }\n\n    /// @param _key The key for the record\n    function getInt(bytes32 _key) external view returns (int256) {\n        return intStorage[_key];\n    }\n\n    function getUint8(bytes32 _key) external view returns (uint8) {\n        return uint8Storage[_key];\n    }\n\n    function getUint16(bytes32 _key) external view returns (uint16) {\n        return uint16Storage[_key];\n    }\n\n    /**** Set Methods ***********/\n\n    /// @param _key The key for the record\n    function setAddress(bytes32 _key, address _value)\n        external\n        onlyLatestRocketNetworkContract\n    {\n        addressStorage[_key] = _value;\n    }\n\n    /// @param _key The key for the record\n    function setUint(bytes32 _key, uint256 _value)\n        external\n        onlyLatestRocketNetworkContract\n    {\n        uIntStorage[_key] = _value;\n    }\n\n    /// @param _key The key for the record\n    function setString(bytes32 _key, string memory _value)\n        external\n        onlyLatestRocketNetworkContract\n    {\n        stringStorage[_key] = _value;\n    }\n\n    /// @param _key The key for the record\n    function setBytes(bytes32 _key, bytes memory _value)\n        external\n        onlyLatestRocketNetworkContract\n    {\n        bytesStorage[_key] = _value;\n    }\n\n    /// @param _key The key for the record\n    function setBool(bytes32 _key, bool _value)\n        external\n        onlyLatestRocketNetworkContract\n    {\n        boolStorage[_key] = _value;\n    }\n\n    /// @param _key The key for the record\n    function setInt(bytes32 _key, int256 _value)\n        external\n        onlyLatestRocketNetworkContract\n    {\n        intStorage[_key] = _value;\n    }\n\n    /// @param _key The key for the record\n    function setUint8(bytes32 _key, uint8 _value)\n        external\n        onlyLatestRocketNetworkContract\n    {\n        uint8Storage[_key] = _value;\n    }\n\n    /// @param _key The key for the record\n    function setUint16(bytes32 _key, uint16 _value)\n        external\n        onlyLatestRocketNetworkContract\n    {\n        uint16Storage[_key] = _value;\n    }\n\n    /**** Delete Methods ***********/\n\n    /// @param _key The key for the record\n    function deleteAddress(bytes32 _key)\n        external\n        onlyLatestRocketNetworkContract\n    {\n        delete addressStorage[_key];\n    }\n\n    /// @param _key The key for the record\n    function deleteUint(bytes32 _key) external onlyLatestRocketNetworkContract {\n        delete uIntStorage[_key];\n    }\n\n    /// @param _key The key for the record\n    function deleteString(bytes32 _key)\n        external\n        onlyLatestRocketNetworkContract\n    {\n        delete stringStorage[_key];\n    }\n\n    /// @param _key The key for the record\n    function deleteBytes(bytes32 _key)\n        external\n        onlyLatestRocketNetworkContract\n    {\n        delete bytesStorage[_key];\n    }\n\n    /// @param _key The key for the record\n    function deleteBool(bytes32 _key) external onlyLatestRocketNetworkContract {\n        delete boolStorage[_key];\n    }\n\n    /// @param _key The key for the record\n    function deleteInt(bytes32 _key) external onlyLatestRocketNetworkContract {\n        delete intStorage[_key];\n    }\n\n    /// @param _key The key for the record\n    function deleteUint8(bytes32 _key)\n        external\n        onlyLatestRocketNetworkContract\n    {\n        delete uint8Storage[_key];\n    }\n\n    /// @param _key The key for the record\n    function deleteUint16(bytes32 _key)\n        external\n        onlyLatestRocketNetworkContract\n    {\n        delete uint16Storage[_key];\n    }\n}\n",
  "sourcePath": "C:\\Users\\James\\projects\\tsuno-fe\\contracts\\EternalStorage.sol",
  "compiler": {
    "name": "solc",
    "version": "0.6.12+commit.27d51765.Emscripten.clang"
  },
  "schemaVersion": "3.2.5",
  "updatedAt": "2020-11-15T18:28:43.880Z",
  "networkType": "ethereum",
  "devdoc": {
    "kind": "dev",
    "methods": {
      "constructor": {
        "details": "Construct RocketStorage"
      },
      "deleteAddress(bytes32)": {
        "params": {
          "_key": "The key for the record"
        }
      },
      "deleteBool(bytes32)": {
        "params": {
          "_key": "The key for the record"
        }
      },
      "deleteBytes(bytes32)": {
        "params": {
          "_key": "The key for the record"
        }
      },
      "deleteInt(bytes32)": {
        "params": {
          "_key": "The key for the record"
        }
      },
      "deleteString(bytes32)": {
        "params": {
          "_key": "The key for the record"
        }
      },
      "deleteUint(bytes32)": {
        "params": {
          "_key": "The key for the record"
        }
      },
      "deleteUint16(bytes32)": {
        "params": {
          "_key": "The key for the record"
        }
      },
      "deleteUint8(bytes32)": {
        "params": {
          "_key": "The key for the record"
        }
      },
      "getAddress(bytes32)": {
        "params": {
          "_key": "The key for the record"
        }
      },
      "getBool(bytes32)": {
        "params": {
          "_key": "The key for the record"
        }
      },
      "getBytes(bytes32)": {
        "params": {
          "_key": "The key for the record"
        }
      },
      "getInt(bytes32)": {
        "params": {
          "_key": "The key for the record"
        }
      },
      "getString(bytes32)": {
        "params": {
          "_key": "The key for the record"
        }
      },
      "getUint(bytes32)": {
        "params": {
          "_key": "The key for the record"
        }
      },
      "owner()": {
        "details": "Returns the address of the current owner."
      },
      "renounceOwnership()": {
        "details": "Leaves the contract without owner. It will not be possible to call `onlyOwner` functions anymore. Can only be called by the current owner. NOTE: Renouncing ownership will leave the contract without an owner, thereby removing any functionality that is only available to the owner."
      },
      "setAddress(bytes32,address)": {
        "params": {
          "_key": "The key for the record"
        }
      },
      "setBool(bytes32,bool)": {
        "params": {
          "_key": "The key for the record"
        }
      },
      "setBytes(bytes32,bytes)": {
        "params": {
          "_key": "The key for the record"
        }
      },
      "setInt(bytes32,int256)": {
        "params": {
          "_key": "The key for the record"
        }
      },
      "setString(bytes32,string)": {
        "params": {
          "_key": "The key for the record"
        }
      },
      "setUint(bytes32,uint256)": {
        "params": {
          "_key": "The key for the record"
        }
      },
      "setUint16(bytes32,uint16)": {
        "params": {
          "_key": "The key for the record"
        }
      },
      "setUint8(bytes32,uint8)": {
        "params": {
          "_key": "The key for the record"
        }
      },
      "transferOwnership(address)": {
        "details": "Transfers ownership of the contract to a new account (`newOwner`). Can only be called by the current owner."
      }
    },
    "version": 1
  },
  "userdoc": {
    "kind": "user",
    "methods": {},
    "version": 1
  }
}