{
  "contractName": "FixedPoint",
  "abi": [
    {
      "inputs": [],
      "name": "Q112",
      "outputs": [
        {
          "internalType": "uint256",
          "name": "",
          "type": "uint256"
        }
      ],
      "stateMutability": "view",
      "type": "function"
    },
    {
      "inputs": [],
      "name": "RESOLUTION",
      "outputs": [
        {
          "internalType": "uint8",
          "name": "",
          "type": "uint8"
        }
      ],
      "stateMutability": "view",
      "type": "function"
    }
  ],
  "bytecode": "0x60b9610025600b82828239805160001a60731461001857fe5b30600052607381538281f3fe7300000000000000000000000000000000000000003014608060405260043610603d5760003560e01c80633bf7a83e146042578063552f888a14605a575b600080fd5b60486076565b60408051918252519081900360200190f35b6060607e565b6040805160ff9092168252519081900360200190f35b600160701b81565b60708156fea26469706673582212208af5597209b64816e2c823796459eaf85cc3c753d04fec97e8fe1dd0ffc1fcb264736f6c63430007050033",
  "immutableReferences": {},
  "source": "// SPDX-License-Identifier: GPL-3.0-or-later\npragma solidity >=0.7.5;\n\nimport './FullMath.sol';\n\n// a library for handling binary fixed point numbers (https://en.wikipedia.org/wiki/Q_(number_format))\nlibrary FixedPoint {\n    // range: [0, 2**112 - 1]\n    // resolution: 1 / 2**112\n    struct uq112x112 {\n        uint224 _x;\n    }\n\n    // range: [0, 2**144 - 1]\n    // resolution: 1 / 2**112\n    struct uq144x112 {\n        uint256 _x;\n    }\n\n    uint8 public constant RESOLUTION = 112;\n    uint256 public constant Q112 = 0x10000000000000000000000000000; // 2**112\n    uint256 private constant Q224 = 0x100000000000000000000000000000000000000000000000000000000; // 2**224\n    uint256 private constant LOWER_MASK = 0xffffffffffffffffffffffffffff; // decimal of UQ*x112 (lower 112 bits)\n\n    // decode a UQ144x112 into a uint144 by truncating after the radix point\n    function decode144(uq144x112 memory self) internal pure returns (uint144) {\n        return uint144(self._x >> RESOLUTION);\n    }\n\n    // encode a uint112 as a UQ112x112\n    function encode(uint112 x) internal pure returns (uq112x112 memory) {\n        return uq112x112(uint224(x) << RESOLUTION);\n    }\n\n    // encodes a uint144 as a UQ144x112\n    function encode144(uint144 x) internal pure returns (uq144x112 memory) {\n        return uq144x112(uint256(x) << RESOLUTION);\n    }\n\n    // decode a UQ112x112 into a uint112 by truncating after the radix point\n    function decode(uq112x112 memory self) internal pure returns (uint112) {\n        return uint112(self._x >> RESOLUTION);\n    }\n\n    // multiply a UQ112x112 by a uint, returning a UQ144x112\n    // reverts on overflow\n    function mul(uq112x112 memory self, uint256 y) internal pure returns (uq144x112 memory) {\n        uint256 z = 0;\n        require(y == 0 || (z = self._x * y) / y == self._x, 'FixedPoint::mul: overflow');\n        return uq144x112(z);\n    }\n\n    // returns a UQ112x112 which represents the ratio of the numerator to the denominator\n    // can be lossy\n    function fraction(uint256 numerator, uint256 denominator) internal pure returns (uq112x112 memory) {\n        require(denominator > 0, 'FixedPoint::fraction: division by zero');\n        if (numerator == 0) return FixedPoint.uq112x112(0);\n\n        if (numerator <= type(uint144).max) {\n            uint256 result = (numerator << RESOLUTION) / denominator;\n            require(result <= type(uint256).max, 'FixedPoint::fraction: overflow');\n            return uq112x112(uint224(result));\n        } else {\n            uint256 result = FullMath.mulDiv(numerator, Q112, denominator);\n            require(result <= type(uint256).max, 'FixedPoint::fraction: overflow');\n            return uq112x112(uint224(result));\n        }\n    }\n}\n",
  "sourcePath": "C:\\Users\\James\\projects\\zygo\\blockchain\\contracts\\uniswapv2\\libraries\\FixedPoint.sol",
  "compiler": {
    "name": "solc",
    "version": "0.7.5+commit.eb77ed08.Emscripten.clang"
  },
  "schemaVersion": "3.3.2",
  "updatedAt": "2021-01-31T13:06:19.747Z",
  "devdoc": {
    "kind": "dev",
    "methods": {},
    "version": 1
  },
  "userdoc": {
    "kind": "user",
    "methods": {},
    "version": 1
  }
}