{
  "contractName": "GameEvents",
  "abi": [
    {
      "inputs": [
        {
          "internalType": "uint256",
          "name": "_seed",
          "type": "uint256"
        }
      ],
      "name": "setSeed",
      "outputs": [],
      "stateMutability": "nonpayable",
      "type": "function"
    },
    {
      "inputs": [
        {
          "internalType": "address",
          "name": "_gameStorage",
          "type": "address"
        }
      ],
      "name": "initialize",
      "outputs": [],
      "stateMutability": "nonpayable",
      "type": "function"
    },
    {
      "inputs": [],
      "name": "generate",
      "outputs": [
        {
          "internalType": "uint256",
          "name": "",
          "type": "uint256"
        }
      ],
      "stateMutability": "nonpayable",
      "type": "function"
    },
    {
      "inputs": [
        {
          "internalType": "address",
          "name": "gameEvent",
          "type": "address"
        }
      ],
      "name": "add",
      "outputs": [],
      "stateMutability": "nonpayable",
      "type": "function"
    },
    {
      "inputs": [
        {
          "internalType": "address",
          "name": "user",
          "type": "address"
        }
      ],
      "name": "trigger",
      "outputs": [],
      "stateMutability": "nonpayable",
      "type": "function"
    },
    {
      "inputs": [
        {
          "internalType": "address",
          "name": "to",
          "type": "address"
        },
        {
          "internalType": "uint256",
          "name": "yield",
          "type": "uint256"
        }
      ],
      "name": "createPlanet",
      "outputs": [],
      "stateMutability": "nonpayable",
      "type": "function"
    },
    {
      "inputs": [
        {
          "internalType": "address",
          "name": "to",
          "type": "address"
        },
        {
          "internalType": "uint256[]",
          "name": "ids",
          "type": "uint256[]"
        },
        {
          "internalType": "uint256[]",
          "name": "amounts",
          "type": "uint256[]"
        }
      ],
      "name": "giveSats",
      "outputs": [],
      "stateMutability": "nonpayable",
      "type": "function"
    },
    {
      "inputs": [
        {
          "internalType": "address",
          "name": "from",
          "type": "address"
        },
        {
          "internalType": "uint256[]",
          "name": "ids",
          "type": "uint256[]"
        },
        {
          "internalType": "uint256[]",
          "name": "amounts",
          "type": "uint256[]"
        }
      ],
      "name": "takeSats",
      "outputs": [],
      "stateMutability": "nonpayable",
      "type": "function"
    },
    {
      "inputs": [
        {
          "internalType": "address",
          "name": "to",
          "type": "address"
        },
        {
          "internalType": "uint256",
          "name": "amount",
          "type": "uint256"
        }
      ],
      "name": "giveSolar",
      "outputs": [],
      "stateMutability": "nonpayable",
      "type": "function"
    },
    {
      "inputs": [
        {
          "internalType": "address",
          "name": "from",
          "type": "address"
        },
        {
          "internalType": "uint256",
          "name": "amount",
          "type": "uint256"
        }
      ],
      "name": "takeSolar",
      "outputs": [],
      "stateMutability": "nonpayable",
      "type": "function"
    }
  ],
  "bytecode": "0x6080604052600160345534801561001557600080fd5b50610bec806100256000396000f3fe608060405234801561001057600080fd5b506004361061009e5760003560e01c806342c86c321161006657806342c86c321461010f5780636f6ff40514610122578063c32a50f914610135578063c4d66de814610148578063da79361e1461015b5761009e565b80630a3b0a4f146100a35780630ac35129146100b857806313388138146100cb5780632a1bbc34146100de5780633b12de64146100fc575b600080fd5b6100b66100b1366004610944565b61016e565b005b6100b66100c63660046109f6565b61031a565b6100b66100d9366004610983565b61034c565b6100e66103b7565b6040516100f39190610b70565b60405180910390f35b6100b661010a3660046109f6565b610450565b6100b661011d366004610983565b610482565b6100b6610130366004610944565b6104b6565b6100b6610143366004610a21565b6105f0565b6100b6610156366004610944565b6105f5565b6100b66101693660046109f6565b610736565b6035546040805163f478fca160e01b815290516000926001600160a01b03169163f478fca191600480830192602092919082900301818787803b1580156101b457600080fd5b505af11580156101c8573d6000803e3d6000fd5b505050506040513d601f19601f820116820180604052508101906101ec9190610a39565b6035546040516358ff3c0f60e11b815260019290920192506001600160a01b03169063b1fe781e906102249084908690600401610b79565b600060405180830381600087803b15801561023e57600080fd5b505af1158015610252573d6000803e3d6000fd5b505060405163fe4b84df60e01b81526001600160a01b038516925063fe4b84df9150610282908490600401610b70565b600060405180830381600087803b15801561029c57600080fd5b505af11580156102b0573d6000803e3d6000fd5b50506035546040516358996aa360e01b81526001600160a01b0390911692506358996aa391506102e4908490600401610b70565b600060405180830381600087803b1580156102fe57600080fd5b505af1158015610312573d6000803e3d6000fd5b505050505050565b60365460405163410f29d360e01b81526001600160a01b039091169063410f29d3906102e49085908590600401610b09565b60365460405163feba2dd560e01b81526001600160a01b039091169063feba2dd59061038090869086908690600401610ac9565b600060405180830381600087803b15801561039a57600080fd5b505af11580156103ae573d6000803e3d6000fd5b50505050505050565b600061044b6000603560009054906101000a90046001600160a01b03166001600160a01b031663f478fca16040518163ffffffff1660e01b8152600401602060405180830381600087803b15801561040e57600080fd5b505af1158015610422573d6000803e3d6000fd5b505050506040513d601f19601f820116820180604052508101906104469190610a39565b61084b565b905090565b60365460405163e9f40eb960e01b81526001600160a01b039091169063e9f40eb9906102e49085908590600401610b09565b60365460405163ba1edf1760e01b81526001600160a01b039091169063ba1edf179061038090869086908690600401610ac9565b603554604051635851324360e01b81526000916001600160a01b0316906358513243906104e7908590600401610ab5565b602060405180830381600087803b15801561050157600080fd5b505af1158015610515573d6000803e3d6000fd5b505050506040513d601f19601f820116820180604052508101906105399190610a39565b603554604051637155d83f60e01b81529192506000916001600160a01b0390911690637155d83f9061056f908590600401610b70565b602060405180830381600087803b15801561058957600080fd5b505af115801561059d573d6000803e3d6000fd5b505050506040513d601f19601f820116820180604052508101906105c19190610967565b604051636e85940f60e11b81529091506001600160a01b0382169063dd0b281e90610380908690600401610ab5565b603355565b600054610100900460ff168061060e575061060e6108ab565b8061061c575060005460ff16155b6106415760405162461bcd60e51b815260040161063890610b22565b60405180910390fd5b600054610100900460ff1615801561066c576000805460ff1961ff0019909116610100171660011790555b603580546001600160a01b0319166001600160a01b03848116919091179182905560408051633800918160e21b81529051929091169163e002460491600480820192602092909190829003018186803b1580156106c857600080fd5b505afa1580156106dc573d6000803e3d6000fd5b505050506040513d601f19601f820116820180604052508101906107009190610967565b603680546001600160a01b0319166001600160a01b03929092169190911790558015610732576000805461ff00191690555b5050565b6035546040805163257e936f60e01b815290516000926001600160a01b03169163257e936f91600480830192602092919082900301818787803b15801561077c57600080fd5b505af1158015610790573d6000803e3d6000fd5b505050506040513d601f19601f820116820180604052508101906107b49190610a39565b6035546040516325843d9160e11b81529192506001600160a01b031690634b087b22906107e79084908690600401610b90565b600060405180830381600087803b15801561080157600080fd5b505af1158015610815573d6000803e3d6000fd5b505060365460405163375e347160e21b81526001600160a01b03909116925063dd78d1c491506103809086908590600401610b09565b6000813360335460345460405160200161086793929190610a8b565b6040516020818303038152906040528051906020012060001c8161088757fe5b069050828110610897578061089b565b8281015b6034805460010190559392505050565b303b1590565b600082601f8301126108c1578081fd5b813567ffffffffffffffff808211156108d8578283fd5b6020808302604051828282010181811085821117156108f5578687fd5b60405284815294508185019250858201818701830188101561091657600080fd5b600091505b8482101561093957803584529282019260019190910190820161091b565b505050505092915050565b600060208284031215610955578081fd5b813561096081610b9e565b9392505050565b600060208284031215610978578081fd5b815161096081610b9e565b600080600060608486031215610997578182fd5b83356109a281610b9e565b9250602084013567ffffffffffffffff808211156109be578384fd5b6109ca878388016108b1565b935060408601359150808211156109df578283fd5b506109ec868287016108b1565b9150509250925092565b60008060408385031215610a08578182fd5b8235610a1381610b9e565b946020939093013593505050565b600060208284031215610a32578081fd5b5035919050565b600060208284031215610a4a578081fd5b5051919050565b6000815180845260208085019450808401835b83811015610a8057815187529582019590820190600101610a64565b509495945050505050565b60609390931b6bffffffffffffffffffffffff191683526014830191909152603482015260540190565b6001600160a01b0391909116815260200190565b6001600160a01b0384168152606060208201819052600090610aed90830185610a51565b8281036040840152610aff8185610a51565b9695505050505050565b6001600160a01b03929092168252602082015260400190565b6020808252602e908201527f436f6e747261637420696e7374616e63652068617320616c726561647920626560408201526d195b881a5b9a5d1a585b1a5e995960921b606082015260800190565b90815260200190565b9182526001600160a01b0316602082015260400190565b918252602082015260400190565b6001600160a01b0381168114610bb357600080fd5b5056fea2646970667358221220ee9da1d67b143ec37e6bec4a375d7ff78660f3a455953aa0a6090adcd14c7b5764736f6c634300060c0033",
  "immutableReferences": {},
  "source": "// SPDX-License-Identifier: MIT\n\npragma solidity 0.6.12;\npragma experimental ABIEncoderV2;\n\nimport {Initializable} from '@openzeppelin/upgrades-core/contracts/Initializable.sol';\nimport {Types} from './lib/Types.sol';\nimport {ITreasury} from './interfaces/ITreasury.sol';\nimport {GameStorage} from './GameStorage.sol';\nimport {IGameEvent} from './interfaces/IGameEvent.sol';\nimport {Random} from './Random.sol';\n\ncontract GameEvents is Initializable, Random {\n    GameStorage GS;\n    ITreasury TS;\n\n    /**\n     *   Initialize - init function\n     *   @param _gameStorage - the address of the games eternal storage\n     */\n    function initialize(address _gameStorage) public initializer {\n        GS = GameStorage(_gameStorage);\n        TS = ITreasury(GS.getTreasuryAddress());\n    }\n\n    /**\n     *  generate - Generates a random GameEvent id\n     *  @return a random GameEvent Id\n     */\n    function generate() public returns (uint256) {\n        return randomrange(0, GS.getTotalGameEvents());\n    }\n\n    /**\n     *  add - Adds a new game event contract\n     *  @param gameEvent - the address of the game Event contract\n     */\n    function add(address gameEvent) public {\n        uint256 id = GS.getTotalGameEvents() + 1;\n        GS.setGameEventIdToAddress(id, gameEvent);\n        IGameEvent(gameEvent).initialize(id);\n        GS.setTotalGameEvents(id);\n    }\n\n    function trigger(address user) public {\n        uint256 _id = GS.getUserAddressToGameEvent(user);\n        address _address = GS.getGameEventIdToAddress(_id);\n        IGameEvent(_address).start(user);\n    }\n\n    function createPlanet(address to, uint256 yield) public {\n        uint256 _id = GS.incrementTotalPlanets();\n        GS.setTokenIdToYield(_id, yield);\n        TS.mintPlanet(to, _id);\n    }\n\n    function giveSats(\n        address to,\n        uint256[] memory ids,\n        uint256[] memory amounts\n    ) public {\n        TS.sendSats(to, ids, amounts);\n    }\n\n    function takeSats(\n        address from,\n        uint256[] memory ids,\n        uint256[] memory amounts\n    ) public {\n        TS.recieveSats(from, ids, amounts);\n    }\n\n    function giveSolar(address to, uint256 amount) public {\n        TS.sendSolar(to, amount);\n    }\n\n    function takeSolar(address from, uint256 amount) public {\n        TS.recieveSolar(from, amount);\n    }\n}\n",
  "sourcePath": "C:\\Users\\James\\projects\\tsuno-fe\\contracts\\GameEvents.sol",
  "compiler": {
    "name": "solc",
    "version": "0.6.12+commit.27d51765.Emscripten.clang"
  },
  "schemaVersion": "3.2.5",
  "updatedAt": "2020-11-15T18:28:43.938Z",
  "networkType": "ethereum",
  "devdoc": {
    "kind": "dev",
    "methods": {
      "add(address)": {
        "params": {
          "gameEvent": "- the address of the game Event contract"
        }
      },
      "generate()": {
        "returns": {
          "_0": "a random GameEvent Id"
        }
      },
      "initialize(address)": {
        "params": {
          "_gameStorage": "- the address of the games eternal storage"
        }
      }
    },
    "version": 1
  },
  "userdoc": {
    "kind": "user",
    "methods": {
      "add(address)": {
        "notice": "add - Adds a new game event contract"
      },
      "generate()": {
        "notice": "generate - Generates a random GameEvent id"
      },
      "initialize(address)": {
        "notice": "Initialize - init function"
      }
    },
    "version": 1
  }
}