{
  "contractName": "GameStorage",
  "abi": [
    {
      "anonymous": false,
      "inputs": [
        {
          "indexed": true,
          "internalType": "address",
          "name": "previousOwner",
          "type": "address"
        },
        {
          "indexed": true,
          "internalType": "address",
          "name": "newOwner",
          "type": "address"
        }
      ],
      "name": "OwnershipTransferred",
      "type": "event"
    },
    {
      "inputs": [],
      "name": "owner",
      "outputs": [
        {
          "internalType": "address",
          "name": "",
          "type": "address"
        }
      ],
      "stateMutability": "view",
      "type": "function",
      "constant": true
    },
    {
      "inputs": [],
      "name": "planetImplementation",
      "outputs": [
        {
          "internalType": "address",
          "name": "",
          "type": "address"
        }
      ],
      "stateMutability": "view",
      "type": "function",
      "constant": true
    },
    {
      "inputs": [],
      "name": "renounceOwnership",
      "outputs": [],
      "stateMutability": "nonpayable",
      "type": "function"
    },
    {
      "inputs": [],
      "name": "resetConstants",
      "outputs": [],
      "stateMutability": "nonpayable",
      "type": "function"
    },
    {
      "inputs": [
        {
          "internalType": "uint256",
          "name": "_seed",
          "type": "uint256"
        }
      ],
      "name": "setSeed",
      "outputs": [],
      "stateMutability": "nonpayable",
      "type": "function"
    },
    {
      "inputs": [
        {
          "internalType": "address",
          "name": "newOwner",
          "type": "address"
        }
      ],
      "name": "transferOwnership",
      "outputs": [],
      "stateMutability": "nonpayable",
      "type": "function"
    },
    {
      "inputs": [
        {
          "internalType": "address",
          "name": "_solar",
          "type": "address"
        },
        {
          "internalType": "address",
          "name": "_sat",
          "type": "address"
        },
        {
          "internalType": "address",
          "name": "_planets",
          "type": "address"
        },
        {
          "internalType": "address",
          "name": "_treasury",
          "type": "address"
        },
        {
          "internalType": "address",
          "name": "_planetManager",
          "type": "address"
        },
        {
          "internalType": "address",
          "name": "_gameOperations",
          "type": "address"
        },
        {
          "internalType": "address",
          "name": "_gameEvents",
          "type": "address"
        }
      ],
      "name": "initialize",
      "outputs": [],
      "stateMutability": "nonpayable",
      "type": "function"
    },
    {
      "inputs": [
        {
          "internalType": "address",
          "name": "_operator",
          "type": "address"
        }
      ],
      "name": "addOperator",
      "outputs": [],
      "stateMutability": "nonpayable",
      "type": "function"
    },
    {
      "inputs": [],
      "name": "getSolarAddress",
      "outputs": [
        {
          "internalType": "address",
          "name": "",
          "type": "address"
        }
      ],
      "stateMutability": "view",
      "type": "function",
      "constant": true
    },
    {
      "inputs": [],
      "name": "getPlanetManagerAddress",
      "outputs": [
        {
          "internalType": "address",
          "name": "",
          "type": "address"
        }
      ],
      "stateMutability": "view",
      "type": "function",
      "constant": true
    },
    {
      "inputs": [],
      "name": "getPlanetsAddress",
      "outputs": [
        {
          "internalType": "address",
          "name": "",
          "type": "address"
        }
      ],
      "stateMutability": "view",
      "type": "function",
      "constant": true
    },
    {
      "inputs": [],
      "name": "getSatAddress",
      "outputs": [
        {
          "internalType": "address",
          "name": "",
          "type": "address"
        }
      ],
      "stateMutability": "view",
      "type": "function",
      "constant": true
    },
    {
      "inputs": [],
      "name": "getTreasuryAddress",
      "outputs": [
        {
          "internalType": "address",
          "name": "",
          "type": "address"
        }
      ],
      "stateMutability": "view",
      "type": "function",
      "constant": true
    },
    {
      "inputs": [],
      "name": "getGameEventsAddress",
      "outputs": [
        {
          "internalType": "address",
          "name": "",
          "type": "address"
        }
      ],
      "stateMutability": "view",
      "type": "function",
      "constant": true
    },
    {
      "inputs": [
        {
          "internalType": "address",
          "name": "_address",
          "type": "address"
        }
      ],
      "name": "getProxyAddressToTokenId",
      "outputs": [
        {
          "internalType": "uint256",
          "name": "",
          "type": "uint256"
        }
      ],
      "stateMutability": "view",
      "type": "function",
      "constant": true
    },
    {
      "inputs": [
        {
          "internalType": "uint256",
          "name": "token",
          "type": "uint256"
        },
        {
          "internalType": "address",
          "name": "_address",
          "type": "address"
        }
      ],
      "name": "setProxyAddressToTokenId",
      "outputs": [],
      "stateMutability": "nonpayable",
      "type": "function"
    },
    {
      "inputs": [
        {
          "internalType": "uint256",
          "name": "_token",
          "type": "uint256"
        }
      ],
      "name": "getTokenIdToProxyAddress",
      "outputs": [
        {
          "internalType": "address",
          "name": "",
          "type": "address"
        }
      ],
      "stateMutability": "view",
      "type": "function",
      "constant": true
    },
    {
      "inputs": [
        {
          "internalType": "uint256",
          "name": "token",
          "type": "uint256"
        },
        {
          "internalType": "address",
          "name": "_address",
          "type": "address"
        }
      ],
      "name": "setTokenIdToProxyAddress",
      "outputs": [],
      "stateMutability": "nonpayable",
      "type": "function"
    },
    {
      "inputs": [],
      "name": "incrementTotalPlanets",
      "outputs": [
        {
          "internalType": "uint256",
          "name": "",
          "type": "uint256"
        }
      ],
      "stateMutability": "nonpayable",
      "type": "function"
    },
    {
      "inputs": [
        {
          "internalType": "uint256",
          "name": "tokenId",
          "type": "uint256"
        },
        {
          "internalType": "uint256",
          "name": "yield",
          "type": "uint256"
        }
      ],
      "name": "setTokenIdToYield",
      "outputs": [],
      "stateMutability": "nonpayable",
      "type": "function"
    },
    {
      "inputs": [
        {
          "internalType": "uint256",
          "name": "tokenId",
          "type": "uint256"
        }
      ],
      "name": "getTokenIdToYield",
      "outputs": [
        {
          "internalType": "uint256",
          "name": "",
          "type": "uint256"
        }
      ],
      "stateMutability": "view",
      "type": "function",
      "constant": true
    },
    {
      "inputs": [],
      "name": "getTotalPlanets",
      "outputs": [
        {
          "internalType": "uint256",
          "name": "",
          "type": "uint256"
        }
      ],
      "stateMutability": "view",
      "type": "function",
      "constant": true
    },
    {
      "inputs": [
        {
          "internalType": "uint256",
          "name": "number",
          "type": "uint256"
        }
      ],
      "name": "setTotalPlanets",
      "outputs": [],
      "stateMutability": "nonpayable",
      "type": "function"
    },
    {
      "inputs": [],
      "name": "getPlanetImplementation",
      "outputs": [
        {
          "internalType": "address",
          "name": "",
          "type": "address"
        }
      ],
      "stateMutability": "view",
      "type": "function",
      "constant": true
    },
    {
      "inputs": [],
      "name": "getStartPosition",
      "outputs": [
        {
          "components": [
            {
              "internalType": "uint8",
              "name": "quadrant",
              "type": "uint8"
            },
            {
              "internalType": "uint8",
              "name": "sector",
              "type": "uint8"
            },
            {
              "internalType": "uint8",
              "name": "district",
              "type": "uint8"
            },
            {
              "internalType": "uint256",
              "name": "star",
              "type": "uint256"
            }
          ],
          "internalType": "struct Types.Position",
          "name": "",
          "type": "tuple"
        }
      ],
      "stateMutability": "view",
      "type": "function",
      "constant": true
    },
    {
      "inputs": [],
      "name": "getBoundaries",
      "outputs": [
        {
          "components": [
            {
              "internalType": "uint8",
              "name": "quadrant",
              "type": "uint8"
            },
            {
              "internalType": "uint8",
              "name": "sector",
              "type": "uint8"
            },
            {
              "internalType": "uint8",
              "name": "district",
              "type": "uint8"
            },
            {
              "internalType": "uint256",
              "name": "star",
              "type": "uint256"
            }
          ],
          "internalType": "struct Types.Position",
          "name": "",
          "type": "tuple"
        }
      ],
      "stateMutability": "view",
      "type": "function",
      "constant": true
    },
    {
      "inputs": [
        {
          "internalType": "address",
          "name": "fleet",
          "type": "address"
        },
        {
          "components": [
            {
              "internalType": "uint8",
              "name": "quadrant",
              "type": "uint8"
            },
            {
              "internalType": "uint8",
              "name": "sector",
              "type": "uint8"
            },
            {
              "internalType": "uint8",
              "name": "district",
              "type": "uint8"
            },
            {
              "internalType": "uint256",
              "name": "star",
              "type": "uint256"
            }
          ],
          "internalType": "struct Types.Position",
          "name": "pos",
          "type": "tuple"
        }
      ],
      "name": "setMasterFleetPosition",
      "outputs": [],
      "stateMutability": "nonpayable",
      "type": "function"
    },
    {
      "inputs": [
        {
          "internalType": "address",
          "name": "fleet",
          "type": "address"
        }
      ],
      "name": "getMasterFleetPosition",
      "outputs": [
        {
          "components": [
            {
              "internalType": "uint8",
              "name": "quadrant",
              "type": "uint8"
            },
            {
              "internalType": "uint8",
              "name": "sector",
              "type": "uint8"
            },
            {
              "internalType": "uint8",
              "name": "district",
              "type": "uint8"
            },
            {
              "internalType": "uint256",
              "name": "star",
              "type": "uint256"
            }
          ],
          "internalType": "struct Types.Position",
          "name": "",
          "type": "tuple"
        }
      ],
      "stateMutability": "view",
      "type": "function",
      "constant": true
    },
    {
      "inputs": [],
      "name": "getMaxRoll",
      "outputs": [
        {
          "internalType": "uint256",
          "name": "",
          "type": "uint256"
        }
      ],
      "stateMutability": "view",
      "type": "function",
      "constant": true
    },
    {
      "inputs": [
        {
          "internalType": "address",
          "name": "user",
          "type": "address"
        }
      ],
      "name": "getUserAddressToGameEvent",
      "outputs": [
        {
          "internalType": "uint256",
          "name": "",
          "type": "uint256"
        }
      ],
      "stateMutability": "nonpayable",
      "type": "function"
    },
    {
      "inputs": [
        {
          "internalType": "address",
          "name": "user",
          "type": "address"
        },
        {
          "internalType": "uint256",
          "name": "gameEvent",
          "type": "uint256"
        }
      ],
      "name": "setUserAddressToGameEvent",
      "outputs": [],
      "stateMutability": "nonpayable",
      "type": "function"
    },
    {
      "inputs": [
        {
          "internalType": "uint256",
          "name": "gameEvent",
          "type": "uint256"
        }
      ],
      "name": "getGameEventIdToAddress",
      "outputs": [
        {
          "internalType": "address",
          "name": "",
          "type": "address"
        }
      ],
      "stateMutability": "nonpayable",
      "type": "function"
    },
    {
      "inputs": [
        {
          "internalType": "uint256",
          "name": "gameEvent",
          "type": "uint256"
        },
        {
          "internalType": "address",
          "name": "_address",
          "type": "address"
        }
      ],
      "name": "setGameEventIdToAddress",
      "outputs": [],
      "stateMutability": "nonpayable",
      "type": "function"
    },
    {
      "inputs": [],
      "name": "getTotalGameEvents",
      "outputs": [
        {
          "internalType": "uint256",
          "name": "",
          "type": "uint256"
        }
      ],
      "stateMutability": "nonpayable",
      "type": "function"
    },
    {
      "inputs": [
        {
          "internalType": "uint256",
          "name": "amount",
          "type": "uint256"
        }
      ],
      "name": "setTotalGameEvents",
      "outputs": [],
      "stateMutability": "nonpayable",
      "type": "function"
    },
    {
      "inputs": [
        {
          "internalType": "enum Types.SystemType",
          "name": "systemType",
          "type": "uint8"
        }
      ],
      "name": "getAiFleetInfo",
      "outputs": [
        {
          "internalType": "uint256",
          "name": "offense",
          "type": "uint256"
        },
        {
          "internalType": "uint256",
          "name": "defense",
          "type": "uint256"
        }
      ],
      "stateMutability": "nonpayable",
      "type": "function"
    },
    {
      "inputs": [],
      "name": "getTotalSats",
      "outputs": [
        {
          "internalType": "uint256",
          "name": "",
          "type": "uint256"
        }
      ],
      "stateMutability": "view",
      "type": "function",
      "constant": true
    },
    {
      "inputs": [
        {
          "internalType": "uint256",
          "name": "satType",
          "type": "uint256"
        }
      ],
      "name": "getSatInfo",
      "outputs": [
        {
          "internalType": "uint256",
          "name": "offense",
          "type": "uint256"
        },
        {
          "internalType": "uint256",
          "name": "defense",
          "type": "uint256"
        }
      ],
      "stateMutability": "view",
      "type": "function",
      "constant": true
    },
    {
      "inputs": [
        {
          "internalType": "uint256[]",
          "name": "ids",
          "type": "uint256[]"
        }
      ],
      "name": "batchGetSatInfo",
      "outputs": [
        {
          "internalType": "uint256[]",
          "name": "offenses",
          "type": "uint256[]"
        },
        {
          "internalType": "uint256[]",
          "name": "defenses",
          "type": "uint256[]"
        }
      ],
      "stateMutability": "view",
      "type": "function",
      "constant": true
    }
  ],
  "bytecode": "0x60806040526001805534801561001457600080fd5b50600061001f610072565b602880546001600160a01b0319166001600160a01b038316908117909155604051919250906000907f8be0079c531659141344cd1fd0a4f28419497f9722a3daafe3b4186f6b6457e0908290a350610076565b3390565b6114b2806100856000396000f3fe608060405234801561001057600080fd5b506004361061023d5760003560e01c806377285f491161013b578063c774a94e116100b8578063ed299a521161007c578063ed299a5214610466578063f2fde38b1461046e578063f478fca114610481578063f52084e914610489578063f9a64b4c1461049c5761023d565b8063c774a94e1461041a578063cf677f571461042d578063e002460414610435578063e011d8361461043d578063e2cd08621461045e5761023d565b8063ae138875116100ff578063ae138875146103c6578063b1fe781e146103ce578063bedc6d27146103e1578063bf2837e0146103f4578063c32a50f9146104075761023d565b806377285f49146103885780638da5cb5b146103905780639870d7fe146103985780639d8e4e56146103ab578063a5ac0c86146103be5761023d565b806358513243116101c95780636d18c9701161018d5780636d18c9701461034a5780636ec6883d14610352578063715018a61461035a5780637155d83f1461036257806375997ce9146103755761023d565b806358513243146102e957806358996aa3146102fc5780635beec2bb1461030f578063692b4fc6146103175780636a2a7473146103375761023d565b8063358764761161021057806335876476146102875780633dd742c91461029a578063426d3f08146102a2578063478a1dba146102c35780634b087b22146102d65761023d565b806311217c5e14610242578063123cfce11461024c578063257e936f1461026a5780632aee7c9a1461027f575b600080fd5b61024a6104af565b005b6102546107c4565b60405161026191906112e9565b60405180910390f35b6102726107d3565b6040516102619190611406565b61025461081a565b61024a61029536600461102b565b610829565b6102546108a5565b6102b56102b0366004611220565b6108b4565b60405161026192919061140f565b61024a6102d1366004611220565b6108d3565b61024a6102e4366004611264565b6108d8565b6102726102f7366004611009565b6108ea565b61024a61030a366004611220565b610905565b61025461090a565b61032a610325366004611009565b610919565b60405161026191906113cd565b6102b5610345366004611201565b61097a565b61032a610a3b565b610254610a7e565b61024a610a8d565b610254610370366004611220565b610b0c565b61024a610383366004611238565b610b27565b610272610b41565b610254610b47565b61024a6103a6366004611009565b610b56565b6102726103b9366004611009565b610baf565b610254610bca565b610254610bd9565b61024a6103dc366004611238565b610be8565b61024a6103ef3660046110c0565b610c16565b610272610402366004611220565b610c7e565b61024a610415366004611220565b610c90565b61024a610428366004611142565b610c95565b61032a610cb1565b610254610cf4565b61045061044b36600461116c565b610d03565b6040516102619291906112fd565b610272610e00565b610272610e06565b61024a61047c366004611009565b610e0c565b610272610ec3565b61024a610497366004611238565b610ec9565b6102546104aa366004611220565b610ef7565b6001601c819055604b601d819055604c601e556096601f819055609760209081556101906021556101916022556103e860238190556040805160808082018352878252600782860152818301889052602a6060928301819052601180546201000060ff19918216909b1761ff00199081166107001762ff0000199081169c909c179092556012928355855193840186526004808552601598850198909852600895840195909552919092018490526013805484169095178116611500179097166208000017909355601491909155612710601855602480548216831786166132001790556025805482169094178516614b001790935560268054909316909117909216619600179055601a55600e601b556105c8610f75565b50604080516102608101825260096102208201818152610240830191909152815281518083018352600a80825260208281018290528084019290925283518085018552600f8082528184018190528486019190915284518086018652600280825281850152606085015284518086018652600c808252818501819052608086019190915285518087018752600d8082528186015260a08601528551808701875283815280850184905260c08601528551808701875260038082528186015260e0860152855180870187528281528085018390526101008601528551808701875282815280850192909252610120850191909152845180860186526014808252818501819052610140860191909152855180870187526005808252818601526101608601528551808701875281815280850191909152610180850152845180860186526015808252818501526101a085015284518086018652601e808252818501526101c085015284518086018652828152808401929092526101e084019190915283518085019094528084529083015261020081019190915260005b60118110156107c05781816011811061077957fe5b602090810291909101516000838152600983526040902081518154929093015160ff1990921660ff9384161761ff0019166101009390921692909202179055600101610764565b5050565b600b546001600160a01b031690565b3360009081526016602052604081205460ff1661080b5760405162461bcd60e51b8152600401610802906113a6565b60405180910390fd5b50601980546001019081905590565b6015546001600160a01b031690565b600b80546001600160a01b03199081166001600160a01b038a811691909117909255600e80548216898416179055600d80548216888416179055600f80548216878416179055600c80548216868416179055601080549091169183169190911790556108936104af565b61089c82610b56565b50505050505050565b600c546001600160a01b031690565b60009081526009602052604090205460ff808216926101009092041690565b601955565b60009182526007602052604090912055565b6001600160a01b031660009081526003602052604090205490565b601b55565b600e546001600160a01b031690565b610921610fa3565b506001600160a01b03166000908152600860209081526040918290208251608081018452815460ff8082168352610100820481169483019490945262010000900490921692820192909252600190910154606082015290565b600080600583601481111561098b57fe5b14156109c55760245460ff808216916101009004166109aa8282610f12565b93506109bc8260ff168260ff16610f12565b92505050610a36565b60038360148111156109d357fe5b14156109f25760255460ff808216916101009004166109aa8282610f12565b6001836014811115610a0057fe5b1415610a365760275460ff80821691610100900416610a1f8282610f12565b9350610a318260ff168260ff16610f12565b925050505b915091565b610a43610fa3565b506040805160808101825260115460ff8082168352610100820481166020840152620100009091041691810191909152601254606082015290565b6010546001600160a01b031690565b610a95610f71565b6028546001600160a01b03908116911614610ac25760405162461bcd60e51b815260040161080290611371565b6028546040516000916001600160a01b0316907f8be0079c531659141344cd1fd0a4f28419497f9722a3daafe3b4186f6b6457e0908390a3602880546001600160a01b0319169055565b6000908152600260205260409020546001600160a01b031690565b6001600160a01b0316600090815260056020526040902055565b60185490565b6028546001600160a01b031690565b610b5e610f71565b6028546001600160a01b03908116911614610b8b5760405162461bcd60e51b815260040161080290611371565b6001600160a01b03166000908152601660205260409020805460ff19166001179055565b6001600160a01b031660009081526005602052604090205490565b600d546001600160a01b031690565b6015546001600160a01b031681565b60009182526002602052604090912080546001600160a01b0319166001600160a01b03909216919091179055565b6001600160a01b0390911660009081526008602090815260409182902083518154928501519385015160ff908116620100000262ff0000199582166101000261ff00199290931660ff1990951694909417161792909216178155606090910151600190910155565b60009081526007602052604090205490565b600055565b6001600160a01b03909116600090815260036020526040902055565b610cb9610fa3565b506040805160808101825260135460ff8082168352610100820481166020840152620100009091041691810191909152601454606082015290565b600f546001600160a01b031690565b606080825167ffffffffffffffff81118015610d1e57600080fd5b50604051908082528060200260200182016040528015610d48578160200160208202803683370190505b509150825167ffffffffffffffff81118015610d6357600080fd5b50604051908082528060200260200182016040528015610d8d578160200160208202803683370190505b50905060005b8351811015610dfa57600080610dbb868481518110610dae57fe5b60200260200101516108b4565b9150915081858481518110610dcc57fe5b60200260200101818152505080848481518110610de557fe5b60209081029190910101525050600101610d93565b50915091565b601a5490565b60195490565b610e14610f71565b6028546001600160a01b03908116911614610e415760405162461bcd60e51b815260040161080290611371565b6001600160a01b038116610e675760405162461bcd60e51b81526004016108029061132b565b6028546040516001600160a01b038084169216907f8be0079c531659141344cd1fd0a4f28419497f9722a3daafe3b4186f6b6457e090600090a3602880546001600160a01b0319166001600160a01b0392909216919091179055565b601b5490565b60009182526006602052604090912080546001600160a01b0319166001600160a01b03909216919091179055565b6000908152600660205260409020546001600160a01b031690565b600080546001546040518492610f2c9233926020016112bf565b6040516020818303038152906040528051906020012060001c81610f4c57fe5b069050828110610f5c5780610f60565b8281015b600180548101905590505b92915050565b3390565b6040518061022001604052806011905b610f8d610fca565b815260200190600190039081610f855790505090565b60408051608081018252600080825260208201819052918101829052606081019190915290565b604080518082019091526000808252602082015290565b80356001600160a01b0381168114610f6b57600080fd5b803560ff81168114610f6b57600080fd5b60006020828403121561101a578081fd5b6110248383610fe1565b9392505050565b600080600080600080600060e0888a031215611045578283fd5b873561105081611464565b9650602088013561106081611464565b9550604088013561107081611464565b9450606088013561108081611464565b9350608088013561109081611464565b925060a08801356110a081611464565b915060c08801356110b081611464565b8091505092959891949750929550565b60008082840360a08112156110d3578283fd5b83356110de81611464565b92506080601f19820112156110f1578182fd5b506110fc608061141d565b6111098560208601610ff8565b81526111188560408601610ff8565b602082015261112a8560608601610ff8565b60408201526080939093013560608401525092909150565b60008060408385031215611154578182fd5b61115e8484610fe1565b946020939093013593505050565b6000602080838503121561117e578182fd5b823567ffffffffffffffff811115611194578283fd5b8301601f810185136111a4578283fd5b80356111b76111b282611444565b61141d565b81815283810190838501858402850186018910156111d3578687fd5b8694505b838510156111f55780358352600194909401939185019185016111d7565b50979650505050505050565b600060208284031215611212578081fd5b813560158110611024578182fd5b600060208284031215611231578081fd5b5035919050565b6000806040838503121561124a578182fd5b8235915061125b8460208501610fe1565b90509250929050565b60008060408385031215611276578182fd5b50508035926020909101359150565b6000815180845260208085019450808401835b838110156112b457815187529582019590820190600101611298565b509495945050505050565b60609390931b6bffffffffffffffffffffffff191683526014830191909152603482015260540190565b6001600160a01b0391909116815260200190565b6000604082526113106040830185611285565b82810360208401526113228185611285565b95945050505050565b60208082526026908201527f4f776e61626c653a206e6577206f776e657220697320746865207a65726f206160408201526564647265737360d01b606082015260800190565b6020808252818101527f4f776e61626c653a2063616c6c6572206973206e6f7420746865206f776e6572604082015260600190565b6020808252600d908201526c27b7363c9027b832b930ba37b960991b604082015260600190565b600060808201905060ff835116825260ff602084015116602083015260ff60408401511660408301526060830151606083015292915050565b90815260200190565b918252602082015260400190565b60405181810167ffffffffffffffff8111828210171561143c57600080fd5b604052919050565b600067ffffffffffffffff82111561145a578081fd5b5060209081020190565b6001600160a01b038116811461147957600080fd5b5056fea2646970667358221220f890cf1b4db05ae9f1ff28187aba7d09963f669d00d5a840838fab6b88b7b2dd64736f6c634300060c0033",
  "immutableReferences": {},
  "source": "pragma solidity 0.6.12;\npragma experimental ABIEncoderV2;\n\nimport {SafeMath} from '@openzeppelin/contracts/math/SafeMath.sol';\nimport {Random} from './Random.sol';\nimport {Types} from './lib/Types.sol';\nimport {Initializable} from '@openzeppelin/upgrades-core/contracts/Initializable.sol';\nimport {Constants} from './Constants.sol';\nimport {Ownable} from '@openzeppelin/contracts/access/Ownable.sol';\n\ncontract GameStorage is Random, Constants, Ownable {\n    using SafeMath for uint256;\n\n    function initialize(\n        address _solar,\n        address _sat,\n        address _planets,\n        address _treasury,\n        address _planetManager,\n        address _gameOperations,\n        address _gameEvents\n    ) public {\n        solar = _solar;\n        sat = _sat;\n        planets = _planets;\n        treasury = _treasury;\n        planetManager = _planetManager;\n        gameEvents = _gameEvents;\n        resetConstants();\n        addOperator(_gameOperations);\n    }\n\n    function addOperator(address _operator) public onlyOwner {\n        operators[_operator] = true;\n    }\n\n    modifier onlyOperator() {\n        // Make sure the access is permitted to only contracts in our Dapp\n        require(operators[msg.sender], 'Only Operator');\n        _;\n    }\n\n    //************** ADDRESSES *********************/\n    function getSolarAddress() public view returns (address) {\n        return solar;\n    }\n\n    function getPlanetManagerAddress() public view returns (address) {\n        return planetManager;\n    }\n\n    function getPlanetsAddress() public view returns (address) {\n        return planets;\n    }\n\n    function getSatAddress() public view returns (address) {\n        return sat;\n    }\n\n    function getTreasuryAddress() public view returns (address) {\n        return treasury;\n    }\n\n    function getGameEventsAddress() public view returns (address) {\n        return gameEvents;\n    }\n\n    //************** PLANET MANAGER *********************/\n    function getProxyAddressToTokenId(address _address) public view returns (uint256) {\n        return proxyAddressToTokenId[_address];\n    }\n\n    function setProxyAddressToTokenId(uint256 token, address _address) public {\n        proxyAddressToTokenId[_address] = token;\n    }\n\n    function getTokenIdToProxyAddress(uint256 _token) public view returns (address) {\n        return tokenIdToProxyAddress[_token];\n    }\n\n    function setTokenIdToProxyAddress(uint256 token, address _address) public {\n        tokenIdToProxyAddress[token] = _address;\n    }\n\n    function incrementTotalPlanets() public onlyOperator returns (uint256) {\n        totalPlanets += 1;\n        return totalPlanets;\n    }\n\n    function setTokenIdToYield(uint256 tokenId, uint256 yield) public {\n        tokenIdToYield[tokenId] = yield;\n    }\n\n    function getTokenIdToYield(uint256 tokenId) public view returns (uint256) {\n        return tokenIdToYield[tokenId];\n    }\n\n    function getTotalPlanets() public view returns (uint256) {\n        return totalPlanets;\n    }\n\n    function setTotalPlanets(uint256 number) public {\n        totalPlanets = number;\n    }\n\n    function getPlanetImplementation() public view returns (address) {\n        return planetImplementation;\n    }\n\n    //************** TRAVERSE *********************/\n    function getStartPosition() public view returns (Types.Position memory) {\n        return startPosition;\n    }\n\n    function getBoundaries() public view returns (Types.Position memory) {\n        return boundaries;\n    }\n\n    function setMasterFleetPosition(address fleet, Types.Position memory pos) public {\n        fleetToPosition[fleet] = pos;\n    }\n\n    function getMasterFleetPosition(address fleet) public view returns (Types.Position memory) {\n        return fleetToPosition[fleet];\n    }\n\n    //************** ROLLING *********************/\n    function getMaxRoll() public view returns (uint256) {\n        return maxRoll;\n    }\n\n    //************** GAME EVENTS *********************/\n    function getUserAddressToGameEvent(address user) public returns (uint256) {\n        return userAddressToGameEvent[user];\n    }\n\n    function setUserAddressToGameEvent(address user, uint256 gameEvent) public {\n        userAddressToGameEvent[user] = gameEvent;\n    }\n\n    function getGameEventIdToAddress(uint256 gameEvent) public returns (address) {\n        return gameEventIdToAddress[gameEvent];\n    }\n\n    function setGameEventIdToAddress(uint256 gameEvent, address _address) public {\n        gameEventIdToAddress[gameEvent] = _address;\n    }\n\n    function getTotalGameEvents() public returns (uint256) {\n        return totalGameEvents;\n    }\n\n    function setTotalGameEvents(uint256 amount) public {\n        totalGameEvents = amount;\n    }\n\n    //************** BATTLING *********************/\n    function getAiFleetInfo(Types.SystemType systemType) public returns (uint256 offense, uint256 defense) {\n        if (systemType == Types.SystemType.AlienFleetAggressive) {\n            uint8 min = easyAiRange.low;\n            uint8 max = easyAiRange.high;\n            offense = randomrange(min, max);\n            defense = randomrange(min, max);\n        } else if (systemType == Types.SystemType.AdvancedAlienFleetAggressive) {\n            uint8 min = mediumAiRange.low;\n            uint8 max = mediumAiRange.high;\n            offense = randomrange(min, max);\n            defense = randomrange(min, max);\n        } else if (systemType == Types.SystemType.AncientFleetAggressive) {\n            uint8 min = insaneAiRange.low;\n            uint8 max = insaneAiRange.high;\n            offense = randomrange(min, max);\n            defense = randomrange(min, max);\n        }\n    }\n\n    function getTotalSats() public view returns (uint256) {\n        return totalSats;\n    }\n\n    function getSatInfo(uint256 satType) public view returns (uint256 offense, uint256 defense) {\n        offense = idToSatStats[satType].offense;\n        defense = idToSatStats[satType].defense;\n    }\n\n    function batchGetSatInfo(uint256[] memory ids)\n        public\n        view\n        returns (uint256[] memory offenses, uint256[] memory defenses)\n    {\n        offenses = new uint256[](ids.length);\n        defenses = new uint256[](ids.length);\n        for (uint256 i = 0; i < ids.length; i++) {\n            (uint256 o, uint256 d) = getSatInfo(ids[i]);\n            offenses[i] = o;\n            defenses[i] = d;\n        }\n    }\n}\n",
  "sourcePath": "C:\\Users\\James\\projects\\tsuno-fe\\contracts\\GameStorage.sol",
  "compiler": {
    "name": "solc",
    "version": "0.6.12+commit.27d51765.Emscripten.clang"
  },
  "schemaVersion": "3.2.5",
  "updatedAt": "2020-11-15T18:28:43.912Z",
  "networkType": "ethereum",
  "devdoc": {
    "kind": "dev",
    "methods": {
      "owner()": {
        "details": "Returns the address of the current owner."
      },
      "renounceOwnership()": {
        "details": "Leaves the contract without owner. It will not be possible to call `onlyOwner` functions anymore. Can only be called by the current owner. NOTE: Renouncing ownership will leave the contract without an owner, thereby removing any functionality that is only available to the owner."
      },
      "transferOwnership(address)": {
        "details": "Transfers ownership of the contract to a new account (`newOwner`). Can only be called by the current owner."
      }
    },
    "version": 1
  },
  "userdoc": {
    "kind": "user",
    "methods": {},
    "version": 1
  }
}