{
  "contractName": "GE_DiscoverPlanet",
  "abi": [
    {
      "anonymous": false,
      "inputs": [
        {
          "indexed": false,
          "internalType": "uint256",
          "name": "eventId",
          "type": "uint256"
        },
        {
          "indexed": true,
          "internalType": "address",
          "name": "user",
          "type": "address"
        }
      ],
      "name": "Logged",
      "type": "event"
    },
    {
      "inputs": [
        {
          "internalType": "uint256",
          "name": "_eventId",
          "type": "uint256"
        }
      ],
      "name": "initialize",
      "outputs": [],
      "stateMutability": "nonpayable",
      "type": "function"
    },
    {
      "inputs": [
        {
          "internalType": "address",
          "name": "user",
          "type": "address"
        }
      ],
      "name": "start",
      "outputs": [],
      "stateMutability": "nonpayable",
      "type": "function"
    }
  ],
  "bytecode": "0x608060405234801561001057600080fd5b5060f58061001f6000396000f3fe6080604052348015600f57600080fd5b506004361060325760003560e01c8063dd0b281e146037578063fe4b84df14605c575b600080fd5b605a60048036036020811015604b57600080fd5b50356001600160a01b03166076565b005b605a60048036036020811015607057600080fd5b503560ba565b60005460408051918252516001600160a01b038316917ff99af082aa0ce619ecb674f5e3ac2ae8265e4c857dc861dc739949306d932295919081900360200190a250565b60005556fea26469706673582212200d018e51b447b5ab5b30ad3a32e2c7f3e7a54fcbedec11bc09aacb6400e2b3be64736f6c634300060c0033",
  "immutableReferences": {},
  "source": "pragma solidity 0.6.12;\n\ncontract GE_DiscoverPlanet {\n    event Logged(uint256 eventId, address indexed user);\n    uint256 eventId;\n\n    function initialize(uint256 _eventId) public {\n        eventId = _eventId;\n    }\n\n    function start(address user) public {\n        emit Logged(eventId, user);\n    }\n\n    function reward() private {}\n}\n",
  "sourcePath": "C:/Users/James/projects/tsuno-fe/contracts/gameEvents/GE_DiscoverPlanet.sol",
  "compiler": {
    "name": "solc",
    "version": "0.6.12+commit.27d51765.Emscripten.clang"
  },
  "schemaVersion": "3.2.5",
  "updatedAt": "2020-11-15T18:28:43.940Z",
  "networkType": "ethereum",
  "devdoc": {
    "kind": "dev",
    "methods": {},
    "version": 1
  },
  "userdoc": {
    "kind": "user",
    "methods": {},
    "version": 1
  }
}