{
  "contractName": "GovernanceStrategy",
  "abi": [
    {
      "inputs": [
        {
          "internalType": "address",
          "name": "aave",
          "type": "address"
        },
        {
          "internalType": "address",
          "name": "stkAave",
          "type": "address"
        }
      ],
      "stateMutability": "nonpayable",
      "type": "constructor"
    },
    {
      "inputs": [],
      "name": "AAVE",
      "outputs": [
        {
          "internalType": "address",
          "name": "",
          "type": "address"
        }
      ],
      "stateMutability": "view",
      "type": "function"
    },
    {
      "inputs": [],
      "name": "STK_AAVE",
      "outputs": [
        {
          "internalType": "address",
          "name": "",
          "type": "address"
        }
      ],
      "stateMutability": "view",
      "type": "function"
    },
    {
      "inputs": [
        {
          "internalType": "uint256",
          "name": "blockNumber",
          "type": "uint256"
        }
      ],
      "name": "getTotalPropositionSupplyAt",
      "outputs": [
        {
          "internalType": "uint256",
          "name": "",
          "type": "uint256"
        }
      ],
      "stateMutability": "view",
      "type": "function"
    },
    {
      "inputs": [
        {
          "internalType": "uint256",
          "name": "blockNumber",
          "type": "uint256"
        }
      ],
      "name": "getTotalVotingSupplyAt",
      "outputs": [
        {
          "internalType": "uint256",
          "name": "",
          "type": "uint256"
        }
      ],
      "stateMutability": "view",
      "type": "function"
    },
    {
      "inputs": [
        {
          "internalType": "address",
          "name": "user",
          "type": "address"
        },
        {
          "internalType": "uint256",
          "name": "blockNumber",
          "type": "uint256"
        }
      ],
      "name": "getPropositionPowerAt",
      "outputs": [
        {
          "internalType": "uint256",
          "name": "",
          "type": "uint256"
        }
      ],
      "stateMutability": "view",
      "type": "function"
    },
    {
      "inputs": [
        {
          "internalType": "address",
          "name": "user",
          "type": "address"
        },
        {
          "internalType": "uint256",
          "name": "blockNumber",
          "type": "uint256"
        }
      ],
      "name": "getVotingPowerAt",
      "outputs": [
        {
          "internalType": "uint256",
          "name": "",
          "type": "uint256"
        }
      ],
      "stateMutability": "view",
      "type": "function"
    }
  ],
  "bytecode": "0x60c060405234801561001057600080fd5b5060405161050738038061050783398101604081905261002f91610069565b6001600160601b0319606092831b8116608052911b1660a05261009b565b80516001600160a01b038116811461006457600080fd5b919050565b6000806040838503121561007b578182fd5b6100848361004d565b91506100926020840161004d565b90509250929050565b60805160601c60a05160601c6104356100d260003980610132528061021b52508060e8528061017c52806102bb52506104356000f3fe608060405234801561001057600080fd5b50600436106100625760003560e01c806348ccda3c146100675780637a71f9d714610085578063a1076e58146100a5578063bdf2878d146100b8578063eaeded5f146100c0578063f6b50203146100d3575b600080fd5b61006f6100e6565b60405161007c91906103b3565b60405180910390f35b610098610093366004610383565b61010a565b60405161007c91906103f6565b6100986100b336600461034d565b61011b565b61006f610130565b6100986100ce36600461034d565b610154565b6100986100e1366004610383565b610162565b7f000000000000000000000000000000000000000000000000000000000000000081565b600061011582610162565b92915050565b600061012983836001610201565b9392505050565b7f000000000000000000000000000000000000000000000000000000000000000081565b600061012983836000610201565b604051630981b24d60e41b81526000906001600160a01b037f0000000000000000000000000000000000000000000000000000000000000000169063981b24d0906101b19085906004016103f6565b60206040518083038186803b1580156101c957600080fd5b505afa1580156101dd573d6000803e3d6000fd5b505050506040513d601f19601f82011682018060405250810190610115919061039b565b60405163c2ffbb9160e01b81526000906001600160a01b037f0000000000000000000000000000000000000000000000000000000000000000169063c2ffbb9190610254908790879087906004016103c7565b60206040518083038186803b15801561026c57600080fd5b505afa158015610280573d6000803e3d6000fd5b505050506040513d601f19601f820116820180604052508101906102a4919061039b565b60405163c2ffbb9160e01b81526001600160a01b037f0000000000000000000000000000000000000000000000000000000000000000169063c2ffbb91906102f4908890889088906004016103c7565b60206040518083038186803b15801561030c57600080fd5b505afa158015610320573d6000803e3d6000fd5b505050506040513d601f19601f82011682018060405250810190610344919061039b565b01949350505050565b6000806040838503121561035f578182fd5b82356001600160a01b0381168114610375578283fd5b946020939093013593505050565b600060208284031215610394578081fd5b5035919050565b6000602082840312156103ac578081fd5b5051919050565b6001600160a01b0391909116815260200190565b6001600160a01b03841681526020810183905260608101600283106103e857fe5b826040830152949350505050565b9081526020019056fea2646970667358221220d141e2fcd03ddcded110b9c9091f704632a059dd90065e18217d53bd5ae0e05e64736f6c63430007050033",
  "immutableReferences": {
    "4295": [
      {
        "length": 32,
        "start": 232
      },
      {
        "length": 32,
        "start": 380
      },
      {
        "length": 32,
        "start": 699
      }
    ],
    "4297": [
      {
        "length": 32,
        "start": 306
      },
      {
        "length": 32,
        "start": 539
      }
    ]
  },
  "source": "// SPDX-License-Identifier: agpl-3.0\r\npragma solidity 0.7.5;\r\npragma abicoder v2;\r\n\r\nimport {IGovernanceStrategy} from './interfaces/IGovernanceStrategy.sol';\r\nimport {IERC20} from './interfaces/IERC20.sol';\r\nimport {IGovernancePowerDelegationToken} from './interfaces/IGovernancePowerDelegationToken.sol';\r\n\r\n/**\r\n * @title Governance Strategy contract\r\n * @dev Smart contract containing logic to measure users' relative power to propose and vote.\r\n * User Power = User Power from Aave Token + User Power from stkAave Token.\r\n * User Power from Token = Token Power + Token Power as Delegatee [- Token Power if user has delegated]\r\n * Two wrapper functions linked to Aave Tokens's GovernancePowerDelegationERC20.sol implementation\r\n * - getPropositionPowerAt: fetching a user Proposition Power at a specified block\r\n * - getVotingPowerAt: fetching a user Voting Power at a specified block\r\n * @author Aave\r\n **/\r\ncontract GovernanceStrategy is IGovernanceStrategy {\r\n    address public immutable AAVE;\r\n    address public immutable STK_AAVE;\r\n\r\n    /**\r\n     * @dev Constructor, register tokens used for Voting and Proposition Powers.\r\n     * @param aave The address of the AAVE Token contract.\r\n     * @param stkAave The address of the stkAAVE Token Contract\r\n     **/\r\n    constructor(address aave, address stkAave) {\r\n        AAVE = aave;\r\n        STK_AAVE = stkAave;\r\n    }\r\n\r\n    /**\r\n     * @dev Returns the total supply of Proposition Tokens Available for Governance\r\n     * = AAVE Available for governance      + stkAAVE available\r\n     * The supply of AAVE staked in stkAAVE are not taken into account so:\r\n     * = (Supply of AAVE - AAVE in stkAAVE) + (Supply of stkAAVE)\r\n     * = Supply of AAVE, Since the supply of stkAAVE is equal to the number of AAVE staked\r\n     * @param blockNumber Blocknumber at which to evaluate\r\n     * @return total supply at blockNumber\r\n     **/\r\n    function getTotalPropositionSupplyAt(uint256 blockNumber) public view override returns (uint256) {\r\n        return IERC20(AAVE).totalSupplyAt(blockNumber);\r\n    }\r\n\r\n    /**\r\n     * @dev Returns the total supply of Outstanding Voting Tokens\r\n     * @param blockNumber Blocknumber at which to evaluate\r\n     * @return total supply at blockNumber\r\n     **/\r\n    function getTotalVotingSupplyAt(uint256 blockNumber) public view override returns (uint256) {\r\n        return getTotalPropositionSupplyAt(blockNumber);\r\n    }\r\n\r\n    /**\r\n     * @dev Returns the Proposition Power of a user at a specific block number.\r\n     * @param user Address of the user.\r\n     * @param blockNumber Blocknumber at which to fetch Proposition Power\r\n     * @return Power number\r\n     **/\r\n    function getPropositionPowerAt(address user, uint256 blockNumber) public view override returns (uint256) {\r\n        return\r\n            _getPowerByTypeAt(\r\n                user,\r\n                blockNumber,\r\n                IGovernancePowerDelegationToken.DelegationType.PROPOSITION_POWER\r\n            );\r\n    }\r\n\r\n    /**\r\n     * @dev Returns the Vote Power of a user at a specific block number.\r\n     * @param user Address of the user.\r\n     * @param blockNumber Blocknumber at which to fetch Vote Power\r\n     * @return Vote number\r\n     **/\r\n    function getVotingPowerAt(address user, uint256 blockNumber) public view override returns (uint256) {\r\n        return\r\n            _getPowerByTypeAt(user, blockNumber, IGovernancePowerDelegationToken.DelegationType.VOTING_POWER);\r\n    }\r\n\r\n    function _getPowerByTypeAt(\r\n        address user,\r\n        uint256 blockNumber,\r\n        IGovernancePowerDelegationToken.DelegationType powerType\r\n    ) internal view returns (uint256) {\r\n        return\r\n            IGovernancePowerDelegationToken(AAVE).getPowerAtBlock(user, blockNumber, powerType) +\r\n            IGovernancePowerDelegationToken(STK_AAVE).getPowerAtBlock(user, blockNumber, powerType);\r\n    }\r\n}\r\n",
  "sourcePath": "C:/Users/James/projects/zygo/blockchain/contracts/governance/GovernanceStrategy.sol",
  "compiler": {
    "name": "solc",
    "version": "0.7.5+commit.eb77ed08.Emscripten.clang"
  },
  "schemaVersion": "3.3.2",
  "updatedAt": "2021-01-31T12:25:23.989Z",
  "devdoc": {
    "author": "Aave*",
    "details": "Smart contract containing logic to measure users' relative power to propose and vote. User Power = User Power from Aave Token + User Power from stkAave Token. User Power from Token = Token Power + Token Power as Delegatee [- Token Power if user has delegated] Two wrapper functions linked to Aave Tokens's GovernancePowerDelegationERC20.sol implementation - getPropositionPowerAt: fetching a user Proposition Power at a specified block - getVotingPowerAt: fetching a user Voting Power at a specified block",
    "kind": "dev",
    "methods": {
      "constructor": {
        "details": "Constructor, register tokens used for Voting and Proposition Powers.",
        "params": {
          "aave": "The address of the AAVE Token contract.",
          "stkAave": "The address of the stkAAVE Token Contract*"
        }
      },
      "getPropositionPowerAt(address,uint256)": {
        "details": "Returns the Proposition Power of a user at a specific block number.",
        "params": {
          "blockNumber": "Blocknumber at which to fetch Proposition Power",
          "user": "Address of the user."
        },
        "returns": {
          "_0": "Power number*"
        }
      },
      "getTotalPropositionSupplyAt(uint256)": {
        "details": "Returns the total supply of Proposition Tokens Available for Governance = AAVE Available for governance      + stkAAVE available The supply of AAVE staked in stkAAVE are not taken into account so: = (Supply of AAVE - AAVE in stkAAVE) + (Supply of stkAAVE) = Supply of AAVE, Since the supply of stkAAVE is equal to the number of AAVE staked",
        "params": {
          "blockNumber": "Blocknumber at which to evaluate"
        },
        "returns": {
          "_0": "total supply at blockNumber*"
        }
      },
      "getTotalVotingSupplyAt(uint256)": {
        "details": "Returns the total supply of Outstanding Voting Tokens",
        "params": {
          "blockNumber": "Blocknumber at which to evaluate"
        },
        "returns": {
          "_0": "total supply at blockNumber*"
        }
      },
      "getVotingPowerAt(address,uint256)": {
        "details": "Returns the Vote Power of a user at a specific block number.",
        "params": {
          "blockNumber": "Blocknumber at which to fetch Vote Power",
          "user": "Address of the user."
        },
        "returns": {
          "_0": "Vote number*"
        }
      }
    },
    "title": "Governance Strategy contract",
    "version": 1
  },
  "userdoc": {
    "kind": "user",
    "methods": {},
    "version": 1
  }
}