{
  "contractName": "Planets",
  "abi": [
    {
      "inputs": [
        {
          "internalType": "address",
          "name": "_treasury",
          "type": "address"
        }
      ],
      "stateMutability": "nonpayable",
      "type": "constructor"
    },
    {
      "anonymous": false,
      "inputs": [
        {
          "indexed": true,
          "internalType": "address",
          "name": "owner",
          "type": "address"
        },
        {
          "indexed": true,
          "internalType": "address",
          "name": "approved",
          "type": "address"
        },
        {
          "indexed": true,
          "internalType": "uint256",
          "name": "tokenId",
          "type": "uint256"
        }
      ],
      "name": "Approval",
      "type": "event"
    },
    {
      "anonymous": false,
      "inputs": [
        {
          "indexed": true,
          "internalType": "address",
          "name": "owner",
          "type": "address"
        },
        {
          "indexed": true,
          "internalType": "address",
          "name": "operator",
          "type": "address"
        },
        {
          "indexed": false,
          "internalType": "bool",
          "name": "approved",
          "type": "bool"
        }
      ],
      "name": "ApprovalForAll",
      "type": "event"
    },
    {
      "anonymous": false,
      "inputs": [
        {
          "indexed": false,
          "internalType": "address",
          "name": "to",
          "type": "address"
        },
        {
          "indexed": false,
          "internalType": "address",
          "name": "from",
          "type": "address"
        },
        {
          "indexed": false,
          "internalType": "uint256",
          "name": "id",
          "type": "uint256"
        }
      ],
      "name": "Mint",
      "type": "event"
    },
    {
      "anonymous": false,
      "inputs": [
        {
          "indexed": true,
          "internalType": "address",
          "name": "previousOwner",
          "type": "address"
        },
        {
          "indexed": true,
          "internalType": "address",
          "name": "newOwner",
          "type": "address"
        }
      ],
      "name": "OwnershipTransferred",
      "type": "event"
    },
    {
      "anonymous": false,
      "inputs": [
        {
          "indexed": true,
          "internalType": "address",
          "name": "from",
          "type": "address"
        },
        {
          "indexed": true,
          "internalType": "address",
          "name": "to",
          "type": "address"
        },
        {
          "indexed": true,
          "internalType": "uint256",
          "name": "tokenId",
          "type": "uint256"
        }
      ],
      "name": "Transfer",
      "type": "event"
    },
    {
      "inputs": [
        {
          "internalType": "address",
          "name": "to",
          "type": "address"
        },
        {
          "internalType": "uint256",
          "name": "tokenId",
          "type": "uint256"
        }
      ],
      "name": "approve",
      "outputs": [],
      "stateMutability": "nonpayable",
      "type": "function"
    },
    {
      "inputs": [
        {
          "internalType": "address",
          "name": "owner",
          "type": "address"
        }
      ],
      "name": "balanceOf",
      "outputs": [
        {
          "internalType": "uint256",
          "name": "",
          "type": "uint256"
        }
      ],
      "stateMutability": "view",
      "type": "function",
      "constant": true
    },
    {
      "inputs": [],
      "name": "baseURI",
      "outputs": [
        {
          "internalType": "string",
          "name": "",
          "type": "string"
        }
      ],
      "stateMutability": "view",
      "type": "function",
      "constant": true
    },
    {
      "inputs": [
        {
          "internalType": "uint256",
          "name": "tokenId",
          "type": "uint256"
        }
      ],
      "name": "getApproved",
      "outputs": [
        {
          "internalType": "address",
          "name": "",
          "type": "address"
        }
      ],
      "stateMutability": "view",
      "type": "function",
      "constant": true
    },
    {
      "inputs": [
        {
          "internalType": "address",
          "name": "owner",
          "type": "address"
        },
        {
          "internalType": "address",
          "name": "operator",
          "type": "address"
        }
      ],
      "name": "isApprovedForAll",
      "outputs": [
        {
          "internalType": "bool",
          "name": "",
          "type": "bool"
        }
      ],
      "stateMutability": "view",
      "type": "function",
      "constant": true
    },
    {
      "inputs": [],
      "name": "name",
      "outputs": [
        {
          "internalType": "string",
          "name": "",
          "type": "string"
        }
      ],
      "stateMutability": "view",
      "type": "function",
      "constant": true
    },
    {
      "inputs": [],
      "name": "owner",
      "outputs": [
        {
          "internalType": "address",
          "name": "",
          "type": "address"
        }
      ],
      "stateMutability": "view",
      "type": "function",
      "constant": true
    },
    {
      "inputs": [
        {
          "internalType": "uint256",
          "name": "tokenId",
          "type": "uint256"
        }
      ],
      "name": "ownerOf",
      "outputs": [
        {
          "internalType": "address",
          "name": "",
          "type": "address"
        }
      ],
      "stateMutability": "view",
      "type": "function",
      "constant": true
    },
    {
      "inputs": [],
      "name": "renounceOwnership",
      "outputs": [],
      "stateMutability": "nonpayable",
      "type": "function"
    },
    {
      "inputs": [
        {
          "internalType": "address",
          "name": "from",
          "type": "address"
        },
        {
          "internalType": "address",
          "name": "to",
          "type": "address"
        },
        {
          "internalType": "uint256",
          "name": "tokenId",
          "type": "uint256"
        }
      ],
      "name": "safeTransferFrom",
      "outputs": [],
      "stateMutability": "nonpayable",
      "type": "function"
    },
    {
      "inputs": [
        {
          "internalType": "address",
          "name": "from",
          "type": "address"
        },
        {
          "internalType": "address",
          "name": "to",
          "type": "address"
        },
        {
          "internalType": "uint256",
          "name": "tokenId",
          "type": "uint256"
        },
        {
          "internalType": "bytes",
          "name": "_data",
          "type": "bytes"
        }
      ],
      "name": "safeTransferFrom",
      "outputs": [],
      "stateMutability": "nonpayable",
      "type": "function"
    },
    {
      "inputs": [
        {
          "internalType": "address",
          "name": "operator",
          "type": "address"
        },
        {
          "internalType": "bool",
          "name": "approved",
          "type": "bool"
        }
      ],
      "name": "setApprovalForAll",
      "outputs": [],
      "stateMutability": "nonpayable",
      "type": "function"
    },
    {
      "inputs": [
        {
          "internalType": "bytes4",
          "name": "interfaceId",
          "type": "bytes4"
        }
      ],
      "name": "supportsInterface",
      "outputs": [
        {
          "internalType": "bool",
          "name": "",
          "type": "bool"
        }
      ],
      "stateMutability": "view",
      "type": "function",
      "constant": true
    },
    {
      "inputs": [],
      "name": "symbol",
      "outputs": [
        {
          "internalType": "string",
          "name": "",
          "type": "string"
        }
      ],
      "stateMutability": "view",
      "type": "function",
      "constant": true
    },
    {
      "inputs": [
        {
          "internalType": "uint256",
          "name": "index",
          "type": "uint256"
        }
      ],
      "name": "tokenByIndex",
      "outputs": [
        {
          "internalType": "uint256",
          "name": "",
          "type": "uint256"
        }
      ],
      "stateMutability": "view",
      "type": "function",
      "constant": true
    },
    {
      "inputs": [
        {
          "internalType": "address",
          "name": "owner",
          "type": "address"
        },
        {
          "internalType": "uint256",
          "name": "index",
          "type": "uint256"
        }
      ],
      "name": "tokenOfOwnerByIndex",
      "outputs": [
        {
          "internalType": "uint256",
          "name": "",
          "type": "uint256"
        }
      ],
      "stateMutability": "view",
      "type": "function",
      "constant": true
    },
    {
      "inputs": [
        {
          "internalType": "uint256",
          "name": "tokenId",
          "type": "uint256"
        }
      ],
      "name": "tokenURI",
      "outputs": [
        {
          "internalType": "string",
          "name": "",
          "type": "string"
        }
      ],
      "stateMutability": "view",
      "type": "function",
      "constant": true
    },
    {
      "inputs": [],
      "name": "totalSupply",
      "outputs": [
        {
          "internalType": "uint256",
          "name": "",
          "type": "uint256"
        }
      ],
      "stateMutability": "view",
      "type": "function",
      "constant": true
    },
    {
      "inputs": [
        {
          "internalType": "address",
          "name": "from",
          "type": "address"
        },
        {
          "internalType": "address",
          "name": "to",
          "type": "address"
        },
        {
          "internalType": "uint256",
          "name": "tokenId",
          "type": "uint256"
        }
      ],
      "name": "transferFrom",
      "outputs": [],
      "stateMutability": "nonpayable",
      "type": "function"
    },
    {
      "inputs": [
        {
          "internalType": "address",
          "name": "newOwner",
          "type": "address"
        }
      ],
      "name": "transferOwnership",
      "outputs": [],
      "stateMutability": "nonpayable",
      "type": "function"
    },
    {
      "inputs": [
        {
          "internalType": "address",
          "name": "_operator",
          "type": "address"
        }
      ],
      "name": "addOperator",
      "outputs": [],
      "stateMutability": "nonpayable",
      "type": "function"
    },
    {
      "inputs": [
        {
          "internalType": "address",
          "name": "_to",
          "type": "address"
        },
        {
          "internalType": "uint256",
          "name": "_tokenId",
          "type": "uint256"
        }
      ],
      "name": "mint",
      "outputs": [],
      "stateMutability": "nonpayable",
      "type": "function"
    }
  ],
  "bytecode": "0x60806040523480156200001157600080fd5b506040516200225b3803806200225b833981810160405260208110156200003757600080fd5b5051604080518082018252601781527f4665646572616c48617276657374696e675269676874730000000000000000006020828101919091528251808401909352600683526514131053915560d21b90830152906200009d6301ffc9a760e01b6200016e565b8151620000b290600690602085019062000288565b508051620000c890600790602084019062000288565b50620000db6380ac58cd60e01b6200016e565b620000ed635b5e139f60e01b6200016e565b620000ff63780e9d6360e01b6200016e565b50600090506200010e620001f3565b600a80546001600160a01b0319166001600160a01b038316908117909155604051919250906000907f8be0079c531659141344cd1fd0a4f28419497f9722a3daafe3b4186f6b6457e0908290a3506200016781620001f7565b5062000324565b6001600160e01b03198082161415620001ce576040805162461bcd60e51b815260206004820152601c60248201527f4552433136353a20696e76616c696420696e7465726661636520696400000000604482015290519081900360640190fd5b6001600160e01b0319166000908152602081905260409020805460ff19166001179055565b3390565b62000201620001f3565b600a546001600160a01b0390811691161462000264576040805162461bcd60e51b815260206004820181905260248201527f4f776e61626c653a2063616c6c6572206973206e6f7420746865206f776e6572604482015290519081900360640190fd5b6001600160a01b03166000908152600b60205260409020805460ff19166001179055565b828054600181600116156101000203166002900490600052602060002090601f016020900481019282601f10620002cb57805160ff1916838001178555620002fb565b82800160010185558215620002fb579182015b82811115620002fb578251825591602001919060010190620002de565b50620003099291506200030d565b5090565b5b808211156200030957600081556001016200030e565b611f2780620003346000396000f3fe608060405234801561001057600080fd5b50600436106101425760003560e01c80636c0360eb116100b85780639870d7fe1161007c5780639870d7fe146103c4578063a22cb465146103ea578063b88d4fde14610418578063c87b56dd146104de578063e985e9c5146104fb578063f2fde38b1461052957610142565b80636c0360eb1461037e57806370a0823114610386578063715018a6146103ac5780638da5cb5b146103b457806395d89b41146103bc57610142565b806323b872dd1161010a57806323b872dd146102805780632f745c59146102b657806340c10f19146102e257806342842e0e1461030e5780634f6ccce7146103445780636352211e1461036157610142565b806301ffc9a71461014757806306fdde0314610182578063081812fc146101ff578063095ea7b31461023857806318160ddd14610266575b600080fd5b61016e6004803603602081101561015d57600080fd5b50356001600160e01b03191661054f565b604080519115158252519081900360200190f35b61018a610572565b6040805160208082528351818301528351919283929083019185019080838360005b838110156101c45781810151838201526020016101ac565b50505050905090810190601f1680156101f15780820380516001836020036101000a031916815260200191505b509250505060405180910390f35b61021c6004803603602081101561021557600080fd5b5035610608565b604080516001600160a01b039092168252519081900360200190f35b6102646004803603604081101561024e57600080fd5b506001600160a01b03813516906020013561066a565b005b61026e610745565b60408051918252519081900360200190f35b6102646004803603606081101561029657600080fd5b506001600160a01b03813581169160208101359091169060400135610756565b61026e600480360360408110156102cc57600080fd5b506001600160a01b0381351690602001356107ad565b610264600480360360408110156102f857600080fd5b506001600160a01b0381351690602001356107d8565b6102646004803603606081101561032457600080fd5b506001600160a01b03813581169160208101359091169060400135610882565b61026e6004803603602081101561035a57600080fd5b503561089d565b61021c6004803603602081101561037757600080fd5b50356108b3565b61018a6108db565b61026e6004803603602081101561039c57600080fd5b50356001600160a01b031661093c565b6102646109a4565b61021c610a58565b61018a610a67565b610264600480360360208110156103da57600080fd5b50356001600160a01b0316610ac8565b6102646004803603604081101561040057600080fd5b506001600160a01b0381351690602001351515610b56565b6102646004803603608081101561042e57600080fd5b6001600160a01b0382358116926020810135909116916040820135919081019060808101606082013564010000000081111561046957600080fd5b82018360208201111561047b57600080fd5b8035906020019184600183028401116401000000008311171561049d57600080fd5b91908080601f016020809104026020016040519081016040528093929190818152602001838380828437600092019190915250929550610c5b945050505050565b61018a600480360360208110156104f457600080fd5b5035610cb9565b61016e6004803603604081101561051157600080fd5b506001600160a01b0381358116916020013516610f60565b6102646004803603602081101561053f57600080fd5b50356001600160a01b0316610f8e565b6001600160e01b0319811660009081526020819052604090205460ff165b919050565b60068054604080516020601f60026000196101006001881615020190951694909404938401819004810282018101909252828152606093909290918301828280156105fe5780601f106105d3576101008083540402835291602001916105fe565b820191906000526020600020905b8154815290600101906020018083116105e157829003601f168201915b5050505050905090565b600061061382611099565b61064e5760405162461bcd60e51b815260040180806020018281038252602c815260200180611e1c602c913960400191505060405180910390fd5b506000908152600460205260409020546001600160a01b031690565b6000610675826108b3565b9050806001600160a01b0316836001600160a01b031614156106c85760405162461bcd60e51b8152600401808060200182810382526021815260200180611ea06021913960400191505060405180910390fd5b806001600160a01b03166106da6110a6565b6001600160a01b031614806106fb57506106fb816106f66110a6565b610f60565b6107365760405162461bcd60e51b8152600401808060200182810382526038815260200180611d6f6038913960400191505060405180910390fd5b61074083836110aa565b505050565b60006107516002611118565b905090565b6107676107616110a6565b82611123565b6107a25760405162461bcd60e51b8152600401808060200182810382526031815260200180611ec16031913960400191505060405180910390fd5b6107408383836111c7565b6001600160a01b03821660009081526001602052604081206107cf9083611313565b90505b92915050565b336000908152600b602052604090205460ff1661082c576040805162461bcd60e51b815260206004820152600d60248201526c27b7363c9027b832b930ba37b960991b604482015290519081900360640190fd5b604080516001600160a01b038416815233602082015280820183905290517fab8530f87dc9b59234c4623bf917212bb2536d647574c8e7e5da92c2ede0c9f89181900360600190a161087e828261131f565b5050565b61074083838360405180602001604052806000815250610c5b565b6000806108ab600284611339565b509392505050565b60006107d282604051806060016040528060298152602001611dd16029913960029190611355565b60098054604080516020601f60026000196101006001881615020190951694909404938401819004810282018101909252828152606093909290918301828280156105fe5780601f106105d3576101008083540402835291602001916105fe565b60006001600160a01b0382166109835760405162461bcd60e51b815260040180806020018281038252602a815260200180611da7602a913960400191505060405180910390fd5b6001600160a01b03821660009081526001602052604090206107d290611118565b6109ac6110a6565b600a546001600160a01b03908116911614610a0e576040805162461bcd60e51b815260206004820181905260248201527f4f776e61626c653a2063616c6c6572206973206e6f7420746865206f776e6572604482015290519081900360640190fd5b600a546040516000916001600160a01b0316907f8be0079c531659141344cd1fd0a4f28419497f9722a3daafe3b4186f6b6457e0908390a3600a80546001600160a01b0319169055565b600a546001600160a01b031690565b60078054604080516020601f60026000196101006001881615020190951694909404938401819004810282018101909252828152606093909290918301828280156105fe5780601f106105d3576101008083540402835291602001916105fe565b610ad06110a6565b600a546001600160a01b03908116911614610b32576040805162461bcd60e51b815260206004820181905260248201527f4f776e61626c653a2063616c6c6572206973206e6f7420746865206f776e6572604482015290519081900360640190fd5b6001600160a01b03166000908152600b60205260409020805460ff19166001179055565b610b5e6110a6565b6001600160a01b0316826001600160a01b03161415610bc4576040805162461bcd60e51b815260206004820152601960248201527f4552433732313a20617070726f766520746f2063616c6c657200000000000000604482015290519081900360640190fd5b8060056000610bd16110a6565b6001600160a01b03908116825260208083019390935260409182016000908120918716808252919093529120805460ff191692151592909217909155610c156110a6565b6001600160a01b03167f17307eab39ab6107e8899845ad3d59bd9653f200f220920489ca2b5937696c318360405180821515815260200191505060405180910390a35050565b610c6c610c666110a6565b83611123565b610ca75760405162461bcd60e51b8152600401808060200182810382526031815260200180611ec16031913960400191505060405180910390fd5b610cb38484848461136c565b50505050565b6060610cc482611099565b610cff5760405162461bcd60e51b815260040180806020018281038252602f815260200180611e71602f913960400191505060405180910390fd5b60008281526008602090815260409182902080548351601f6002600019610100600186161502019093169290920491820184900484028101840190945280845260609392830182828015610d945780601f10610d6957610100808354040283529160200191610d94565b820191906000526020600020905b815481529060010190602001808311610d7757829003601f168201915b505060095493945050505060026000196101006001841615020190911604610dbd57905061056d565b805115610e8e576009816040516020018083805460018160011615610100020316600290048015610e255780601f10610e03576101008083540402835291820191610e25565b820191906000526020600020905b815481529060010190602001808311610e11575b5050825160208401908083835b60208310610e515780518252601f199092019160209182019101610e32565b6001836020036101000a0380198251168184511680821785525050505050509050019250505060405160208183030381529060405291505061056d565b6009610e99846113be565b6040516020018083805460018160011615610100020316600290048015610ef75780601f10610ed5576101008083540402835291820191610ef7565b820191906000526020600020905b815481529060010190602001808311610ee3575b5050825160208401908083835b60208310610f235780518252601f199092019160209182019101610f04565b6001836020036101000a03801982511681845116808217855250505050505090500192505050604051602081830303815290604052915050919050565b6001600160a01b03918216600090815260056020908152604080832093909416825291909152205460ff1690565b610f966110a6565b600a546001600160a01b03908116911614610ff8576040805162461bcd60e51b815260206004820181905260248201527f4f776e61626c653a2063616c6c6572206973206e6f7420746865206f776e6572604482015290519081900360640190fd5b6001600160a01b03811661103d5760405162461bcd60e51b8152600401808060200182810382526026815260200180611cf96026913960400191505060405180910390fd5b600a546040516001600160a01b038084169216907f8be0079c531659141344cd1fd0a4f28419497f9722a3daafe3b4186f6b6457e090600090a3600a80546001600160a01b0319166001600160a01b0392909216919091179055565b60006107d2600283611499565b3390565b600081815260046020526040902080546001600160a01b0319166001600160a01b03841690811790915581906110df826108b3565b6001600160a01b03167f8c5be1e5ebec7d5bd14f71427d1e84f3dd0314c0f7b2291e5b200ac8c7c3b92560405160405180910390a45050565b60006107d2826114a5565b600061112e82611099565b6111695760405162461bcd60e51b815260040180806020018281038252602c815260200180611d43602c913960400191505060405180910390fd5b6000611174836108b3565b9050806001600160a01b0316846001600160a01b031614806111af5750836001600160a01b03166111a484610608565b6001600160a01b0316145b806111bf57506111bf8185610f60565b949350505050565b826001600160a01b03166111da826108b3565b6001600160a01b03161461121f5760405162461bcd60e51b8152600401808060200182810382526029815260200180611e486029913960400191505060405180910390fd5b6001600160a01b0382166112645760405162461bcd60e51b8152600401808060200182810382526024815260200180611d1f6024913960400191505060405180910390fd5b61126f838383610740565b61127a6000826110aa565b6001600160a01b038316600090815260016020526040902061129c90826114a9565b506001600160a01b03821660009081526001602052604090206112bf90826114b5565b506112cc600282846114c1565b5080826001600160a01b0316846001600160a01b03167fddf252ad1be2c89b69c2b068fc378daa952ba7f163c4a11628f55a4df523b3ef60405160405180910390a4505050565b60006107cf83836114d7565b61087e82826040518060200160405280600081525061153b565b6000808080611348868661158d565b9097909650945050505050565b6000611362848484611608565b90505b9392505050565b6113778484846111c7565b611383848484846116d2565b610cb35760405162461bcd60e51b8152600401808060200182810382526032815260200180611cc76032913960400191505060405180910390fd5b6060816113e357506040805180820190915260018152600360fc1b602082015261056d565b8160005b81156113fb57600101600a820491506113e7565b60608167ffffffffffffffff8111801561141457600080fd5b506040519080825280601f01601f19166020018201604052801561143f576020820181803683370190505b50859350905060001982015b831561149057600a840660300160f81b8282806001900393508151811061146e57fe5b60200101906001600160f81b031916908160001a905350600a8404935061144b565b50949350505050565b60006107cf838361183a565b5490565b60006107cf8383611852565b60006107cf8383611918565b600061136284846001600160a01b038516611962565b815460009082106115195760405162461bcd60e51b8152600401808060200182810382526022815260200180611ca56022913960400191505060405180910390fd5b82600001828154811061152857fe5b9060005260206000200154905092915050565b61154583836119f9565b61155260008484846116d2565b6107405760405162461bcd60e51b8152600401808060200182810382526032815260200180611cc76032913960400191505060405180910390fd5b8154600090819083106115d15760405162461bcd60e51b8152600401808060200182810382526022815260200180611dfa6022913960400191505060405180910390fd5b60008460000184815481106115e257fe5b906000526020600020906002020190508060000154816001015492509250509250929050565b600082815260018401602052604081205482816116a35760405162461bcd60e51b81526004018080602001828103825283818151815260200191508051906020019080838360005b83811015611668578181015183820152602001611650565b50505050905090810190601f1680156116955780820380516001836020036101000a031916815260200191505b509250505060405180910390fd5b508460000160018203815481106116b657fe5b9060005260206000209060020201600101549150509392505050565b60006116e6846001600160a01b0316611b27565b6116f2575060016111bf565b6060611800630a85bd0160e11b6117076110a6565b88878760405160240180856001600160a01b03168152602001846001600160a01b0316815260200183815260200180602001828103825283818151815260200191508051906020019080838360005b8381101561176e578181015183820152602001611756565b50505050905090810190601f16801561179b5780820380516001836020036101000a031916815260200191505b5095505050505050604051602081830303815290604052906001600160e01b0319166020820180516001600160e01b038381831617835250505050604051806060016040528060328152602001611cc7603291396001600160a01b0388169190611b2d565b9050600081806020019051602081101561181957600080fd5b50516001600160e01b031916630a85bd0160e11b1492505050949350505050565b60009081526001919091016020526040902054151590565b6000818152600183016020526040812054801561190e578354600019808301919081019060009087908390811061188557fe5b90600052602060002001549050808760000184815481106118a257fe5b6000918252602080832090910192909255828152600189810190925260409020908401905586548790806118d257fe5b600190038181906000526020600020016000905590558660010160008781526020019081526020016000206000905560019450505050506107d2565b60009150506107d2565b6000611924838361183a565b61195a575081546001818101845560008481526020808220909301849055845484825282860190935260409020919091556107d2565b5060006107d2565b6000828152600184016020526040812054806119c7575050604080518082018252838152602080820184815286546001818101895560008981528481209551600290930290950191825591519082015586548684528188019092529290912055611365565b828560000160018303815481106119da57fe5b9060005260206000209060020201600101819055506000915050611365565b6001600160a01b038216611a54576040805162461bcd60e51b815260206004820181905260248201527f4552433732313a206d696e7420746f20746865207a65726f2061646472657373604482015290519081900360640190fd5b611a5d81611099565b15611aaf576040805162461bcd60e51b815260206004820152601c60248201527f4552433732313a20746f6b656e20616c7265616479206d696e74656400000000604482015290519081900360640190fd5b611abb60008383610740565b6001600160a01b0382166000908152600160205260409020611add90826114b5565b50611aea600282846114c1565b5060405181906001600160a01b038416906000907fddf252ad1be2c89b69c2b068fc378daa952ba7f163c4a11628f55a4df523b3ef908290a45050565b3b151590565b606061136284846000856060611b4285611b27565b611b93576040805162461bcd60e51b815260206004820152601d60248201527f416464726573733a2063616c6c20746f206e6f6e2d636f6e7472616374000000604482015290519081900360640190fd5b60006060866001600160a01b031685876040518082805190602001908083835b60208310611bd25780518252601f199092019160209182019101611bb3565b6001836020036101000a03801982511681845116808217855250505050505090500191505060006040518083038185875af1925050503d8060008114611c34576040519150601f19603f3d011682016040523d82523d6000602084013e611c39565b606091505b50915091508115611c4d5791506111bf9050565b805115611c5d5780518082602001fd5b60405162461bcd60e51b815260206004820181815286516024840152865187939192839260440191908501908083836000831561166857818101518382015260200161165056fe456e756d657261626c655365743a20696e646578206f7574206f6620626f756e64734552433732313a207472616e7366657220746f206e6f6e20455243373231526563656976657220696d706c656d656e7465724f776e61626c653a206e6577206f776e657220697320746865207a65726f20616464726573734552433732313a207472616e7366657220746f20746865207a65726f20616464726573734552433732313a206f70657261746f7220717565727920666f72206e6f6e6578697374656e7420746f6b656e4552433732313a20617070726f76652063616c6c6572206973206e6f74206f776e6572206e6f7220617070726f76656420666f7220616c6c4552433732313a2062616c616e636520717565727920666f7220746865207a65726f20616464726573734552433732313a206f776e657220717565727920666f72206e6f6e6578697374656e7420746f6b656e456e756d657261626c654d61703a20696e646578206f7574206f6620626f756e64734552433732313a20617070726f76656420717565727920666f72206e6f6e6578697374656e7420746f6b656e4552433732313a207472616e73666572206f6620746f6b656e2074686174206973206e6f74206f776e4552433732314d657461646174613a2055524920717565727920666f72206e6f6e6578697374656e7420746f6b656e4552433732313a20617070726f76616c20746f2063757272656e74206f776e65724552433732313a207472616e736665722063616c6c6572206973206e6f74206f776e6572206e6f7220617070726f766564a26469706673582212200069f782cbb442ad3f5dbac00826a73e9178ea92484b296e172bdc87bd14815464736f6c634300060c0033",
  "immutableReferences": {},
  "source": "// SPDX-License-Identifier: MIT\n\npragma solidity 0.6.12;\nimport {ERC721} from '@openzeppelin/contracts/token/ERC721/ERC721.sol';\nimport {Ownable} from '@openzeppelin/contracts/access/Ownable.sol';\n\ncontract Planets is ERC721, Ownable {\n    event Mint(address to, address from, uint256 id);\n    mapping(address => bool) operators;\n\n    constructor(address _treasury) public ERC721('FederalHarvestingRights', 'PLANET') {\n        addOperator(_treasury);\n    }\n\n    function addOperator(address _operator) public onlyOwner {\n        operators[_operator] = true;\n    }\n\n    modifier onlyOperator() {\n        // Make sure the access is permitted to only contracts in our Dapp\n        require(operators[msg.sender], 'Only Operator');\n        _;\n    }\n\n    function mint(address _to, uint256 _tokenId) public onlyOperator {\n        emit Mint(_to, msg.sender, _tokenId);\n        _safeMint(_to, _tokenId);\n    }\n}\n",
  "sourcePath": "C:\\Users\\James\\projects\\tsuno-fe\\contracts\\Planets.sol",
  "compiler": {
    "name": "solc",
    "version": "0.6.12+commit.27d51765.Emscripten.clang"
  },
  "schemaVersion": "3.2.5",
  "updatedAt": "2020-11-15T18:28:43.885Z",
  "networkType": "ethereum",
  "devdoc": {
    "kind": "dev",
    "methods": {
      "approve(address,uint256)": {
        "details": "See {IERC721-approve}."
      },
      "balanceOf(address)": {
        "details": "See {IERC721-balanceOf}."
      },
      "baseURI()": {
        "details": "Returns the base URI set via {_setBaseURI}. This will be automatically added as a prefix in {tokenURI} to each token's URI, or to the token ID if no specific URI is set for that token ID."
      },
      "getApproved(uint256)": {
        "details": "See {IERC721-getApproved}."
      },
      "isApprovedForAll(address,address)": {
        "details": "See {IERC721-isApprovedForAll}."
      },
      "name()": {
        "details": "See {IERC721Metadata-name}."
      },
      "owner()": {
        "details": "Returns the address of the current owner."
      },
      "ownerOf(uint256)": {
        "details": "See {IERC721-ownerOf}."
      },
      "renounceOwnership()": {
        "details": "Leaves the contract without owner. It will not be possible to call `onlyOwner` functions anymore. Can only be called by the current owner. NOTE: Renouncing ownership will leave the contract without an owner, thereby removing any functionality that is only available to the owner."
      },
      "safeTransferFrom(address,address,uint256)": {
        "details": "See {IERC721-safeTransferFrom}."
      },
      "safeTransferFrom(address,address,uint256,bytes)": {
        "details": "See {IERC721-safeTransferFrom}."
      },
      "setApprovalForAll(address,bool)": {
        "details": "See {IERC721-setApprovalForAll}."
      },
      "supportsInterface(bytes4)": {
        "details": "See {IERC165-supportsInterface}. Time complexity O(1), guaranteed to always use less than 30 000 gas."
      },
      "symbol()": {
        "details": "See {IERC721Metadata-symbol}."
      },
      "tokenByIndex(uint256)": {
        "details": "See {IERC721Enumerable-tokenByIndex}."
      },
      "tokenOfOwnerByIndex(address,uint256)": {
        "details": "See {IERC721Enumerable-tokenOfOwnerByIndex}."
      },
      "tokenURI(uint256)": {
        "details": "See {IERC721Metadata-tokenURI}."
      },
      "totalSupply()": {
        "details": "See {IERC721Enumerable-totalSupply}."
      },
      "transferFrom(address,address,uint256)": {
        "details": "See {IERC721-transferFrom}."
      },
      "transferOwnership(address)": {
        "details": "Transfers ownership of the contract to a new account (`newOwner`). Can only be called by the current owner."
      }
    },
    "version": 1
  },
  "userdoc": {
    "kind": "user",
    "methods": {},
    "version": 1
  }
}