{
  "contractName": "PlanetManager",
  "abi": [
    {
      "anonymous": false,
      "inputs": [
        {
          "indexed": true,
          "internalType": "address",
          "name": "previousOwner",
          "type": "address"
        },
        {
          "indexed": true,
          "internalType": "address",
          "name": "newOwner",
          "type": "address"
        }
      ],
      "name": "OwnershipTransferred",
      "type": "event"
    },
    {
      "anonymous": false,
      "inputs": [
        {
          "indexed": false,
          "internalType": "address",
          "name": "proxy",
          "type": "address"
        }
      ],
      "name": "ProxyCreated",
      "type": "event"
    },
    {
      "inputs": [],
      "name": "owner",
      "outputs": [
        {
          "internalType": "address",
          "name": "",
          "type": "address"
        }
      ],
      "stateMutability": "view",
      "type": "function",
      "constant": true
    },
    {
      "inputs": [],
      "name": "renounceOwnership",
      "outputs": [],
      "stateMutability": "nonpayable",
      "type": "function"
    },
    {
      "inputs": [
        {
          "internalType": "address",
          "name": "newOwner",
          "type": "address"
        }
      ],
      "name": "transferOwnership",
      "outputs": [],
      "stateMutability": "nonpayable",
      "type": "function"
    },
    {
      "inputs": [
        {
          "internalType": "address",
          "name": "_gameStorage",
          "type": "address"
        }
      ],
      "name": "initialize",
      "outputs": [],
      "stateMutability": "nonpayable",
      "type": "function"
    },
    {
      "inputs": [
        {
          "internalType": "uint256",
          "name": "tokenId",
          "type": "uint256"
        }
      ],
      "name": "createPlanet",
      "outputs": [
        {
          "internalType": "address",
          "name": "",
          "type": "address"
        }
      ],
      "stateMutability": "nonpayable",
      "type": "function"
    },
    {
      "inputs": [
        {
          "internalType": "uint256",
          "name": "staked",
          "type": "uint256"
        },
        {
          "internalType": "uint256",
          "name": "amount",
          "type": "uint256"
        },
        {
          "internalType": "uint256",
          "name": "yield",
          "type": "uint256"
        },
        {
          "internalType": "uint256",
          "name": "held",
          "type": "uint256"
        },
        {
          "internalType": "uint256",
          "name": "tokenId",
          "type": "uint256"
        },
        {
          "internalType": "address",
          "name": "requestor",
          "type": "address"
        },
        {
          "internalType": "address",
          "name": "planet",
          "type": "address"
        }
      ],
      "name": "requestReward",
      "outputs": [],
      "stateMutability": "nonpayable",
      "type": "function"
    }
  ],
  "bytecode": "0x608060405234801561001057600080fd5b50600061001b61006a565b600080546001600160a01b0319166001600160a01b0383169081178255604051929350917f8be0079c531659141344cd1fd0a4f28419497f9722a3daafe3b4186f6b6457e0908290a35061006e565b3390565b610edc8061007d6000396000f3fe608060405234801561001057600080fd5b50600436106100625760003560e01c8063715018a6146100675780638ad220d5146100715780638da5cb5b1461008457806392789b02146100a2578063c4d66de8146100b5578063f2fde38b146100c8575b600080fd5b61006f6100db565b005b61006f61007f366004610b6f565b610163565b61008c6103ee565b6040516100999190610bf3565b60405180910390f35b61008c6100b0366004610b3f565b6103fd565b61006f6100c3366004610b07565b61058c565b61006f6100d6366004610b07565b61088e565b6100e3610944565b6000546001600160a01b039081169116146101195760405162461bcd60e51b815260040161011090610dbb565b60405180910390fd5b600080546040516001600160a01b03909116907f8be0079c531659141344cd1fd0a4f28419497f9722a3daafe3b4186f6b6457e0908390a3600080546001600160a01b0319169055565b603654604051634ec7272b60e11b81526001600160a01b0390911690639d8e4e5690610193903390600401610bf3565b60206040518083038186803b1580156101ab57600080fd5b505afa1580156101bf573d6000803e3d6000fd5b505050506040513d601f19601f820116820180604052508101906101e39190610b57565b6101ff5760405162461bcd60e51b815260040161011090610c74565b6034546040516331a9108f60e11b81526001600160a01b03808516921690636352211e90610231908790600401610e3e565b60206040518083038186803b15801561024957600080fd5b505afa15801561025d573d6000803e3d6000fd5b505050506040513d601f19601f820116820180604052508101906102819190610b23565b6001600160a01b0316146102a75760405162461bcd60e51b815260040161011090610d2a565b6035546040516370a0823160e01b815288916001600160a01b0316906370a08231906102d7908590600401610bf3565b60206040518083038186803b1580156102ef57600080fd5b505afa158015610303573d6000803e3d6000fd5b505050506040513d601f19601f820116820180604052508101906103279190610b57565b146103445760405162461bcd60e51b815260040161011090610ce0565b600061035f6301e13380610359876064610948565b9061098b565b9050600061037e606461035961037782828c88610948565b8c90610948565b603354604051631f999fc960e01b81529192506001600160a01b031690631f999fc9906103b19087908c90600401610c07565b600060405180830381600087803b1580156103cb57600080fd5b505af11580156103df573d6000803e3d6000fd5b50505050505050505050505050565b6000546001600160a01b031690565b6037546040516000917efffc2da0b561cae30d9826d37709e9421c4725faebc226cbbb7ef5fc5e73499161043a916001600160a01b031690610bf3565b60405180910390a16036546040516305f941bf60e51b81526060916001600160a01b0316908490829063bf2837e090610477908490600401610e3e565b60206040518083038186803b15801561048f57600080fd5b505afa1580156104a3573d6000803e3d6000fd5b505050506040513d601f19601f820116820180604052508101906104c79190610b57565b6040516024016104d993929190610c20565b60408051601f198184030181529190526020810180516001600160e01b0316633d0d630f60e11b17905260375490915060009061051f906001600160a01b0316836109cd565b6036546040516375997ce960e01b81529192506001600160a01b0316906375997ce9906105529087908590600401610e47565b600060405180830381600087803b15801561056c57600080fd5b505af1158015610580573d6000803e3d6000fd5b50929695505050505050565b600054600160a81b900460ff16806105a757506105a7610aca565b806105bc5750600054600160a01b900460ff16155b6105d85760405162461bcd60e51b815260040161011090610df0565b600054600160a81b900460ff1615801561060f576000805460ff60a01b1960ff60a81b19909116600160a81b1716600160a01b1790555b603680546001600160a01b0319166001600160a01b03848116919091179182905560408051633800918160e21b81529051929091169163e002460491600480820192602092909190829003018186803b15801561066b57600080fd5b505afa15801561067f573d6000803e3d6000fd5b505050506040513d601f19601f820116820180604052508101906106a39190610b23565b603380546001600160a01b0319166001600160a01b03928316179055603654604080516315773e4d60e11b815290519190921691632aee7c9a916004808301926020929190829003018186803b1580156106fc57600080fd5b505afa158015610710573d6000803e3d6000fd5b505050506040513d601f19601f820116820180604052508101906107349190610b23565b603780546001600160a01b0319166001600160a01b039283161790556036546040805163123cfce160e01b81529051919092169163123cfce1916004808301926020929190829003018186803b15801561078d57600080fd5b505afa1580156107a1573d6000803e3d6000fd5b505050506040513d601f19601f820116820180604052508101906107c59190610b23565b603580546001600160a01b0319166001600160a01b03928316179055603654604080516352d6064360e11b81529051919092169163a5ac0c86916004808301926020929190829003018186803b15801561081e57600080fd5b505afa158015610832573d6000803e3d6000fd5b505050506040513d601f19601f820116820180604052508101906108569190610b23565b603480546001600160a01b0319166001600160a01b0392909216919091179055801561088a576000805460ff60a81b191690555b5050565b610896610944565b6000546001600160a01b039081169116146108c35760405162461bcd60e51b815260040161011090610dbb565b6001600160a01b0381166108e95760405162461bcd60e51b815260040161011090610c9a565b600080546040516001600160a01b03808516939216917f8be0079c531659141344cd1fd0a4f28419497f9722a3daafe3b4186f6b6457e091a3600080546001600160a01b0319166001600160a01b0392909216919091179055565b3390565b60008261095757506000610985565b8282028284828161096457fe5b04146109825760405162461bcd60e51b815260040161011090610d7a565b90505b92915050565b600061098283836040518060400160405280601a81526020017f536166654d6174683a206469766973696f6e206279207a65726f000000000000815250610ad0565b6000808360601b9050604051733d602d80600a3d3981f3363d3d373d3d3d363d7360601b81528160148201526e5af43d82803e903d91602b57fd5bf360881b60288201526037816000f09250507efffc2da0b561cae30d9826d37709e9421c4725faebc226cbbb7ef5fc5e734982604051610a489190610bf3565b60405180910390a1825115610ac3576000826001600160a01b031684604051610a719190610bd7565b6000604051808303816000865af19150503d8060008114610aae576040519150601f19603f3d011682016040523d82523d6000602084013e610ab3565b606091505b5050905080610ac157600080fd5b505b5092915050565b303b1590565b60008183610af15760405162461bcd60e51b81526004016101109190610c41565b506000838581610afd57fe5b0495945050505050565b600060208284031215610b18578081fd5b813561098281610e8e565b600060208284031215610b34578081fd5b815161098281610e8e565b600060208284031215610b50578081fd5b5035919050565b600060208284031215610b68578081fd5b5051919050565b600080600080600080600060e0888a031215610b89578283fd5b873596506020880135955060408801359450606088013593506080880135925060a0880135610bb781610e8e565b915060c0880135610bc781610e8e565b8091505092959891949750929550565b60008251610be9818460208701610e5e565b9190910192915050565b6001600160a01b0391909116815260200190565b6001600160a01b03929092168252602082015260400190565b6001600160a01b039390931683526020830191909152604082015260600190565b6000602082528251806020840152610c60816040850160208701610e5e565b601f01601f19169190910160400192915050565b6020808252600c908201526b4f6e6c7920706c616e65747360a01b604082015260600190565b60208082526026908201527f4f776e61626c653a206e6577206f776e657220697320746865207a65726f206160408201526564647265737360d01b606082015260800190565b6020808252602a908201527f436865636b207468652062616c616e6365206f662074686520706c616e6574206040820152691a5cc818dbdc9c9958dd60b21b606082015260800190565b60208082526030908201527f5468652073656e646572206d75737420626520746865206f776e6572206f662060408201526f3a343290383630b732ba103a37b5b2b760811b606082015260800190565b60208082526021908201527f536166654d6174683a206d756c7469706c69636174696f6e206f766572666c6f6040820152607760f81b606082015260800190565b6020808252818101527f4f776e61626c653a2063616c6c6572206973206e6f7420746865206f776e6572604082015260600190565b6020808252602e908201527f436f6e747261637420696e7374616e63652068617320616c726561647920626560408201526d195b881a5b9a5d1a585b1a5e995960921b606082015260800190565b90815260200190565b9182526001600160a01b0316602082015260400190565b60005b83811015610e79578181015183820152602001610e61565b83811115610e88576000848401525b50505050565b6001600160a01b0381168114610ea357600080fd5b5056fea26469706673582212200471d9d40d58077467f641e8503ecb3d09e5d19f4fc0d2e8521d4e8662296bf864736f6c634300060c0033",
  "immutableReferences": {},
  "source": "pragma solidity 0.6.12;\npragma experimental ABIEncoderV2;\nimport {Planet} from './Planet.sol';\nimport {Planets} from './Planets.sol';\nimport {Ownable} from '@openzeppelin/contracts/access/Ownable.sol';\nimport {ITreasury} from './interfaces/ITreasury.sol';\nimport {GameStorage} from './GameStorage.sol';\nimport {IPlanets} from './interfaces/IPlanets.sol';\nimport {ISolar} from './interfaces/ISolar.sol';\nimport {SafeMath} from '@openzeppelin/contracts/math/SafeMath.sol';\nimport {Initializable} from '@openzeppelin/upgrades-core/contracts/Initializable.sol';\n\ncontract PlanetManager is Ownable, Initializable {\n    using SafeMath for uint256;\n    ITreasury ts;\n    IPlanets planets;\n    ISolar solar;\n    GameStorage gs;\n    address planetImplementation;\n    event ProxyCreated(address proxy);\n\n    modifier onlyPlanet() {\n        require(gs.getProxyAddressToTokenId(msg.sender) != 0, 'Only planets');\n        _;\n    }\n\n    function initialize(address _gameStorage) public initializer {\n        gs = GameStorage(_gameStorage);\n        ts = ITreasury(gs.getTreasuryAddress());\n        planetImplementation = gs.getPlanetImplementation();\n        solar = ISolar(gs.getSolarAddress());\n        planets = IPlanets(gs.getPlanetsAddress());\n    }\n\n    function createPlanet(uint256 tokenId) public returns (address) {\n        emit ProxyCreated(planetImplementation);\n        bytes memory _data = abi.encodeWithSignature(\n            'initialize(address,uint256,uint256)',\n            address(gs),\n            tokenId,\n            gs.getTokenIdToYield(tokenId)\n        );\n        address proxy = deployMinimal(planetImplementation, _data);\n        gs.setProxyAddressToTokenId(tokenId, proxy);\n        return proxy;\n    }\n\n    function requestReward(\n        uint256 staked,\n        uint256 amount,\n        uint256 yield,\n        uint256 held,\n        uint256 tokenId,\n        address requestor,\n        address planet\n    ) public onlyPlanet {\n        require(planets.ownerOf(tokenId) == requestor, 'The sender must be the owner of the planet token');\n        require(solar.balanceOf(planet) == staked, 'Check the balance of the planet is correct');\n        uint256 percentageOfYear = held.mul(100).div(365 days);\n        uint256 reward = staked.mul(yield.mul(percentageOfYear).div(100)).div(100);\n        ts.mintSolar(requestor, amount);\n    }\n\n    function deployMinimal(address _logic, bytes memory _data) internal returns (address proxy) {\n        bytes20 targetBytes = bytes20(_logic);\n        assembly {\n            let clone := mload(0x40)\n            mstore(clone, 0x3d602d80600a3d3981f3363d3d373d3d3d363d73000000000000000000000000)\n            mstore(add(clone, 0x14), targetBytes)\n            mstore(add(clone, 0x28), 0x5af43d82803e903d91602b57fd5bf30000000000000000000000000000000000)\n            proxy := create(0, clone, 0x37)\n        }\n\n        emit ProxyCreated(address(proxy));\n        if (_data.length > 0) {\n            (bool success, ) = proxy.call(_data);\n            require(success);\n        }\n    }\n}\n",
  "sourcePath": "C:\\Users\\James\\projects\\tsuno-fe\\contracts\\PlanetManager.sol",
  "compiler": {
    "name": "solc",
    "version": "0.6.12+commit.27d51765.Emscripten.clang"
  },
  "schemaVersion": "3.2.5",
  "updatedAt": "2020-11-15T18:28:43.926Z",
  "networkType": "ethereum",
  "devdoc": {
    "kind": "dev",
    "methods": {
      "owner()": {
        "details": "Returns the address of the current owner."
      },
      "renounceOwnership()": {
        "details": "Leaves the contract without owner. It will not be possible to call `onlyOwner` functions anymore. Can only be called by the current owner. NOTE: Renouncing ownership will leave the contract without an owner, thereby removing any functionality that is only available to the owner."
      },
      "transferOwnership(address)": {
        "details": "Transfers ownership of the contract to a new account (`newOwner`). Can only be called by the current owner."
      }
    },
    "version": 1
  },
  "userdoc": {
    "kind": "user",
    "methods": {},
    "version": 1
  }
}