{
  "contractName": "Planet",
  "abi": [
    {
      "inputs": [],
      "name": "dateLocked",
      "outputs": [
        {
          "internalType": "uint256",
          "name": "",
          "type": "uint256"
        }
      ],
      "stateMutability": "view",
      "type": "function",
      "constant": true
    },
    {
      "inputs": [],
      "name": "minHold",
      "outputs": [
        {
          "internalType": "uint256",
          "name": "",
          "type": "uint256"
        }
      ],
      "stateMutability": "view",
      "type": "function",
      "constant": true
    },
    {
      "inputs": [
        {
          "internalType": "address",
          "name": "",
          "type": "address"
        },
        {
          "internalType": "address",
          "name": "",
          "type": "address"
        },
        {
          "internalType": "uint256[]",
          "name": "",
          "type": "uint256[]"
        },
        {
          "internalType": "uint256[]",
          "name": "",
          "type": "uint256[]"
        },
        {
          "internalType": "bytes",
          "name": "",
          "type": "bytes"
        }
      ],
      "name": "onERC1155BatchReceived",
      "outputs": [
        {
          "internalType": "bytes4",
          "name": "",
          "type": "bytes4"
        }
      ],
      "stateMutability": "nonpayable",
      "type": "function"
    },
    {
      "inputs": [
        {
          "internalType": "address",
          "name": "",
          "type": "address"
        },
        {
          "internalType": "address",
          "name": "",
          "type": "address"
        },
        {
          "internalType": "uint256",
          "name": "",
          "type": "uint256"
        },
        {
          "internalType": "uint256",
          "name": "",
          "type": "uint256"
        },
        {
          "internalType": "bytes",
          "name": "",
          "type": "bytes"
        }
      ],
      "name": "onERC1155Received",
      "outputs": [
        {
          "internalType": "bytes4",
          "name": "",
          "type": "bytes4"
        }
      ],
      "stateMutability": "nonpayable",
      "type": "function"
    },
    {
      "inputs": [],
      "name": "staked",
      "outputs": [
        {
          "internalType": "uint256",
          "name": "",
          "type": "uint256"
        }
      ],
      "stateMutability": "view",
      "type": "function",
      "constant": true
    },
    {
      "inputs": [
        {
          "internalType": "bytes4",
          "name": "interfaceId",
          "type": "bytes4"
        }
      ],
      "name": "supportsInterface",
      "outputs": [
        {
          "internalType": "bool",
          "name": "",
          "type": "bool"
        }
      ],
      "stateMutability": "view",
      "type": "function",
      "constant": true
    },
    {
      "inputs": [],
      "name": "tokenId",
      "outputs": [
        {
          "internalType": "uint256",
          "name": "",
          "type": "uint256"
        }
      ],
      "stateMutability": "view",
      "type": "function",
      "constant": true
    },
    {
      "inputs": [],
      "name": "yield",
      "outputs": [
        {
          "internalType": "uint256",
          "name": "",
          "type": "uint256"
        }
      ],
      "stateMutability": "view",
      "type": "function",
      "constant": true
    },
    {
      "inputs": [
        {
          "internalType": "address",
          "name": "_gameStorage",
          "type": "address"
        },
        {
          "internalType": "uint256",
          "name": "_yield",
          "type": "uint256"
        },
        {
          "internalType": "uint256",
          "name": "_tokenId",
          "type": "uint256"
        }
      ],
      "name": "initialize",
      "outputs": [],
      "stateMutability": "nonpayable",
      "type": "function"
    },
    {
      "inputs": [
        {
          "internalType": "uint256",
          "name": "amount",
          "type": "uint256"
        }
      ],
      "name": "depositSolar",
      "outputs": [],
      "stateMutability": "nonpayable",
      "type": "function"
    },
    {
      "inputs": [
        {
          "internalType": "uint256",
          "name": "amount",
          "type": "uint256"
        }
      ],
      "name": "withdrawSolar",
      "outputs": [],
      "stateMutability": "nonpayable",
      "type": "function"
    },
    {
      "inputs": [
        {
          "internalType": "uint256[]",
          "name": "_ids",
          "type": "uint256[]"
        },
        {
          "internalType": "uint256[]",
          "name": "_amounts",
          "type": "uint256[]"
        }
      ],
      "name": "depositSats",
      "outputs": [],
      "stateMutability": "nonpayable",
      "type": "function"
    },
    {
      "inputs": [
        {
          "internalType": "uint256[]",
          "name": "_ids",
          "type": "uint256[]"
        },
        {
          "internalType": "uint256[]",
          "name": "_amounts",
          "type": "uint256[]"
        }
      ],
      "name": "withdrawSats",
      "outputs": [],
      "stateMutability": "nonpayable",
      "type": "function"
    }
  ],
  "bytecode": "0x608060405234801561001057600080fd5b506100216301ffc9a760e01b610036565b610031630271189760e51b610036565b6100ba565b6001600160e01b03198082161415610095576040805162461bcd60e51b815260206004820152601c60248201527f4552433136353a20696e76616c696420696e7465726661636520696400000000604482015290519081900360640190fd5b6001600160e01b0319166000908152602081905260409020805460ff19166001179055565b610e39806100c96000396000f3fe608060405234801561001057600080fd5b50600436106100cf5760003560e01c80635d42ae4e1161008c578063a89cb1f811610066578063a89cb1f8146102d2578063bc197c81146103f5578063d471ed75146105d3578063f23a6e61146105db576100cf565b80635d42ae4e146101605780637a1ac61e1461017d578063a2bae169146101af576100cf565b806301ffc9a7146100d45780630b76619b1461010f57806317d70f7c1461012957806328593984146101315780632e2b7c001461013957806346ffb9a814610158575b600080fd5b6100fb600480360360208110156100ea57600080fd5b50356001600160e01b0319166106a4565b604080519115158252519081900360200190f35b6101176106c3565b60408051918252519081900360200190f35b6101176106c9565b6101176106cf565b6101566004803603602081101561014f57600080fd5b50356106d5565b005b61011761075e565b6101566004803603602081101561017657600080fd5b5035610764565b6101566004803603606081101561019357600080fd5b506001600160a01b03813516906020810135906040013561094c565b610156600480360360408110156101c557600080fd5b810190602081018135600160201b8111156101df57600080fd5b8201836020820111156101f157600080fd5b803590602001918460208302840111600160201b8311171561021257600080fd5b9190808060200260200160405190810160405280939291908181526020018383602002808284376000920191909152509295949360208101935035915050600160201b81111561026157600080fd5b82018360208201111561027357600080fd5b803590602001918460208302840111600160201b8311171561029457600080fd5b919080806020026020016040519081016040528093929190818152602001838360200280828437600092019190915250929550610b13945050505050565b610156600480360360408110156102e857600080fd5b810190602081018135600160201b81111561030257600080fd5b82018360208201111561031457600080fd5b803590602001918460208302840111600160201b8311171561033557600080fd5b9190808060200260200160405190810160405280939291908181526020018383602002808284376000920191909152509295949360208101935035915050600160201b81111561038457600080fd5b82018360208201111561039657600080fd5b803590602001918460208302840111600160201b831117156103b757600080fd5b919080806020026020016040519081016040528093929190818152602001838360200280828437600092019190915250929550610c28945050505050565b6105b6600480360360a081101561040b57600080fd5b6001600160a01b038235811692602081013590911691810190606081016040820135600160201b81111561043e57600080fd5b82018360208201111561045057600080fd5b803590602001918460208302840111600160201b8311171561047157600080fd5b9190808060200260200160405190810160405280939291908181526020018383602002808284376000920191909152509295949360208101935035915050600160201b8111156104c057600080fd5b8201836020820111156104d257600080fd5b803590602001918460208302840111600160201b831117156104f357600080fd5b9190808060200260200160405190810160405280939291908181526020018383602002808284376000920191909152509295949360208101935035915050600160201b81111561054257600080fd5b82018360208201111561055457600080fd5b803590602001918460018302840111600160201b8311171561057557600080fd5b91908080601f016020809104026020016040519081016040528093929190818152602001838380828437600092019190915250929550610ca6945050505050565b604080516001600160e01b03199092168252519081900360200190f35b610117610cb7565b6105b6600480360360a08110156105f157600080fd5b6001600160a01b03823581169260208101359091169160408201359160608101359181019060a081016080820135600160201b81111561063057600080fd5b82018360208201111561064257600080fd5b803590602001918460018302840111600160201b8311171561066357600080fd5b91908080601f016020809104026020016040519081016040528093929190818152602001838380828437600092019190915250929550610cbd945050505050565b6001600160e01b03191660009081526020819052604090205460ff1690565b603b5481565b603c5481565b60385481565b603554604080516323b872dd60e01b81523360048201523060248201526044810184905290516001600160a01b03909216916323b872dd9160648082019260009290919082900301818387803b15801561072e57600080fd5b505af1158015610742573d6000803e3d6000fd5b5050603b546107549250905082610cce565b603b555042603955565b60395481565b603b548111156107bb576040805162461bcd60e51b815260206004820152601b60248201527f416d6f756e742067726561746572207468616e2062616c616e63650000000000604482015290519081900360640190fd5b60006107d260395442610d2f90919063ffffffff16565b9050603a5481101561082b576040805162461bcd60e51b815260206004820152601960248201527f4d696e696d756d20686f6c64206e6f7420636f6d706c65746500000000000000604482015290519081900360640190fd5b603754603b54603854603c5460408051638ad220d560e01b815260048101949094526024840187905260448401929092526064830185905260848301523360a48301523060c4830152516001600160a01b0390921691638ad220d59160e48082019260009290919082900301818387803b1580156108a857600080fd5b505af11580156108bc573d6000803e3d6000fd5b50506035546040805163a9059cbb60e01b81523360048201526024810187905290516001600160a01b03909216935063a9059cbb925060448082019260009290919082900301818387803b15801561091357600080fd5b505af1158015610927573d6000803e3d6000fd5b5050603b546109399250905083610d2f565b603b8190556109485760006039555b5050565b603c819055603882905562127500603a55603480546001600160a01b0319166001600160a01b0385811691909117918290556040805163123cfce160e01b81529051929091169163123cfce191600481810192602092909190829003018186803b1580156109b957600080fd5b505afa1580156109cd573d6000803e3d6000fd5b505050506040513d60208110156109e357600080fd5b5051603580546001600160a01b0319166001600160a01b0392831617905560345460408051635beec2bb60e01b815290519190921691635beec2bb916004808301926020929190829003018186803b158015610a3e57600080fd5b505afa158015610a52573d6000803e3d6000fd5b505050506040513d6020811015610a6857600080fd5b5051603680546001600160a01b0319166001600160a01b0392831617905560345460408051633dd742c960e01b815290519190921691633dd742c9916004808301926020929190829003018186803b158015610ac357600080fd5b505afa158015610ad7573d6000803e3d6000fd5b505050506040513d6020811015610aed57600080fd5b5051603780546001600160a01b0319166001600160a01b03909216919091179055505050565b603654604051631759616b60e11b81523060048201818152336024840181905260a060448501908152875160a486015287516001600160a01b0390961695632eb2c2d69592938993899391926064820191608481019160c4909101906020808901910280838360005b83811015610b94578181015183820152602001610b7c565b50505050905001848103835285818151815260200191508051906020019060200280838360005b83811015610bd3578181015183820152602001610bbb565b50505050905001848103825260008152602001602001975050505050505050600060405180830381600087803b158015610c0c57600080fd5b505af1158015610c20573d6000803e3d6000fd5b505050505050565b603654604051631759616b60e11b81523360048201818152306024840181905260a060448501908152875160a486015287516001600160a01b0390961695632eb2c2d69592938993899391926064820191608481019160c4909101906020808901910280838360008315610b94578181015183820152602001610b7c565b63bc197c8160e01b95945050505050565b603a5481565b63f23a6e6160e01b95945050505050565b600082820183811015610d28576040805162461bcd60e51b815260206004820152601b60248201527f536166654d6174683a206164646974696f6e206f766572666c6f770000000000604482015290519081900360640190fd5b9392505050565b6000610d2883836040518060400160405280601e81526020017f536166654d6174683a207375627472616374696f6e206f766572666c6f77000081525060008184841115610dfb5760405162461bcd60e51b81526004018080602001828103825283818151815260200191508051906020019080838360005b83811015610dc0578181015183820152602001610da8565b50505050905090810190601f168015610ded5780820380516001836020036101000a031916815260200191505b509250505060405180910390fd5b50505090039056fea264697066735822122077eca6a919034121a281d347b4fcf1d02efd807caebd2bc649930b2507ca141364736f6c634300060c0033",
  "immutableReferences": {},
  "source": "import {ERC1155Holder} from '@openzeppelin/contracts/token/ERC1155/ERC1155Holder.sol';\nimport {ISolar} from './interfaces/ISolar.sol';\nimport {ISat} from './interfaces/ISat.sol';\nimport '@openzeppelin/upgrades/contracts/Initializable.sol';\nimport {SafeMath} from '@openzeppelin/contracts/math/SafeMath.sol';\nimport {GameStorage} from './GameStorage.sol';\n\ninterface IPlanetManager {\n    function requestReward(\n        uint256 staked,\n        uint256 amount,\n        uint256 yield,\n        uint256 held,\n        uint256 tokenId,\n        address requestor,\n        address planet\n    ) external;\n}\n\ncontract Planet is ERC1155Holder, Initializable {\n    using SafeMath for uint256;\n    GameStorage gs;\n    ISolar solar;\n    ISat sat;\n    IPlanetManager pm;\n\n    uint256 public yield;\n    uint256 public dateLocked;\n    uint256 public minHold;\n    uint256 public staked;\n    uint256 public tokenId;\n\n    function initialize(\n        address _gameStorage,\n        uint256 _yield,\n        uint256 _tokenId\n    ) public {\n        tokenId = _tokenId;\n        yield = _yield;\n        minHold = 14 days;\n        gs = GameStorage(_gameStorage);\n        solar = ISolar(gs.getSolarAddress());\n        sat = ISat(gs.getSatAddress());\n        pm = IPlanetManager(gs.getPlanetManagerAddress());\n    }\n\n    // modifier onlyTokenHolder() {\n    //     require(fhr.ownerOf(tokenId) == msg.sender, 'Sender not owner');\n    //     _;\n    // }\n\n    function depositSolar(uint256 amount) public {\n        if (staked > 0) {\n            // calculate and pay interest so far if there is already solar deposited\n        }\n        solar.transferFrom(msg.sender, address(this), amount);\n        staked = staked.add(amount);\n        dateLocked = now;\n    }\n\n    function withdrawSolar(uint256 amount) public {\n        require(amount <= staked, 'Amount greater than balance');\n\n        uint256 held = now.sub(dateLocked);\n        require(held >= minHold, 'Minimum hold not complete');\n\n        pm.requestReward(staked, amount, yield, held, tokenId, msg.sender, address(this));\n        solar.transfer(msg.sender, amount);\n\n        staked = staked.sub(amount);\n        if (staked == 0) dateLocked = 0;\n    }\n\n    function depositSats(uint256[] memory _ids, uint256[] memory _amounts) public {\n        sat.safeBatchTransferFrom(msg.sender, address(this), _ids, _amounts, '');\n    }\n\n    function withdrawSats(uint256[] memory _ids, uint256[] memory _amounts) public {\n        sat.safeBatchTransferFrom(address(this), msg.sender, _ids, _amounts, '');\n    }\n}\n",
  "sourcePath": "C:\\Users\\James\\projects\\tsuno-fe\\contracts\\Planet.sol",
  "compiler": {
    "name": "solc",
    "version": "0.6.12+commit.27d51765.Emscripten.clang"
  },
  "schemaVersion": "3.2.5",
  "updatedAt": "2020-11-15T18:28:43.930Z",
  "networkType": "ethereum",
  "devdoc": {
    "kind": "dev",
    "methods": {
      "supportsInterface(bytes4)": {
        "details": "See {IERC165-supportsInterface}. Time complexity O(1), guaranteed to always use less than 30 000 gas."
      }
    },
    "version": 1
  },
  "userdoc": {
    "kind": "user",
    "methods": {},
    "version": 1
  }
}