{
  "contractName": "ProposalValidator",
  "abi": [
    {
      "inputs": [
        {
          "internalType": "uint256",
          "name": "propositionThreshold",
          "type": "uint256"
        },
        {
          "internalType": "uint256",
          "name": "votingDuration",
          "type": "uint256"
        },
        {
          "internalType": "uint256",
          "name": "voteDifferential",
          "type": "uint256"
        },
        {
          "internalType": "uint256",
          "name": "minimumQuorum",
          "type": "uint256"
        }
      ],
      "stateMutability": "nonpayable",
      "type": "constructor"
    },
    {
      "inputs": [],
      "name": "MINIMUM_QUORUM",
      "outputs": [
        {
          "internalType": "uint256",
          "name": "",
          "type": "uint256"
        }
      ],
      "stateMutability": "view",
      "type": "function"
    },
    {
      "inputs": [],
      "name": "ONE_HUNDRED_WITH_PRECISION",
      "outputs": [
        {
          "internalType": "uint256",
          "name": "",
          "type": "uint256"
        }
      ],
      "stateMutability": "view",
      "type": "function"
    },
    {
      "inputs": [],
      "name": "PROPOSITION_THRESHOLD",
      "outputs": [
        {
          "internalType": "uint256",
          "name": "",
          "type": "uint256"
        }
      ],
      "stateMutability": "view",
      "type": "function"
    },
    {
      "inputs": [],
      "name": "VOTE_DIFFERENTIAL",
      "outputs": [
        {
          "internalType": "uint256",
          "name": "",
          "type": "uint256"
        }
      ],
      "stateMutability": "view",
      "type": "function"
    },
    {
      "inputs": [],
      "name": "VOTING_DURATION",
      "outputs": [
        {
          "internalType": "uint256",
          "name": "",
          "type": "uint256"
        }
      ],
      "stateMutability": "view",
      "type": "function"
    },
    {
      "inputs": [
        {
          "internalType": "contract IAaveGovernanceV2",
          "name": "governance",
          "type": "address"
        },
        {
          "internalType": "address",
          "name": "user",
          "type": "address"
        },
        {
          "internalType": "uint256",
          "name": "blockNumber",
          "type": "uint256"
        }
      ],
      "name": "validateCreatorOfProposal",
      "outputs": [
        {
          "internalType": "bool",
          "name": "",
          "type": "bool"
        }
      ],
      "stateMutability": "view",
      "type": "function"
    },
    {
      "inputs": [
        {
          "internalType": "contract IAaveGovernanceV2",
          "name": "governance",
          "type": "address"
        },
        {
          "internalType": "address",
          "name": "user",
          "type": "address"
        },
        {
          "internalType": "uint256",
          "name": "blockNumber",
          "type": "uint256"
        }
      ],
      "name": "validateProposalCancellation",
      "outputs": [
        {
          "internalType": "bool",
          "name": "",
          "type": "bool"
        }
      ],
      "stateMutability": "view",
      "type": "function"
    },
    {
      "inputs": [
        {
          "internalType": "contract IAaveGovernanceV2",
          "name": "governance",
          "type": "address"
        },
        {
          "internalType": "address",
          "name": "user",
          "type": "address"
        },
        {
          "internalType": "uint256",
          "name": "blockNumber",
          "type": "uint256"
        }
      ],
      "name": "isPropositionPowerEnough",
      "outputs": [
        {
          "internalType": "bool",
          "name": "",
          "type": "bool"
        }
      ],
      "stateMutability": "view",
      "type": "function"
    },
    {
      "inputs": [
        {
          "internalType": "contract IAaveGovernanceV2",
          "name": "governance",
          "type": "address"
        },
        {
          "internalType": "uint256",
          "name": "blockNumber",
          "type": "uint256"
        }
      ],
      "name": "getMinimumPropositionPowerNeeded",
      "outputs": [
        {
          "internalType": "uint256",
          "name": "",
          "type": "uint256"
        }
      ],
      "stateMutability": "view",
      "type": "function"
    },
    {
      "inputs": [
        {
          "internalType": "contract IAaveGovernanceV2",
          "name": "governance",
          "type": "address"
        },
        {
          "internalType": "uint256",
          "name": "proposalId",
          "type": "uint256"
        }
      ],
      "name": "isProposalPassed",
      "outputs": [
        {
          "internalType": "bool",
          "name": "",
          "type": "bool"
        }
      ],
      "stateMutability": "view",
      "type": "function"
    },
    {
      "inputs": [
        {
          "internalType": "uint256",
          "name": "votingSupply",
          "type": "uint256"
        }
      ],
      "name": "getMinimumVotingPowerNeeded",
      "outputs": [
        {
          "internalType": "uint256",
          "name": "",
          "type": "uint256"
        }
      ],
      "stateMutability": "view",
      "type": "function"
    },
    {
      "inputs": [
        {
          "internalType": "contract IAaveGovernanceV2",
          "name": "governance",
          "type": "address"
        },
        {
          "internalType": "uint256",
          "name": "proposalId",
          "type": "uint256"
        }
      ],
      "name": "isQuorumValid",
      "outputs": [
        {
          "internalType": "bool",
          "name": "",
          "type": "bool"
        }
      ],
      "stateMutability": "view",
      "type": "function"
    },
    {
      "inputs": [
        {
          "internalType": "contract IAaveGovernanceV2",
          "name": "governance",
          "type": "address"
        },
        {
          "internalType": "uint256",
          "name": "proposalId",
          "type": "uint256"
        }
      ],
      "name": "isVoteDifferentialValid",
      "outputs": [
        {
          "internalType": "bool",
          "name": "",
          "type": "bool"
        }
      ],
      "stateMutability": "view",
      "type": "function"
    }
  ],
  "bytecode": "0x61010060405234801561001157600080fd5b5060405161102938038061102983398101604081905261003091610047565b60809390935260a09190915260c05260e05261007c565b6000806000806080858703121561005c578384fd5b505082516020840151604085015160609095015191969095509092509050565b60805160a05160c05160e051610f696100c060003980610609528061064e52508061041d52806104905250806104b45250806106fb528061079e5250610f696000f3fe608060405234801561001057600080fd5b50600436106100cf5760003560e01c8063a438d2081161008c578063d0d9029811610066578063d0d9029814610176578063e50f840014610189578063f48cb1341461019c578063fd58afd4146101af576100cf565b8063a438d20814610153578063ace432091461015b578063b159beac1461016e576100cf565b806306fbb3ab146100d45780631d73fd6d146100fd57806331a7bc411461011257806366121042146101255780637aa50080146101385780639125fb581461014b575b600080fd5b6100e76100e2366004610c87565b6101b7565b6040516100f49190610ea4565b60405180910390f35b6101056101dd565b6040516100f49190610eaf565b6100e7610120366004610c47565b6101e3565b6100e7610133366004610c47565b6101f9565b6100e7610146366004610c87565b610302565b61010561048e565b6101056104b2565b6100e7610169366004610c87565b6104d6565b610105610607565b6100e7610184366004610c47565b61062b565b610105610197366004610e5b565b610640565b6101056101aa366004610c87565b61067a565b61010561079c565b60006101c383836104d6565b80156101d457506101d48383610302565b90505b92915050565b61271081565b60006101f08484846101f9565b15949350505050565b600080846001600160a01b03166306be3e8e6040518163ffffffff1660e01b815260040160206040518083038186803b15801561023557600080fd5b505afa158015610249573d6000803e3d6000fd5b505050506040513d601f19601f8201168201806040525081019061026d9190610c2b565b9050610279858461067a565b604051631420edcb60e31b81526001600160a01b0383169063a1076e58906102a79088908890600401610e8b565b60206040518083038186803b1580156102bf57600080fd5b505afa1580156102d3573d6000803e3d6000fd5b505050506040513d601f19601f820116820180604052508101906102f79190610e73565b101595945050505050565b600061030c610957565b604051633656de2160e01b81526001600160a01b03851690633656de2190610338908690600401610eaf565b60006040518083038186803b15801561035057600080fd5b505afa158015610364573d6000803e3d6000fd5b505050506040513d6000823e601f3d908101601f1916820160405261038c9190810190610cb2565b90506000816101e001516001600160a01b0316637a71f9d78361010001516040518263ffffffff1660e01b81526004016103c69190610eaf565b60206040518083038186803b1580156103de57600080fd5b505afa1580156103f2573d6000803e3d6000fd5b505050506040513d601f19601f820116820180604052508101906104169190610e73565b90506104667f00000000000000000000000000000000000000000000000000000000000000006104608361045a6127108761018001516107c090919063ffffffff16565b90610819565b9061085b565b6104848261045a6127108661016001516107c090919063ffffffff16565b1195945050505050565b7f000000000000000000000000000000000000000000000000000000000000000081565b7f000000000000000000000000000000000000000000000000000000000000000081565b60006104e0610957565b604051633656de2160e01b81526001600160a01b03851690633656de219061050c908690600401610eaf565b60006040518083038186803b15801561052457600080fd5b505afa158015610538573d6000803e3d6000fd5b505050506040513d6000823e601f3d908101601f191682016040526105609190810190610cb2565b90506000816101e001516001600160a01b0316637a71f9d78361010001516040518263ffffffff1660e01b815260040161059a9190610eaf565b60206040518083038186803b1580156105b257600080fd5b505afa1580156105c6573d6000803e3d6000fd5b505050506040513d601f19601f820116820180604052508101906105ea9190610e73565b90506105f581610640565b82610160015110159250505092915050565b7f000000000000000000000000000000000000000000000000000000000000000081565b60006106388484846101f9565b949350505050565b600061067261271061045a847f00000000000000000000000000000000000000000000000000000000000000006107c0565b90505b919050565b600080836001600160a01b03166306be3e8e6040518163ffffffff1660e01b815260040160206040518083038186803b1580156106b657600080fd5b505afa1580156106ca573d6000803e3d6000fd5b505050506040513d601f19601f820116820180604052508101906106ee9190610c2b565b905061063861271061045a7f0000000000000000000000000000000000000000000000000000000000000000846001600160a01b031663f6b50203886040518263ffffffff1660e01b81526004016107469190610eaf565b60206040518083038186803b15801561075e57600080fd5b505afa158015610772573d6000803e3d6000fd5b505050506040513d601f19601f820116820180604052508101906107969190610e73565b906107c0565b7f000000000000000000000000000000000000000000000000000000000000000081565b6000826107cf575060006101d7565b828202828482816107dc57fe5b04146101d45760405162461bcd60e51b8152600401808060200182810382526021815260200180610f136021913960400191505060405180910390fd5b60006101d483836040518060400160405280601a81526020017f536166654d6174683a206469766973696f6e206279207a65726f0000000000008152506108b5565b6000828201838110156101d4576040805162461bcd60e51b815260206004820152601b60248201527f536166654d6174683a206164646974696f6e206f766572666c6f770000000000604482015290519081900360640190fd5b600081836109415760405162461bcd60e51b81526004018080602001828103825283818151815260200191508051906020019080838360005b838110156109065781810151838201526020016108ee565b50505050905090810190601f1680156109335780820380516001836020036101000a031916815260200191505b509250505060405180910390fd5b50600083858161094d57fe5b0495945050505050565b6040518061022001604052806000815260200160006001600160a01b0316815260200160006001600160a01b031681526020016060815260200160608152602001606081526020016060815260200160608152602001600081526020016000815260200160008152602001600081526020016000815260200160001515815260200160001515815260200160006001600160a01b03168152602001600080191681525090565b805161067581610efa565b600082601f830112610a18578081fd5b8151610a2b610a2682610edc565b610eb8565b818152915060208083019084810181840286018201871015610a4c57600080fd5b60005b84811015610a74578151610a6281610efa565b84529282019290820190600101610a4f565b505050505092915050565b600082601f830112610a8f578081fd5b8151610a9d610a2682610edc565b818152915060208083019084810181840286018201871015610abe57600080fd5b60005b84811015610a7457610ad282610c1b565b84529282019290820190600101610ac1565b6000601f8381840112610af5578182fd5b8251610b03610a2682610edc565b818152925060208084019085810160005b84811015610bb1578151880189603f820112610b2f57600080fd5b8381015167ffffffffffffffff811115610b4557fe5b610b56818901601f19168601610eb8565b81815260408c81848601011115610b6c57600080fd5b60005b83811015610b8a578481018201518382018901528701610b6f565b83811115610b9b5760008885850101525b5050865250509282019290820190600101610b14565b50505050505092915050565b600082601f830112610bcd578081fd5b8151610bdb610a2682610edc565b818152915060208083019084810181840286018201871015610bfc57600080fd5b60005b84811015610a7457815184529282019290820190600101610bff565b8051801515811461067557600080fd5b600060208284031215610c3c578081fd5b81516101d481610efa565b600080600060608486031215610c5b578182fd5b8335610c6681610efa565b92506020840135610c7681610efa565b929592945050506040919091013590565b60008060408385031215610c99578182fd5b8235610ca481610efa565b946020939093013593505050565b600060208284031215610cc3578081fd5b815167ffffffffffffffff80821115610cda578283fd5b8184019150610220808387031215610cf0578384fd5b610cf981610eb8565b905082518152610d0b602084016109fd565b6020820152610d1c604084016109fd565b6040820152606083015182811115610d32578485fd5b610d3e87828601610a08565b606083015250608083015182811115610d55578485fd5b610d6187828601610bbd565b60808301525060a083015182811115610d78578485fd5b610d8487828601610ae4565b60a08301525060c083015182811115610d9b578485fd5b610da787828601610ae4565b60c08301525060e083015182811115610dbe578485fd5b610dca87828601610a7f565b60e083015250610100838101519082015261012080840151908201526101408084015190820152610160808401519082015261018080840151908201526101a09150610e17828401610c1b565b828201526101c09150610e2b828401610c1b565b828201526101e09150610e3f8284016109fd565b9181019190915261020091820151918101919091529392505050565b600060208284031215610e6c578081fd5b5035919050565b600060208284031215610e84578081fd5b5051919050565b6001600160a01b03929092168252602082015260400190565b901515815260200190565b90815260200190565b60405181810167ffffffffffffffff81118282101715610ed457fe5b604052919050565b600067ffffffffffffffff821115610ef057fe5b5060209081020190565b6001600160a01b0381168114610f0f57600080fd5b5056fe536166654d6174683a206d756c7469706c69636174696f6e206f766572666c6f77a2646970667358221220c2b67f13cd09d26969f011f65266815b91b206430abbf70094b6a3858652182764736f6c63430007050033",
  "immutableReferences": {
    "4465": [
      {
        "length": 32,
        "start": 1787
      },
      {
        "length": 32,
        "start": 1950
      }
    ],
    "4468": [
      {
        "length": 32,
        "start": 1204
      }
    ],
    "4471": [
      {
        "length": 32,
        "start": 1053
      },
      {
        "length": 32,
        "start": 1168
      }
    ],
    "4474": [
      {
        "length": 32,
        "start": 1545
      },
      {
        "length": 32,
        "start": 1614
      }
    ]
  },
  "source": "// SPDX-License-Identifier: agpl-3.0\r\npragma solidity 0.7.5;\r\npragma abicoder v2;\r\n\r\nimport {IAaveGovernanceV2} from './interfaces/IAaveGovernanceV2.sol';\r\nimport {IGovernanceStrategy} from './interfaces/IGovernanceStrategy.sol';\r\nimport {IProposalValidator} from './interfaces/IProposalValidator.sol';\r\nimport {SafeMath} from './dependencies/open-zeppelin/SafeMath.sol';\r\n\r\n/**\r\n * @title Proposal Validator Contract, inherited by  Aave Governance Executors\r\n * @dev Validates/Invalidations propositions state modifications.\r\n * Proposition Power functions: Validates proposition creations/ cancellation\r\n * Voting Power functions: Validates success of propositions.\r\n * @author Aave\r\n **/\r\ncontract ProposalValidator is IProposalValidator {\r\n  using SafeMath for uint256;\r\n\r\n  uint256 public immutable override PROPOSITION_THRESHOLD;\r\n  uint256 public immutable override VOTING_DURATION;\r\n  uint256 public immutable override VOTE_DIFFERENTIAL;\r\n  uint256 public immutable override MINIMUM_QUORUM;\r\n  uint256 public constant override ONE_HUNDRED_WITH_PRECISION = 10000; // Equivalent to 100%, but scaled for precision\r\n\r\n  /**\r\n   * @dev Constructor\r\n   * @param propositionThreshold minimum percentage of supply needed to submit a proposal\r\n   * - In ONE_HUNDRED_WITH_PRECISION units\r\n   * @param votingDuration duration in blocks of the voting period\r\n   * @param voteDifferential percentage of supply that `for` votes need to be over `against`\r\n   *   in order for the proposal to pass\r\n   * - In ONE_HUNDRED_WITH_PRECISION units\r\n   * @param minimumQuorum minimum percentage of the supply in FOR-voting-power need for a proposal to pass\r\n   * - In ONE_HUNDRED_WITH_PRECISION units\r\n   **/\r\n  constructor(\r\n    uint256 propositionThreshold,\r\n    uint256 votingDuration,\r\n    uint256 voteDifferential,\r\n    uint256 minimumQuorum\r\n  ) {\r\n    PROPOSITION_THRESHOLD = propositionThreshold;\r\n    VOTING_DURATION = votingDuration;\r\n    VOTE_DIFFERENTIAL = voteDifferential;\r\n    MINIMUM_QUORUM = minimumQuorum;\r\n  }\r\n\r\n  /**\r\n   * @dev Called to validate a proposal (e.g when creating new proposal in Governance)\r\n   * @param governance Governance Contract\r\n   * @param user Address of the proposal creator\r\n   * @param blockNumber Block Number against which to make the test (e.g proposal creation block -1).\r\n   * @return boolean, true if can be created\r\n   **/\r\n  function validateCreatorOfProposal(\r\n    IAaveGovernanceV2 governance,\r\n    address user,\r\n    uint256 blockNumber\r\n  ) external view override returns (bool) {\r\n    return isPropositionPowerEnough(governance, user, blockNumber);\r\n  }\r\n\r\n  /**\r\n   * @dev Called to validate the cancellation of a proposal\r\n   * Needs to creator to have lost proposition power threashold\r\n   * @param governance Governance Contract\r\n   * @param user Address of the proposal creator\r\n   * @param blockNumber Block Number against which to make the test (e.g proposal creation block -1).\r\n   * @return boolean, true if can be cancelled\r\n   **/\r\n  function validateProposalCancellation(\r\n    IAaveGovernanceV2 governance,\r\n    address user,\r\n    uint256 blockNumber\r\n  ) external view override returns (bool) {\r\n    return !isPropositionPowerEnough(governance, user, blockNumber);\r\n  }\r\n\r\n  /**\r\n   * @dev Returns whether a user has enough Proposition Power to make a proposal.\r\n   * @param governance Governance Contract\r\n   * @param user Address of the user to be challenged.\r\n   * @param blockNumber Block Number against which to make the challenge.\r\n   * @return true if user has enough power\r\n   **/\r\n  function isPropositionPowerEnough(\r\n    IAaveGovernanceV2 governance,\r\n    address user,\r\n    uint256 blockNumber\r\n  ) public view override returns (bool) {\r\n    IGovernanceStrategy currentGovernanceStrategy = IGovernanceStrategy(\r\n      governance.getGovernanceStrategy()\r\n    );\r\n    return\r\n      currentGovernanceStrategy.getPropositionPowerAt(user, blockNumber) >=\r\n      getMinimumPropositionPowerNeeded(governance, blockNumber);\r\n  }\r\n\r\n  /**\r\n   * @dev Returns the minimum Proposition Power needed to create a proposition.\r\n   * @param governance Governance Contract\r\n   * @param blockNumber Blocknumber at which to evaluate\r\n   * @return minimum Proposition Power needed\r\n   **/\r\n  function getMinimumPropositionPowerNeeded(IAaveGovernanceV2 governance, uint256 blockNumber)\r\n    public\r\n    view\r\n    override\r\n    returns (uint256)\r\n  {\r\n    IGovernanceStrategy currentGovernanceStrategy = IGovernanceStrategy(\r\n      governance.getGovernanceStrategy()\r\n    );\r\n    return\r\n      currentGovernanceStrategy\r\n        .getTotalPropositionSupplyAt(blockNumber)\r\n        .mul(PROPOSITION_THRESHOLD)\r\n        .div(ONE_HUNDRED_WITH_PRECISION);\r\n  }\r\n\r\n  /**\r\n   * @dev Returns whether a proposal passed or not\r\n   * @param governance Governance Contract\r\n   * @param proposalId Id of the proposal to set\r\n   * @return true if proposal passed\r\n   **/\r\n  function isProposalPassed(IAaveGovernanceV2 governance, uint256 proposalId)\r\n    external\r\n    view\r\n    override\r\n    returns (bool)\r\n  {\r\n    return (isQuorumValid(governance, proposalId) &&\r\n      isVoteDifferentialValid(governance, proposalId));\r\n  }\r\n\r\n  /**\r\n   * @dev Calculates the minimum amount of Voting Power needed for a proposal to Pass\r\n   * @param votingSupply Total number of oustanding voting tokens\r\n   * @return voting power needed for a proposal to pass\r\n   **/\r\n  function getMinimumVotingPowerNeeded(uint256 votingSupply)\r\n    public\r\n    view\r\n    override\r\n    returns (uint256)\r\n  {\r\n    return votingSupply.mul(MINIMUM_QUORUM).div(ONE_HUNDRED_WITH_PRECISION);\r\n  }\r\n\r\n  /**\r\n   * @dev Check whether a proposal has reached quorum, ie has enough FOR-voting-power\r\n   * Here quorum is not to understand as number of votes reached, but number of for-votes reached\r\n   * @param governance Governance Contract\r\n   * @param proposalId Id of the proposal to verify\r\n   * @return voting power needed for a proposal to pass\r\n   **/\r\n  function isQuorumValid(IAaveGovernanceV2 governance, uint256 proposalId)\r\n    public\r\n    view\r\n    override\r\n    returns (bool)\r\n  {\r\n    IAaveGovernanceV2.ProposalWithoutVotes memory proposal = governance.getProposalById(proposalId);\r\n    uint256 votingSupply = IGovernanceStrategy(proposal.strategy).getTotalVotingSupplyAt(\r\n      proposal.startBlock\r\n    );\r\n\r\n    return proposal.forVotes >= getMinimumVotingPowerNeeded(votingSupply);\r\n  }\r\n\r\n  /**\r\n   * @dev Check whether a proposal has enough extra FOR-votes than AGAINST-votes\r\n   * FOR VOTES - AGAINST VOTES > VOTE_DIFFERENTIAL * voting supply\r\n   * @param governance Governance Contract\r\n   * @param proposalId Id of the proposal to verify\r\n   * @return true if enough For-Votes\r\n   **/\r\n  function isVoteDifferentialValid(IAaveGovernanceV2 governance, uint256 proposalId)\r\n    public\r\n    view\r\n    override\r\n    returns (bool)\r\n  {\r\n    IAaveGovernanceV2.ProposalWithoutVotes memory proposal = governance.getProposalById(proposalId);\r\n    uint256 votingSupply = IGovernanceStrategy(proposal.strategy).getTotalVotingSupplyAt(\r\n      proposal.startBlock\r\n    );\r\n\r\n    return (proposal.forVotes.mul(ONE_HUNDRED_WITH_PRECISION).div(votingSupply) >\r\n      proposal.againstVotes.mul(ONE_HUNDRED_WITH_PRECISION).div(votingSupply).add(\r\n        VOTE_DIFFERENTIAL\r\n      ));\r\n  }\r\n}\r\n",
  "sourcePath": "C:\\Users\\James\\projects\\zygo\\blockchain\\contracts\\governance\\ProposalValidator.sol",
  "compiler": {
    "name": "solc",
    "version": "0.7.5+commit.eb77ed08.Emscripten.clang"
  },
  "schemaVersion": "3.3.2",
  "updatedAt": "2021-01-31T13:06:19.669Z",
  "devdoc": {
    "author": "Aave*",
    "details": "Validates/Invalidations propositions state modifications. Proposition Power functions: Validates proposition creations/ cancellation Voting Power functions: Validates success of propositions.",
    "kind": "dev",
    "methods": {
      "constructor": {
        "details": "Constructor",
        "params": {
          "minimumQuorum": "minimum percentage of the supply in FOR-voting-power need for a proposal to pass - In ONE_HUNDRED_WITH_PRECISION units*",
          "propositionThreshold": "minimum percentage of supply needed to submit a proposal - In ONE_HUNDRED_WITH_PRECISION units",
          "voteDifferential": "percentage of supply that `for` votes need to be over `against`   in order for the proposal to pass - In ONE_HUNDRED_WITH_PRECISION units",
          "votingDuration": "duration in blocks of the voting period"
        }
      },
      "getMinimumPropositionPowerNeeded(address,uint256)": {
        "details": "Returns the minimum Proposition Power needed to create a proposition.",
        "params": {
          "blockNumber": "Blocknumber at which to evaluate",
          "governance": "Governance Contract"
        },
        "returns": {
          "_0": "minimum Proposition Power needed*"
        }
      },
      "getMinimumVotingPowerNeeded(uint256)": {
        "details": "Calculates the minimum amount of Voting Power needed for a proposal to Pass",
        "params": {
          "votingSupply": "Total number of oustanding voting tokens"
        },
        "returns": {
          "_0": "voting power needed for a proposal to pass*"
        }
      },
      "isProposalPassed(address,uint256)": {
        "details": "Returns whether a proposal passed or not",
        "params": {
          "governance": "Governance Contract",
          "proposalId": "Id of the proposal to set"
        },
        "returns": {
          "_0": "true if proposal passed*"
        }
      },
      "isPropositionPowerEnough(address,address,uint256)": {
        "details": "Returns whether a user has enough Proposition Power to make a proposal.",
        "params": {
          "blockNumber": "Block Number against which to make the challenge.",
          "governance": "Governance Contract",
          "user": "Address of the user to be challenged."
        },
        "returns": {
          "_0": "true if user has enough power*"
        }
      },
      "isQuorumValid(address,uint256)": {
        "details": "Check whether a proposal has reached quorum, ie has enough FOR-voting-power Here quorum is not to understand as number of votes reached, but number of for-votes reached",
        "params": {
          "governance": "Governance Contract",
          "proposalId": "Id of the proposal to verify"
        },
        "returns": {
          "_0": "voting power needed for a proposal to pass*"
        }
      },
      "isVoteDifferentialValid(address,uint256)": {
        "details": "Check whether a proposal has enough extra FOR-votes than AGAINST-votes FOR VOTES - AGAINST VOTES > VOTE_DIFFERENTIAL * voting supply",
        "params": {
          "governance": "Governance Contract",
          "proposalId": "Id of the proposal to verify"
        },
        "returns": {
          "_0": "true if enough For-Votes*"
        }
      },
      "validateCreatorOfProposal(address,address,uint256)": {
        "details": "Called to validate a proposal (e.g when creating new proposal in Governance)",
        "params": {
          "blockNumber": "Block Number against which to make the test (e.g proposal creation block -1).",
          "governance": "Governance Contract",
          "user": "Address of the proposal creator"
        },
        "returns": {
          "_0": "boolean, true if can be created*"
        }
      },
      "validateProposalCancellation(address,address,uint256)": {
        "details": "Called to validate the cancellation of a proposal Needs to creator to have lost proposition power threashold",
        "params": {
          "blockNumber": "Block Number against which to make the test (e.g proposal creation block -1).",
          "governance": "Governance Contract",
          "user": "Address of the proposal creator"
        },
        "returns": {
          "_0": "boolean, true if can be cancelled*"
        }
      }
    },
    "stateVariables": {
      "MINIMUM_QUORUM": {
        "details": "Get quorum threshold constant value to compare with % of for votes/total supply",
        "return": "the quorum threshold value (100 <=> 1%)*"
      },
      "ONE_HUNDRED_WITH_PRECISION": {
        "details": "precision helper: 100% = 10000",
        "return": "one hundred percents with our chosen precision*"
      },
      "PROPOSITION_THRESHOLD": {
        "details": "Get proposition threshold constant value",
        "return": "the proposition threshold value (100 <=> 1%)*"
      },
      "VOTE_DIFFERENTIAL": {
        "details": "Get the vote differential threshold constant value to compare with % of for votes/total supply - % of against votes/total supply",
        "return": "the vote differential threshold value (100 <=> 1%)*"
      },
      "VOTING_DURATION": {
        "details": "Get voting duration constant value",
        "return": "the voting duration value in seconds*"
      }
    },
    "title": "Proposal Validator Contract, inherited by  Aave Governance Executors",
    "version": 1
  },
  "userdoc": {
    "kind": "user",
    "methods": {},
    "version": 1
  }
}