{
  "contractName": "Random",
  "abi": [
    {
      "inputs": [
        {
          "internalType": "uint256",
          "name": "_seed",
          "type": "uint256"
        }
      ],
      "name": "setSeed",
      "outputs": [],
      "stateMutability": "nonpayable",
      "type": "function"
    }
  ],
  "bytecode": "0x608060405260018055348015601357600080fd5b506090806100226000396000f3fe6080604052348015600f57600080fd5b506004361060285760003560e01c8063c32a50f914602d575b600080fd5b603c60383660046043565b603e565b005b600055565b6000602082840312156053578081fd5b503591905056fea26469706673582212207b226343c7ddd0fd5af78f3d406e4db280319de2fe758bcfb9e5992d4aa0072764736f6c634300060c0033",
  "immutableReferences": {},
  "source": "// SPDX-License-Identifier: MIT\n\npragma solidity 0.6.12;\npragma experimental ABIEncoderV2;\n\n/**\n * @title Exchange\n * @author Big Beluga\n *\n * Library for transferring tokens and interacting with ExchangeWrappers by using the Wei struct\n */\ncontract Random {\n    uint256 private seed;\n    uint256 nonce = 1;\n\n    function randomrange(uint256 a, uint256 b) internal returns (uint256 randomnumber) {\n        randomnumber = uint256(keccak256(abi.encodePacked(msg.sender, seed, nonce))) % b;\n        randomnumber = randomnumber < a ? randomnumber + a : randomnumber;\n        nonce++;\n\n        return randomnumber;\n    }\n\n    function setSeed(uint256 _seed) public {\n        seed = _seed;\n    }\n}\n",
  "sourcePath": "C:\\Users\\James\\projects\\tsuno-fe\\contracts\\Random.sol",
  "compiler": {
    "name": "solc",
    "version": "0.6.12+commit.27d51765.Emscripten.clang"
  },
  "schemaVersion": "3.2.5",
  "updatedAt": "2020-11-15T18:28:29.963Z",
  "devdoc": {
    "author": "Big Beluga Library for transferring tokens and interacting with ExchangeWrappers by using the Wei struct",
    "kind": "dev",
    "methods": {},
    "title": "Exchange",
    "version": 1
  },
  "userdoc": {
    "kind": "user",
    "methods": {},
    "version": 1
  }
}