{
  "contractName": "ShipsAndTechnology",
  "abi": [
    {
      "inputs": [
        {
          "internalType": "address",
          "name": "_holder",
          "type": "address"
        }
      ],
      "stateMutability": "nonpayable",
      "type": "constructor"
    },
    {
      "anonymous": false,
      "inputs": [
        {
          "indexed": true,
          "internalType": "address",
          "name": "account",
          "type": "address"
        },
        {
          "indexed": true,
          "internalType": "address",
          "name": "operator",
          "type": "address"
        },
        {
          "indexed": false,
          "internalType": "bool",
          "name": "approved",
          "type": "bool"
        }
      ],
      "name": "ApprovalForAll",
      "type": "event"
    },
    {
      "anonymous": false,
      "inputs": [
        {
          "indexed": true,
          "internalType": "address",
          "name": "previousOwner",
          "type": "address"
        },
        {
          "indexed": true,
          "internalType": "address",
          "name": "newOwner",
          "type": "address"
        }
      ],
      "name": "OwnershipTransferred",
      "type": "event"
    },
    {
      "anonymous": false,
      "inputs": [
        {
          "indexed": true,
          "internalType": "address",
          "name": "operator",
          "type": "address"
        },
        {
          "indexed": true,
          "internalType": "address",
          "name": "from",
          "type": "address"
        },
        {
          "indexed": true,
          "internalType": "address",
          "name": "to",
          "type": "address"
        },
        {
          "indexed": false,
          "internalType": "uint256[]",
          "name": "ids",
          "type": "uint256[]"
        },
        {
          "indexed": false,
          "internalType": "uint256[]",
          "name": "values",
          "type": "uint256[]"
        }
      ],
      "name": "TransferBatch",
      "type": "event"
    },
    {
      "anonymous": false,
      "inputs": [
        {
          "indexed": true,
          "internalType": "address",
          "name": "operator",
          "type": "address"
        },
        {
          "indexed": true,
          "internalType": "address",
          "name": "from",
          "type": "address"
        },
        {
          "indexed": true,
          "internalType": "address",
          "name": "to",
          "type": "address"
        },
        {
          "indexed": false,
          "internalType": "uint256",
          "name": "id",
          "type": "uint256"
        },
        {
          "indexed": false,
          "internalType": "uint256",
          "name": "value",
          "type": "uint256"
        }
      ],
      "name": "TransferSingle",
      "type": "event"
    },
    {
      "anonymous": false,
      "inputs": [
        {
          "indexed": false,
          "internalType": "string",
          "name": "value",
          "type": "string"
        },
        {
          "indexed": true,
          "internalType": "uint256",
          "name": "id",
          "type": "uint256"
        }
      ],
      "name": "URI",
      "type": "event"
    },
    {
      "inputs": [
        {
          "internalType": "address",
          "name": "account",
          "type": "address"
        },
        {
          "internalType": "uint256",
          "name": "id",
          "type": "uint256"
        }
      ],
      "name": "balanceOf",
      "outputs": [
        {
          "internalType": "uint256",
          "name": "",
          "type": "uint256"
        }
      ],
      "stateMutability": "view",
      "type": "function"
    },
    {
      "inputs": [
        {
          "internalType": "address[]",
          "name": "accounts",
          "type": "address[]"
        },
        {
          "internalType": "uint256[]",
          "name": "ids",
          "type": "uint256[]"
        }
      ],
      "name": "balanceOfBatch",
      "outputs": [
        {
          "internalType": "uint256[]",
          "name": "",
          "type": "uint256[]"
        }
      ],
      "stateMutability": "view",
      "type": "function"
    },
    {
      "inputs": [
        {
          "internalType": "address",
          "name": "account",
          "type": "address"
        },
        {
          "internalType": "address",
          "name": "operator",
          "type": "address"
        }
      ],
      "name": "isApprovedForAll",
      "outputs": [
        {
          "internalType": "bool",
          "name": "",
          "type": "bool"
        }
      ],
      "stateMutability": "view",
      "type": "function"
    },
    {
      "inputs": [],
      "name": "owner",
      "outputs": [
        {
          "internalType": "address",
          "name": "",
          "type": "address"
        }
      ],
      "stateMutability": "view",
      "type": "function"
    },
    {
      "inputs": [],
      "name": "renounceOwnership",
      "outputs": [],
      "stateMutability": "nonpayable",
      "type": "function"
    },
    {
      "inputs": [
        {
          "internalType": "address",
          "name": "from",
          "type": "address"
        },
        {
          "internalType": "address",
          "name": "to",
          "type": "address"
        },
        {
          "internalType": "uint256[]",
          "name": "ids",
          "type": "uint256[]"
        },
        {
          "internalType": "uint256[]",
          "name": "amounts",
          "type": "uint256[]"
        },
        {
          "internalType": "bytes",
          "name": "data",
          "type": "bytes"
        }
      ],
      "name": "safeBatchTransferFrom",
      "outputs": [],
      "stateMutability": "nonpayable",
      "type": "function"
    },
    {
      "inputs": [
        {
          "internalType": "address",
          "name": "from",
          "type": "address"
        },
        {
          "internalType": "address",
          "name": "to",
          "type": "address"
        },
        {
          "internalType": "uint256",
          "name": "id",
          "type": "uint256"
        },
        {
          "internalType": "uint256",
          "name": "amount",
          "type": "uint256"
        },
        {
          "internalType": "bytes",
          "name": "data",
          "type": "bytes"
        }
      ],
      "name": "safeTransferFrom",
      "outputs": [],
      "stateMutability": "nonpayable",
      "type": "function"
    },
    {
      "inputs": [
        {
          "internalType": "address",
          "name": "operator",
          "type": "address"
        },
        {
          "internalType": "bool",
          "name": "approved",
          "type": "bool"
        }
      ],
      "name": "setApprovalForAll",
      "outputs": [],
      "stateMutability": "nonpayable",
      "type": "function"
    },
    {
      "inputs": [
        {
          "internalType": "bytes4",
          "name": "interfaceId",
          "type": "bytes4"
        }
      ],
      "name": "supportsInterface",
      "outputs": [
        {
          "internalType": "bool",
          "name": "",
          "type": "bool"
        }
      ],
      "stateMutability": "view",
      "type": "function"
    },
    {
      "inputs": [
        {
          "internalType": "address",
          "name": "newOwner",
          "type": "address"
        }
      ],
      "name": "transferOwnership",
      "outputs": [],
      "stateMutability": "nonpayable",
      "type": "function"
    },
    {
      "inputs": [
        {
          "internalType": "uint256",
          "name": "",
          "type": "uint256"
        }
      ],
      "name": "uri",
      "outputs": [
        {
          "internalType": "string",
          "name": "",
          "type": "string"
        }
      ],
      "stateMutability": "view",
      "type": "function"
    },
    {
      "inputs": [
        {
          "internalType": "address",
          "name": "_operator",
          "type": "address"
        }
      ],
      "name": "addOperator",
      "outputs": [],
      "stateMutability": "nonpayable",
      "type": "function"
    }
  ],
  "bytecode": "0x60806040523480156200001157600080fd5b50604051620022b0380380620022b0833981810160405260208110156200003757600080fd5b50516040805160608101909152602680825262002269602083013960006200005e62000139565b600080546001600160a01b0319166001600160a01b0383169081178255604051929350917f8be0079c531659141344cd1fd0a4f28419497f9722a3daafe3b4186f6b6457e0908290a350620000ba6301ffc9a760e01b6200013e565b620000c581620001c6565b620000d7636cdb3d1360e11b6200013e565b620000e96303a24d0760e21b6200013e565b5060005b602e81101562000126576200011d82826200010881620001df565b6040805160208101909152600081526200023c565b600101620000ed565b5062000132816200036b565b5062000863565b335b90565b6001600160e01b031980821614156200019e576040805162461bcd60e51b815260206004820152601c60248201527f4552433136353a20696e76616c696420696e7465726661636520696400000000604482015290519081900360640190fd5b6001600160e01b0319166000908152600160208190526040909120805460ff19169091179055565b8051620001db90600490602084019062000711565b5050565b6000600d821415620001f557506103e862000237565b600e82141562000209575061019062000237565b600c8214156200021c5750600a62000237565b600f82141562000230575061271062000237565b50633b9aca005b919050565b6001600160a01b038416620002835760405162461bcd60e51b81526004018080602001828103825260218152602001806200228f6021913960400191505060405180910390fd5b60006200028f62000139565b9050620002b681600087620002a488620003fc565b620002af88620003fc565b8762000441565b60008481526002602090815260408083206001600160a01b0389168452825290912054620002ef9185906200118162000449821b17901c565b60008581526002602090815260408083206001600160a01b03808b16808652918452828520959095558151898152928301889052815190948616927fc3d58168c5ae7397731d063d5bbf3d657854427343f4c083240f7aacaa2d0f6292908290030190a46200036481600087878787620004ab565b5050505050565b6200037562000139565b6000546001600160a01b03908116911614620003d8576040805162461bcd60e51b815260206004820181905260248201527f4f776e61626c653a2063616c6c6572206973206e6f7420746865206f776e6572604482015290519081900360640190fd5b6001600160a01b03166000908152600660205260409020805460ff19166001179055565b6040805160018082528183019092526060918291906020808301908036833701905050905082816000815181106200043057fe5b602090810291909101015292915050565b505050505050565b600082820183811015620004a4576040805162461bcd60e51b815260206004820152601b60248201527f536166654d6174683a206164646974696f6e206f766572666c6f770000000000604482015290519081900360640190fd5b9392505050565b620004ca846001600160a01b03166200070b60201b620011e21760201c565b156200044157836001600160a01b031663f23a6e6187878686866040518663ffffffff1660e01b815260040180866001600160a01b03168152602001856001600160a01b0316815260200184815260200183815260200180602001828103825283818151815260200191508051906020019080838360005b838110156200055c57818101518382015260200162000542565b50505050905090810190601f1680156200058a5780820380516001836020036101000a031916815260200191505b509650505050505050602060405180830381600087803b158015620005ae57600080fd5b505af1925050508015620005d557506040513d6020811015620005d057600080fd5b505160015b620006b157620005e4620007b3565b80620005f1575062000679565b8060405162461bcd60e51b81526004018080602001828103825283818151815260200191508051906020019080838360005b838110156200063d57818101518382015260200162000623565b50505050905090810190601f1680156200066b5780820380516001836020036101000a031916815260200191505b509250505060405180910390fd5b60405162461bcd60e51b81526004018080602001828103825260348152602001806200220d6034913960400191505060405180910390fd5b6001600160e01b0319811663f23a6e6160e01b14620007025760405162461bcd60e51b8152600401808060200182810382526028815260200180620022416028913960400191505060405180910390fd5b50505050505050565b3b151590565b828054600181600116156101000203166002900490600052602060002090601f016020900481019282601f106200075457805160ff191683800117855562000784565b8280016001018555821562000784579182015b828111156200078457825182559160200191906001019062000767565b506200079292915062000796565b5090565b5b8082111562000792576000815560010162000797565b60e01c90565b600060443d1015620007c5576200013b565b600481823e6308c379a0620007db8251620007ad565b14620007e7576200013b565b6040513d600319016004823e80513d6001600160401b0380831160248401831017156200081857505050506200013b565b828401925082519150808211156200083457505050506200013b565b503d830160208284010111156200084e575050506200013b565b601f01601f1916810160200160405291505090565b61199a80620008736000396000f3fe608060405234801561001057600080fd5b50600436106100b35760003560e01c80638da5cb5b116100715780638da5cb5b146105015780639870d7fe14610525578063a22cb4651461054b578063e985e9c514610579578063f242432a146105a7578063f2fde38b14610670576100b3565b8062fdd58e146100b857806301ffc9a7146100f65780630e89341c146101315780632eb2c2d6146101c35780634e1273f414610386578063715018a6146104f9575b600080fd5b6100e4600480360360408110156100ce57600080fd5b506001600160a01b038135169060200135610696565b60408051918252519081900360200190f35b61011d6004803603602081101561010c57600080fd5b50356001600160e01b031916610705565b604080519115158252519081900360200190f35b61014e6004803603602081101561014757600080fd5b5035610724565b6040805160208082528351818301528351919283929083019185019080838360005b83811015610188578181015183820152602001610170565b50505050905090810190601f1680156101b55780820380516001836020036101000a031916815260200191505b509250505060405180910390f35b610384600480360360a08110156101d957600080fd5b6001600160a01b038235811692602081013590911691810190606081016040820135600160201b81111561020c57600080fd5b82018360208201111561021e57600080fd5b803590602001918460208302840111600160201b8311171561023f57600080fd5b9190808060200260200160405190810160405280939291908181526020018383602002808284376000920191909152509295949360208101935035915050600160201b81111561028e57600080fd5b8201836020820111156102a057600080fd5b803590602001918460208302840111600160201b831117156102c157600080fd5b9190808060200260200160405190810160405280939291908181526020018383602002808284376000920191909152509295949360208101935035915050600160201b81111561031057600080fd5b82018360208201111561032257600080fd5b803590602001918460018302840111600160201b8311171561034357600080fd5b91908080601f0160208091040260200160405190810160405280939291908181526020018383808284376000920191909152509295506107bc945050505050565b005b6104a96004803603604081101561039c57600080fd5b810190602081018135600160201b8111156103b657600080fd5b8201836020820111156103c857600080fd5b803590602001918460208302840111600160201b831117156103e957600080fd5b9190808060200260200160405190810160405280939291908181526020018383602002808284376000920191909152509295949360208101935035915050600160201b81111561043857600080fd5b82018360208201111561044a57600080fd5b803590602001918460208302840111600160201b8311171561046b57600080fd5b919080806020026020016040519081016040528093929190818152602001838360200280828437600092019190915250929550610abf945050505050565b60408051602080825283518183015283519192839290830191858101910280838360005b838110156104e55781810151838201526020016104cd565b505050509050019250505060405180910390f35b610384610c3d565b610509610cf1565b604080516001600160a01b039092168252519081900360200190f35b6103846004803603602081101561053b57600080fd5b50356001600160a01b0316610d01565b6103846004803603604081101561056157600080fd5b506001600160a01b0381351690602001351515610d8f565b61011d6004803603604081101561058f57600080fd5b506001600160a01b0381358116916020013516610e7e565b610384600480360360a08110156105bd57600080fd5b6001600160a01b03823581169260208101359091169160408201359160608101359181019060a081016080820135600160201b8111156105fc57600080fd5b82018360208201111561060e57600080fd5b803590602001918460018302840111600160201b8311171561062f57600080fd5b91908080601f016020809104026020016040519081016040528093929190818152602001838380828437600092019190915250929550610eac945050505050565b6103846004803603602081101561068657600080fd5b50356001600160a01b0316611077565b60006001600160a01b0383166106dd5760405162461bcd60e51b815260040180806020018281038252602b8152602001806117bf602b913960400191505060405180910390fd5b5060009081526002602090815260408083206001600160a01b03949094168352929052205490565b6001600160e01b03191660009081526001602052604090205460ff1690565b60048054604080516020601f60026000196101006001881615020190951694909404938401819004810282018101909252828152606093909290918301828280156107b05780601f10610785576101008083540402835291602001916107b0565b820191906000526020600020905b81548152906001019060200180831161079357829003601f168201915b50505050509050919050565b81518351146107fc5760405162461bcd60e51b815260040180806020018281038252602881526020018061193d6028913960400191505060405180910390fd5b6001600160a01b0384166108415760405162461bcd60e51b815260040180806020018281038252602581526020018061186a6025913960400191505060405180910390fd5b6108496111e8565b6001600160a01b0316856001600160a01b0316148061087457506108748561086f6111e8565b610e7e565b6108af5760405162461bcd60e51b815260040180806020018281038252603281526020018061188f6032913960400191505060405180910390fd5b60006108b96111e8565b90506108c9818787878787610ab7565b60005b84518110156109cf5760008582815181106108e357fe5b6020026020010151905060008583815181106108fb57fe5b60200260200101519050610968816040518060600160405280602a81526020016118c1602a91396002600086815260200190815260200160002060008d6001600160a01b03166001600160a01b03168152602001908152602001600020546111ec9092919063ffffffff16565b60008381526002602090815260408083206001600160a01b038e811685529252808320939093558a168152205461099f9082611181565b60009283526002602090815260408085206001600160a01b038c16865290915290922091909155506001016108cc565b50846001600160a01b0316866001600160a01b0316826001600160a01b03167f4a39dc06d4c0dbc64b70af90fd698a233a518aa5d07e595d983b8c0526c8f7fb8787604051808060200180602001838103835285818151815260200191508051906020019060200280838360005b83811015610a55578181015183820152602001610a3d565b50505050905001838103825284818151815260200191508051906020019060200280838360005b83811015610a94578181015183820152602001610a7c565b5050505090500194505050505060405180910390a4610ab7818787878787611283565b505050505050565b60608151835114610b015760405162461bcd60e51b81526004018080602001828103825260298152602001806119146029913960400191505060405180910390fd5b6060835167ffffffffffffffff81118015610b1b57600080fd5b50604051908082528060200260200182016040528015610b45578160200160208202803683370190505b50905060005b8451811015610c355760006001600160a01b0316858281518110610b6b57fe5b60200260200101516001600160a01b03161415610bb95760405162461bcd60e51b81526004018080602001828103825260318152602001806117ea6031913960400191505060405180910390fd5b60026000858381518110610bc957fe5b602002602001015181526020019081526020016000206000868381518110610bed57fe5b60200260200101516001600160a01b03166001600160a01b0316815260200190815260200160002054828281518110610c2257fe5b6020908102919091010152600101610b4b565b509392505050565b610c456111e8565b6000546001600160a01b03908116911614610ca7576040805162461bcd60e51b815260206004820181905260248201527f4f776e61626c653a2063616c6c6572206973206e6f7420746865206f776e6572604482015290519081900360640190fd5b600080546040516001600160a01b03909116907f8be0079c531659141344cd1fd0a4f28419497f9722a3daafe3b4186f6b6457e0908390a3600080546001600160a01b0319169055565b6000546001600160a01b03165b90565b610d096111e8565b6000546001600160a01b03908116911614610d6b576040805162461bcd60e51b815260206004820181905260248201527f4f776e61626c653a2063616c6c6572206973206e6f7420746865206f776e6572604482015290519081900360640190fd5b6001600160a01b03166000908152600660205260409020805460ff19166001179055565b816001600160a01b0316610da16111e8565b6001600160a01b03161415610de75760405162461bcd60e51b81526004018080602001828103825260298152602001806118eb6029913960400191505060405180910390fd5b8060036000610df46111e8565b6001600160a01b03908116825260208083019390935260409182016000908120918716808252919093529120805460ff191692151592909217909155610e386111e8565b6001600160a01b03167f17307eab39ab6107e8899845ad3d59bd9653f200f220920489ca2b5937696c318360405180821515815260200191505060405180910390a35050565b6001600160a01b03918216600090815260036020908152604080832093909416825291909152205460ff1690565b6001600160a01b038416610ef15760405162461bcd60e51b815260040180806020018281038252602581526020018061186a6025913960400191505060405180910390fd5b610ef96111e8565b6001600160a01b0316856001600160a01b03161480610f1f5750610f1f8561086f6111e8565b610f5a5760405162461bcd60e51b81526004018080602001828103825260298152602001806118416029913960400191505060405180910390fd5b6000610f646111e8565b9050610f84818787610f7588611502565b610f7e88611502565b87610ab7565b610fcb836040518060600160405280602a81526020016118c1602a913960008781526002602090815260408083206001600160a01b038d16845290915290205491906111ec565b60008581526002602090815260408083206001600160a01b038b811685529252808320939093558716815220546110029084611181565b60008581526002602090815260408083206001600160a01b03808b168086529184529382902094909455805188815291820187905280518a8416938616927fc3d58168c5ae7397731d063d5bbf3d657854427343f4c083240f7aacaa2d0f6292908290030190a4610ab7818787878787611546565b61107f6111e8565b6000546001600160a01b039081169116146110e1576040805162461bcd60e51b815260206004820181905260248201527f4f776e61626c653a2063616c6c6572206973206e6f7420746865206f776e6572604482015290519081900360640190fd5b6001600160a01b0381166111265760405162461bcd60e51b815260040180806020018281038252602681526020018061181b6026913960400191505060405180910390fd5b600080546040516001600160a01b03808516939216917f8be0079c531659141344cd1fd0a4f28419497f9722a3daafe3b4186f6b6457e091a3600080546001600160a01b0319166001600160a01b0392909216919091179055565b6000828201838110156111db576040805162461bcd60e51b815260206004820152601b60248201527f536166654d6174683a206164646974696f6e206f766572666c6f770000000000604482015290519081900360640190fd5b9392505050565b3b151590565b3390565b6000818484111561127b5760405162461bcd60e51b81526004018080602001828103825283818151815260200191508051906020019080838360005b83811015611240578181015183820152602001611228565b50505050905090810190601f16801561126d5780820380516001836020036101000a031916815260200191505b509250505060405180910390fd5b505050900390565b611295846001600160a01b03166111e2565b15610ab757836001600160a01b031663bc197c8187878686866040518663ffffffff1660e01b815260040180866001600160a01b03168152602001856001600160a01b03168152602001806020018060200180602001848103845287818151815260200191508051906020019060200280838360005b8381101561132357818101518382015260200161130b565b50505050905001848103835286818151815260200191508051906020019060200280838360005b8381101561136257818101518382015260200161134a565b50505050905001848103825285818151815260200191508051906020019080838360005b8381101561139e578181015183820152602001611386565b50505050905090810190601f1680156113cb5780820380516001836020036101000a031916815260200191505b5098505050505050505050602060405180830381600087803b1580156113f057600080fd5b505af192505050801561141557506040513d602081101561141057600080fd5b505160015b6114aa576114216116bd565b8061142c5750611473565b60405162461bcd60e51b8152602060048201818152835160248401528351849391928392604401919085019080838360008315611240578181015183820152602001611228565b60405162461bcd60e51b81526004018080602001828103825260348152602001806117636034913960400191505060405180910390fd5b6001600160e01b0319811663bc197c8160e01b146114f95760405162461bcd60e51b81526004018080602001828103825260288152602001806117976028913960400191505060405180910390fd5b50505050505050565b60408051600180825281830190925260609182919060208083019080368337019050509050828160008151811061153557fe5b602090810291909101015292915050565b611558846001600160a01b03166111e2565b15610ab757836001600160a01b031663f23a6e6187878686866040518663ffffffff1660e01b815260040180866001600160a01b03168152602001856001600160a01b0316815260200184815260200183815260200180602001828103825283818151815260200191508051906020019080838360005b838110156115e75781810151838201526020016115cf565b50505050905090810190601f1680156116145780820380516001836020036101000a031916815260200191505b509650505050505050602060405180830381600087803b15801561163757600080fd5b505af192505050801561165c57506040513d602081101561165757600080fd5b505160015b611668576114216116bd565b6001600160e01b0319811663f23a6e6160e01b146114f95760405162461bcd60e51b81526004018080602001828103825260288152602001806117976028913960400191505060405180910390fd5b60e01c90565b600060443d10156116cd57610cfe565b600481823e6308c379a06116e182516116b7565b146116eb57610cfe565b6040513d600319016004823e80513d67ffffffffffffffff816024840111818411171561171b5750505050610cfe565b828401925082519150808211156117355750505050610cfe565b503d8301602082840101111561174d57505050610cfe565b601f01601f191681016020016040529150509056fe455243313135353a207472616e7366657220746f206e6f6e2045524331313535526563656976657220696d706c656d656e746572455243313135353a204552433131353552656365697665722072656a656374656420746f6b656e73455243313135353a2062616c616e636520717565727920666f7220746865207a65726f2061646472657373455243313135353a2062617463682062616c616e636520717565727920666f7220746865207a65726f20616464726573734f776e61626c653a206e6577206f776e657220697320746865207a65726f2061646472657373455243313135353a2063616c6c6572206973206e6f74206f776e6572206e6f7220617070726f766564455243313135353a207472616e7366657220746f20746865207a65726f2061646472657373455243313135353a207472616e736665722063616c6c6572206973206e6f74206f776e6572206e6f7220617070726f766564455243313135353a20696e73756666696369656e742062616c616e636520666f72207472616e73666572455243313135353a2073657474696e6720617070726f76616c2073746174757320666f722073656c66455243313135353a206163636f756e747320616e6420696473206c656e677468206d69736d61746368455243313135353a2069647320616e6420616d6f756e7473206c656e677468206d69736d61746368a264697066735822122078d21d2b93a533f1fdecdee8840606937dbe95a210888cfbc84c2937838261ed64736f6c634300060c0033455243313135353a207472616e7366657220746f206e6f6e2045524331313535526563656976657220696d706c656d656e746572455243313135353a204552433131353552656365697665722072656a656374656420746f6b656e7368747470733a2f2f67616d652e6578616d706c652f6170692f6974656d2f7b317d2e6a736f6e455243313135353a206d696e7420746f20746865207a65726f2061646472657373",
  "immutableReferences": {},
  "source": "// SPDX-License-Identifier: MIT\n\npragma solidity 0.6.12;\nimport {ERC1155} from '@openzeppelin/contracts/token/ERC1155/ERC1155.sol';\nimport {Ownable} from '@openzeppelin/contracts/access/Ownable.sol';\nimport {EternalStorage} from './EternalStorage.sol';\n\ncontract ShipsAndTechnology is Ownable, ERC1155 {\n    EternalStorage es;\n    uint16 constant TOTAL_STARTING_ITEMS = 46;\n    mapping(address => bool) operators;\n\n    enum ShipAndTechList {\n        FEDERATION_CRUISER,\n        FEDERATION_DESTROYER,\n        FEDERATION_MASTER_VESSEL,\n        FEDERATION_FIGHTER_PLANE,\n        ALIEN_MASTER_VESSEL,\n        ALIEN_CRUISER,\n        ALIEN_DESTROYER,\n        ALIEN_FIGHTER_PLANE,\n        ADVANCED_RACE_MASTER_VESSEL,\n        ADVANCED_RACE_CRUISER,\n        ADVANCED_RACE_DESTROYER,\n        ADVANCED_RACE_FIGHTER_PLANE,\n        ANCIENT_MASTER_VESSEL,\n        ANCIENT_CRUISER,\n        ANCIENT_DESTROYER,\n        ANCIENT_FIGHTER_PLANE,\n        PIRATE_SHIP,\n        PIRATE_WEAPON\n    }\n\n    constructor(address _holder) public ERC1155('https://game.example/api/item/{1}.json') {\n        for (uint256 i = 0; i < TOTAL_STARTING_ITEMS; i++) {\n            _mint(_holder, i, getAmount(i), '');\n        }\n        addOperator(_holder);\n    }\n\n    function addOperator(address _operator) public onlyOwner {\n        operators[_operator] = true;\n    }\n\n    modifier onlyOperator() {\n        // Make sure the access is permitted to only contracts in our Dapp\n        require(operators[msg.sender], 'Only Operator');\n        _;\n    }\n\n    function getAmount(uint256 i) private returns (uint256 amount) {\n        if (i == uint256(ShipAndTechList.ANCIENT_CRUISER)) {\n            amount = 1000;\n        } else if (i == uint256(ShipAndTechList.ANCIENT_DESTROYER)) {\n            amount = 400;\n        } else if (i == uint256(ShipAndTechList.ANCIENT_MASTER_VESSEL)) {\n            amount = 10;\n        } else if (i == uint256(ShipAndTechList.ANCIENT_FIGHTER_PLANE)) {\n            amount = 10000;\n        } else {\n            amount = 10**9;\n        }\n    }\n}\n",
  "sourcePath": "C:\\Users\\James\\projects\\tsuno-fe\\contracts\\ShipsAndTechnology.sol",
  "compiler": {
    "name": "solc",
    "version": "0.6.12+commit.27d51765.Emscripten.clang"
  },
  "schemaVersion": "3.2.5",
  "updatedAt": "2020-11-15T18:28:43.899Z",
  "networkType": "ethereum",
  "devdoc": {
    "kind": "dev",
    "methods": {
      "balanceOf(address,uint256)": {
        "details": "See {IERC1155-balanceOf}. Requirements: - `account` cannot be the zero address."
      },
      "balanceOfBatch(address[],uint256[])": {
        "details": "See {IERC1155-balanceOfBatch}. Requirements: - `accounts` and `ids` must have the same length."
      },
      "isApprovedForAll(address,address)": {
        "details": "See {IERC1155-isApprovedForAll}."
      },
      "owner()": {
        "details": "Returns the address of the current owner."
      },
      "renounceOwnership()": {
        "details": "Leaves the contract without owner. It will not be possible to call `onlyOwner` functions anymore. Can only be called by the current owner. NOTE: Renouncing ownership will leave the contract without an owner, thereby removing any functionality that is only available to the owner."
      },
      "safeBatchTransferFrom(address,address,uint256[],uint256[],bytes)": {
        "details": "See {IERC1155-safeBatchTransferFrom}."
      },
      "safeTransferFrom(address,address,uint256,uint256,bytes)": {
        "details": "See {IERC1155-safeTransferFrom}."
      },
      "setApprovalForAll(address,bool)": {
        "details": "See {IERC1155-setApprovalForAll}."
      },
      "supportsInterface(bytes4)": {
        "details": "See {IERC165-supportsInterface}. Time complexity O(1), guaranteed to always use less than 30 000 gas."
      },
      "transferOwnership(address)": {
        "details": "Transfers ownership of the contract to a new account (`newOwner`). Can only be called by the current owner."
      },
      "uri(uint256)": {
        "details": "See {IERC1155MetadataURI-uri}. This implementation returns the same URI for *all* token types. It relies on the token type ID substitution mechanism https://eips.ethereum.org/EIPS/eip-1155#metadata[defined in the EIP]. Clients calling this function must replace the `\\{id\\}` substring with the actual token type ID."
      }
    },
    "version": 1
  },
  "userdoc": {
    "kind": "user",
    "methods": {},
    "version": 1
  }
}