{
  "contractName": "SigLPStake",
  "abi": [
    {
      "inputs": [
        {
          "internalType": "contract SignoToken",
          "name": "_signo",
          "type": "address"
        },
        {
          "internalType": "uint256",
          "name": "_signoPerBlock",
          "type": "uint256"
        },
        {
          "internalType": "uint256",
          "name": "_startBlock",
          "type": "uint256"
        },
        {
          "internalType": "uint256",
          "name": "_bonusEndBlock",
          "type": "uint256"
        }
      ],
      "stateMutability": "nonpayable",
      "type": "constructor"
    },
    {
      "anonymous": false,
      "inputs": [
        {
          "indexed": true,
          "internalType": "address",
          "name": "user",
          "type": "address"
        },
        {
          "indexed": true,
          "internalType": "uint256",
          "name": "pid",
          "type": "uint256"
        },
        {
          "indexed": false,
          "internalType": "uint256",
          "name": "amount",
          "type": "uint256"
        }
      ],
      "name": "Deposit",
      "type": "event"
    },
    {
      "anonymous": false,
      "inputs": [
        {
          "indexed": true,
          "internalType": "address",
          "name": "user",
          "type": "address"
        },
        {
          "indexed": true,
          "internalType": "uint256",
          "name": "pid",
          "type": "uint256"
        },
        {
          "indexed": false,
          "internalType": "uint256",
          "name": "amount",
          "type": "uint256"
        }
      ],
      "name": "EmergencyWithdraw",
      "type": "event"
    },
    {
      "anonymous": false,
      "inputs": [
        {
          "indexed": true,
          "internalType": "address",
          "name": "previousOwner",
          "type": "address"
        },
        {
          "indexed": true,
          "internalType": "address",
          "name": "newOwner",
          "type": "address"
        }
      ],
      "name": "OwnershipTransferred",
      "type": "event"
    },
    {
      "anonymous": false,
      "inputs": [
        {
          "indexed": true,
          "internalType": "address",
          "name": "user",
          "type": "address"
        },
        {
          "indexed": true,
          "internalType": "uint256",
          "name": "pid",
          "type": "uint256"
        },
        {
          "indexed": false,
          "internalType": "uint256",
          "name": "amount",
          "type": "uint256"
        }
      ],
      "name": "Withdraw",
      "type": "event"
    },
    {
      "inputs": [],
      "name": "BONUS_MULTIPLIER",
      "outputs": [
        {
          "internalType": "uint256",
          "name": "",
          "type": "uint256"
        }
      ],
      "stateMutability": "view",
      "type": "function"
    },
    {
      "inputs": [],
      "name": "bonusEndBlock",
      "outputs": [
        {
          "internalType": "uint256",
          "name": "",
          "type": "uint256"
        }
      ],
      "stateMutability": "view",
      "type": "function"
    },
    {
      "inputs": [],
      "name": "migrator",
      "outputs": [
        {
          "internalType": "contract IMigratorChef",
          "name": "",
          "type": "address"
        }
      ],
      "stateMutability": "view",
      "type": "function"
    },
    {
      "inputs": [],
      "name": "owner",
      "outputs": [
        {
          "internalType": "address",
          "name": "",
          "type": "address"
        }
      ],
      "stateMutability": "view",
      "type": "function"
    },
    {
      "inputs": [
        {
          "internalType": "uint256",
          "name": "",
          "type": "uint256"
        }
      ],
      "name": "poolInfo",
      "outputs": [
        {
          "internalType": "contract IERC20",
          "name": "lpToken",
          "type": "address"
        },
        {
          "internalType": "uint256",
          "name": "allocPoint",
          "type": "uint256"
        },
        {
          "internalType": "uint256",
          "name": "lastRewardBlock",
          "type": "uint256"
        },
        {
          "internalType": "uint256",
          "name": "accSignoPerShare",
          "type": "uint256"
        }
      ],
      "stateMutability": "view",
      "type": "function"
    },
    {
      "inputs": [],
      "name": "renounceOwnership",
      "outputs": [],
      "stateMutability": "nonpayable",
      "type": "function"
    },
    {
      "inputs": [],
      "name": "signo",
      "outputs": [
        {
          "internalType": "contract SignoToken",
          "name": "",
          "type": "address"
        }
      ],
      "stateMutability": "view",
      "type": "function"
    },
    {
      "inputs": [],
      "name": "signoPerBlock",
      "outputs": [
        {
          "internalType": "uint256",
          "name": "",
          "type": "uint256"
        }
      ],
      "stateMutability": "view",
      "type": "function"
    },
    {
      "inputs": [],
      "name": "startBlock",
      "outputs": [
        {
          "internalType": "uint256",
          "name": "",
          "type": "uint256"
        }
      ],
      "stateMutability": "view",
      "type": "function"
    },
    {
      "inputs": [],
      "name": "totalAllocPoint",
      "outputs": [
        {
          "internalType": "uint256",
          "name": "",
          "type": "uint256"
        }
      ],
      "stateMutability": "view",
      "type": "function"
    },
    {
      "inputs": [
        {
          "internalType": "address",
          "name": "newOwner",
          "type": "address"
        }
      ],
      "name": "transferOwnership",
      "outputs": [],
      "stateMutability": "nonpayable",
      "type": "function"
    },
    {
      "inputs": [
        {
          "internalType": "uint256",
          "name": "",
          "type": "uint256"
        },
        {
          "internalType": "address",
          "name": "",
          "type": "address"
        }
      ],
      "name": "userInfo",
      "outputs": [
        {
          "internalType": "uint256",
          "name": "amount",
          "type": "uint256"
        },
        {
          "internalType": "uint256",
          "name": "rewardDebt",
          "type": "uint256"
        }
      ],
      "stateMutability": "view",
      "type": "function"
    },
    {
      "inputs": [],
      "name": "poolLength",
      "outputs": [
        {
          "internalType": "uint256",
          "name": "",
          "type": "uint256"
        }
      ],
      "stateMutability": "view",
      "type": "function"
    },
    {
      "inputs": [
        {
          "internalType": "uint256",
          "name": "_allocPoint",
          "type": "uint256"
        },
        {
          "internalType": "contract IERC20",
          "name": "_lpToken",
          "type": "address"
        },
        {
          "internalType": "bool",
          "name": "_withUpdate",
          "type": "bool"
        }
      ],
      "name": "add",
      "outputs": [],
      "stateMutability": "nonpayable",
      "type": "function"
    },
    {
      "inputs": [
        {
          "internalType": "uint256",
          "name": "_pid",
          "type": "uint256"
        },
        {
          "internalType": "uint256",
          "name": "_allocPoint",
          "type": "uint256"
        },
        {
          "internalType": "bool",
          "name": "_withUpdate",
          "type": "bool"
        }
      ],
      "name": "set",
      "outputs": [],
      "stateMutability": "nonpayable",
      "type": "function"
    },
    {
      "inputs": [
        {
          "internalType": "contract IMigratorChef",
          "name": "_migrator",
          "type": "address"
        }
      ],
      "name": "setMigrator",
      "outputs": [],
      "stateMutability": "nonpayable",
      "type": "function"
    },
    {
      "inputs": [
        {
          "internalType": "uint256",
          "name": "_pid",
          "type": "uint256"
        }
      ],
      "name": "migrate",
      "outputs": [],
      "stateMutability": "nonpayable",
      "type": "function"
    },
    {
      "inputs": [
        {
          "internalType": "uint256",
          "name": "_from",
          "type": "uint256"
        },
        {
          "internalType": "uint256",
          "name": "_to",
          "type": "uint256"
        }
      ],
      "name": "getMultiplier",
      "outputs": [
        {
          "internalType": "uint256",
          "name": "",
          "type": "uint256"
        }
      ],
      "stateMutability": "view",
      "type": "function"
    },
    {
      "inputs": [
        {
          "internalType": "uint256",
          "name": "_pid",
          "type": "uint256"
        },
        {
          "internalType": "address",
          "name": "_user",
          "type": "address"
        }
      ],
      "name": "pendingSigno",
      "outputs": [
        {
          "internalType": "uint256",
          "name": "",
          "type": "uint256"
        }
      ],
      "stateMutability": "view",
      "type": "function"
    },
    {
      "inputs": [],
      "name": "massUpdatePools",
      "outputs": [],
      "stateMutability": "nonpayable",
      "type": "function"
    },
    {
      "inputs": [
        {
          "internalType": "uint256",
          "name": "_pid",
          "type": "uint256"
        }
      ],
      "name": "updatePool",
      "outputs": [],
      "stateMutability": "nonpayable",
      "type": "function"
    },
    {
      "inputs": [
        {
          "internalType": "uint256",
          "name": "_pid",
          "type": "uint256"
        },
        {
          "internalType": "uint256",
          "name": "_amount",
          "type": "uint256"
        }
      ],
      "name": "deposit",
      "outputs": [],
      "stateMutability": "nonpayable",
      "type": "function"
    },
    {
      "inputs": [
        {
          "internalType": "uint256",
          "name": "_pid",
          "type": "uint256"
        },
        {
          "internalType": "uint256",
          "name": "_amount",
          "type": "uint256"
        }
      ],
      "name": "withdraw",
      "outputs": [],
      "stateMutability": "nonpayable",
      "type": "function"
    },
    {
      "inputs": [
        {
          "internalType": "uint256",
          "name": "_pid",
          "type": "uint256"
        }
      ],
      "name": "emergencyWithdraw",
      "outputs": [],
      "stateMutability": "nonpayable",
      "type": "function"
    }
  ],
  "bytecode": "0x6080604052600060075534801561001557600080fd5b50604051611be9380380611be98339818101604052608081101561003857600080fd5b508051602082015160408301516060909301519192909160006100596100d8565b600080546001600160a01b0319166001600160a01b0383169081178255604051929350917f8be0079c531659141344cd1fd0a4f28419497f9722a3daafe3b4186f6b6457e0908290a350600180546001600160a01b0319166001600160a01b0395909516949094179093556003919091556002919091556008556100dc565b3390565b611afe806100eb6000396000f3fe608060405234801561001057600080fd5b50600436106101585760003560e01c806364482f79116100c35780638dbb1e3a1161007c5780638dbb1e3a1461034d57806393f1a40b14610370578063ca90628f146103b5578063e2bbb158146103bd578063ebff390e146103e0578063f2fde38b146103e857610158565b806364482f79146102ba578063715018a6146102e557806376f85163146102ed5780637cd07e47146103195780638aa285501461033d5780638da5cb5b1461034557610158565b8063441a3e7011610115578063441a3e7014610230578063454b06081461025357806348cd4cb11461027057806351eb05a6146102785780635312ea8e14610295578063630b5ba1146102b257610158565b8063081e3eda1461015d5780631526fe271461017757806317caf6f1146101c45780631aed6553146101cc5780631eaaa045146101d457806323cf31181461020a575b600080fd5b61016561040e565b60408051918252519081900360200190f35b6101946004803603602081101561018d57600080fd5b5035610414565b604080516001600160a01b0390951685526020850193909352838301919091526060830152519081900360800190f35b610165610455565b61016561045b565b610208600480360360608110156101ea57600080fd5b508035906001600160a01b0360208201351690604001351515610461565b005b6102086004803603602081101561022057600080fd5b50356001600160a01b03166105dc565b6102086004803603604081101561024657600080fd5b5080359060200135610656565b6102086004803603602081101561026957600080fd5b50356107b5565b610165610a25565b6102086004803603602081101561028e57600080fd5b5035610a2b565b610208600480360360208110156102ab57600080fd5b5035610bd0565b610208610c6c565b610208600480360360608110156102d057600080fd5b50803590602081013590604001351515610c8f565b610208610d60565b6101656004803603604081101561030357600080fd5b50803590602001356001600160a01b0316610e02565b610321610f66565b604080516001600160a01b039092168252519081900360200190f35b610165610f75565b610321610f7a565b6101656004803603604081101561036357600080fd5b5080359060200135610f89565b61039c6004803603604081101561038657600080fd5b50803590602001356001600160a01b0316610fef565b6040805192835260208301919091528051918290030190f35b610165611013565b610208600480360360408110156103d357600080fd5b5080359060200135611019565b61032161112b565b610208600480360360208110156103fe57600080fd5b50356001600160a01b031661113a565b60055490565b6005818154811061042157fe5b600091825260209091206004909102018054600182015460028301546003909301546001600160a01b039092169350919084565b60075481565b60025481565b610469611232565b6000546001600160a01b039081169116146104b9576040805162461bcd60e51b81526020600482018190526024820152600080516020611a49833981519152604482015290519081900360640190fd5b80156104c7576104c7610c6c565b600060085443116104da576008546104dc565b435b6007549091506104ec9085611236565b600755604080516080810182526001600160a01b0394851681526020810195865290810191825260006060820181815260058054600181018255925291517f036b6384b5eca791c62761152d0c79bb0604c104a5fb6f4eb0703f3154bb3db0600490920291820180546001600160a01b031916919096161790945593517f036b6384b5eca791c62761152d0c79bb0604c104a5fb6f4eb0703f3154bb3db1840155517f036b6384b5eca791c62761152d0c79bb0604c104a5fb6f4eb0703f3154bb3db28301555090517f036b6384b5eca791c62761152d0c79bb0604c104a5fb6f4eb0703f3154bb3db390910155565b6105e4611232565b6000546001600160a01b03908116911614610634576040805162461bcd60e51b81526020600482018190526024820152600080516020611a49833981519152604482015290519081900360640190fd5b600480546001600160a01b0319166001600160a01b0392909216919091179055565b60006005838154811061066557fe5b6000918252602080832086845260068252604080852033865290925292208054600490920290920192508311156106d8576040805162461bcd60e51b81526020600482015260126024820152711dda5d1a191c985dce881b9bdd0819dbdbd960721b604482015290519081900360640190fd5b6106e184610a2b565b600061071b826001015461071564e8d4a5100061070f8760030154876000015461129790919063ffffffff16565b906112f0565b90611332565b9050801561072d5761072d3382611374565b831561075757815461073f9085611332565b82558254610757906001600160a01b03163386611505565b600383015482546107729164e8d4a510009161070f91611297565b6001830155604080518581529051869133917ff279e6a1f5e320cca91135676d9cb6e44ca8a08c0b88342bcdb1144f6511b5689181900360200190a35050505050565b6004546001600160a01b0316610809576040805162461bcd60e51b815260206004820152601460248201527336b4b3b930ba329d1037379036b4b3b930ba37b960611b604482015290519081900360640190fd5b60006005828154811061081857fe5b600091825260208083206004928302018054604080516370a0823160e01b81523095810195909552519195506001600160a01b0316939284926370a0823192602480840193829003018186803b15801561087157600080fd5b505afa158015610885573d6000803e3d6000fd5b505050506040513d602081101561089b57600080fd5b50516004549091506108ba906001600160a01b03848116911683611557565b6000600460009054906101000a90046001600160a01b03166001600160a01b031663ce5494bb846040518263ffffffff1660e01b815260040180826001600160a01b03168152602001915050602060405180830381600087803b15801561092057600080fd5b505af1158015610934573d6000803e3d6000fd5b505050506040513d602081101561094a57600080fd5b5051604080516370a0823160e01b815230600482015290519192506001600160a01b038316916370a0823191602480820192602092909190829003018186803b15801561099657600080fd5b505afa1580156109aa573d6000803e3d6000fd5b505050506040513d60208110156109c057600080fd5b50518214610a04576040805162461bcd60e51b815260206004820152600c60248201526b1b5a59dc985d194e8818985960a21b604482015290519081900360640190fd5b83546001600160a01b0319166001600160a01b039190911617909255505050565b60085481565b600060058281548110610a3a57fe5b9060005260206000209060040201905080600201544311610a5b5750610bcd565b8054604080516370a0823160e01b815230600482015290516000926001600160a01b0316916370a08231916024808301926020929190829003018186803b158015610aa557600080fd5b505afa158015610ab9573d6000803e3d6000fd5b505050506040513d6020811015610acf57600080fd5b5051905080610ae5575043600290910155610bcd565b6000610af5836002015443610f89565b90506000610b2260075461070f8660010154610b1c6003548761129790919063ffffffff16565b90611297565b600154604080516340c10f1960e01b81523060048201526024810184905290519293506001600160a01b03909116916340c10f199160448082019260009290919082900301818387803b158015610b7857600080fd5b505af1158015610b8c573d6000803e3d6000fd5b50505050610bba610baf8461070f64e8d4a510008561129790919063ffffffff16565b600386015490611236565b6003850155505043600290920191909155505b50565b600060058281548110610bdf57fe5b600091825260208083208584526006825260408085203380875293528420805485825560018201959095556004909302018054909450919291610c2f916001600160a01b03919091169083611505565b604080518281529051859133917fbb757047c2b5f3974fe26b7c10f732e7bce710b0952a71082702781e62ae05959181900360200190a350505050565b60055460005b81811015610c8b57610c8381610a2b565b600101610c72565b5050565b610c97611232565b6000546001600160a01b03908116911614610ce7576040805162461bcd60e51b81526020600482018190526024820152600080516020611a49833981519152604482015290519081900360640190fd5b8015610cf557610cf5610c6c565b610d3282610d2c60058681548110610d0957fe5b90600052602060002090600402016001015460075461133290919063ffffffff16565b90611236565b6007819055508160058481548110610d4657fe5b906000526020600020906004020160010181905550505050565b610d68611232565b6000546001600160a01b03908116911614610db8576040805162461bcd60e51b81526020600482018190526024820152600080516020611a49833981519152604482015290519081900360640190fd5b600080546040516001600160a01b03909116907f8be0079c531659141344cd1fd0a4f28419497f9722a3daafe3b4186f6b6457e0908390a3600080546001600160a01b0319169055565b60008060058481548110610e1257fe5b600091825260208083208784526006825260408085206001600160a01b03898116875290845281862060049586029093016003810154815484516370a0823160e01b81523098810198909852935191985093969395939492909116926370a08231926024808301939192829003018186803b158015610e9057600080fd5b505afa158015610ea4573d6000803e3d6000fd5b505050506040513d6020811015610eba57600080fd5b5051600285015490915043118015610ed157508015155b15610f31576000610ee6856002015443610f89565b90506000610f0d60075461070f8860010154610b1c6003548761129790919063ffffffff16565b9050610f2c610f258461070f8464e8d4a51000611297565b8590611236565b935050505b610f59836001015461071564e8d4a5100061070f86886000015461129790919063ffffffff16565b9450505050505b92915050565b6004546001600160a01b031681565b600a81565b6000546001600160a01b031690565b60006002548211610faa57610fa3600a610b1c8486611332565b9050610f60565b6002548310610fbd57610fa38284611332565b610fa3610fd56002548461133290919063ffffffff16565b610d2c600a610b1c8760025461133290919063ffffffff16565b60066020908152600092835260408084209091529082529020805460019091015482565b60035481565b60006005838154811061102857fe5b6000918252602080832086845260068252604080852033865290925292206004909102909101915061105984610a2b565b8054156110a257600061108e826001015461071564e8d4a5100061070f8760030154876000015461129790919063ffffffff16565b905080156110a0576110a03382611374565b505b82156110ce5781546110bf906001600160a01b031633308661166a565b80546110cb9084611236565b81555b600382015481546110e99164e8d4a510009161070f91611297565b6001820155604080518481529051859133917f90890809c654f11d6e72a28fa60149770a0d11ec6c92319d6ceb2bb0a4ea1a159181900360200190a350505050565b6001546001600160a01b031681565b611142611232565b6000546001600160a01b03908116911614611192576040805162461bcd60e51b81526020600482018190526024820152600080516020611a49833981519152604482015290519081900360640190fd5b6001600160a01b0381166111d75760405162461bcd60e51b8152600401808060200182810382526026815260200180611a026026913960400191505060405180910390fd5b600080546040516001600160a01b03808516939216917f8be0079c531659141344cd1fd0a4f28419497f9722a3daafe3b4186f6b6457e091a3600080546001600160a01b0319166001600160a01b0392909216919091179055565b3390565b600082820183811015611290576040805162461bcd60e51b815260206004820152601b60248201527f536166654d6174683a206164646974696f6e206f766572666c6f770000000000604482015290519081900360640190fd5b9392505050565b6000826112a657506000610f60565b828202828482816112b357fe5b04146112905760405162461bcd60e51b8152600401808060200182810382526021815260200180611a286021913960400191505060405180910390fd5b600061129083836040518060400160405280601a81526020017f536166654d6174683a206469766973696f6e206279207a65726f0000000000008152506116ca565b600061129083836040518060400160405280601e81526020017f536166654d6174683a207375627472616374696f6e206f766572666c6f77000081525061176c565b600154604080516370a0823160e01b815230600482015290516000926001600160a01b0316916370a08231916024808301926020929190829003018186803b1580156113bf57600080fd5b505afa1580156113d3573d6000803e3d6000fd5b505050506040513d60208110156113e957600080fd5b505190508082111561147d576001546040805163a9059cbb60e01b81526001600160a01b038681166004830152602482018590529151919092169163a9059cbb9160448083019260209291908290030181600087803b15801561144b57600080fd5b505af115801561145f573d6000803e3d6000fd5b505050506040513d602081101561147557600080fd5b506115009050565b6001546040805163a9059cbb60e01b81526001600160a01b038681166004830152602482018690529151919092169163a9059cbb9160448083019260209291908290030181600087803b1580156114d357600080fd5b505af11580156114e7573d6000803e3d6000fd5b505050506040513d60208110156114fd57600080fd5b50505b505050565b604080516001600160a01b038416602482015260448082018490528251808303909101815260649091019091526020810180516001600160e01b031663a9059cbb60e01b1790526115009084906117c6565b8015806115dd575060408051636eb1769f60e11b81523060048201526001600160a01b03848116602483015291519185169163dd62ed3e91604480820192602092909190829003018186803b1580156115af57600080fd5b505afa1580156115c3573d6000803e3d6000fd5b505050506040513d60208110156115d957600080fd5b5051155b6116185760405162461bcd60e51b8152600401808060200182810382526036815260200180611a936036913960400191505060405180910390fd5b604080516001600160a01b038416602482015260448082018490528251808303909101815260649091019091526020810180516001600160e01b031663095ea7b360e01b1790526115009084906117c6565b604080516001600160a01b0380861660248301528416604482015260648082018490528251808303909101815260849091019091526020810180516001600160e01b03166323b872dd60e01b1790526116c49085906117c6565b50505050565b600081836117565760405162461bcd60e51b81526004018080602001828103825283818151815260200191508051906020019080838360005b8381101561171b578181015183820152602001611703565b50505050905090810190601f1680156117485780820380516001836020036101000a031916815260200191505b509250505060405180910390fd5b50600083858161176257fe5b0495945050505050565b600081848411156117be5760405162461bcd60e51b815260206004820181815283516024840152835190928392604490910191908501908083836000831561171b578181015183820152602001611703565b505050900390565b606061181b826040518060400160405280602081526020017f5361666545524332303a206c6f772d6c6576656c2063616c6c206661696c6564815250856001600160a01b03166118779092919063ffffffff16565b8051909150156115005780806020019051602081101561183a57600080fd5b50516115005760405162461bcd60e51b815260040180806020018281038252602a815260200180611a69602a913960400191505060405180910390fd5b6060611886848460008561188e565b949350505050565b6060611899856119fb565b6118ea576040805162461bcd60e51b815260206004820152601d60248201527f416464726573733a2063616c6c20746f206e6f6e2d636f6e7472616374000000604482015290519081900360640190fd5b60006060866001600160a01b031685876040518082805190602001908083835b602083106119295780518252601f19909201916020918201910161190a565b6001836020036101000a03801982511681845116808217855250505050505090500191505060006040518083038185875af1925050503d806000811461198b576040519150601f19603f3d011682016040523d82523d6000602084013e611990565b606091505b509150915081156119a45791506118869050565b8051156119b45780518082602001fd5b60405162461bcd60e51b815260206004820181815286516024840152865187939192839260440191908501908083836000831561171b578181015183820152602001611703565b3b15159056fe4f776e61626c653a206e6577206f776e657220697320746865207a65726f2061646472657373536166654d6174683a206d756c7469706c69636174696f6e206f766572666c6f774f776e61626c653a2063616c6c6572206973206e6f7420746865206f776e65725361666545524332303a204552433230206f7065726174696f6e20646964206e6f7420737563636565645361666545524332303a20617070726f76652066726f6d206e6f6e2d7a65726f20746f206e6f6e2d7a65726f20616c6c6f77616e6365a264697066735822122024cef2b14ab9a91741d86efa42c9bae066e83dbb08789e92e030445ca27bb19964736f6c634300060c0033",
  "immutableReferences": {},
  "source": "// MasterChef is the master of Signo. He can make Signo and he is a fair guy.\n//\n// Note that it's ownable and the owner wields tremendous power. The ownership\n// will be transferred to a governance smart contract once Signo is sufficiently\n// distributed and the community can show to govern itself.\n//\n// Have fun reading it. Hopefully it's bug-free. God bless.\n\npragma solidity 0.6.12;\n\nimport '@openzeppelin/contracts/token/ERC20/IERC20.sol';\nimport '@openzeppelin/contracts/token/ERC20/SafeERC20.sol';\nimport '@openzeppelin/contracts/utils/EnumerableSet.sol';\nimport '@openzeppelin/contracts/math/SafeMath.sol';\nimport '@openzeppelin/contracts/access/Ownable.sol';\nimport './SignoToken.sol';\n\ninterface IMigratorChef {\n    // Perform LP token migration from legacy UniswapV2 to SignoSwap.\n    // Take the current LP token address and return the new LP token address.\n    // Migrator should have full access to the caller's LP token.\n    // Return the new LP token address.\n    //\n    // XXX Migrator must have allowance access to UniswapV2 LP tokens.\n    // SignoSwap must mint EXACTLY the same amount of SignoSwap LP tokens or\n    // else something bad will happen. Traditional UniswapV2 does not\n    // do that so be careful!\n    function migrate(IERC20 token) external returns (IERC20);\n}\n\ncontract SigLPStake is Ownable {\n    using SafeMath for uint256;\n    using SafeERC20 for IERC20;\n\n    // Info of each user.\n    struct UserInfo {\n        uint256 amount; // How many LP tokens the user has provided.\n        uint256 rewardDebt; // Reward debt. See explanation below.\n        //\n        // We do some fancy math here. Basically, any point in time, the amount of Signos\n        // entitled to a user but is pending to be distributed is:\n        //\n        //   pending reward = (user.amount * pool.accSignoPerShare) - user.rewardDebt\n        //\n        // Whenever a user deposits or withdraws LP tokens to a pool. Here's what happens:\n        //   1. The pool's `accSignoPerShare` (and `lastRewardBlock`) gets updated.\n        //   2. User receives the pending reward sent to his/her address.\n        //   3. User's `amount` gets updated.\n        //   4. User's `rewardDebt` gets updated.\n    }\n\n    // Info of each pool.\n    struct PoolInfo {\n        IERC20 lpToken; // Address of LP token contract.\n        uint256 allocPoint; // How many allocation points assigned to this pool. Signos to distribute per block.\n        uint256 lastRewardBlock; // Last block number that Signos distribution occurs.\n        uint256 accSignoPerShare; // Accumulated Signos per share, times 1e12. See below.\n    }\n\n    // The Signo TOKEN!\n    SignoToken public signo;\n    // Dev address.\n    // Block number when bonus signo period ends.\n    uint256 public bonusEndBlock;\n    // signo tokens created per block.\n    uint256 public signoPerBlock;\n    // Bonus muliplier for early signo makers.\n    uint256 public constant BONUS_MULTIPLIER = 10;\n    // The migrator contract. It has a lot of power. Can only be set through governance (owner).\n    IMigratorChef public migrator;\n\n    // Info of each pool.\n    PoolInfo[] public poolInfo;\n    // Info of each user that stakes LP tokens.\n    mapping(uint256 => mapping(address => UserInfo)) public userInfo;\n    // Total allocation points. Must be the sum of all allocation points in all pools.\n    uint256 public totalAllocPoint = 0;\n    // The block number when signo mining starts.\n    uint256 public startBlock;\n\n    event Deposit(address indexed user, uint256 indexed pid, uint256 amount);\n    event Withdraw(address indexed user, uint256 indexed pid, uint256 amount);\n    event EmergencyWithdraw(address indexed user, uint256 indexed pid, uint256 amount);\n\n    constructor(\n        SignoToken _signo,\n        uint256 _signoPerBlock,\n        uint256 _startBlock,\n        uint256 _bonusEndBlock\n    ) public {\n        signo = _signo;\n        signoPerBlock = _signoPerBlock;\n        bonusEndBlock = _bonusEndBlock;\n        startBlock = _startBlock;\n    }\n\n    function poolLength() external view returns (uint256) {\n        return poolInfo.length;\n    }\n\n    // Add a new lp to the pool. Can only be called by the owner.\n    // XXX DO NOT add the same LP token more than once. Rewards will be messed up if you do.\n    function add(\n        uint256 _allocPoint,\n        IERC20 _lpToken,\n        bool _withUpdate\n    ) public onlyOwner {\n        if (_withUpdate) {\n            massUpdatePools();\n        }\n        uint256 lastRewardBlock = block.number > startBlock ? block.number : startBlock;\n        totalAllocPoint = totalAllocPoint.add(_allocPoint);\n        poolInfo.push(\n            PoolInfo({\n                lpToken: _lpToken,\n                allocPoint: _allocPoint,\n                lastRewardBlock: lastRewardBlock,\n                accSignoPerShare: 0\n            })\n        );\n    }\n\n    // Update the given pool's SIGNO allocation point. Can only be called by the owner.\n    function set(\n        uint256 _pid,\n        uint256 _allocPoint,\n        bool _withUpdate\n    ) public onlyOwner {\n        if (_withUpdate) {\n            massUpdatePools();\n        }\n        totalAllocPoint = totalAllocPoint.sub(poolInfo[_pid].allocPoint).add(_allocPoint);\n        poolInfo[_pid].allocPoint = _allocPoint;\n    }\n\n    // Set the migrator contract. Can only be called by the owner.\n    function setMigrator(IMigratorChef _migrator) public onlyOwner {\n        migrator = _migrator;\n    }\n\n    // Migrate lp token to another lp contract. Can be called by anyone. We trust that migrator contract is good.\n    function migrate(uint256 _pid) public {\n        require(address(migrator) != address(0), 'migrate: no migrator');\n        PoolInfo storage pool = poolInfo[_pid];\n        IERC20 lpToken = pool.lpToken;\n        uint256 bal = lpToken.balanceOf(address(this));\n        lpToken.safeApprove(address(migrator), bal);\n        IERC20 newLpToken = migrator.migrate(lpToken);\n        require(bal == newLpToken.balanceOf(address(this)), 'migrate: bad');\n        pool.lpToken = newLpToken;\n    }\n\n    // Return reward multiplier over the given _from to _to block.\n    function getMultiplier(uint256 _from, uint256 _to) public view returns (uint256) {\n        if (_to <= bonusEndBlock) {\n            return _to.sub(_from).mul(BONUS_MULTIPLIER);\n        } else if (_from >= bonusEndBlock) {\n            return _to.sub(_from);\n        } else {\n            return bonusEndBlock.sub(_from).mul(BONUS_MULTIPLIER).add(_to.sub(bonusEndBlock));\n        }\n    }\n\n    // View function to see pending Signos on frontend.\n    function pendingSigno(uint256 _pid, address _user) external view returns (uint256) {\n        PoolInfo storage pool = poolInfo[_pid];\n        UserInfo storage user = userInfo[_pid][_user];\n        uint256 accSignoPerShare = pool.accSignoPerShare;\n        uint256 lpSupply = pool.lpToken.balanceOf(address(this));\n        if (block.number > pool.lastRewardBlock && lpSupply != 0) {\n            uint256 multiplier = getMultiplier(pool.lastRewardBlock, block.number);\n            uint256 signoReward = multiplier.mul(signoPerBlock).mul(pool.allocPoint).div(totalAllocPoint);\n            accSignoPerShare = accSignoPerShare.add(signoReward.mul(1e12).div(lpSupply));\n        }\n        return user.amount.mul(accSignoPerShare).div(1e12).sub(user.rewardDebt);\n    }\n\n    // Update reward variables for all pools. Be careful of gas spending!\n    function massUpdatePools() public {\n        uint256 length = poolInfo.length;\n        for (uint256 pid = 0; pid < length; ++pid) {\n            updatePool(pid);\n        }\n    }\n\n    // Update reward variables of the given pool to be up-to-date.\n    function updatePool(uint256 _pid) public {\n        PoolInfo storage pool = poolInfo[_pid];\n        if (block.number <= pool.lastRewardBlock) {\n            return;\n        }\n        uint256 lpSupply = pool.lpToken.balanceOf(address(this));\n        if (lpSupply == 0) {\n            pool.lastRewardBlock = block.number;\n            return;\n        }\n        uint256 multiplier = getMultiplier(pool.lastRewardBlock, block.number);\n        uint256 signoReward = multiplier.mul(signoPerBlock).mul(pool.allocPoint).div(totalAllocPoint);\n        // signo.mint(devaddr, signoReward.div(10));\n        signo.mint(address(this), signoReward);\n        pool.accSignoPerShare = pool.accSignoPerShare.add(signoReward.mul(1e12).div(lpSupply));\n        pool.lastRewardBlock = block.number;\n    }\n\n    // Deposit LP tokens to MasterChef for Signo allocation.\n    function deposit(uint256 _pid, uint256 _amount) public {\n        PoolInfo storage pool = poolInfo[_pid];\n        UserInfo storage user = userInfo[_pid][msg.sender];\n        updatePool(_pid);\n        if (user.amount > 0) {\n            uint256 pending = user.amount.mul(pool.accSignoPerShare).div(1e12).sub(user.rewardDebt);\n            if (pending > 0) {\n                safeSignoTransfer(msg.sender, pending);\n            }\n        }\n        if (_amount > 0) {\n            pool.lpToken.safeTransferFrom(address(msg.sender), address(this), _amount);\n            user.amount = user.amount.add(_amount);\n        }\n        user.rewardDebt = user.amount.mul(pool.accSignoPerShare).div(1e12);\n        emit Deposit(msg.sender, _pid, _amount);\n    }\n\n    // Withdraw LP tokens from MasterChef.\n    function withdraw(uint256 _pid, uint256 _amount) public {\n        PoolInfo storage pool = poolInfo[_pid];\n        UserInfo storage user = userInfo[_pid][msg.sender];\n        require(user.amount >= _amount, 'withdraw: not good');\n        updatePool(_pid);\n        uint256 pending = user.amount.mul(pool.accSignoPerShare).div(1e12).sub(user.rewardDebt);\n        if (pending > 0) {\n            safeSignoTransfer(msg.sender, pending);\n        }\n        if (_amount > 0) {\n            user.amount = user.amount.sub(_amount);\n            pool.lpToken.safeTransfer(address(msg.sender), _amount);\n        }\n        user.rewardDebt = user.amount.mul(pool.accSignoPerShare).div(1e12);\n        emit Withdraw(msg.sender, _pid, _amount);\n    }\n\n    // Withdraw without caring about rewards. EMERGENCY ONLY.\n    function emergencyWithdraw(uint256 _pid) public {\n        PoolInfo storage pool = poolInfo[_pid];\n        UserInfo storage user = userInfo[_pid][msg.sender];\n        uint256 amount = user.amount;\n        user.amount = 0;\n        user.rewardDebt = 0;\n        pool.lpToken.safeTransfer(address(msg.sender), amount);\n        emit EmergencyWithdraw(msg.sender, _pid, amount);\n    }\n\n    // Safe Signo transfer function, just in case if rounding error causes pool to not have enough Signos.\n    function safeSignoTransfer(address _to, uint256 _amount) internal {\n        uint256 signoBal = signo.balanceOf(address(this));\n        if (_amount > signoBal) {\n            signo.transfer(_to, signoBal);\n        } else {\n            signo.transfer(_to, _amount);\n        }\n    }\n}\n",
  "sourcePath": "C:/Users/James/projects/zygo/blockchain/contracts/SigLPStake.sol",
  "compiler": {
    "name": "solc",
    "version": "0.6.12+commit.27d51765.Emscripten.clang"
  },
  "schemaVersion": "3.3.2",
  "updatedAt": "2021-01-20T11:43:37.606Z",
  "devdoc": {
    "kind": "dev",
    "methods": {
      "owner()": {
        "details": "Returns the address of the current owner."
      },
      "renounceOwnership()": {
        "details": "Leaves the contract without owner. It will not be possible to call `onlyOwner` functions anymore. Can only be called by the current owner. NOTE: Renouncing ownership will leave the contract without an owner, thereby removing any functionality that is only available to the owner."
      },
      "transferOwnership(address)": {
        "details": "Transfers ownership of the contract to a new account (`newOwner`). Can only be called by the current owner."
      }
    },
    "version": 1
  },
  "userdoc": {
    "kind": "user",
    "methods": {},
    "version": 1
  }
}