{
  "contractName": "SimpleOracle",
  "abi": [
    {
      "inputs": [
        {
          "internalType": "address",
          "name": "factory",
          "type": "address"
        },
        {
          "internalType": "address",
          "name": "tokenA",
          "type": "address"
        },
        {
          "internalType": "address",
          "name": "tokenB",
          "type": "address"
        }
      ],
      "stateMutability": "nonpayable",
      "type": "constructor"
    },
    {
      "inputs": [],
      "name": "PERIOD",
      "outputs": [
        {
          "internalType": "uint256",
          "name": "",
          "type": "uint256"
        }
      ],
      "stateMutability": "view",
      "type": "function"
    },
    {
      "inputs": [],
      "name": "blockTimestampLast",
      "outputs": [
        {
          "internalType": "uint32",
          "name": "",
          "type": "uint32"
        }
      ],
      "stateMutability": "view",
      "type": "function"
    },
    {
      "inputs": [],
      "name": "price0Average",
      "outputs": [
        {
          "internalType": "uint224",
          "name": "_x",
          "type": "uint224"
        }
      ],
      "stateMutability": "view",
      "type": "function"
    },
    {
      "inputs": [],
      "name": "price0CumulativeLast",
      "outputs": [
        {
          "internalType": "uint256",
          "name": "",
          "type": "uint256"
        }
      ],
      "stateMutability": "view",
      "type": "function"
    },
    {
      "inputs": [],
      "name": "price0Ema",
      "outputs": [
        {
          "internalType": "uint224",
          "name": "_x",
          "type": "uint224"
        }
      ],
      "stateMutability": "view",
      "type": "function"
    },
    {
      "inputs": [
        {
          "internalType": "uint256",
          "name": "",
          "type": "uint256"
        }
      ],
      "name": "price0EmaPoints",
      "outputs": [
        {
          "internalType": "uint224",
          "name": "_x",
          "type": "uint224"
        }
      ],
      "stateMutability": "view",
      "type": "function"
    },
    {
      "inputs": [],
      "name": "price1Average",
      "outputs": [
        {
          "internalType": "uint224",
          "name": "_x",
          "type": "uint224"
        }
      ],
      "stateMutability": "view",
      "type": "function"
    },
    {
      "inputs": [],
      "name": "price1CumulativeLast",
      "outputs": [
        {
          "internalType": "uint256",
          "name": "",
          "type": "uint256"
        }
      ],
      "stateMutability": "view",
      "type": "function"
    },
    {
      "inputs": [],
      "name": "price1Ema",
      "outputs": [
        {
          "internalType": "uint224",
          "name": "_x",
          "type": "uint224"
        }
      ],
      "stateMutability": "view",
      "type": "function"
    },
    {
      "inputs": [
        {
          "internalType": "uint256",
          "name": "",
          "type": "uint256"
        }
      ],
      "name": "price1EmaPoints",
      "outputs": [
        {
          "internalType": "uint224",
          "name": "_x",
          "type": "uint224"
        }
      ],
      "stateMutability": "view",
      "type": "function"
    },
    {
      "inputs": [],
      "name": "token0",
      "outputs": [
        {
          "internalType": "address",
          "name": "",
          "type": "address"
        }
      ],
      "stateMutability": "view",
      "type": "function"
    },
    {
      "inputs": [],
      "name": "token1",
      "outputs": [
        {
          "internalType": "address",
          "name": "",
          "type": "address"
        }
      ],
      "stateMutability": "view",
      "type": "function"
    },
    {
      "inputs": [],
      "name": "update",
      "outputs": [],
      "stateMutability": "nonpayable",
      "type": "function"
    },
    {
      "inputs": [
        {
          "internalType": "address",
          "name": "token",
          "type": "address"
        },
        {
          "internalType": "uint256",
          "name": "amountIn",
          "type": "uint256"
        }
      ],
      "name": "consult",
      "outputs": [
        {
          "internalType": "uint256",
          "name": "amountOut",
          "type": "uint256"
        }
      ],
      "stateMutability": "view",
      "type": "function"
    }
  ],
  "bytecode": "0x60e06040523480156200001157600080fd5b50604051620012cc380380620012cc833981810160405260608110156200003757600080fd5b508051602080830151604090930151919291906000906200006790859085908590620006006200037d821b17901c565b9050806001600160a01b03166080816001600160a01b031660601b81525050806001600160a01b0316630dfe16816040518163ffffffff1660e01b815260040160206040518083038186803b158015620000c057600080fd5b505afa158015620000d5573d6000803e3d6000fd5b505050506040513d6020811015620000ec57600080fd5b505160601b6001600160601b03191660a0526040805163d21220a760e01b815290516001600160a01b0383169163d21220a7916004808301926020929190829003018186803b1580156200013f57600080fd5b505afa15801562000154573d6000803e3d6000fd5b505050506040513d60208110156200016b57600080fd5b505160601b6001600160601b03191660c05260408051635909c0d560e01b815290516001600160a01b03831691635909c0d5916004808301926020929190829003018186803b158015620001be57600080fd5b505afa158015620001d3573d6000803e3d6000fd5b505050506040513d6020811015620001ea57600080fd5b505160005560408051635a3d549360e01b815290516001600160a01b03831691635a3d5493916004808301926020929190829003018186803b1580156200023057600080fd5b505afa15801562000245573d6000803e3d6000fd5b505050506040513d60208110156200025c57600080fd5b505160015560408051630240bc6b60e21b8152905160009182916001600160a01b03851691630902f1ac916004808301926060929190829003018186803b158015620002a757600080fd5b505afa158015620002bc573d6000803e3d6000fd5b505050506040513d6060811015620002d357600080fd5b50805160208201516040909201516002805463ffffffff191663ffffffff909216919091179055925090506001600160701b038216158015906200031f57506001600160701b03811615155b62000371576040805162461bcd60e51b815260206004820181905260248201527f4578616d706c654f7261636c6553696d706c653a204e4f5f5245534552564553604482015290519081900360640190fd5b50505050505062000534565b600080806200038d858562000451565b604080516001600160601b0319606094851b811660208084019190915293851b81166034830152825160288184030181526048830184528051908501207fff0000000000000000000000000000000000000000000000000000000000000060688401529a90941b9093166069840152607d8301989098527f765fa1a7024c9c4fb6065405d1d3021639baa52b76ed3af05d2644d0a1e94a62609d808401919091528851808403909101815260bd909201909752805196019590952095945050505050565b600080826001600160a01b0316846001600160a01b03161415620004a75760405162461bcd60e51b8152600401808060200182810382526025815260200180620012a76025913960400191505060405180910390fd5b826001600160a01b0316846001600160a01b031610620004c9578284620004cc565b83835b90925090506001600160a01b0382166200052d576040805162461bcd60e51b815260206004820152601e60248201527f556e697377617056324c6962726172793a205a45524f5f414444524553530000604482015290519081900360640190fd5b9250929050565b60805160601c60a05160601c60c05160601c610d3362000574600039806102bf52806105cf52508061021452806102495250806103b25250610d336000f3fe608060405234801561001057600080fd5b50600436106100ea5760003560e01c8063a2e620451161008c578063c35d0e6011610066578063c35d0e60146101c4578063c5700a02146101e1578063d21220a714610202578063e694f3491461020a576100ea565b8063a2e62045146101aa578063a6bb4539146101b4578063b4d1d795146101bc576100ea565b80635909c0d5116100c85780635909c0d5146101755780635a3d54931461017d5780635e6aaf2c1461018557806394d849fe1461018d576100ea565b80630dfe1681146100ef5780633c75159d146101135780633ddac95314610137575b600080fd5b6100f7610212565b604080516001600160a01b039092168252519081900360200190f35b61011b610236565b604080516001600160e01b039092168252519081900360200190f35b6101636004803603604081101561014d57600080fd5b506001600160a01b038135169060200135610245565b60408051918252519081900360200190f35b610163610366565b61016361036c565b61011b610372565b61011b600480360360208110156101a357600080fd5b5035610381565b6101b26103a8565b005b61011b6105a0565b6101636105af565b61011b600480360360208110156101da57600080fd5b50356105b4565b6101e96105c1565b6040805163ffffffff9092168252519081900360200190f35b6100f76105cd565b61011b6105f1565b7f000000000000000000000000000000000000000000000000000000000000000081565b6005546001600160e01b031681565b60007f00000000000000000000000000000000000000000000000000000000000000006001600160a01b0316836001600160a01b031614156102bd5760408051602081019091526003546001600160e01b031681526102ad906102a890846106c0565b610754565b6001600160901b03169050610360565b7f00000000000000000000000000000000000000000000000000000000000000006001600160a01b0316836001600160a01b03161461032d5760405162461bcd60e51b8152600401808060200182810382526022815260200180610cb56022913960400191505060405180910390fd5b60408051602081019091526004546001600160e01b03168152610354906102a890846106c0565b6001600160901b031690505b92915050565b60005481565b60015481565b6004546001600160e01b031681565b6008818154811061038e57fe5b6000918252602090912001546001600160e01b0316905081565b60008060006103d67f000000000000000000000000000000000000000000000000000000000000000061075b565b600254929550909350915063ffffffff908116820390603c908216101561042e5760405162461bcd60e51b8152600401808060200182810382526027815260200180610cd76027913960400191505060405180910390fd5b60405180602001604052808263ffffffff1660005487038161044c57fe5b046001600160e01b039081169091529051600380546001600160e01b031916919092161790556040805160208101909152600154819063ffffffff84169086038161049357fe5b046001600160e01b039081169091529051600480546001600160e01b031916919092161790556006541561051a5760405180602001604052806006805490506001016002816104de57fe5b60058054600354939092046001600160e01b0380841694811694909403841602831690935292516001600160e01b031990931692169190911790555b6008541561057b57604051806020016040528060068054905060010160028161053f57fe5b60078054600454939092046001600160e01b0380841694811694909403841602831690935292516001600160e01b031990931692169190911790555b506000929092556001556002805463ffffffff191663ffffffff909216919091179055565b6003546001600160e01b031681565b603c81565b6006818154811061038e57fe5b60025463ffffffff1681565b7f000000000000000000000000000000000000000000000000000000000000000081565b6007546001600160e01b031681565b600080600061060f858561094a565b604080516bffffffffffffffffffffffff19606094851b811660208084019190915293851b81166034830152825160288184030181526048830184528051908501206001600160f81b031960688401529a90941b9093166069840152607d8301989098527f765fa1a7024c9c4fb6065405d1d3021639baa52b76ed3af05d2644d0a1e94a62609d808401919091528851808403909101815260bd909201909752805196019590952095945050505050565b6106c8610c44565b60008215806106ee57505082516001600160e01b0316828102908382816106eb57fe5b04145b61073f576040805162461bcd60e51b815260206004820152601960248201527f4669786564506f696e743a3a6d756c3a206f766572666c6f7700000000000000604482015290519081900360640190fd5b60408051602081019091529081529392505050565b5160701c90565b6000806000610768610a28565b9050836001600160a01b0316635909c0d56040518163ffffffff1660e01b815260040160206040518083038186803b1580156107a357600080fd5b505afa1580156107b7573d6000803e3d6000fd5b505050506040513d60208110156107cd57600080fd5b505160408051635a3d549360e01b815290519194506001600160a01b03861691635a3d549391600480820192602092909190829003018186803b15801561081357600080fd5b505afa158015610827573d6000803e3d6000fd5b505050506040513d602081101561083d57600080fd5b505160408051630240bc6b60e21b81529051919350600091829182916001600160a01b03891691630902f1ac916004808301926060929190829003018186803b15801561088957600080fd5b505afa15801561089d573d6000803e3d6000fd5b505050506040513d60608110156108b357600080fd5b5080516020820151604090920151909450909250905063ffffffff808216908516146109405780840363ffffffff81166108f96001600160701b03808616908716610a32565b600001516001600160e01b031602870196508063ffffffff1661092e856001600160701b0316856001600160701b0316610a32565b516001600160e01b0316029590950194505b5050509193909250565b600080826001600160a01b0316846001600160a01b0316141561099e5760405162461bcd60e51b8152600401808060200182810382526025815260200180610c6a6025913960400191505060405180910390fd5b826001600160a01b0316846001600160a01b0316106109be5782846109c1565b83835b90925090506001600160a01b038216610a21576040805162461bcd60e51b815260206004820152601e60248201527f556e697377617056324c6962726172793a205a45524f5f414444524553530000604482015290519081900360640190fd5b9250929050565b63ffffffff421690565b610a3a610c57565b60008211610a795760405162461bcd60e51b8152600401808060200182810382526026815260200180610c8f6026913960400191505060405180910390fd5b82610a935750604080516020810190915260008152610360565b6001600160901b038311610ad457600082607085901b81610ab057fe5b0490505b6040518060200160405280826001600160e01b0316815250915050610360565b6000610ae584600160701b85610aec565b9050610ab4565b6000806000610afb8686610ba7565b9150915060008480610b0957fe5b868809905082811115610b1d576001820391505b918290039181610b3b57848381610b3057fe5b049350505050610ba0565b848210610b8f576040805162461bcd60e51b815260206004820152601a60248201527f46756c6c4d6174683a2046554c4c4449565f4f564552464c4f57000000000000604482015290519081900360640190fd5b610b9a838387610bd4565b93505050505b9392505050565b6000808060001984860990508385029250828103915082811015610bcc576001820391505b509250929050565b60008181038216808381610be457fe5b049250808581610bf057fe5b049450808160000381610bff57fe5b60028581038087028203028087028203028087028203028087028203028087028203028087028203029586029003909402930560010193909302939093010292915050565b6040518060200160405280600081525090565b6040805160208101909152600081529056fe556e697377617056324c6962726172793a204944454e544943414c5f4144445245535345534669786564506f696e743a3a6672616374696f6e3a206469766973696f6e206279207a65726f4578616d706c654f7261636c6553696d706c653a20494e56414c49445f544f4b454e4578616d706c654f7261636c6553696d706c653a20504552494f445f4e4f545f454c4150534544a26469706673582212202e23fc0ab96470ca97f8792970be7031de06dc4da4325c44671cb45fdabed72164736f6c634300060c0033556e697377617056324c6962726172793a204944454e544943414c5f414444524553534553",
  "immutableReferences": {
    "5942": [
      {
        "length": 32,
        "start": 946
      }
    ],
    "5944": [
      {
        "length": 32,
        "start": 532
      },
      {
        "length": 32,
        "start": 585
      }
    ],
    "5946": [
      {
        "length": 32,
        "start": 703
      },
      {
        "length": 32,
        "start": 1487
      }
    ]
  },
  "source": "pragma solidity 0.6.12;\n\nimport './uniswapv2/interfaces/IUniswapV2Factory.sol';\nimport './uniswapv2/interfaces/IUniswapV2Pair.sol';\nimport './uniswapv2/libraries/FixedPoint.sol';\nimport './uniswapv2/libraries/UniswapV2OracleLibrary.sol';\nimport './uniswapv2/libraries/UniswapV2Library.sol';\n\n// fixed window oracle that recomputes the average price for the entire period once every period\n// note that the price average is only guaranteed to be over at least 1 period, but may be over a longer period\ncontract SimpleOracle {\n    using FixedPoint for *;\n\n    uint256 public constant PERIOD = 1 minutes;\n\n    IUniswapV2Pair immutable pair;\n    address public immutable token0;\n    address public immutable token1;\n\n    uint256 public price0CumulativeLast;\n    uint256 public price1CumulativeLast;\n    uint32 public blockTimestampLast;\n    FixedPoint.uq112x112 public price0Average;\n    FixedPoint.uq112x112 public price1Average;\n    FixedPoint.uq112x112 public price0Ema;\n    FixedPoint.uq112x112[] public price0EmaPoints;\n    FixedPoint.uq112x112 public price1Ema;\n    FixedPoint.uq112x112[] public price1EmaPoints;\n\n    constructor(\n        address factory,\n        address tokenA,\n        address tokenB\n    ) public {\n        IUniswapV2Pair _pair = IUniswapV2Pair(UniswapV2Library.pairFor(factory, tokenA, tokenB));\n        pair = _pair;\n        token0 = _pair.token0();\n        token1 = _pair.token1();\n        price0CumulativeLast = _pair.price0CumulativeLast(); // fetch the current accumulated price value (1 / 0)\n        price1CumulativeLast = _pair.price1CumulativeLast(); // fetch the current accumulated price value (0 / 1)\n        uint112 reserve0;\n        uint112 reserve1;\n        (reserve0, reserve1, blockTimestampLast) = _pair.getReserves();\n        require(reserve0 != 0 && reserve1 != 0, 'ExampleOracleSimple: NO_RESERVES'); // ensure that there's liquidity in the pair\n    }\n\n    function update() external {\n        (uint256 price0Cumulative, uint256 price1Cumulative, uint32 blockTimestamp) =\n            UniswapV2OracleLibrary.currentCumulativePrices(address(pair));\n        uint32 timeElapsed = blockTimestamp - blockTimestampLast; // overflow is desired\n\n        // ensure that at least one full period has passed since the last update\n        require(timeElapsed >= PERIOD, 'ExampleOracleSimple: PERIOD_NOT_ELAPSED');\n\n        // overflow is desired, casting never truncates\n        // cumulative price is in (uq112x112 price * seconds) units so we simply wrap it after division by time elapsed\n        price0Average = FixedPoint.uq112x112(\n            uint224((price0Cumulative - price0CumulativeLast) / timeElapsed)\n        );\n        price1Average = FixedPoint.uq112x112(\n            uint224((price1Cumulative - price1CumulativeLast) / timeElapsed)\n        );\n\n        if (price0EmaPoints.length != 0) {\n            price0Ema = FixedPoint.uq112x112(\n                uint224((price0Average._x - price0Ema._x) * (2 / (price0EmaPoints.length + 1)))\n            );\n        }\n        if (price1EmaPoints.length != 0) {\n            price1Ema = FixedPoint.uq112x112(\n                uint224((price1Average._x - price1Ema._x) * (2 / (price0EmaPoints.length + 1)))\n            );\n        }\n\n        price0CumulativeLast = price0Cumulative;\n        price1CumulativeLast = price1Cumulative;\n        blockTimestampLast = blockTimestamp;\n    }\n\n    // note this will always return 0 before update has been called successfully for the first time.\n    function consult(address token, uint256 amountIn) external view returns (uint256 amountOut) {\n        if (token == token0) {\n            amountOut = price0Average.mul(amountIn).decode144();\n        } else {\n            require(token == token1, 'ExampleOracleSimple: INVALID_TOKEN');\n            amountOut = price1Average.mul(amountIn).decode144();\n        }\n    }\n}\n",
  "sourcePath": "C:/Users/James/projects/zygo/blockchain/contracts/SimpleOracle.sol",
  "compiler": {
    "name": "solc",
    "version": "0.6.12+commit.27d51765.Emscripten.clang"
  },
  "schemaVersion": "3.3.2",
  "updatedAt": "2021-01-20T18:04:00.721Z",
  "networkType": "ethereum",
  "devdoc": {
    "kind": "dev",
    "methods": {},
    "version": 1
  },
  "userdoc": {
    "kind": "user",
    "methods": {},
    "version": 1
  }
}