{
  "contractName": "SimpleOracle",
  "abi": [
    {
      "inputs": [
        {
          "internalType": "address",
          "name": "factory",
          "type": "address"
        },
        {
          "internalType": "address",
          "name": "tokenA",
          "type": "address"
        },
        {
          "internalType": "address",
          "name": "tokenB",
          "type": "address"
        }
      ],
      "stateMutability": "nonpayable",
      "type": "constructor"
    },
    {
      "inputs": [],
      "name": "PERIOD",
      "outputs": [
        {
          "internalType": "uint256",
          "name": "",
          "type": "uint256"
        }
      ],
      "stateMutability": "view",
      "type": "function"
    },
    {
      "inputs": [],
      "name": "blockTimestampLast",
      "outputs": [
        {
          "internalType": "uint32",
          "name": "",
          "type": "uint32"
        }
      ],
      "stateMutability": "view",
      "type": "function"
    },
    {
      "inputs": [],
      "name": "price0Average",
      "outputs": [
        {
          "internalType": "uint224",
          "name": "_x",
          "type": "uint224"
        }
      ],
      "stateMutability": "view",
      "type": "function"
    },
    {
      "inputs": [],
      "name": "price0CumulativeLast",
      "outputs": [
        {
          "internalType": "uint256",
          "name": "",
          "type": "uint256"
        }
      ],
      "stateMutability": "view",
      "type": "function"
    },
    {
      "inputs": [],
      "name": "price0Ema",
      "outputs": [
        {
          "internalType": "uint224",
          "name": "",
          "type": "uint224"
        }
      ],
      "stateMutability": "view",
      "type": "function"
    },
    {
      "inputs": [],
      "name": "price1Average",
      "outputs": [
        {
          "internalType": "uint224",
          "name": "_x",
          "type": "uint224"
        }
      ],
      "stateMutability": "view",
      "type": "function"
    },
    {
      "inputs": [],
      "name": "price1CumulativeLast",
      "outputs": [
        {
          "internalType": "uint256",
          "name": "",
          "type": "uint256"
        }
      ],
      "stateMutability": "view",
      "type": "function"
    },
    {
      "inputs": [],
      "name": "price1Ema",
      "outputs": [
        {
          "internalType": "uint224",
          "name": "",
          "type": "uint224"
        }
      ],
      "stateMutability": "view",
      "type": "function"
    },
    {
      "inputs": [],
      "name": "pricePoints",
      "outputs": [
        {
          "internalType": "uint256",
          "name": "",
          "type": "uint256"
        }
      ],
      "stateMutability": "view",
      "type": "function"
    },
    {
      "inputs": [],
      "name": "token0",
      "outputs": [
        {
          "internalType": "address",
          "name": "",
          "type": "address"
        }
      ],
      "stateMutability": "view",
      "type": "function"
    },
    {
      "inputs": [],
      "name": "token1",
      "outputs": [
        {
          "internalType": "address",
          "name": "",
          "type": "address"
        }
      ],
      "stateMutability": "view",
      "type": "function"
    },
    {
      "inputs": [],
      "name": "update",
      "outputs": [],
      "stateMutability": "nonpayable",
      "type": "function"
    },
    {
      "inputs": [
        {
          "internalType": "address",
          "name": "token",
          "type": "address"
        },
        {
          "internalType": "uint256",
          "name": "amountIn",
          "type": "uint256"
        }
      ],
      "name": "consult",
      "outputs": [
        {
          "internalType": "uint256",
          "name": "amountOut",
          "type": "uint256"
        }
      ],
      "stateMutability": "view",
      "type": "function"
    }
  ],
  "bytecode": "0x60e06040523480156200001157600080fd5b506040516200110638038062001106833981810160405260608110156200003757600080fd5b508051602080830151604090930151919291906000906200006790859085908590620004fd62000303821b17901c565b9050806001600160a01b03166080816001600160a01b031660601b81525050806001600160a01b0316630dfe16816040518163ffffffff1660e01b815260040160206040518083038186803b158015620000c057600080fd5b505afa158015620000d5573d6000803e3d6000fd5b505050506040513d6020811015620000ec57600080fd5b505160601b6001600160601b03191660a0526040805163d21220a760e01b815290516001600160a01b0383169163d21220a7916004808301926020929190829003018186803b1580156200013f57600080fd5b505afa15801562000154573d6000803e3d6000fd5b505050506040513d60208110156200016b57600080fd5b505160601b6001600160601b03191660c05260408051635909c0d560e01b815290516001600160a01b03831691635909c0d5916004808301926020929190829003018186803b158015620001be57600080fd5b505afa158015620001d3573d6000803e3d6000fd5b505050506040513d6020811015620001ea57600080fd5b505160005560408051635a3d549360e01b815290516001600160a01b03831691635a3d5493916004808301926020929190829003018186803b1580156200023057600080fd5b505afa15801562000245573d6000803e3d6000fd5b505050506040513d60208110156200025c57600080fd5b5051600190815560055560408051630240bc6b60e21b8152905160009182916001600160a01b03851691630902f1ac916004808301926060929190829003018186803b158015620002ac57600080fd5b505afa158015620002c1573d6000803e3d6000fd5b505050506040513d6060811015620002d857600080fd5b50604001516002805463ffffffff191663ffffffff90921691909117905550620004ba945050505050565b60008080620003138585620003d7565b604080516001600160601b0319606094851b811660208084019190915293851b81166034830152825160288184030181526048830184528051908501207fff0000000000000000000000000000000000000000000000000000000000000060688401529a90941b9093166069840152607d8301989098527f765fa1a7024c9c4fb6065405d1d3021639baa52b76ed3af05d2644d0a1e94a62609d808401919091528851808403909101815260bd909201909752805196019590952095945050505050565b600080826001600160a01b0316846001600160a01b031614156200042d5760405162461bcd60e51b8152600401808060200182810382526025815260200180620010e16025913960400191505060405180910390fd5b826001600160a01b0316846001600160a01b0316106200044f57828462000452565b83835b90925090506001600160a01b038216620004b3576040805162461bcd60e51b815260206004820152601e60248201527f556e697377617056324c6962726172793a205a45524f5f414444524553530000604482015290519081900360640190fd5b9250929050565b60805160601c60a05160601c60c05160601c610be7620004fa6000398061027252806104cc5250806101c752806101fc52508061035a5250610be76000f3fe608060405234801561001057600080fd5b50600436106100cf5760003560e01c80635e6aaf2c1161008c578063b4d1d79511610066578063b4d1d7951461018c578063c5700a0214610194578063d21220a7146101b5578063e694f349146101bd576100cf565b80635e6aaf2c14610172578063a2e620451461017a578063a6bb453914610184576100cf565b80630dfe1681146100d45780633c75159d146100f85780633ddac9531461011c5780633f1460881461015a5780635909c0d5146101625780635a3d54931461016a575b600080fd5b6100dc6101c5565b604080516001600160a01b039092168252519081900360200190f35b6101006101e9565b604080516001600160e01b039092168252519081900360200190f35b6101486004803603604081101561013257600080fd5b506001600160a01b0381351690602001356101f8565b60408051918252519081900360200190f35b61014861032f565b610148610335565b61014861033b565b610100610341565b610182610350565b005b6101006104a9565b6101486104b8565b61019c6104be565b6040805163ffffffff9092168252519081900360200190f35b6100dc6104ca565b6101006104ee565b7f000000000000000000000000000000000000000000000000000000000000000081565b6006546001600160e01b031681565b60007f00000000000000000000000000000000000000000000000000000000000000006001600160a01b0316836001600160a01b031614156102705760408051602081019091526003546001600160e01b031681526102609061025b90846105bd565b610651565b6001600160901b03169050610329565b7f00000000000000000000000000000000000000000000000000000000000000006001600160a01b0316836001600160a01b0316146102f6576040805162461bcd60e51b815260206004820152601b60248201527f53696d706c654f7261636c653a20494e56414c49445f544f4b454e0000000000604482015290519081900360640190fd5b60408051602081019091526004546001600160e01b0316815261031d9061025b90846105bd565b6001600160901b031690505b92915050565b60055481565b60005481565b60015481565b6004546001600160e01b031681565b600080600061037e7f0000000000000000000000000000000000000000000000000000000000000000610658565b600254929550909350915063ffffffff90811682039061070890821610156103ed576040805162461bcd60e51b815260206004820181905260248201527f53696d706c654f7261636c653a20504552494f445f4e4f545f454c4150534544604482015290519081900360640190fd5b60055460010160058190555060405180602001604052808263ffffffff1660005487038161041757fe5b046001600160e01b039081169091529051600380546001600160e01b031916919092161790556040805160208101909152600154819063ffffffff84169086038161045e57fe5b046001600160e01b039081169091529051600480546001600160e01b03191691909216179055506000929092556001556002805463ffffffff191663ffffffff909216919091179055565b6003546001600160e01b031681565b61070881565b60025463ffffffff1681565b7f000000000000000000000000000000000000000000000000000000000000000081565b6007546001600160e01b031681565b600080600061050c8585610847565b604080516bffffffffffffffffffffffff19606094851b811660208084019190915293851b81166034830152825160288184030181526048830184528051908501206001600160f81b031960688401529a90941b9093166069840152607d8301989098527f765fa1a7024c9c4fb6065405d1d3021639baa52b76ed3af05d2644d0a1e94a62609d808401919091528851808403909101815260bd909201909752805196019590952095945050505050565b6105c5610b41565b60008215806105eb57505082516001600160e01b0316828102908382816105e857fe5b04145b61063c576040805162461bcd60e51b815260206004820152601960248201527f4669786564506f696e743a3a6d756c3a206f766572666c6f7700000000000000604482015290519081900360640190fd5b60408051602081019091529081529392505050565b5160701c90565b6000806000610665610925565b9050836001600160a01b0316635909c0d56040518163ffffffff1660e01b815260040160206040518083038186803b1580156106a057600080fd5b505afa1580156106b4573d6000803e3d6000fd5b505050506040513d60208110156106ca57600080fd5b505160408051635a3d549360e01b815290519194506001600160a01b03861691635a3d549391600480820192602092909190829003018186803b15801561071057600080fd5b505afa158015610724573d6000803e3d6000fd5b505050506040513d602081101561073a57600080fd5b505160408051630240bc6b60e21b81529051919350600091829182916001600160a01b03891691630902f1ac916004808301926060929190829003018186803b15801561078657600080fd5b505afa15801561079a573d6000803e3d6000fd5b505050506040513d60608110156107b057600080fd5b5080516020820151604090920151909450909250905063ffffffff8082169085161461083d5780840363ffffffff81166107f66001600160701b0380861690871661092f565b600001516001600160e01b031602870196508063ffffffff1661082b856001600160701b0316856001600160701b031661092f565b516001600160e01b0316029590950194505b5050509193909250565b600080826001600160a01b0316846001600160a01b0316141561089b5760405162461bcd60e51b8152600401808060200182810382526025815260200180610b676025913960400191505060405180910390fd5b826001600160a01b0316846001600160a01b0316106108bb5782846108be565b83835b90925090506001600160a01b03821661091e576040805162461bcd60e51b815260206004820152601e60248201527f556e697377617056324c6962726172793a205a45524f5f414444524553530000604482015290519081900360640190fd5b9250929050565b63ffffffff421690565b610937610b54565b600082116109765760405162461bcd60e51b8152600401808060200182810382526026815260200180610b8c6026913960400191505060405180910390fd5b826109905750604080516020810190915260008152610329565b6001600160901b0383116109d157600082607085901b816109ad57fe5b0490505b6040518060200160405280826001600160e01b0316815250915050610329565b60006109e284600160701b856109e9565b90506109b1565b60008060006109f88686610aa4565b9150915060008480610a0657fe5b868809905082811115610a1a576001820391505b918290039181610a3857848381610a2d57fe5b049350505050610a9d565b848210610a8c576040805162461bcd60e51b815260206004820152601a60248201527f46756c6c4d6174683a2046554c4c4449565f4f564552464c4f57000000000000604482015290519081900360640190fd5b610a97838387610ad1565b93505050505b9392505050565b6000808060001984860990508385029250828103915082811015610ac9576001820391505b509250929050565b60008181038216808381610ae157fe5b049250808581610aed57fe5b049450808160000381610afc57fe5b60028581038087028203028087028203028087028203028087028203028087028203028087028203029586029003909402930560010193909302939093010292915050565b6040518060200160405280600081525090565b6040805160208101909152600081529056fe556e697377617056324c6962726172793a204944454e544943414c5f4144445245535345534669786564506f696e743a3a6672616374696f6e3a206469766973696f6e206279207a65726fa2646970667358221220622db4993fbc627c18e877026f16217a23b955532ca72270b8859f7564053f6164736f6c63430007050033556e697377617056324c6962726172793a204944454e544943414c5f414444524553534553",
  "immutableReferences": {
    "109": [
      {
        "length": 32,
        "start": 858
      }
    ],
    "111": [
      {
        "length": 32,
        "start": 455
      },
      {
        "length": 32,
        "start": 508
      }
    ],
    "113": [
      {
        "length": 32,
        "start": 626
      },
      {
        "length": 32,
        "start": 1228
      }
    ]
  },
  "source": "pragma solidity 0.7.5;\n\nimport './uniswapv2/interfaces/IUniswapV2Factory.sol';\nimport './uniswapv2/interfaces/IUniswapV2Pair.sol';\nimport './uniswapv2/libraries/FixedPoint.sol';\nimport './uniswapv2/libraries/UniswapV2OracleLibrary.sol';\nimport './uniswapv2/libraries/UniswapV2Library.sol';\n\n// fixed window oracle that recomputes the average price for the entire period once every period\n// note that the price average is only guaranteed to be over at least 1 period, but may be over a longer period\ncontract SimpleOracle {\n    using FixedPoint for *;\n\n    uint256 public constant PERIOD = 30 minutes;\n\n    IUniswapV2Pair immutable pair;\n    address public immutable token0;\n    address public immutable token1;\n\n    uint256 public price0CumulativeLast;\n    uint256 public price1CumulativeLast;\n    uint32 public blockTimestampLast;\n    FixedPoint.uq112x112 public price0Average;\n    FixedPoint.uq112x112 public price1Average;\n    uint256 public pricePoints;\n    uint224 public price0Ema;\n    uint224 public price1Ema;\n\n    constructor(\n        address factory,\n        address tokenA,\n        address tokenB\n    ) public {\n        IUniswapV2Pair _pair = IUniswapV2Pair(UniswapV2Library.pairFor(factory, tokenA, tokenB));\n        pair = _pair;\n        token0 = _pair.token0();\n        token1 = _pair.token1();\n        price0CumulativeLast = _pair.price0CumulativeLast(); // fetch the current accumulated price value (1 / 0)\n        price1CumulativeLast = _pair.price1CumulativeLast(); // fetch the current accumulated price value (0 / 1)\n        pricePoints = 1;\n        uint112 reserve0;\n        uint112 reserve1;\n        (reserve0, reserve1, blockTimestampLast) = _pair.getReserves();\n        // require(reserve0 != 0 && reserve1 != 0, 'SimpleOracle: NO_RESERVES'); // ensure that there's liquidity in the pair\n    }\n\n    function update() external {\n        (uint256 price0Cumulative, uint256 price1Cumulative, uint32 blockTimestamp) =\n            UniswapV2OracleLibrary.currentCumulativePrices(address(pair));\n        uint32 timeElapsed = blockTimestamp - blockTimestampLast; // overflow is desired\n\n        // ensure that at least one full period has passed since the last update\n        require(timeElapsed >= PERIOD, 'SimpleOracle: PERIOD_NOT_ELAPSED');\n        pricePoints = pricePoints + 1;\n\n        // overflow is desired, casting never truncates\n        // cumulative price is in (uq112x112 price * seconds) units so we simply wrap it after division by time elapsed\n        price0Average = FixedPoint.uq112x112(\n            uint224((price0Cumulative - price0CumulativeLast) / timeElapsed)\n        );\n        price1Average = FixedPoint.uq112x112(\n            uint224((price1Cumulative - price1CumulativeLast) / timeElapsed)\n        );\n        // price0Ema = uint224(\n        //     ((((consult(token0, 10**18) - price0Ema) * (2 * 10**18)) / (pricePoints + 1) + price0Ema) /\n        //         10**18)\n        // );\n        // price1Ema = uint224(\n        //     ((((consult(token1, 10**18) - price1Ema) * (2 * 10**18)) / (pricePoints + 1) + price1Ema) /\n        //         10**18)\n        // );\n\n        price0CumulativeLast = price0Cumulative;\n        price1CumulativeLast = price1Cumulative;\n        blockTimestampLast = blockTimestamp;\n    }\n\n    // note this will always return 0 before update has been called successfully for the first time.\n    function consult(address token, uint256 amountIn) external view returns (uint256 amountOut) {\n        if (token == token0) {\n            amountOut = price0Average.mul(amountIn).decode144();\n        } else {\n            require(token == token1, 'SimpleOracle: INVALID_TOKEN');\n            amountOut = price1Average.mul(amountIn).decode144();\n        }\n    }\n}\n",
  "sourcePath": "C:/Users/James/projects/zygo/blockchain/contracts/SimpleOracle.sol",
  "compiler": {
    "name": "solc",
    "version": "0.7.5+commit.eb77ed08.Emscripten.clang"
  },
  "schemaVersion": "3.3.2",
  "updatedAt": "2021-01-31T13:06:19.635Z",
  "devdoc": {
    "kind": "dev",
    "methods": {},
    "version": 1
  },
  "userdoc": {
    "kind": "user",
    "methods": {},
    "version": 1
  }
}