{
  "contractName": "SolarToken",
  "abi": [
    {
      "inputs": [
        {
          "internalType": "address",
          "name": "_treasury",
          "type": "address"
        }
      ],
      "stateMutability": "nonpayable",
      "type": "constructor"
    },
    {
      "anonymous": false,
      "inputs": [
        {
          "indexed": true,
          "internalType": "address",
          "name": "owner",
          "type": "address"
        },
        {
          "indexed": true,
          "internalType": "address",
          "name": "spender",
          "type": "address"
        },
        {
          "indexed": false,
          "internalType": "uint256",
          "name": "value",
          "type": "uint256"
        }
      ],
      "name": "Approval",
      "type": "event"
    },
    {
      "anonymous": false,
      "inputs": [
        {
          "indexed": true,
          "internalType": "address",
          "name": "delegator",
          "type": "address"
        },
        {
          "indexed": true,
          "internalType": "address",
          "name": "fromDelegate",
          "type": "address"
        },
        {
          "indexed": true,
          "internalType": "address",
          "name": "toDelegate",
          "type": "address"
        }
      ],
      "name": "DelegateChanged",
      "type": "event"
    },
    {
      "anonymous": false,
      "inputs": [
        {
          "indexed": true,
          "internalType": "address",
          "name": "delegate",
          "type": "address"
        },
        {
          "indexed": false,
          "internalType": "uint256",
          "name": "previousBalance",
          "type": "uint256"
        },
        {
          "indexed": false,
          "internalType": "uint256",
          "name": "newBalance",
          "type": "uint256"
        }
      ],
      "name": "DelegateVotesChanged",
      "type": "event"
    },
    {
      "anonymous": false,
      "inputs": [
        {
          "indexed": true,
          "internalType": "address",
          "name": "previousOwner",
          "type": "address"
        },
        {
          "indexed": true,
          "internalType": "address",
          "name": "newOwner",
          "type": "address"
        }
      ],
      "name": "OwnershipTransferred",
      "type": "event"
    },
    {
      "anonymous": false,
      "inputs": [
        {
          "indexed": true,
          "internalType": "address",
          "name": "from",
          "type": "address"
        },
        {
          "indexed": true,
          "internalType": "address",
          "name": "to",
          "type": "address"
        },
        {
          "indexed": false,
          "internalType": "uint256",
          "name": "value",
          "type": "uint256"
        }
      ],
      "name": "Transfer",
      "type": "event"
    },
    {
      "inputs": [],
      "name": "DELEGATION_TYPEHASH",
      "outputs": [
        {
          "internalType": "bytes32",
          "name": "",
          "type": "bytes32"
        }
      ],
      "stateMutability": "view",
      "type": "function",
      "constant": true
    },
    {
      "inputs": [],
      "name": "DOMAIN_TYPEHASH",
      "outputs": [
        {
          "internalType": "bytes32",
          "name": "",
          "type": "bytes32"
        }
      ],
      "stateMutability": "view",
      "type": "function",
      "constant": true
    },
    {
      "inputs": [
        {
          "internalType": "address",
          "name": "owner",
          "type": "address"
        },
        {
          "internalType": "address",
          "name": "spender",
          "type": "address"
        }
      ],
      "name": "allowance",
      "outputs": [
        {
          "internalType": "uint256",
          "name": "",
          "type": "uint256"
        }
      ],
      "stateMutability": "view",
      "type": "function",
      "constant": true
    },
    {
      "inputs": [
        {
          "internalType": "address",
          "name": "spender",
          "type": "address"
        },
        {
          "internalType": "uint256",
          "name": "amount",
          "type": "uint256"
        }
      ],
      "name": "approve",
      "outputs": [
        {
          "internalType": "bool",
          "name": "",
          "type": "bool"
        }
      ],
      "stateMutability": "nonpayable",
      "type": "function"
    },
    {
      "inputs": [
        {
          "internalType": "address",
          "name": "account",
          "type": "address"
        }
      ],
      "name": "balanceOf",
      "outputs": [
        {
          "internalType": "uint256",
          "name": "",
          "type": "uint256"
        }
      ],
      "stateMutability": "view",
      "type": "function",
      "constant": true
    },
    {
      "inputs": [
        {
          "internalType": "address",
          "name": "",
          "type": "address"
        },
        {
          "internalType": "uint32",
          "name": "",
          "type": "uint32"
        }
      ],
      "name": "checkpoints",
      "outputs": [
        {
          "internalType": "uint32",
          "name": "fromBlock",
          "type": "uint32"
        },
        {
          "internalType": "uint256",
          "name": "votes",
          "type": "uint256"
        }
      ],
      "stateMutability": "view",
      "type": "function",
      "constant": true
    },
    {
      "inputs": [],
      "name": "decimals",
      "outputs": [
        {
          "internalType": "uint8",
          "name": "",
          "type": "uint8"
        }
      ],
      "stateMutability": "view",
      "type": "function",
      "constant": true
    },
    {
      "inputs": [
        {
          "internalType": "address",
          "name": "spender",
          "type": "address"
        },
        {
          "internalType": "uint256",
          "name": "subtractedValue",
          "type": "uint256"
        }
      ],
      "name": "decreaseAllowance",
      "outputs": [
        {
          "internalType": "bool",
          "name": "",
          "type": "bool"
        }
      ],
      "stateMutability": "nonpayable",
      "type": "function"
    },
    {
      "inputs": [
        {
          "internalType": "address",
          "name": "spender",
          "type": "address"
        },
        {
          "internalType": "uint256",
          "name": "addedValue",
          "type": "uint256"
        }
      ],
      "name": "increaseAllowance",
      "outputs": [
        {
          "internalType": "bool",
          "name": "",
          "type": "bool"
        }
      ],
      "stateMutability": "nonpayable",
      "type": "function"
    },
    {
      "inputs": [],
      "name": "name",
      "outputs": [
        {
          "internalType": "string",
          "name": "",
          "type": "string"
        }
      ],
      "stateMutability": "view",
      "type": "function",
      "constant": true
    },
    {
      "inputs": [
        {
          "internalType": "address",
          "name": "",
          "type": "address"
        }
      ],
      "name": "nonces",
      "outputs": [
        {
          "internalType": "uint256",
          "name": "",
          "type": "uint256"
        }
      ],
      "stateMutability": "view",
      "type": "function",
      "constant": true
    },
    {
      "inputs": [
        {
          "internalType": "address",
          "name": "",
          "type": "address"
        }
      ],
      "name": "numCheckpoints",
      "outputs": [
        {
          "internalType": "uint32",
          "name": "",
          "type": "uint32"
        }
      ],
      "stateMutability": "view",
      "type": "function",
      "constant": true
    },
    {
      "inputs": [],
      "name": "owner",
      "outputs": [
        {
          "internalType": "address",
          "name": "",
          "type": "address"
        }
      ],
      "stateMutability": "view",
      "type": "function",
      "constant": true
    },
    {
      "inputs": [],
      "name": "renounceOwnership",
      "outputs": [],
      "stateMutability": "nonpayable",
      "type": "function"
    },
    {
      "inputs": [],
      "name": "symbol",
      "outputs": [
        {
          "internalType": "string",
          "name": "",
          "type": "string"
        }
      ],
      "stateMutability": "view",
      "type": "function",
      "constant": true
    },
    {
      "inputs": [],
      "name": "totalSupply",
      "outputs": [
        {
          "internalType": "uint256",
          "name": "",
          "type": "uint256"
        }
      ],
      "stateMutability": "view",
      "type": "function",
      "constant": true
    },
    {
      "inputs": [
        {
          "internalType": "address",
          "name": "recipient",
          "type": "address"
        },
        {
          "internalType": "uint256",
          "name": "amount",
          "type": "uint256"
        }
      ],
      "name": "transfer",
      "outputs": [
        {
          "internalType": "bool",
          "name": "",
          "type": "bool"
        }
      ],
      "stateMutability": "nonpayable",
      "type": "function"
    },
    {
      "inputs": [
        {
          "internalType": "address",
          "name": "sender",
          "type": "address"
        },
        {
          "internalType": "address",
          "name": "recipient",
          "type": "address"
        },
        {
          "internalType": "uint256",
          "name": "amount",
          "type": "uint256"
        }
      ],
      "name": "transferFrom",
      "outputs": [
        {
          "internalType": "bool",
          "name": "",
          "type": "bool"
        }
      ],
      "stateMutability": "nonpayable",
      "type": "function"
    },
    {
      "inputs": [
        {
          "internalType": "address",
          "name": "newOwner",
          "type": "address"
        }
      ],
      "name": "transferOwnership",
      "outputs": [],
      "stateMutability": "nonpayable",
      "type": "function"
    },
    {
      "inputs": [
        {
          "internalType": "address",
          "name": "_operator",
          "type": "address"
        }
      ],
      "name": "addOperator",
      "outputs": [],
      "stateMutability": "nonpayable",
      "type": "function"
    },
    {
      "inputs": [
        {
          "internalType": "address",
          "name": "_to",
          "type": "address"
        },
        {
          "internalType": "uint256",
          "name": "_amount",
          "type": "uint256"
        }
      ],
      "name": "mint",
      "outputs": [],
      "stateMutability": "nonpayable",
      "type": "function"
    },
    {
      "inputs": [
        {
          "internalType": "address",
          "name": "delegator",
          "type": "address"
        }
      ],
      "name": "delegates",
      "outputs": [
        {
          "internalType": "address",
          "name": "",
          "type": "address"
        }
      ],
      "stateMutability": "view",
      "type": "function",
      "constant": true
    },
    {
      "inputs": [
        {
          "internalType": "address",
          "name": "delegatee",
          "type": "address"
        }
      ],
      "name": "delegate",
      "outputs": [],
      "stateMutability": "nonpayable",
      "type": "function"
    },
    {
      "inputs": [
        {
          "internalType": "address",
          "name": "delegatee",
          "type": "address"
        },
        {
          "internalType": "uint256",
          "name": "nonce",
          "type": "uint256"
        },
        {
          "internalType": "uint256",
          "name": "expiry",
          "type": "uint256"
        },
        {
          "internalType": "uint8",
          "name": "v",
          "type": "uint8"
        },
        {
          "internalType": "bytes32",
          "name": "r",
          "type": "bytes32"
        },
        {
          "internalType": "bytes32",
          "name": "s",
          "type": "bytes32"
        }
      ],
      "name": "delegateBySig",
      "outputs": [],
      "stateMutability": "nonpayable",
      "type": "function"
    },
    {
      "inputs": [
        {
          "internalType": "address",
          "name": "account",
          "type": "address"
        }
      ],
      "name": "getCurrentVotes",
      "outputs": [
        {
          "internalType": "uint256",
          "name": "",
          "type": "uint256"
        }
      ],
      "stateMutability": "view",
      "type": "function",
      "constant": true
    },
    {
      "inputs": [
        {
          "internalType": "address",
          "name": "account",
          "type": "address"
        },
        {
          "internalType": "uint256",
          "name": "blockNumber",
          "type": "uint256"
        }
      ],
      "name": "getPriorVotes",
      "outputs": [
        {
          "internalType": "uint256",
          "name": "",
          "type": "uint256"
        }
      ],
      "stateMutability": "view",
      "type": "function",
      "constant": true
    }
  ],
  "bytecode": "0x60806040523480156200001157600080fd5b5060405162001fab38038062001fab833981810160405260208110156200003757600080fd5b5051604080518082018252600a81526929b7b630b92a37b5b2b760b11b60208281019182528351808501909452600584526429a7a620a960d91b908401528151919291620000889160039162000355565b5080516200009e90600490602084019062000355565b50506005805460ff19166012179055506000620000ba62000145565b60058054610100600160a81b0319166101006001600160a01b03841690810291909117909155604051919250906000907f8be0079c531659141344cd1fd0a4f28419497f9722a3daafe3b4186f6b6457e0908290a3506200011b8162000149565b6200013e81760a70c3c40a64e6c51999090b65f67d9240000000000000620001df565b50620003f1565b3390565b6200015362000145565b60055461010090046001600160a01b03908116911614620001bb576040805162461bcd60e51b815260206004820181905260248201527f4f776e61626c653a2063616c6c6572206973206e6f7420746865206f776e6572604482015290519081900360640190fd5b6001600160a01b03166000908152600660205260409020805460ff19166001179055565b6001600160a01b0382166200023b576040805162461bcd60e51b815260206004820152601f60248201527f45524332303a206d696e7420746f20746865207a65726f206164647265737300604482015290519081900360640190fd5b6200024960008383620002ee565b6200026581600254620002f360201b6200115c1790919060201c565b6002556001600160a01b03821660009081526020818152604090912054620002989183906200115c620002f3821b17901c565b6001600160a01b0383166000818152602081815260408083209490945583518581529351929391927fddf252ad1be2c89b69c2b068fc378daa952ba7f163c4a11628f55a4df523b3ef9281900390910190a35050565b505050565b6000828201838110156200034e576040805162461bcd60e51b815260206004820152601b60248201527f536166654d6174683a206164646974696f6e206f766572666c6f770000000000604482015290519081900360640190fd5b9392505050565b828054600181600116156101000203166002900490600052602060002090601f016020900481019282601f106200039857805160ff1916838001178555620003c8565b82800160010185558215620003c8579182015b82811115620003c8578251825591602001919060010190620003ab565b50620003d6929150620003da565b5090565b5b80821115620003d65760008155600101620003db565b611baa80620004016000396000f3fe608060405234801561001057600080fd5b506004361061018e5760003560e01c8063782d6fe1116100de578063a9059cbb11610097578063dd62ed3e11610071578063dd62ed3e14610542578063e7a324dc14610570578063f1127ed814610578578063f2fde38b146105ca5761018e565b8063a9059cbb146104a9578063b4b5ea57146104d5578063c3cda520146104fb5761018e565b8063782d6fe1146103f55780637ecebe00146104215780638da5cb5b1461044757806395d89b411461044f5780639870d7fe14610457578063a457c2d71461047d5761018e565b8063395093511161014b5780635c19a95c116101255780635c19a95c146103625780636fcfff451461038857806370a08231146103c7578063715018a6146103ed5761018e565b806339509351146102c657806340c10f19146102f2578063587cde1e146103205761018e565b806306fdde0314610193578063095ea7b31461021057806318160ddd1461025057806320606b701461026a57806323b872dd14610272578063313ce567146102a8575b600080fd5b61019b6105f0565b6040805160208082528351818301528351919283929083019185019080838360005b838110156101d55781810151838201526020016101bd565b50505050905090810190601f1680156102025780820380516001836020036101000a031916815260200191505b509250505060405180910390f35b61023c6004803603604081101561022657600080fd5b506001600160a01b038135169060200135610686565b604080519115158252519081900360200190f35b6102586106a4565b60408051918252519081900360200190f35b6102586106aa565b61023c6004803603606081101561028857600080fd5b506001600160a01b038135811691602081013590911690604001356106ce565b6102b0610755565b6040805160ff9092168252519081900360200190f35b61023c600480360360408110156102dc57600080fd5b506001600160a01b03813516906020013561075e565b61031e6004803603604081101561030857600080fd5b506001600160a01b0381351690602001356107ac565b005b6103466004803603602081101561033657600080fd5b50356001600160a01b0316610833565b604080516001600160a01b039092168252519081900360200190f35b61031e6004803603602081101561037857600080fd5b50356001600160a01b0316610851565b6103ae6004803603602081101561039e57600080fd5b50356001600160a01b031661085e565b6040805163ffffffff9092168252519081900360200190f35b610258600480360360208110156103dd57600080fd5b50356001600160a01b0316610876565b61031e610891565b6102586004803603604081101561040b57600080fd5b506001600160a01b038135169060200135610950565b6102586004803603602081101561043757600080fd5b50356001600160a01b0316610b58565b610346610b6a565b61019b610b7e565b61031e6004803603602081101561046d57600080fd5b50356001600160a01b0316610bdf565b61023c6004803603604081101561049357600080fd5b506001600160a01b038135169060200135610c72565b61023c600480360360408110156104bf57600080fd5b506001600160a01b038135169060200135610cda565b610258600480360360208110156104eb57600080fd5b50356001600160a01b0316610cee565b61031e600480360360c081101561051157600080fd5b506001600160a01b038135169060208101359060408101359060ff6060820135169060808101359060a00135610d52565b6102586004803603604081101561055857600080fd5b506001600160a01b0381358116916020013516610fc5565b610258610ff0565b6105aa6004803603604081101561058e57600080fd5b5080356001600160a01b0316906020013563ffffffff16611014565b6040805163ffffffff909316835260208301919091528051918290030190f35b61031e600480360360208110156105e057600080fd5b50356001600160a01b0316611041565b60038054604080516020601f600260001961010060018816150201909516949094049384018190048102820181019092528281526060939092909183018282801561067c5780601f106106515761010080835404028352916020019161067c565b820191906000526020600020905b81548152906001019060200180831161065f57829003601f168201915b5050505050905090565b600061069a6106936111b6565b84846111ba565b5060015b92915050565b60025490565b7f8cad95687ba82c2ce50e74f7b754645e5117c3a5bec8151c0726d5857980a86681565b60006106db8484846112a6565b61074b846106e76111b6565b61074685604051806060016040528060288152602001611a34602891396001600160a01b038a166000908152600160205260408120906107256111b6565b6001600160a01b031681526020810191909152604001600020549190611401565b6111ba565b5060019392505050565b60055460ff1690565b600061069a61076b6111b6565b84610746856001600061077c6111b6565b6001600160a01b03908116825260208083019390935260409182016000908120918c16815292529020549061115c565b3360009081526006602052604090205460ff16610800576040805162461bcd60e51b815260206004820152600d60248201526c27b7363c9027b832b930ba37b960991b604482015290519081900360640190fd5b61080a8282611498565b6001600160a01b0380831660009081526007602052604081205461082f921683611588565b5050565b6001600160a01b039081166000908152600760205260409020541690565b61085b33826116ca565b50565b60096020526000908152604090205463ffffffff1681565b6001600160a01b031660009081526020819052604090205490565b6108996111b6565b60055461010090046001600160a01b03908116911614610900576040805162461bcd60e51b815260206004820181905260248201527f4f776e61626c653a2063616c6c6572206973206e6f7420746865206f776e6572604482015290519081900360640190fd5b60055460405160009161010090046001600160a01b0316907f8be0079c531659141344cd1fd0a4f28419497f9722a3daafe3b4186f6b6457e0908390a360058054610100600160a81b0319169055565b60004382106109905760405162461bcd60e51b8152600401808060200182810382526028815260200180611a5c6028913960400191505060405180910390fd5b6001600160a01b03831660009081526009602052604090205463ffffffff16806109be57600091505061069e565b6001600160a01b038416600090815260086020908152604080832063ffffffff600019860181168552925290912054168310610a2d576001600160a01b03841660009081526008602090815260408083206000199490940163ffffffff1683529290522060010154905061069e565b6001600160a01b038416600090815260086020908152604080832083805290915290205463ffffffff16831015610a6857600091505061069e565b600060001982015b8163ffffffff168163ffffffff161115610b2157600282820363ffffffff16048103610a9a611968565b506001600160a01b038716600090815260086020908152604080832063ffffffff808616855290835292819020815180830190925280549093168082526001909301549181019190915290871415610afc5760200151945061069e9350505050565b805163ffffffff16871115610b1357819350610b1a565b6001820392505b5050610a70565b506001600160a01b038516600090815260086020908152604080832063ffffffff9094168352929052206001015491505092915050565b600a6020526000908152604090205481565b60055461010090046001600160a01b031690565b60048054604080516020601f600260001961010060018816150201909516949094049384018190048102820181019092528281526060939092909183018282801561067c5780601f106106515761010080835404028352916020019161067c565b610be76111b6565b60055461010090046001600160a01b03908116911614610c4e576040805162461bcd60e51b815260206004820181905260248201527f4f776e61626c653a2063616c6c6572206973206e6f7420746865206f776e6572604482015290519081900360640190fd5b6001600160a01b03166000908152600660205260409020805460ff19166001179055565b600061069a610c7f6111b6565b8461074685604051806060016040528060258152602001611b506025913960016000610ca96111b6565b6001600160a01b03908116825260208083019390935260409182016000908120918d16815292529020549190611401565b600061069a610ce76111b6565b84846112a6565b6001600160a01b03811660009081526009602052604081205463ffffffff1680610d19576000610d4b565b6001600160a01b038316600090815260086020908152604080832063ffffffff60001986011684529091529020600101545b9392505050565b60007f8cad95687ba82c2ce50e74f7b754645e5117c3a5bec8151c0726d5857980a866610d7d6105f0565b80519060200120610d8c61175f565b60408051602080820195909552808201939093526060830191909152306080808401919091528151808403909101815260a0830182528051908401207fe48329057bfd03d55e49b547132e39cffd9c1820ad7b9d4c5307691425d15adf60c08401526001600160a01b038b1660e084015261010083018a90526101208084018a9052825180850390910181526101408401835280519085012061190160f01b6101608501526101628401829052610182808501829052835180860390910181526101a285018085528151918701919091206000918290526101c2860180865281905260ff8b166101e287015261020286018a90526102228601899052935192965090949293909260019261024280840193601f198301929081900390910190855afa158015610ebf573d6000803e3d6000fd5b5050604051601f1901519150506001600160a01b038116610f115760405162461bcd60e51b8152600401808060200182810382526027815260200180611acd6027913960400191505060405180910390fd5b6001600160a01b0381166000908152600a602052604090208054600181019091558914610f6f5760405162461bcd60e51b8152600401808060200182810382526023815260200180611a116023913960400191505060405180910390fd5b87421115610fae5760405162461bcd60e51b8152600401808060200182810382526027815260200180611af46027913960400191505060405180910390fd5b610fb8818b6116ca565b505050505b505050505050565b6001600160a01b03918216600090815260016020908152604080832093909416825291909152205490565b7fe48329057bfd03d55e49b547132e39cffd9c1820ad7b9d4c5307691425d15adf81565b60086020908152600092835260408084209091529082529020805460019091015463ffffffff9091169082565b6110496111b6565b60055461010090046001600160a01b039081169116146110b0576040805162461bcd60e51b815260206004820181905260248201527f4f776e61626c653a2063616c6c6572206973206e6f7420746865206f776e6572604482015290519081900360640190fd5b6001600160a01b0381166110f55760405162461bcd60e51b81526004018080602001828103825260268152602001806119a36026913960400191505060405180910390fd5b6005546040516001600160a01b0380841692610100900416907f8be0079c531659141344cd1fd0a4f28419497f9722a3daafe3b4186f6b6457e090600090a3600580546001600160a01b0390921661010002610100600160a81b0319909216919091179055565b600082820183811015610d4b576040805162461bcd60e51b815260206004820152601b60248201527f536166654d6174683a206164646974696f6e206f766572666c6f770000000000604482015290519081900360640190fd5b3390565b6001600160a01b0383166111ff5760405162461bcd60e51b8152600401808060200182810382526024815260200180611aa96024913960400191505060405180910390fd5b6001600160a01b0382166112445760405162461bcd60e51b81526004018080602001828103825260228152602001806119c96022913960400191505060405180910390fd5b6001600160a01b03808416600081815260016020908152604080832094871680845294825291829020859055815185815291517f8c5be1e5ebec7d5bd14f71427d1e84f3dd0314c0f7b2291e5b200ac8c7c3b9259281900390910190a3505050565b6001600160a01b0383166112eb5760405162461bcd60e51b8152600401808060200182810382526025815260200180611a846025913960400191505060405180910390fd5b6001600160a01b0382166113305760405162461bcd60e51b81526004018080602001828103825260238152602001806119806023913960400191505060405180910390fd5b61133b8383836116c5565b611378816040518060600160405280602681526020016119eb602691396001600160a01b0386166000908152602081905260409020549190611401565b6001600160a01b0380851660009081526020819052604080822093909355908416815220546113a7908261115c565b6001600160a01b038084166000818152602081815260409182902094909455805185815290519193928716927fddf252ad1be2c89b69c2b068fc378daa952ba7f163c4a11628f55a4df523b3ef92918290030190a3505050565b600081848411156114905760405162461bcd60e51b81526004018080602001828103825283818151815260200191508051906020019080838360005b8381101561145557818101518382015260200161143d565b50505050905090810190601f1680156114825780820380516001836020036101000a031916815260200191505b509250505060405180910390fd5b505050900390565b6001600160a01b0382166114f3576040805162461bcd60e51b815260206004820152601f60248201527f45524332303a206d696e7420746f20746865207a65726f206164647265737300604482015290519081900360640190fd5b6114ff600083836116c5565b60025461150c908261115c565b6002556001600160a01b038216600090815260208190526040902054611532908261115c565b6001600160a01b0383166000818152602081815260408083209490945583518581529351929391927fddf252ad1be2c89b69c2b068fc378daa952ba7f163c4a11628f55a4df523b3ef9281900390910190a35050565b816001600160a01b0316836001600160a01b0316141580156115aa5750600081115b156116c5576001600160a01b0383161561163c576001600160a01b03831660009081526009602052604081205463ffffffff1690816115ea57600061161c565b6001600160a01b038516600090815260086020908152604080832063ffffffff60001987011684529091529020600101545b9050600061162a8285611763565b9050611638868484846117a5565b5050505b6001600160a01b038216156116c5576001600160a01b03821660009081526009602052604081205463ffffffff1690816116775760006116a9565b6001600160a01b038416600090815260086020908152604080832063ffffffff60001987011684529091529020600101545b905060006116b7828561115c565b9050610fbd858484846117a5565b505050565b6001600160a01b03808316600090815260076020526040812054909116906116f184610876565b6001600160a01b0385811660008181526007602052604080822080546001600160a01b031916898616908117909155905194955093928616927f3134e8a2e6d97e929a7e54011ea5485d7d196dd5f0ba4d4ef95803e8e3fc257f9190a4611759828483611588565b50505050565b4690565b6000610d4b83836040518060400160405280601e81526020017f536166654d6174683a207375627472616374696f6e206f766572666c6f770000815250611401565b60006117c943604051806060016040528060358152602001611b1b6035913961190a565b905060008463ffffffff1611801561181257506001600160a01b038516600090815260086020908152604080832063ffffffff6000198901811685529252909120548282169116145b1561184f576001600160a01b038516600090815260086020908152604080832063ffffffff600019890116845290915290206001018290556118c0565b60408051808201825263ffffffff808416825260208083018681526001600160a01b038a166000818152600884528681208b8616825284528681209551865490861663ffffffff19918216178755925160019687015590815260099092529390208054928801909116919092161790555b604080518481526020810184905281516001600160a01b038816927fdec2bacdd2f05b59de34da9b523dff8be42e5e38e818c82fdb0bae774387a724928290030190a25050505050565b60008164010000000084106119605760405162461bcd60e51b815260206004820181815283516024840152835190928392604490910191908501908083836000831561145557818101518382015260200161143d565b509192915050565b60408051808201909152600080825260208201529056fe45524332303a207472616e7366657220746f20746865207a65726f20616464726573734f776e61626c653a206e6577206f776e657220697320746865207a65726f206164647265737345524332303a20617070726f766520746f20746865207a65726f206164647265737345524332303a207472616e7366657220616d6f756e7420657863656564732062616c616e6365534f4c41523a3a64656c656761746542795369673a20696e76616c6964206e6f6e636545524332303a207472616e7366657220616d6f756e74206578636565647320616c6c6f77616e6365534f4c41523a3a6765745072696f72566f7465733a206e6f74207965742064657465726d696e656445524332303a207472616e736665722066726f6d20746865207a65726f206164647265737345524332303a20617070726f76652066726f6d20746865207a65726f2061646472657373534f4c41523a3a64656c656761746542795369673a20696e76616c6964207369676e6174757265534f4c41523a3a64656c656761746542795369673a207369676e61747572652065787069726564534f4c41523a3a5f7772697465436865636b706f696e743a20626c6f636b206e756d6265722065786365656473203332206269747345524332303a2064656372656173656420616c6c6f77616e63652062656c6f77207a65726fa26469706673582212203a35ee9c31af61ba7c09f6405b0eb06452a48e3d7642055cb894f059d6a6838864736f6c634300060c0033",
  "immutableReferences": {},
  "source": "// SPDX-License-Identifier: MIT\n\npragma solidity 0.6.12;\nimport {ERC20} from '@openzeppelin/contracts/token/ERC20/ERC20.sol';\nimport {EternalStorage} from './EternalStorage.sol';\nimport {Ownable} from '@openzeppelin/contracts/access/Ownable.sol';\n\ncontract SolarToken is ERC20, Ownable {\n    mapping(address => bool) operators;\n\n    function addOperator(address _operator) public onlyOwner {\n        operators[_operator] = true;\n    }\n\n    modifier onlyOperator() {\n        // Make sure the access is permitted to only contracts in our Dapp\n        require(operators[msg.sender], 'Only Operator');\n        _;\n    }\n\n    constructor(address _treasury) public ERC20('SolarToken', 'SOLAR') {\n        addOperator(_treasury);\n        _mint(_treasury, 1000**18);\n    }\n\n    function mint(address _to, uint256 _amount) public onlyOperator {\n        _mint(_to, _amount);\n        _moveDelegates(address(0), _delegates[_to], _amount);\n    }\n\n    /// @notice A record of each accounts delegate\n    mapping(address => address) internal _delegates;\n\n    /// @notice A checkpoint for marking number of votes from a given block\n    struct Checkpoint {\n        uint32 fromBlock;\n        uint256 votes;\n    }\n\n    /// @notice A record of votes checkpoints for each account, by index\n    mapping(address => mapping(uint32 => Checkpoint)) public checkpoints;\n\n    /// @notice The number of checkpoints for each account\n    mapping(address => uint32) public numCheckpoints;\n\n    /// @notice The EIP-712 typehash for the contract's domain\n    bytes32 public constant DOMAIN_TYPEHASH = keccak256(\n        'EIP712Domain(string name,uint256 chainId,address verifyingContract)'\n    );\n\n    /// @notice The EIP-712 typehash for the delegation struct used by the contract\n    bytes32 public constant DELEGATION_TYPEHASH = keccak256(\n        'Delegation(address delegatee,uint256 nonce,uint256 expiry)'\n    );\n\n    /// @notice A record of states for signing / validating signatures\n    mapping(address => uint256) public nonces;\n\n    /// @notice An event thats emitted when an account changes its delegate\n    event DelegateChanged(\n        address indexed delegator,\n        address indexed fromDelegate,\n        address indexed toDelegate\n    );\n\n    /// @notice An event thats emitted when a delegate account's vote balance changes\n    event DelegateVotesChanged(\n        address indexed delegate,\n        uint256 previousBalance,\n        uint256 newBalance\n    );\n\n    /**\n     * @notice Delegate votes from `msg.sender` to `delegatee`\n     * @param delegator The address to get delegatee for\n     */\n    function delegates(address delegator) external view returns (address) {\n        return _delegates[delegator];\n    }\n\n    /**\n     * @notice Delegate votes from `msg.sender` to `delegatee`\n     * @param delegatee The address to delegate votes to\n     */\n    function delegate(address delegatee) external {\n        return _delegate(msg.sender, delegatee);\n    }\n\n    /**\n     * @notice Delegates votes from signatory to `delegatee`\n     * @param delegatee The address to delegate votes to\n     * @param nonce The contract state required to match the signature\n     * @param expiry The time at which to expire the signature\n     * @param v The recovery byte of the signature\n     * @param r Half of the ECDSA signature pair\n     * @param s Half of the ECDSA signature pair\n     */\n    function delegateBySig(\n        address delegatee,\n        uint256 nonce,\n        uint256 expiry,\n        uint8 v,\n        bytes32 r,\n        bytes32 s\n    ) external {\n        bytes32 domainSeparator = keccak256(\n            abi.encode(DOMAIN_TYPEHASH, keccak256(bytes(name())), getChainId(), address(this))\n        );\n\n        bytes32 structHash = keccak256(abi.encode(DELEGATION_TYPEHASH, delegatee, nonce, expiry));\n\n        bytes32 digest = keccak256(abi.encodePacked('\\x19\\x01', domainSeparator, structHash));\n\n        address signatory = ecrecover(digest, v, r, s);\n        require(signatory != address(0), 'SOLAR::delegateBySig: invalid signature');\n        require(nonce == nonces[signatory]++, 'SOLAR::delegateBySig: invalid nonce');\n        require(now <= expiry, 'SOLAR::delegateBySig: signature expired');\n        return _delegate(signatory, delegatee);\n    }\n\n    /**\n     * @notice Gets the current votes balance for `account`\n     * @param account The address to get votes balance\n     * @return The number of current votes for `account`\n     */\n    function getCurrentVotes(address account) external view returns (uint256) {\n        uint32 nCheckpoints = numCheckpoints[account];\n        return nCheckpoints > 0 ? checkpoints[account][nCheckpoints - 1].votes : 0;\n    }\n\n    /**\n     * @notice Determine the prior number of votes for an account as of a block number\n     * @dev Block number must be a finalized block or else this function will revert to prevent misinformation.\n     * @param account The address of the account to check\n     * @param blockNumber The block number to get the vote balance at\n     * @return The number of votes the account had as of the given block\n     */\n    function getPriorVotes(address account, uint256 blockNumber) external view returns (uint256) {\n        require(blockNumber < block.number, 'SOLAR::getPriorVotes: not yet determined');\n\n        uint32 nCheckpoints = numCheckpoints[account];\n        if (nCheckpoints == 0) {\n            return 0;\n        }\n\n        // First check most recent balance\n        if (checkpoints[account][nCheckpoints - 1].fromBlock <= blockNumber) {\n            return checkpoints[account][nCheckpoints - 1].votes;\n        }\n\n        // Next check implicit zero balance\n        if (checkpoints[account][0].fromBlock > blockNumber) {\n            return 0;\n        }\n\n        uint32 lower = 0;\n        uint32 upper = nCheckpoints - 1;\n        while (upper > lower) {\n            uint32 center = upper - (upper - lower) / 2; // ceil, avoiding overflow\n            Checkpoint memory cp = checkpoints[account][center];\n            if (cp.fromBlock == blockNumber) {\n                return cp.votes;\n            } else if (cp.fromBlock < blockNumber) {\n                lower = center;\n            } else {\n                upper = center - 1;\n            }\n        }\n        return checkpoints[account][lower].votes;\n    }\n\n    function _delegate(address delegator, address delegatee) internal {\n        address currentDelegate = _delegates[delegator];\n        uint256 delegatorBalance = balanceOf(delegator); // balance of underlying SOLARs (not scaled);\n        _delegates[delegator] = delegatee;\n\n        emit DelegateChanged(delegator, currentDelegate, delegatee);\n\n        _moveDelegates(currentDelegate, delegatee, delegatorBalance);\n    }\n\n    function _moveDelegates(\n        address srcRep,\n        address dstRep,\n        uint256 amount\n    ) internal {\n        if (srcRep != dstRep && amount > 0) {\n            // TODO: refactor this so not to lose delegates if one is true and one is false\n            if (srcRep != address(0)) {\n                // decrease old representative\n                uint32 srcRepNum = numCheckpoints[srcRep];\n                uint256 srcRepOld = srcRepNum > 0 ? checkpoints[srcRep][srcRepNum - 1].votes : 0;\n                uint256 srcRepNew = srcRepOld.sub(amount);\n                _writeCheckpoint(srcRep, srcRepNum, srcRepOld, srcRepNew);\n            }\n\n            if (dstRep != address(0)) {\n                // increase new representative\n                uint32 dstRepNum = numCheckpoints[dstRep];\n                uint256 dstRepOld = dstRepNum > 0 ? checkpoints[dstRep][dstRepNum - 1].votes : 0;\n                uint256 dstRepNew = dstRepOld.add(amount);\n                _writeCheckpoint(dstRep, dstRepNum, dstRepOld, dstRepNew);\n            }\n        }\n    }\n\n    function _writeCheckpoint(\n        address delegatee,\n        uint32 nCheckpoints,\n        uint256 oldVotes,\n        uint256 newVotes\n    ) internal {\n        uint32 blockNumber = safe32(\n            block.number,\n            'SOLAR::_writeCheckpoint: block number exceeds 32 bits'\n        );\n\n        if (nCheckpoints > 0 && checkpoints[delegatee][nCheckpoints - 1].fromBlock == blockNumber) {\n            checkpoints[delegatee][nCheckpoints - 1].votes = newVotes;\n        } else {\n            checkpoints[delegatee][nCheckpoints] = Checkpoint(blockNumber, newVotes);\n            numCheckpoints[delegatee] = nCheckpoints + 1;\n        }\n\n        emit DelegateVotesChanged(delegatee, oldVotes, newVotes);\n    }\n\n    function safe32(uint256 n, string memory errorMessage) internal pure returns (uint32) {\n        require(n < 2**32, errorMessage);\n        return uint32(n);\n    }\n\n    function getChainId() internal pure returns (uint256) {\n        uint256 chainId;\n        assembly {\n            chainId := chainid()\n        }\n        return chainId;\n    }\n}\n",
  "sourcePath": "C:\\Users\\James\\projects\\tsuno-fe\\contracts\\SolarToken.sol",
  "compiler": {
    "name": "solc",
    "version": "0.6.12+commit.27d51765.Emscripten.clang"
  },
  "schemaVersion": "3.2.5",
  "updatedAt": "2020-11-15T18:28:43.892Z",
  "networkType": "ethereum",
  "devdoc": {
    "kind": "dev",
    "methods": {
      "allowance(address,address)": {
        "details": "See {IERC20-allowance}."
      },
      "approve(address,uint256)": {
        "details": "See {IERC20-approve}. Requirements: - `spender` cannot be the zero address."
      },
      "balanceOf(address)": {
        "details": "See {IERC20-balanceOf}."
      },
      "decimals()": {
        "details": "Returns the number of decimals used to get its user representation. For example, if `decimals` equals `2`, a balance of `505` tokens should be displayed to a user as `5,05` (`505 / 10 ** 2`). Tokens usually opt for a value of 18, imitating the relationship between Ether and Wei. This is the value {ERC20} uses, unless {_setupDecimals} is called. NOTE: This information is only used for _display_ purposes: it in no way affects any of the arithmetic of the contract, including {IERC20-balanceOf} and {IERC20-transfer}."
      },
      "decreaseAllowance(address,uint256)": {
        "details": "Atomically decreases the allowance granted to `spender` by the caller. This is an alternative to {approve} that can be used as a mitigation for problems described in {IERC20-approve}. Emits an {Approval} event indicating the updated allowance. Requirements: - `spender` cannot be the zero address. - `spender` must have allowance for the caller of at least `subtractedValue`."
      },
      "delegate(address)": {
        "params": {
          "delegatee": "The address to delegate votes to"
        }
      },
      "delegateBySig(address,uint256,uint256,uint8,bytes32,bytes32)": {
        "params": {
          "delegatee": "The address to delegate votes to",
          "expiry": "The time at which to expire the signature",
          "nonce": "The contract state required to match the signature",
          "r": "Half of the ECDSA signature pair",
          "s": "Half of the ECDSA signature pair",
          "v": "The recovery byte of the signature"
        }
      },
      "delegates(address)": {
        "params": {
          "delegator": "The address to get delegatee for"
        }
      },
      "getCurrentVotes(address)": {
        "params": {
          "account": "The address to get votes balance"
        },
        "returns": {
          "_0": "The number of current votes for `account`"
        }
      },
      "getPriorVotes(address,uint256)": {
        "details": "Block number must be a finalized block or else this function will revert to prevent misinformation.",
        "params": {
          "account": "The address of the account to check",
          "blockNumber": "The block number to get the vote balance at"
        },
        "returns": {
          "_0": "The number of votes the account had as of the given block"
        }
      },
      "increaseAllowance(address,uint256)": {
        "details": "Atomically increases the allowance granted to `spender` by the caller. This is an alternative to {approve} that can be used as a mitigation for problems described in {IERC20-approve}. Emits an {Approval} event indicating the updated allowance. Requirements: - `spender` cannot be the zero address."
      },
      "name()": {
        "details": "Returns the name of the token."
      },
      "owner()": {
        "details": "Returns the address of the current owner."
      },
      "renounceOwnership()": {
        "details": "Leaves the contract without owner. It will not be possible to call `onlyOwner` functions anymore. Can only be called by the current owner. NOTE: Renouncing ownership will leave the contract without an owner, thereby removing any functionality that is only available to the owner."
      },
      "symbol()": {
        "details": "Returns the symbol of the token, usually a shorter version of the name."
      },
      "totalSupply()": {
        "details": "See {IERC20-totalSupply}."
      },
      "transfer(address,uint256)": {
        "details": "See {IERC20-transfer}. Requirements: - `recipient` cannot be the zero address. - the caller must have a balance of at least `amount`."
      },
      "transferFrom(address,address,uint256)": {
        "details": "See {IERC20-transferFrom}. Emits an {Approval} event indicating the updated allowance. This is not required by the EIP. See the note at the beginning of {ERC20}; Requirements: - `sender` and `recipient` cannot be the zero address. - `sender` must have a balance of at least `amount`. - the caller must have allowance for ``sender``'s tokens of at least `amount`."
      },
      "transferOwnership(address)": {
        "details": "Transfers ownership of the contract to a new account (`newOwner`). Can only be called by the current owner."
      }
    },
    "version": 1
  },
  "userdoc": {
    "events": {
      "DelegateChanged(address,address,address)": {
        "notice": "An event thats emitted when an account changes its delegate"
      },
      "DelegateVotesChanged(address,uint256,uint256)": {
        "notice": "An event thats emitted when a delegate account's vote balance changes"
      }
    },
    "kind": "user",
    "methods": {
      "DELEGATION_TYPEHASH()": {
        "notice": "The EIP-712 typehash for the delegation struct used by the contract"
      },
      "DOMAIN_TYPEHASH()": {
        "notice": "The EIP-712 typehash for the contract's domain"
      },
      "checkpoints(address,uint32)": {
        "notice": "A record of votes checkpoints for each account, by index"
      },
      "delegate(address)": {
        "notice": "Delegate votes from `msg.sender` to `delegatee`"
      },
      "delegateBySig(address,uint256,uint256,uint8,bytes32,bytes32)": {
        "notice": "Delegates votes from signatory to `delegatee`"
      },
      "delegates(address)": {
        "notice": "Delegate votes from `msg.sender` to `delegatee`"
      },
      "getCurrentVotes(address)": {
        "notice": "Gets the current votes balance for `account`"
      },
      "getPriorVotes(address,uint256)": {
        "notice": "Determine the prior number of votes for an account as of a block number"
      },
      "nonces(address)": {
        "notice": "A record of states for signing / validating signatures"
      },
      "numCheckpoints(address)": {
        "notice": "The number of checkpoints for each account"
      }
    },
    "version": 1
  }
}