{
  "contractName": "SushiMaker",
  "abi": [
    {
      "inputs": [
        {
          "internalType": "contract IUniswapV2Factory",
          "name": "_factory",
          "type": "address"
        },
        {
          "internalType": "address",
          "name": "_bar",
          "type": "address"
        },
        {
          "internalType": "address",
          "name": "_sushi",
          "type": "address"
        },
        {
          "internalType": "address",
          "name": "_weth",
          "type": "address"
        }
      ],
      "stateMutability": "nonpayable",
      "type": "constructor"
    },
    {
      "inputs": [],
      "name": "bar",
      "outputs": [
        {
          "internalType": "address",
          "name": "",
          "type": "address"
        }
      ],
      "stateMutability": "view",
      "type": "function"
    },
    {
      "inputs": [],
      "name": "factory",
      "outputs": [
        {
          "internalType": "contract IUniswapV2Factory",
          "name": "",
          "type": "address"
        }
      ],
      "stateMutability": "view",
      "type": "function"
    },
    {
      "inputs": [],
      "name": "sushi",
      "outputs": [
        {
          "internalType": "address",
          "name": "",
          "type": "address"
        }
      ],
      "stateMutability": "view",
      "type": "function"
    },
    {
      "inputs": [],
      "name": "weth",
      "outputs": [
        {
          "internalType": "address",
          "name": "",
          "type": "address"
        }
      ],
      "stateMutability": "view",
      "type": "function"
    },
    {
      "inputs": [
        {
          "internalType": "address",
          "name": "token0",
          "type": "address"
        },
        {
          "internalType": "address",
          "name": "token1",
          "type": "address"
        }
      ],
      "name": "convert",
      "outputs": [],
      "stateMutability": "nonpayable",
      "type": "function"
    }
  ],
  "bytecode": "0x608060405234801561001057600080fd5b506040516111b33803806111b38339818101604052608081101561003357600080fd5b50805160208201516040830151606090930151600080546001600160a01b039485166001600160a01b0319918216179091556002805495851695821695909517909455600180549284169285169290921790915560038054929091169190921617905561110e806100a56000396000f3fe608060405234801561001057600080fd5b50600436106100575760003560e01c80630a0879031461005c5780633fc8cef314610080578063bd1b820c14610088578063c45a0155146100b8578063febb0f7e146100c0575b600080fd5b6100646100c8565b604080516001600160a01b039092168252519081900360200190f35b6100646100d7565b6100b66004803603604081101561009e57600080fd5b506001600160a01b03813581169160200135166100e6565b005b61006461034d565b61006461035c565b6002546001600160a01b031681565b6003546001600160a01b031681565b33321461013a576040805162461bcd60e51b815260206004820152601c60248201527f646f206e6f7420636f6e766572742066726f6d20636f6e747261637400000000604482015290519081900360640190fd5b600080546040805163e6a4390560e01b81526001600160a01b03868116600483015285811660248301529151919092169163e6a43905916044808301926020929190829003018186803b15801561019057600080fd5b505afa1580156101a4573d6000803e3d6000fd5b505050506040513d60208110156101ba57600080fd5b5051604080516370a0823160e01b815230600482015290519192506001600160a01b0383169163a9059cbb91849184916370a08231916024808301926020929190829003018186803b15801561020f57600080fd5b505afa158015610223573d6000803e3d6000fd5b505050506040513d602081101561023957600080fd5b5051604080516001600160e01b031960e086901b1681526001600160a01b03909316600484015260248301919091525160448083019260209291908290030181600087803b15801561028a57600080fd5b505af115801561029e573d6000803e3d6000fd5b505050506040513d60208110156102b457600080fd5b50506040805163226bf2d160e21b815230600482015281516001600160a01b038416926389afcb4492602480820193918290030181600087803b1580156102fa57600080fd5b505af115801561030e573d6000803e3d6000fd5b505050506040513d604081101561032457600080fd5b50600090506103328361036b565b61033b8561036b565b019050610347816109cc565b50505050565b6000546001600160a01b031681565b6001546001600160a01b031681565b6002546000906001600160a01b0383811691161415610424576000826001600160a01b03166370a08231306040518263ffffffff1660e01b815260040180826001600160a01b0316815260200191505060206040518083038186803b1580156103d357600080fd5b505afa1580156103e7573d6000803e3d6000fd5b505050506040513d60208110156103fd57600080fd5b505160015490915061041a9084906001600160a01b031683610cf2565b60009150506109c7565b6003546001600160a01b0383811691161415610552576000826001600160a01b03166370a08231306040518263ffffffff1660e01b815260040180826001600160a01b0316815260200191505060206040518083038186803b15801561048957600080fd5b505afa15801561049d573d6000803e3d6000fd5b505050506040513d60208110156104b357600080fd5b50516000546003546002546040805163e6a4390560e01b81526001600160a01b03938416600482015291831660248301525193945061054b938793929092169163e6a4390591604480820192602092909190829003018186803b15801561051957600080fd5b505afa15801561052d573d6000803e3d6000fd5b505050506040513d602081101561054357600080fd5b505183610cf2565b90506109c7565b600080546003546040805163e6a4390560e01b81526001600160a01b03878116600483015292831660248201529051919092169163e6a43905916044808301926020929190829003018186803b1580156105ab57600080fd5b505afa1580156105bf573d6000803e3d6000fd5b505050506040513d60208110156105d557600080fd5b505190506001600160a01b0381166105f15760009150506109c7565b600080826001600160a01b0316630902f1ac6040518163ffffffff1660e01b815260040160606040518083038186803b15801561062d57600080fd5b505afa158015610641573d6000803e3d6000fd5b505050506040513d606081101561065757600080fd5b50805160209182015160408051630dfe168160e01b815290516001600160701b0393841696509290911693506000926001600160a01b03871692630dfe1681926004808201939291829003018186803b1580156106b357600080fd5b505afa1580156106c7573d6000803e3d6000fd5b505050506040513d60208110156106dd57600080fd5b505190506000806001600160a01b03808416908916146106fe578385610701565b84845b915091506000886001600160a01b03166370a08231306040518263ffffffff1660e01b815260040180826001600160a01b0316815260200191505060206040518083038186803b15801561075457600080fd5b505afa158015610768573d6000803e3d6000fd5b505050506040513d602081101561077e57600080fd5b505190506000610790826103e5610d0b565b9050600061079e8285610d0b565b905060006107b8836107b2886103e8610d0b565b90610d6d565b905060008183816107c557fe5b0490506000808e6001600160a01b03168a6001600160a01b0316146107ec578260006107f0565b6000835b915091506107ff8f8e89610cf2565b8c6001600160a01b031663022c0d9f838360008054906101000a90046001600160a01b03166001600160a01b031663e6a43905600360009054906101000a90046001600160a01b0316600260009054906101000a90046001600160a01b03166040518363ffffffff1660e01b815260040180836001600160a01b03168152602001826001600160a01b031681526020019250505060206040518083038186803b1580156108ab57600080fd5b505afa1580156108bf573d6000803e3d6000fd5b505050506040513d60208110156108d557600080fd5b50516040805160008082526020820190925290506040518563ffffffff1660e01b815260040180858152602001848152602001836001600160a01b0316815260200180602001828103825283818151815260200191508051906020019080838360005b83811015610950578181015183820152602001610938565b50505050905090810190601f16801561097d5780820380516001836020036101000a031916815260200191505b5095505050505050600060405180830381600087803b15801561099f57600080fd5b505af11580156109b3573d6000803e3d6000fd5b50949f505050505050505050505050505050505b919050565b600080546003546002546040805163e6a4390560e01b81526001600160a01b039384166004820152918316602483015251919092169163e6a43905916044808301926020929190829003018186803b158015610a2757600080fd5b505afa158015610a3b573d6000803e3d6000fd5b505050506040513d6020811015610a5157600080fd5b505160408051630240bc6b60e21b8152905191925060009182916001600160a01b03851691630902f1ac91600480820192606092909190829003018186803b158015610a9c57600080fd5b505afa158015610ab0573d6000803e3d6000fd5b505050506040513d6060811015610ac657600080fd5b50805160209182015160408051630dfe168160e01b815290516001600160701b0393841696509290911693506000926001600160a01b03871692630dfe1681926004808201939291829003018186803b158015610b2257600080fd5b505afa158015610b36573d6000803e3d6000fd5b505050506040513d6020811015610b4c57600080fd5b505160035490915060009081906001600160a01b03808516911614610b72578385610b75565b84845b90925090506000610b88886103e5610d0b565b90506000610b968284610d0b565b90506000610baa836107b2876103e8610d0b565b90506000818381610bb757fe5b600354919004915060009081906001600160a01b038a8116911614610bde57826000610be2565b6000835b600154604080516000808252602082019092529395509193506001600160a01b038f81169363022c0d9f9387938793169190506040518563ffffffff1660e01b815260040180858152602001848152602001836001600160a01b0316815260200180602001828103825283818151815260200191508051906020019080838360005b83811015610c7c578181015183820152602001610c64565b50505050905090810190601f168015610ca95780820380516001836020036101000a031916815260200191505b5095505050505050600060405180830381600087803b158015610ccb57600080fd5b505af1158015610cdf573d6000803e3d6000fd5b5050505050505050505050505050505050565b610d066001600160a01b0384168383610dc7565b505050565b600082610d1a57506000610d67565b82820282848281610d2757fe5b0414610d645760405162461bcd60e51b815260040180806020018281038252602181526020018061108e6021913960400191505060405180910390fd5b90505b92915050565b600082820183811015610d64576040805162461bcd60e51b815260206004820152601b60248201527f536166654d6174683a206164646974696f6e206f766572666c6f770000000000604482015290519081900360640190fd5b604080516001600160a01b038416602482015260448082018490528251808303909101815260649091019091526020810180516001600160e01b031663a9059cbb60e01b179052610d069084906060610e69826040518060400160405280602081526020017f5361666545524332303a206c6f772d6c6576656c2063616c6c206661696c6564815250856001600160a01b0316610ec59092919063ffffffff16565b805190915015610d0657808060200190516020811015610e8857600080fd5b5051610d065760405162461bcd60e51b815260040180806020018281038252602a8152602001806110af602a913960400191505060405180910390fd5b6060610ed48484600085610edc565b949350505050565b6060610ee785611087565b610f38576040805162461bcd60e51b815260206004820152601d60248201527f416464726573733a2063616c6c20746f206e6f6e2d636f6e7472616374000000604482015290519081900360640190fd5b60006060866001600160a01b031685876040518082805190602001908083835b60208310610f775780518252601f199092019160209182019101610f58565b6001836020036101000a03801982511681845116808217855250505050505090500191505060006040518083038185875af1925050503d8060008114610fd9576040519150601f19603f3d011682016040523d82523d6000602084013e610fde565b606091505b50915091508115610ff2579150610ed49050565b8051156110025780518082602001fd5b8360405162461bcd60e51b81526004018080602001828103825283818151815260200191508051906020019080838360005b8381101561104c578181015183820152602001611034565b50505050905090810190601f1680156110795780820380516001836020036101000a031916815260200191505b509250505060405180910390fd5b3b15159056fe536166654d6174683a206d756c7469706c69636174696f6e206f766572666c6f775361666545524332303a204552433230206f7065726174696f6e20646964206e6f742073756363656564a264697066735822122002d7947c1801908c1534a6b88ccf83d685e017ca6654c9dd3d3f184b533e4e7964736f6c634300060c0033",
  "immutableReferences": {},
  "source": "pragma solidity 0.6.12;\n\nimport \"@openzeppelin/contracts/token/ERC20/IERC20.sol\";\nimport \"@openzeppelin/contracts/token/ERC20/SafeERC20.sol\";\nimport \"@openzeppelin/contracts/math/SafeMath.sol\";\nimport \"./uniswapv2/interfaces/IUniswapV2ERC20.sol\";\nimport \"./uniswapv2/interfaces/IUniswapV2Pair.sol\";\nimport \"./uniswapv2/interfaces/IUniswapV2Factory.sol\";\n\n\ncontract SushiMaker {\n    using SafeMath for uint256;\n    using SafeERC20 for IERC20;\n\n    IUniswapV2Factory public factory;\n    address public bar;\n    address public sushi;\n    address public weth;\n\n    constructor(IUniswapV2Factory _factory, address _bar, address _sushi, address _weth) public {\n        factory = _factory;\n        sushi = _sushi;\n        bar = _bar;\n        weth = _weth;\n    }\n\n    function convert(address token0, address token1) public {\n        // At least we try to make front-running harder to do.\n        require(msg.sender == tx.origin, \"do not convert from contract\");\n        IUniswapV2Pair pair = IUniswapV2Pair(factory.getPair(token0, token1));\n        pair.transfer(address(pair), pair.balanceOf(address(this)));\n        pair.burn(address(this));\n        uint256 wethAmount = _toWETH(token0) + _toWETH(token1);\n        _toSUSHI(wethAmount);\n    }\n\n    function _toWETH(address token) internal returns (uint256) {\n        if (token == sushi) {\n            uint amount = IERC20(token).balanceOf(address(this));\n            _safeTransfer(token, bar, amount);\n            return 0;\n        }\n        if (token == weth) {\n            uint amount = IERC20(token).balanceOf(address(this));\n            _safeTransfer(token, factory.getPair(weth, sushi), amount);\n            return amount;\n        }\n        IUniswapV2Pair pair = IUniswapV2Pair(factory.getPair(token, weth));\n        if (address(pair) == address(0)) {\n            return 0;\n        }\n        (uint reserve0, uint reserve1,) = pair.getReserves();\n        address token0 = pair.token0();\n        (uint reserveIn, uint reserveOut) = token0 == token ? (reserve0, reserve1) : (reserve1, reserve0);\n        uint amountIn = IERC20(token).balanceOf(address(this));\n        uint amountInWithFee = amountIn.mul(997);\n        uint numerator = amountInWithFee.mul(reserveOut);\n        uint denominator = reserveIn.mul(1000).add(amountInWithFee);\n        uint amountOut = numerator / denominator;\n        (uint amount0Out, uint amount1Out) = token0 == token ? (uint(0), amountOut) : (amountOut, uint(0));\n        _safeTransfer(token, address(pair), amountIn);\n        pair.swap(amount0Out, amount1Out, factory.getPair(weth, sushi), new bytes(0));\n        return amountOut;\n    }\n\n    function _toSUSHI(uint256 amountIn) internal {\n        IUniswapV2Pair pair = IUniswapV2Pair(factory.getPair(weth, sushi));\n        (uint reserve0, uint reserve1,) = pair.getReserves();\n        address token0 = pair.token0();\n        (uint reserveIn, uint reserveOut) = token0 == weth ? (reserve0, reserve1) : (reserve1, reserve0);\n        uint amountInWithFee = amountIn.mul(997);\n        uint numerator = amountInWithFee.mul(reserveOut);\n        uint denominator = reserveIn.mul(1000).add(amountInWithFee);\n        uint amountOut = numerator / denominator;\n        (uint amount0Out, uint amount1Out) = token0 == weth ? (uint(0), amountOut) : (amountOut, uint(0));\n        pair.swap(amount0Out, amount1Out, bar, new bytes(0));\n    }\n\n    function _safeTransfer(address token, address to, uint256 amount) internal {\n        IERC20(token).safeTransfer(to, amount);\n    }\n}\n",
  "sourcePath": "C:/Users/James/projects/zygo/blockchain/contracts/SushiMaker.sol",
  "compiler": {
    "name": "solc",
    "version": "0.6.12+commit.27d51765.Emscripten.clang"
  },
  "schemaVersion": "3.3.2",
  "updatedAt": "2021-01-20T11:43:37.628Z",
  "devdoc": {
    "kind": "dev",
    "methods": {},
    "version": 1
  },
  "userdoc": {
    "kind": "user",
    "methods": {},
    "version": 1
  }
}