{
  "contractName": "SushiRestaurant",
  "abi": [
    {
      "inputs": [
        {
          "internalType": "contract IERC20",
          "name": "_sushi",
          "type": "address"
        },
        {
          "internalType": "uint256",
          "name": "_reductionPerBlock",
          "type": "uint256"
        }
      ],
      "stateMutability": "nonpayable",
      "type": "constructor"
    },
    {
      "anonymous": false,
      "inputs": [
        {
          "indexed": true,
          "internalType": "address",
          "name": "user",
          "type": "address"
        },
        {
          "indexed": false,
          "internalType": "uint256",
          "name": "amount",
          "type": "uint256"
        }
      ],
      "name": "Enter",
      "type": "event"
    },
    {
      "anonymous": false,
      "inputs": [
        {
          "indexed": true,
          "internalType": "address",
          "name": "user",
          "type": "address"
        },
        {
          "indexed": false,
          "internalType": "uint256",
          "name": "amount",
          "type": "uint256"
        }
      ],
      "name": "Leave",
      "type": "event"
    },
    {
      "inputs": [],
      "name": "accSushiPerShare",
      "outputs": [
        {
          "internalType": "uint256",
          "name": "",
          "type": "uint256"
        }
      ],
      "stateMutability": "view",
      "type": "function"
    },
    {
      "inputs": [],
      "name": "ackSushiBalance",
      "outputs": [
        {
          "internalType": "uint256",
          "name": "",
          "type": "uint256"
        }
      ],
      "stateMutability": "view",
      "type": "function"
    },
    {
      "inputs": [],
      "name": "lastMultiplerProcessBlock",
      "outputs": [
        {
          "internalType": "uint256",
          "name": "",
          "type": "uint256"
        }
      ],
      "stateMutability": "view",
      "type": "function"
    },
    {
      "inputs": [],
      "name": "multiplier",
      "outputs": [
        {
          "internalType": "uint256",
          "name": "",
          "type": "uint256"
        }
      ],
      "stateMutability": "view",
      "type": "function"
    },
    {
      "inputs": [],
      "name": "reductionPerBlock",
      "outputs": [
        {
          "internalType": "uint256",
          "name": "",
          "type": "uint256"
        }
      ],
      "stateMutability": "view",
      "type": "function"
    },
    {
      "inputs": [],
      "name": "sushi",
      "outputs": [
        {
          "internalType": "contract IERC20",
          "name": "",
          "type": "address"
        }
      ],
      "stateMutability": "view",
      "type": "function"
    },
    {
      "inputs": [],
      "name": "totalShares",
      "outputs": [
        {
          "internalType": "uint256",
          "name": "",
          "type": "uint256"
        }
      ],
      "stateMutability": "view",
      "type": "function"
    },
    {
      "inputs": [
        {
          "internalType": "address",
          "name": "",
          "type": "address"
        }
      ],
      "name": "userInfo",
      "outputs": [
        {
          "internalType": "uint256",
          "name": "amount",
          "type": "uint256"
        },
        {
          "internalType": "uint256",
          "name": "share",
          "type": "uint256"
        },
        {
          "internalType": "uint256",
          "name": "rewardDebt",
          "type": "uint256"
        }
      ],
      "stateMutability": "view",
      "type": "function"
    },
    {
      "inputs": [],
      "name": "cleanup",
      "outputs": [],
      "stateMutability": "nonpayable",
      "type": "function"
    },
    {
      "inputs": [
        {
          "internalType": "address",
          "name": "_user",
          "type": "address"
        }
      ],
      "name": "getPendingReward",
      "outputs": [
        {
          "internalType": "uint256",
          "name": "",
          "type": "uint256"
        }
      ],
      "stateMutability": "view",
      "type": "function"
    },
    {
      "inputs": [
        {
          "internalType": "uint256",
          "name": "_amount",
          "type": "uint256"
        }
      ],
      "name": "enter",
      "outputs": [],
      "stateMutability": "nonpayable",
      "type": "function"
    },
    {
      "inputs": [
        {
          "internalType": "uint256",
          "name": "_amount",
          "type": "uint256"
        }
      ],
      "name": "leave",
      "outputs": [],
      "stateMutability": "nonpayable",
      "type": "function"
    }
  ],
  "bytecode": "0x608060405234801561001057600080fd5b50604051610aed380380610aed8339818101604052604081101561003357600080fd5b508051602090910151600080546001600160a01b0319166001600160a01b03909316929092178255600155670de0b6b3a764000060025543600355610a6f90819061007e90396000f3fe608060405234801561001057600080fd5b50600436106100b45760003560e01c80634fd3c34a116100715780634fd3c34a1461017357806367dfd4c91461017b57806381daa61814610198578063a59f3e0c146101a0578063d955c66a146101bd578063e6f7c7a4146101c5576100b4565b80630a087903146100b95780631959a002146100dd5780631b3ed722146101215780633a98ef391461013b5780633cecd719146101435780634df9d6ba1461014d575b600080fd5b6100c16101cd565b604080516001600160a01b039092168252519081900360200190f35b610103600480360360208110156100f357600080fd5b50356001600160a01b03166101dc565b60408051938452602084019290925282820152519081900360600190f35b6101296101fd565b60408051918252519081900360200190f35b610129610203565b61014b610209565b005b6101296004803603602081101561016357600080fd5b50356001600160a01b031661037e565b6101296103ca565b61014b6004803603602081101561019157600080fd5b50356103d0565b6101296104ab565b61014b600480360360208110156101b657600080fd5b50356104b1565b61012961061a565b610129610620565b6000546001600160a01b031681565b60076020526000908152604090208054600182015460029092015490919083565b60025481565b60065481565b60006102206003544361062690919063ffffffff16565b600154909150670de0b6b3a7640000905b821561028257600183161561025f5761025c670de0b6b3a76400006102568484610671565b906106ca565b91505b610275670de0b6b3a76400006102568380610671565b9050600283049250610231565b6102a3670de0b6b3a76400006102568460025461067190919063ffffffff16565b60025543600355600654156103795760055460008054604080516370a0823160e01b8152306004820152905192936103389390926001600160a01b0316916370a08231916024808301926020929190829003018186803b15801561030657600080fd5b505afa15801561031a573d6000803e3d6000fd5b505050506040513d602081101561033057600080fd5b505190610626565b905061036461035b60065461025664e8d4a510008561067190919063ffffffff16565b6004549061070c565b600455600554610374908261070c565b600555505b505050565b6001600160a01b0381166000908152600760205260408120600281015460045460018301546103c392916103bd9164e8d4a51000916102569190610671565b90610626565b9392505050565b60045481565b6103d8610209565b6103ea336103e53361037e565b610766565b3360009081526007602052604081208054600182015491929161041291906102569086610671565b82549091506104219084610626565b82556006546104309082610626565b60065560018201546104429082610626565b600183018190556004546104619164e8d4a51000916102569190610671565b60028301556104703384610766565b60408051848152905133917f61a26f7c17d8780c095ccfa67e689a13ee4e06ddce3da18956369f4a396100e8919081900360200190a2505050565b60055481565b6104b9610209565b6104c6336103e53361037e565b60008054604080516323b872dd60e01b81523360048201523060248201526044810185905290516001600160a01b03909216926323b872dd926064808401936020939083900390910190829087803b15801561052157600080fd5b505af1158015610535573d6000803e3d6000fd5b505050506040513d602081101561054b57600080fd5b505060055461055a908261070c565b60055533600090815260076020526040812060025490919061058b90670de0b6b3a764000090610256908690610671565b825490915061059a908461070c565b82556006546105a9908261070c565b60065560018201546105bb908261070c565b600183018190556004546105da9164e8d4a51000916102569190610671565b600283015560408051848152905133917f1fb48929215fc354244acea33112720ce5b7ba6912db70bb0149e77aa7c91ce1919081900360200190a2505050565b60035481565b60015481565b600061066883836040518060400160405280601e81526020017f536166654d6174683a207375627472616374696f6e206f766572666c6f77000081525061091c565b90505b92915050565b6000826106805750600061066b565b8282028284828161068d57fe5b04146106685760405162461bcd60e51b8152600401808060200182810382526021815260200180610a196021913960400191505060405180910390fd5b600061066883836040518060400160405280601a81526020017f536166654d6174683a206469766973696f6e206279207a65726f0000000000008152506109b3565b600082820183811015610668576040805162461bcd60e51b815260206004820152601b60248201527f536166654d6174683a206164646974696f6e206f766572666c6f770000000000604482015290519081900360640190fd5b60008054604080516370a0823160e01b815230600482015290516001600160a01b03909216916370a0823191602480820192602092909190829003018186803b1580156107b257600080fd5b505afa1580156107c6573d6000803e3d6000fd5b505050506040513d60208110156107dc57600080fd5b505190508082111561088257600080546040805163a9059cbb60e01b81526001600160a01b038781166004830152602482018690529151919092169263a9059cbb92604480820193602093909283900390910190829087803b15801561084157600080fd5b505af1158015610855573d6000803e3d6000fd5b505050506040513d602081101561086b57600080fd5b505060055461087a9082610626565b600555610379565b600080546040805163a9059cbb60e01b81526001600160a01b038781166004830152602482018790529151919092169263a9059cbb92604480820193602093909283900390910190829087803b1580156108db57600080fd5b505af11580156108ef573d6000803e3d6000fd5b505050506040513d602081101561090557600080fd5b50506005546109149083610626565b600555505050565b600081848411156109ab5760405162461bcd60e51b81526004018080602001828103825283818151815260200191508051906020019080838360005b83811015610970578181015183820152602001610958565b50505050905090810190601f16801561099d5780820380516001836020036101000a031916815260200191505b509250505060405180910390fd5b505050900390565b60008183610a025760405162461bcd60e51b8152602060048201818152835160248401528351909283926044909101919085019080838360008315610970578181015183820152602001610958565b506000838581610a0e57fe5b049594505050505056fe536166654d6174683a206d756c7469706c69636174696f6e206f766572666c6f77a2646970667358221220485ef4a4edea186079c0ad73535c739415afbe22dbe346aaeb8763bbe1fdf32e64736f6c634300060c0033",
  "immutableReferences": {},
  "source": "pragma solidity 0.6.12;\r\n\r\nimport \"@openzeppelin/contracts/token/ERC20/IERC20.sol\";\r\nimport \"@openzeppelin/contracts/math/SafeMath.sol\";\r\n\r\n\r\ncontract SushiRestaurant {\r\n    using SafeMath for uint256;\r\n    event Enter(address indexed user, uint256 amount);\r\n    event Leave(address indexed user, uint256 amount);\r\n\r\n    IERC20 public sushi;\r\n\r\n    uint256 public reductionPerBlock;\r\n    uint256 public multiplier;\r\n    uint256 public lastMultiplerProcessBlock;\r\n\r\n    uint256 public accSushiPerShare;\r\n    uint256 public ackSushiBalance;\r\n    uint256 public totalShares;\r\n\r\n    struct UserInfo {\r\n        uint256 amount; // SUSHI stake amount\r\n        uint256 share;\r\n        uint256 rewardDebt;\r\n    }\r\n\r\n    mapping (address => UserInfo) public userInfo;\r\n\r\n    constructor(IERC20 _sushi, uint256 _reductionPerBlock) public {\r\n        sushi = _sushi;\r\n        reductionPerBlock = _reductionPerBlock; // Use 999999390274979584 for 10% per month\r\n        multiplier = 1e18; // Should be good for 20 years\r\n        lastMultiplerProcessBlock = block.number;\r\n    }\r\n\r\n    // Clean the restaurant. Called whenever someone enters or leaves.\r\n    function cleanup() public {\r\n        // Update multiplier\r\n        uint256 reductionTimes = block.number.sub(lastMultiplerProcessBlock);\r\n        uint256 fraction = 1e18;\r\n        uint256 acc = reductionPerBlock;\r\n        while (reductionTimes > 0) {\r\n            if (reductionTimes & 1 != 0) {\r\n                fraction = fraction.mul(acc).div(1e18);\r\n            }\r\n            acc = acc.mul(acc).div(1e18);\r\n            reductionTimes = reductionTimes / 2;\r\n        }\r\n        multiplier = multiplier.mul(fraction).div(1e18);\r\n        lastMultiplerProcessBlock = block.number;\r\n        // Update accSushiPerShare / ackSushiBalance\r\n        if (totalShares > 0) {\r\n            uint256 additionalSushi = sushi.balanceOf(address(this)).sub(ackSushiBalance);\r\n            accSushiPerShare = accSushiPerShare.add(additionalSushi.mul(1e12).div(totalShares));\r\n            ackSushiBalance = ackSushiBalance.add(additionalSushi);\r\n        }\r\n    }\r\n\r\n    // Get user pending reward. May be outdated until someone calls cleanup.\r\n    function getPendingReward(address _user) public view returns (uint256) {\r\n        UserInfo storage user = userInfo[_user];\r\n        return user.share.mul(accSushiPerShare).div(1e12).sub(user.rewardDebt);\r\n    }\r\n\r\n    // Enter the restaurant. Pay some SUSHIs. Earn some shares.\r\n    function enter(uint256 _amount) public {\r\n        cleanup();\r\n        safeSushiTransfer(msg.sender, getPendingReward(msg.sender));\r\n        sushi.transferFrom(msg.sender, address(this), _amount);\r\n        ackSushiBalance = ackSushiBalance.add(_amount);\r\n        UserInfo storage user = userInfo[msg.sender];\r\n        uint256 moreShare = _amount.mul(multiplier).div(1e18);\r\n        user.amount = user.amount.add(_amount);\r\n        totalShares = totalShares.add(moreShare);\r\n        user.share = user.share.add(moreShare);\r\n        user.rewardDebt = user.share.mul(accSushiPerShare).div(1e12);\r\n        emit Enter(msg.sender, _amount);\r\n    }\r\n\r\n    // Leave the restaurant. Claim back your SUSHIs.\r\n    function leave(uint256 _amount) public {\r\n        cleanup();\r\n        safeSushiTransfer(msg.sender, getPendingReward(msg.sender));\r\n        UserInfo storage user = userInfo[msg.sender];\r\n        uint256 lessShare = user.share.mul(_amount).div(user.amount);\r\n        user.amount = user.amount.sub(_amount);\r\n        totalShares = totalShares.sub(lessShare);\r\n        user.share = user.share.sub(lessShare);\r\n        user.rewardDebt = user.share.mul(accSushiPerShare).div(1e12);\r\n        safeSushiTransfer(msg.sender, _amount);\r\n        emit Leave(msg.sender, _amount);\r\n    }\r\n\r\n    // Safe sushi transfer function, just in case if rounding error causes pool to not have enough SUSHIs.\r\n    function safeSushiTransfer(address _to, uint256 _amount) internal {\r\n        uint256 sushiBal = sushi.balanceOf(address(this));\r\n        if (_amount > sushiBal) {\r\n            sushi.transfer(_to, sushiBal);\r\n            ackSushiBalance = ackSushiBalance.sub(sushiBal);\r\n        } else {\r\n            sushi.transfer(_to, _amount);\r\n            ackSushiBalance = ackSushiBalance.sub(_amount);\r\n        }\r\n    }\r\n}",
  "sourcePath": "C:/Users/James/projects/signo/blockchain/contracts/SushiRestaurant.sol",
  "compiler": {
    "name": "solc",
    "version": "0.6.12+commit.27d51765.Emscripten.clang"
  },
  "schemaVersion": "3.3.2",
  "updatedAt": "2021-01-18T15:35:48.852Z",
  "devdoc": {
    "kind": "dev",
    "methods": {},
    "version": 1
  },
  "userdoc": {
    "kind": "user",
    "methods": {},
    "version": 1
  }
}