{
  "contractName": "TestGameOperations",
  "abi": [
    {
      "inputs": [
        {
          "internalType": "enum Types.SystemType",
          "name": "systemType",
          "type": "uint8"
        }
      ],
      "name": "getRandomYield",
      "outputs": [
        {
          "internalType": "uint16",
          "name": "rand",
          "type": "uint16"
        }
      ],
      "stateMutability": "view",
      "type": "function"
    },
    {
      "inputs": [
        {
          "internalType": "uint256",
          "name": "_seed",
          "type": "uint256"
        }
      ],
      "name": "setSeed",
      "outputs": [],
      "stateMutability": "nonpayable",
      "type": "function"
    }
  ],
  "bytecode": "0x6080604052600160345534801561001557600080fd5b5060f5806100246000396000f3fe6080604052348015600f57600080fd5b506004361060315760003560e01c80626c2f3a146036578063c32a50f9146059575b600080fd5b604560413660046075565b606a565b6040516050919060b0565b60405180910390f35b606860643660046099565b6070565b005b50600090565b603355565b6000602082840312156085578081fd5b8135601581106092578182fd5b9392505050565b60006020828403121560a9578081fd5b5035919050565b61ffff9190911681526020019056fea2646970667358221220cc1fb207fc0ff974e03931c7e11cb015e6d6ddad8a751805b3bc8d566338a0a964736f6c634300060c0033",
  "immutableReferences": {},
  "source": "pragma solidity 0.6.12;\npragma experimental ABIEncoderV2;\n\nimport {GameOperations} from '../GameOperations.sol';\nimport {Types} from '../lib/Types.sol';\n\n/* solium-disable-next-line */\ncontract TestGameOperations is GameOperations {\n    // // create test functions\n    // event TestAddress(address a, address b, address c, address d);\n    // event TestUint(uint256 a, uint256 b);\n    // function testAiFleetAttack(Types.SystemType starSystem) public {\n    //     (uint256 a_offense, uint256 a_defense) = GS.getAiFleetInfo(starSystem);\n    //     (\n    //         uint256 d_offense,\n    //         uint256 d_defense,\n    //         uint256[] memory d_balances,\n    //         uint256[] memory d_ids\n    //     ) = calculateStats(msg.sender);\n    //     emit BattleStarted(msg.sender, a_offense, a_defense, address(this), d_offense, d_defense);\n    //     bool result = battle(a_offense, a_defense, d_offense, d_defense, true, 10);\n    // }\n    // function testFhrDiscovery(Types.SystemType systemType) public {\n    //     (uint256 low, uint256 high) = GS.getStarSystemYieldRange(systemType);\n    //     uint256 _id = GS.incrementTotalFhr();\n    //     GS.setTokenIdToYield(_id, randomrange(low, high));\n    //     TS.mintFhr(msg.sender, _id);\n    // }\n    // function testSatDiscovery(\n    //     uint256 rand,\n    //     uint256[] memory ships,\n    //     uint256[] memory amounts\n    // ) public {\n    //     TS.sendSats(msg.sender, ships, amounts);\n    //     // updateMasterFleet(msg.sender, ships, amounts);\n    // }\n    // function testUpdateMasterFleet(\n    //     address master,\n    //     uint256[] memory ids,\n    //     uint256[] memory amounts\n    // ) public {\n    //     // updateMasterFleet(master, ids, amounts);\n    // }\n}\n",
  "sourcePath": "C:/Users/James/projects/tsuno-fe/contracts/testing/TestGameOperations.sol",
  "compiler": {
    "name": "solc",
    "version": "0.6.12+commit.27d51765.Emscripten.clang"
  },
  "schemaVersion": "3.2.5",
  "updatedAt": "2020-11-15T18:28:43.935Z",
  "networkType": "ethereum",
  "devdoc": {
    "kind": "dev",
    "methods": {},
    "version": 1
  },
  "userdoc": {
    "kind": "user",
    "methods": {},
    "version": 1
  }
}