{
  "contractName": "TestSolar",
  "abi": [
    {
      "inputs": [
        {
          "internalType": "address",
          "name": "treasury",
          "type": "address"
        }
      ],
      "stateMutability": "nonpayable",
      "type": "constructor"
    },
    {
      "anonymous": false,
      "inputs": [
        {
          "indexed": true,
          "internalType": "address",
          "name": "owner",
          "type": "address"
        },
        {
          "indexed": true,
          "internalType": "address",
          "name": "spender",
          "type": "address"
        },
        {
          "indexed": false,
          "internalType": "uint256",
          "name": "value",
          "type": "uint256"
        }
      ],
      "name": "Approval",
      "type": "event"
    },
    {
      "anonymous": false,
      "inputs": [
        {
          "indexed": true,
          "internalType": "address",
          "name": "delegator",
          "type": "address"
        },
        {
          "indexed": true,
          "internalType": "address",
          "name": "fromDelegate",
          "type": "address"
        },
        {
          "indexed": true,
          "internalType": "address",
          "name": "toDelegate",
          "type": "address"
        }
      ],
      "name": "DelegateChanged",
      "type": "event"
    },
    {
      "anonymous": false,
      "inputs": [
        {
          "indexed": true,
          "internalType": "address",
          "name": "delegate",
          "type": "address"
        },
        {
          "indexed": false,
          "internalType": "uint256",
          "name": "previousBalance",
          "type": "uint256"
        },
        {
          "indexed": false,
          "internalType": "uint256",
          "name": "newBalance",
          "type": "uint256"
        }
      ],
      "name": "DelegateVotesChanged",
      "type": "event"
    },
    {
      "anonymous": false,
      "inputs": [
        {
          "indexed": true,
          "internalType": "address",
          "name": "previousOwner",
          "type": "address"
        },
        {
          "indexed": true,
          "internalType": "address",
          "name": "newOwner",
          "type": "address"
        }
      ],
      "name": "OwnershipTransferred",
      "type": "event"
    },
    {
      "anonymous": false,
      "inputs": [
        {
          "indexed": true,
          "internalType": "address",
          "name": "from",
          "type": "address"
        },
        {
          "indexed": true,
          "internalType": "address",
          "name": "to",
          "type": "address"
        },
        {
          "indexed": false,
          "internalType": "uint256",
          "name": "value",
          "type": "uint256"
        }
      ],
      "name": "Transfer",
      "type": "event"
    },
    {
      "inputs": [],
      "name": "DELEGATION_TYPEHASH",
      "outputs": [
        {
          "internalType": "bytes32",
          "name": "",
          "type": "bytes32"
        }
      ],
      "stateMutability": "view",
      "type": "function"
    },
    {
      "inputs": [],
      "name": "DOMAIN_TYPEHASH",
      "outputs": [
        {
          "internalType": "bytes32",
          "name": "",
          "type": "bytes32"
        }
      ],
      "stateMutability": "view",
      "type": "function"
    },
    {
      "inputs": [
        {
          "internalType": "address",
          "name": "_operator",
          "type": "address"
        }
      ],
      "name": "addOperator",
      "outputs": [],
      "stateMutability": "nonpayable",
      "type": "function"
    },
    {
      "inputs": [
        {
          "internalType": "address",
          "name": "owner",
          "type": "address"
        },
        {
          "internalType": "address",
          "name": "spender",
          "type": "address"
        }
      ],
      "name": "allowance",
      "outputs": [
        {
          "internalType": "uint256",
          "name": "",
          "type": "uint256"
        }
      ],
      "stateMutability": "view",
      "type": "function"
    },
    {
      "inputs": [
        {
          "internalType": "address",
          "name": "spender",
          "type": "address"
        },
        {
          "internalType": "uint256",
          "name": "amount",
          "type": "uint256"
        }
      ],
      "name": "approve",
      "outputs": [
        {
          "internalType": "bool",
          "name": "",
          "type": "bool"
        }
      ],
      "stateMutability": "nonpayable",
      "type": "function"
    },
    {
      "inputs": [
        {
          "internalType": "address",
          "name": "account",
          "type": "address"
        }
      ],
      "name": "balanceOf",
      "outputs": [
        {
          "internalType": "uint256",
          "name": "",
          "type": "uint256"
        }
      ],
      "stateMutability": "view",
      "type": "function"
    },
    {
      "inputs": [
        {
          "internalType": "address",
          "name": "",
          "type": "address"
        },
        {
          "internalType": "uint32",
          "name": "",
          "type": "uint32"
        }
      ],
      "name": "checkpoints",
      "outputs": [
        {
          "internalType": "uint32",
          "name": "fromBlock",
          "type": "uint32"
        },
        {
          "internalType": "uint256",
          "name": "votes",
          "type": "uint256"
        }
      ],
      "stateMutability": "view",
      "type": "function"
    },
    {
      "inputs": [],
      "name": "decimals",
      "outputs": [
        {
          "internalType": "uint8",
          "name": "",
          "type": "uint8"
        }
      ],
      "stateMutability": "view",
      "type": "function"
    },
    {
      "inputs": [
        {
          "internalType": "address",
          "name": "spender",
          "type": "address"
        },
        {
          "internalType": "uint256",
          "name": "subtractedValue",
          "type": "uint256"
        }
      ],
      "name": "decreaseAllowance",
      "outputs": [
        {
          "internalType": "bool",
          "name": "",
          "type": "bool"
        }
      ],
      "stateMutability": "nonpayable",
      "type": "function"
    },
    {
      "inputs": [
        {
          "internalType": "address",
          "name": "delegatee",
          "type": "address"
        }
      ],
      "name": "delegate",
      "outputs": [],
      "stateMutability": "nonpayable",
      "type": "function"
    },
    {
      "inputs": [
        {
          "internalType": "address",
          "name": "delegatee",
          "type": "address"
        },
        {
          "internalType": "uint256",
          "name": "nonce",
          "type": "uint256"
        },
        {
          "internalType": "uint256",
          "name": "expiry",
          "type": "uint256"
        },
        {
          "internalType": "uint8",
          "name": "v",
          "type": "uint8"
        },
        {
          "internalType": "bytes32",
          "name": "r",
          "type": "bytes32"
        },
        {
          "internalType": "bytes32",
          "name": "s",
          "type": "bytes32"
        }
      ],
      "name": "delegateBySig",
      "outputs": [],
      "stateMutability": "nonpayable",
      "type": "function"
    },
    {
      "inputs": [
        {
          "internalType": "address",
          "name": "delegator",
          "type": "address"
        }
      ],
      "name": "delegates",
      "outputs": [
        {
          "internalType": "address",
          "name": "",
          "type": "address"
        }
      ],
      "stateMutability": "view",
      "type": "function"
    },
    {
      "inputs": [
        {
          "internalType": "address",
          "name": "account",
          "type": "address"
        }
      ],
      "name": "getCurrentVotes",
      "outputs": [
        {
          "internalType": "uint256",
          "name": "",
          "type": "uint256"
        }
      ],
      "stateMutability": "view",
      "type": "function"
    },
    {
      "inputs": [
        {
          "internalType": "address",
          "name": "account",
          "type": "address"
        },
        {
          "internalType": "uint256",
          "name": "blockNumber",
          "type": "uint256"
        }
      ],
      "name": "getPriorVotes",
      "outputs": [
        {
          "internalType": "uint256",
          "name": "",
          "type": "uint256"
        }
      ],
      "stateMutability": "view",
      "type": "function"
    },
    {
      "inputs": [
        {
          "internalType": "address",
          "name": "spender",
          "type": "address"
        },
        {
          "internalType": "uint256",
          "name": "addedValue",
          "type": "uint256"
        }
      ],
      "name": "increaseAllowance",
      "outputs": [
        {
          "internalType": "bool",
          "name": "",
          "type": "bool"
        }
      ],
      "stateMutability": "nonpayable",
      "type": "function"
    },
    {
      "inputs": [
        {
          "internalType": "address",
          "name": "_to",
          "type": "address"
        },
        {
          "internalType": "uint256",
          "name": "_amount",
          "type": "uint256"
        }
      ],
      "name": "mint",
      "outputs": [],
      "stateMutability": "nonpayable",
      "type": "function"
    },
    {
      "inputs": [],
      "name": "name",
      "outputs": [
        {
          "internalType": "string",
          "name": "",
          "type": "string"
        }
      ],
      "stateMutability": "view",
      "type": "function"
    },
    {
      "inputs": [
        {
          "internalType": "address",
          "name": "",
          "type": "address"
        }
      ],
      "name": "nonces",
      "outputs": [
        {
          "internalType": "uint256",
          "name": "",
          "type": "uint256"
        }
      ],
      "stateMutability": "view",
      "type": "function"
    },
    {
      "inputs": [
        {
          "internalType": "address",
          "name": "",
          "type": "address"
        }
      ],
      "name": "numCheckpoints",
      "outputs": [
        {
          "internalType": "uint32",
          "name": "",
          "type": "uint32"
        }
      ],
      "stateMutability": "view",
      "type": "function"
    },
    {
      "inputs": [],
      "name": "owner",
      "outputs": [
        {
          "internalType": "address",
          "name": "",
          "type": "address"
        }
      ],
      "stateMutability": "view",
      "type": "function"
    },
    {
      "inputs": [],
      "name": "renounceOwnership",
      "outputs": [],
      "stateMutability": "nonpayable",
      "type": "function"
    },
    {
      "inputs": [],
      "name": "symbol",
      "outputs": [
        {
          "internalType": "string",
          "name": "",
          "type": "string"
        }
      ],
      "stateMutability": "view",
      "type": "function"
    },
    {
      "inputs": [],
      "name": "totalSupply",
      "outputs": [
        {
          "internalType": "uint256",
          "name": "",
          "type": "uint256"
        }
      ],
      "stateMutability": "view",
      "type": "function"
    },
    {
      "inputs": [
        {
          "internalType": "address",
          "name": "recipient",
          "type": "address"
        },
        {
          "internalType": "uint256",
          "name": "amount",
          "type": "uint256"
        }
      ],
      "name": "transfer",
      "outputs": [
        {
          "internalType": "bool",
          "name": "",
          "type": "bool"
        }
      ],
      "stateMutability": "nonpayable",
      "type": "function"
    },
    {
      "inputs": [
        {
          "internalType": "address",
          "name": "sender",
          "type": "address"
        },
        {
          "internalType": "address",
          "name": "recipient",
          "type": "address"
        },
        {
          "internalType": "uint256",
          "name": "amount",
          "type": "uint256"
        }
      ],
      "name": "transferFrom",
      "outputs": [
        {
          "internalType": "bool",
          "name": "",
          "type": "bool"
        }
      ],
      "stateMutability": "nonpayable",
      "type": "function"
    },
    {
      "inputs": [
        {
          "internalType": "address",
          "name": "newOwner",
          "type": "address"
        }
      ],
      "name": "transferOwnership",
      "outputs": [],
      "stateMutability": "nonpayable",
      "type": "function"
    },
    {
      "inputs": [
        {
          "internalType": "address",
          "name": "_to",
          "type": "address"
        },
        {
          "internalType": "uint256",
          "name": "_amount",
          "type": "uint256"
        }
      ],
      "name": "testMint",
      "outputs": [],
      "stateMutability": "nonpayable",
      "type": "function"
    }
  ],
  "bytecode": "0x60806040523480156200001157600080fd5b5060405162001f6438038062001f64833981016040819052620000349162000365565b604080518082018252600a81526929b7b630b92a37b5b2b760b11b60208083019182528351808501909452600584526429a7a620a960d91b908401528151849391620000849160039190620002c9565b5080516200009a906004906020840190620002c9565b50506005805460ff19166012179055506000620000b662000142565b60058054610100600160a81b0319166101006001600160a01b03841690810291909117909155604051919250906000907f8be0079c531659141344cd1fd0a4f28419497f9722a3daafe3b4186f6b6457e0908290a350620001178162000146565b6200013a81760a70c3c40a64e6c51999090b65f67d9240000000000000620001b2565b50506200043a565b3390565b6200015062000142565b60055461010090046001600160a01b039081169116146200018e5760405162461bcd60e51b81526004016200018590620003c5565b60405180910390fd5b6001600160a01b03166000908152600660205260409020805460ff19166001179055565b6001600160a01b038216620001db5760405162461bcd60e51b81526004016200018590620003fa565b620001e96000838362000295565b62000205816002546200029a60201b62000d9c1790919060201c565b6002556001600160a01b038216600090815260208181526040909120546200023891839062000d9c6200029a821b17901c565b6001600160a01b0383166000818152602081905260408082209390935591519091907fddf252ad1be2c89b69c2b068fc378daa952ba7f163c4a11628f55a4df523b3ef906200028990859062000431565b60405180910390a35050565b505050565b600082820183811015620002c25760405162461bcd60e51b815260040162000185906200038e565b9392505050565b828054600181600116156101000203166002900490600052602060002090601f016020900481019282601f106200030c57805160ff19168380011785556200033c565b828001600101855582156200033c579182015b828111156200033c5782518255916020019190600101906200031f565b506200034a9291506200034e565b5090565b5b808211156200034a57600081556001016200034f565b60006020828403121562000377578081fd5b81516001600160a01b0381168114620002c2578182fd5b6020808252601b908201527f536166654d6174683a206164646974696f6e206f766572666c6f770000000000604082015260600190565b6020808252818101527f4f776e61626c653a2063616c6c6572206973206e6f7420746865206f776e6572604082015260600190565b6020808252601f908201527f45524332303a206d696e7420746f20746865207a65726f206164647265737300604082015260600190565b90815260200190565b611b1a806200044a6000396000f3fe608060405234801561001057600080fd5b50600436106101a95760003560e01c8063782d6fe1116100f9578063b4b5ea5711610097578063e7a324dc11610071578063e7a324dc1461036f578063f1127ed814610377578063f28e093d14610398578063f2fde38b146103ab576101a9565b8063b4b5ea5714610336578063c3cda52014610349578063dd62ed3e1461035c576101a9565b806395d89b41116100d357806395d89b41146102f55780639870d7fe146102fd578063a457c2d714610310578063a9059cbb14610323576101a9565b8063782d6fe1146102c75780637ecebe00146102da5780638da5cb5b146102ed576101a9565b806339509351116101665780635c19a95c116101405780635c19a95c146102795780636fcfff451461028c57806370a08231146102ac578063715018a6146102bf576101a9565b8063395093511461023157806340c10f1914610244578063587cde1e14610259576101a9565b806306fdde03146101ae578063095ea7b3146101cc57806318160ddd146101ec57806320606b701461020157806323b872dd14610209578063313ce5671461021c575b600080fd5b6101b66103be565b6040516101c3919061165a565b60405180910390f35b6101df6101da3660046114e9565b610454565b6040516101c391906115e0565b6101f4610472565b6040516101c391906115eb565b6101f4610478565b6101df6102173660046114a9565b61049c565b610224610523565b6040516101c39190611a19565b6101df61023f3660046114e9565b61052c565b6102576102523660046114e9565b61057a565b005b61026c61026736600461145a565b6105e5565b6040516101c391906115cc565b61025761028736600461145a565b610603565b61029f61029a36600461145a565b610610565b6040516101c391906119f2565b6101f46102ba36600461145a565b610628565b610257610643565b6101f46102d53660046114e9565b6106cd565b6101f46102e836600461145a565b6108b6565b61026c6108c8565b6101b66108dc565b61025761030b36600461145a565b61093d565b6101df61031e3660046114e9565b61099b565b6101df6103313660046114e9565b610a03565b6101f461034436600461145a565b610a17565b610257610357366004611513565b610a7b565b6101f461036a366004611475565b610c4f565b6101f4610c7a565b61038a610385366004611572565b610c9e565b6040516101c3929190611a03565b6102576103a63660046114e9565b610ccb565b6102576103b936600461145a565b610cd5565b60038054604080516020601f600260001961010060018816150201909516949094049384018190048102820181019092528281526060939092909183018282801561044a5780601f1061041f5761010080835404028352916020019161044a565b820191906000526020600020905b81548152906001019060200180831161042d57829003601f168201915b5050505050905090565b6000610468610461610dc1565b8484610dc5565b5060015b92915050565b60025490565b7f8cad95687ba82c2ce50e74f7b754645e5117c3a5bec8151c0726d5857980a86681565b60006104a9848484610e79565b610519846104b5610dc1565b61051485604051806060016040528060288152602001611a63602891396001600160a01b038a166000908152600160205260408120906104f3610dc1565b6001600160a01b031681526020810191909152604001600020549190610f8e565b610dc5565b5060019392505050565b60055460ff1690565b6000610468610539610dc1565b84610514856001600061054a610dc1565b6001600160a01b03908116825260208083019390935260409182016000908120918c168152925290205490610d9c565b3360009081526006602052604090205460ff166105b25760405162461bcd60e51b81526004016105a990611827565b60405180910390fd5b6105bc8282610fba565b6001600160a01b038083166000908152600760205260408120546105e192168361107a565b5050565b6001600160a01b039081166000908152600760205260409020541690565b61060d33826111bc565b50565b60096020526000908152604090205463ffffffff1681565b6001600160a01b031660009081526020819052604090205490565b61064b610dc1565b60055461010090046001600160a01b0390811691161461067d5760405162461bcd60e51b81526004016105a9906117f2565b60055460405160009161010090046001600160a01b0316907f8be0079c531659141344cd1fd0a4f28419497f9722a3daafe3b4186f6b6457e0908390a360058054610100600160a81b0319169055565b60004382106106ee5760405162461bcd60e51b81526004016105a99061184e565b6001600160a01b03831660009081526009602052604090205463ffffffff168061071c57600091505061046c565b6001600160a01b038416600090815260086020908152604080832063ffffffff60001986018116855292529091205416831061078b576001600160a01b03841660009081526008602090815260408083206000199490940163ffffffff1683529290522060010154905061046c565b6001600160a01b038416600090815260086020908152604080832083805290915290205463ffffffff168310156107c657600091505061046c565b600060001982015b8163ffffffff168163ffffffff16111561087f57600282820363ffffffff160481036107f861142c565b506001600160a01b038716600090815260086020908152604080832063ffffffff80861685529083529281902081518083019092528054909316808252600190930154918101919091529087141561085a5760200151945061046c9350505050565b805163ffffffff1687111561087157819350610878565b6001820392505b50506107ce565b506001600160a01b038516600090815260086020908152604080832063ffffffff9094168352929052206001015491505092915050565b600a6020526000908152604090205481565b60055461010090046001600160a01b031690565b60048054604080516020601f600260001961010060018816150201909516949094049384018190048102820181019092528281526060939092909183018282801561044a5780601f1061041f5761010080835404028352916020019161044a565b610945610dc1565b60055461010090046001600160a01b039081169116146109775760405162461bcd60e51b81526004016105a9906117f2565b6001600160a01b03166000908152600660205260409020805460ff19166001179055565b60006104686109a8610dc1565b8461051485604051806060016040528060258152602001611ac060259139600160006109d2610dc1565b6001600160a01b03908116825260208083019390935260409182016000908120918d16815292529020549190610f8e565b6000610468610a10610dc1565b8484610e79565b6001600160a01b03811660009081526009602052604081205463ffffffff1680610a42576000610a74565b6001600160a01b038316600090815260086020908152604080832063ffffffff60001986011684529091529020600101545b9392505050565b60007f8cad95687ba82c2ce50e74f7b754645e5117c3a5bec8151c0726d5857980a866610aa66103be565b80519060200120610ab5611251565b30604051602001610ac99493929190611618565b60405160208183030381529060405280519060200120905060007fe48329057bfd03d55e49b547132e39cffd9c1820ad7b9d4c5307691425d15adf888888604051602001610b1a94939291906115f4565b60405160208183030381529060405280519060200120905060008282604051602001610b479291906115b1565b604051602081830303815290604052805190602001209050600060018288888860405160008152602001604052604051610b84949392919061163c565b6020604051602081039080840390855afa158015610ba6573d6000803e3d6000fd5b5050604051601f1901519150506001600160a01b038116610bd95760405162461bcd60e51b81526004016105a99061191f565b6001600160a01b0381166000908152600a602052604090208054600181019091558914610c185760405162461bcd60e51b81526004016105a9906117af565b87421115610c385760405162461bcd60e51b81526004016105a990611966565b610c42818b6111bc565b505050505b505050505050565b6001600160a01b03918216600090815260016020908152604080832093909416825291909152205490565b7fe48329057bfd03d55e49b547132e39cffd9c1820ad7b9d4c5307691425d15adf81565b60086020908152600092835260408084209091529082529020805460019091015463ffffffff9091169082565b6105e18282610fba565b610cdd610dc1565b60055461010090046001600160a01b03908116911614610d0f5760405162461bcd60e51b81526004016105a9906117f2565b6001600160a01b038116610d355760405162461bcd60e51b81526004016105a9906116f0565b6005546040516001600160a01b0380841692610100900416907f8be0079c531659141344cd1fd0a4f28419497f9722a3daafe3b4186f6b6457e090600090a3600580546001600160a01b0390921661010002610100600160a81b0319909216919091179055565b600082820183811015610a745760405162461bcd60e51b81526004016105a990611778565b3390565b6001600160a01b038316610deb5760405162461bcd60e51b81526004016105a9906118db565b6001600160a01b038216610e115760405162461bcd60e51b81526004016105a990611736565b6001600160a01b0380841660008181526001602090815260408083209487168084529490915290819020849055517f8c5be1e5ebec7d5bd14f71427d1e84f3dd0314c0f7b2291e5b200ac8c7c3b92590610e6c9085906115eb565b60405180910390a3505050565b6001600160a01b038316610e9f5760405162461bcd60e51b81526004016105a990611896565b6001600160a01b038216610ec55760405162461bcd60e51b81526004016105a9906116ad565b610ed08383836111b7565b610f0d81604051806060016040528060268152602001611a3d602691396001600160a01b0386166000908152602081905260409020549190610f8e565b6001600160a01b038085166000908152602081905260408082209390935590841681522054610f3c9082610d9c565b6001600160a01b0380841660008181526020819052604090819020939093559151908516907fddf252ad1be2c89b69c2b068fc378daa952ba7f163c4a11628f55a4df523b3ef90610e6c9085906115eb565b60008184841115610fb25760405162461bcd60e51b81526004016105a9919061165a565b505050900390565b6001600160a01b038216610fe05760405162461bcd60e51b81526004016105a9906119ad565b610fec600083836111b7565b600254610ff99082610d9c565b6002556001600160a01b03821660009081526020819052604090205461101f9082610d9c565b6001600160a01b0383166000818152602081905260408082209390935591519091907fddf252ad1be2c89b69c2b068fc378daa952ba7f163c4a11628f55a4df523b3ef9061106e9085906115eb565b60405180910390a35050565b816001600160a01b0316836001600160a01b03161415801561109c5750600081115b156111b7576001600160a01b0383161561112e576001600160a01b03831660009081526009602052604081205463ffffffff1690816110dc57600061110e565b6001600160a01b038516600090815260086020908152604080832063ffffffff60001987011684529091529020600101545b9050600061111c8285611255565b905061112a86848484611297565b5050505b6001600160a01b038216156111b7576001600160a01b03821660009081526009602052604081205463ffffffff16908161116957600061119b565b6001600160a01b038416600090815260086020908152604080832063ffffffff60001987011684529091529020600101545b905060006111a98285610d9c565b9050610c4785848484611297565b505050565b6001600160a01b03808316600090815260076020526040812054909116906111e384610628565b6001600160a01b0385811660008181526007602052604080822080546001600160a01b031916898616908117909155905194955093928616927f3134e8a2e6d97e929a7e54011ea5485d7d196dd5f0ba4d4ef95803e8e3fc257f9190a461124b82848361107a565b50505050565b4690565b6000610a7483836040518060400160405280601e81526020017f536166654d6174683a207375627472616374696f6e206f766572666c6f770000815250610f8e565b60006112bb43604051806060016040528060358152602001611a8b603591396113fc565b905060008463ffffffff1611801561130457506001600160a01b038516600090815260086020908152604080832063ffffffff6000198901811685529252909120548282169116145b15611341576001600160a01b038516600090815260086020908152604080832063ffffffff600019890116845290915290206001018290556113b2565b60408051808201825263ffffffff808416825260208083018681526001600160a01b038a166000818152600884528681208b8616825284528681209551865490861663ffffffff19918216178755925160019687015590815260099092529390208054928801909116919092161790555b846001600160a01b03167fdec2bacdd2f05b59de34da9b523dff8be42e5e38e818c82fdb0bae774387a72484846040516113ed9291906119e4565b60405180910390a25050505050565b60008164010000000084106114245760405162461bcd60e51b81526004016105a9919061165a565b509192915050565b604080518082019091526000808252602082015290565b80356001600160a01b038116811461046c57600080fd5b60006020828403121561146b578081fd5b610a748383611443565b60008060408385031215611487578081fd5b6114918484611443565b91506114a08460208501611443565b90509250929050565b6000806000606084860312156114bd578081fd5b83356114c881611a27565b925060208401356114d881611a27565b929592945050506040919091013590565b600080604083850312156114fb578182fd5b6115058484611443565b946020939093013593505050565b60008060008060008060c0878903121561152b578182fd5b6115358888611443565b95506020870135945060408701359350606087013560ff81168114611558578283fd5b9598949750929560808101359460a0909101359350915050565b60008060408385031215611584578182fd5b61158e8484611443565b9150602083013563ffffffff811681146115a6578182fd5b809150509250929050565b61190160f01b81526002810192909252602282015260420190565b6001600160a01b0391909116815260200190565b901515815260200190565b90815260200190565b9384526001600160a01b039290921660208401526040830152606082015260800190565b938452602084019290925260408301526001600160a01b0316606082015260800190565b93845260ff9290921660208401526040830152606082015260800190565b6000602080835283518082850152825b818110156116865785810183015185820160400152820161166a565b818111156116975783604083870101525b50601f01601f1916929092016040019392505050565b60208082526023908201527f45524332303a207472616e7366657220746f20746865207a65726f206164647260408201526265737360e81b606082015260800190565b60208082526026908201527f4f776e61626c653a206e6577206f776e657220697320746865207a65726f206160408201526564647265737360d01b606082015260800190565b60208082526022908201527f45524332303a20617070726f766520746f20746865207a65726f206164647265604082015261737360f01b606082015260800190565b6020808252601b908201527f536166654d6174683a206164646974696f6e206f766572666c6f770000000000604082015260600190565b60208082526023908201527f534f4c41523a3a64656c656761746542795369673a20696e76616c6964206e6f6040820152626e636560e81b606082015260800190565b6020808252818101527f4f776e61626c653a2063616c6c6572206973206e6f7420746865206f776e6572604082015260600190565b6020808252600d908201526c27b7363c9027b832b930ba37b960991b604082015260600190565b60208082526028908201527f534f4c41523a3a6765745072696f72566f7465733a206e6f74207965742064656040820152671d195c9b5a5b995960c21b606082015260800190565b60208082526025908201527f45524332303a207472616e736665722066726f6d20746865207a65726f206164604082015264647265737360d81b606082015260800190565b60208082526024908201527f45524332303a20617070726f76652066726f6d20746865207a65726f206164646040820152637265737360e01b606082015260800190565b60208082526027908201527f534f4c41523a3a64656c656761746542795369673a20696e76616c6964207369604082015266676e617475726560c81b606082015260800190565b60208082526027908201527f534f4c41523a3a64656c656761746542795369673a207369676e617475726520604082015266195e1c1a5c995960ca1b606082015260800190565b6020808252601f908201527f45524332303a206d696e7420746f20746865207a65726f206164647265737300604082015260600190565b918252602082015260400190565b63ffffffff91909116815260200190565b63ffffffff929092168252602082015260400190565b60ff91909116815260200190565b6001600160a01b038116811461060d57600080fdfe45524332303a207472616e7366657220616d6f756e7420657863656564732062616c616e636545524332303a207472616e7366657220616d6f756e74206578636565647320616c6c6f77616e6365534f4c41523a3a5f7772697465436865636b706f696e743a20626c6f636b206e756d6265722065786365656473203332206269747345524332303a2064656372656173656420616c6c6f77616e63652062656c6f77207a65726fa2646970667358221220ba506d36b26d5d8ed16d7626f6b83d23686d533f954c16a2be3af9d0858eb85764736f6c634300060c0033",
  "immutableReferences": {},
  "source": "pragma solidity 0.6.12;\npragma experimental ABIEncoderV2;\n\nimport {SolarToken} from '../SolarToken.sol';\n\n/* solium-disable-next-line */\ncontract TestSolar is SolarToken {\n    constructor(address treasury) public SolarToken(treasury) {}\n\n    function testMint(address _to, uint256 _amount) public {\n        _mint(_to, _amount);\n    }\n}\n",
  "sourcePath": "C:/Users/James/projects/tsuno-fe/contracts/testing/TestSolar.sol",
  "compiler": {
    "name": "solc",
    "version": "0.6.12+commit.27d51765.Emscripten.clang"
  },
  "schemaVersion": "3.2.5",
  "updatedAt": "2020-11-15T18:14:47.022Z",
  "devdoc": {
    "kind": "dev",
    "methods": {
      "allowance(address,address)": {
        "details": "See {IERC20-allowance}."
      },
      "approve(address,uint256)": {
        "details": "See {IERC20-approve}. Requirements: - `spender` cannot be the zero address."
      },
      "balanceOf(address)": {
        "details": "See {IERC20-balanceOf}."
      },
      "decimals()": {
        "details": "Returns the number of decimals used to get its user representation. For example, if `decimals` equals `2`, a balance of `505` tokens should be displayed to a user as `5,05` (`505 / 10 ** 2`). Tokens usually opt for a value of 18, imitating the relationship between Ether and Wei. This is the value {ERC20} uses, unless {_setupDecimals} is called. NOTE: This information is only used for _display_ purposes: it in no way affects any of the arithmetic of the contract, including {IERC20-balanceOf} and {IERC20-transfer}."
      },
      "decreaseAllowance(address,uint256)": {
        "details": "Atomically decreases the allowance granted to `spender` by the caller. This is an alternative to {approve} that can be used as a mitigation for problems described in {IERC20-approve}. Emits an {Approval} event indicating the updated allowance. Requirements: - `spender` cannot be the zero address. - `spender` must have allowance for the caller of at least `subtractedValue`."
      },
      "delegate(address)": {
        "params": {
          "delegatee": "The address to delegate votes to"
        }
      },
      "delegateBySig(address,uint256,uint256,uint8,bytes32,bytes32)": {
        "params": {
          "delegatee": "The address to delegate votes to",
          "expiry": "The time at which to expire the signature",
          "nonce": "The contract state required to match the signature",
          "r": "Half of the ECDSA signature pair",
          "s": "Half of the ECDSA signature pair",
          "v": "The recovery byte of the signature"
        }
      },
      "delegates(address)": {
        "params": {
          "delegator": "The address to get delegatee for"
        }
      },
      "getCurrentVotes(address)": {
        "params": {
          "account": "The address to get votes balance"
        },
        "returns": {
          "_0": "The number of current votes for `account`"
        }
      },
      "getPriorVotes(address,uint256)": {
        "details": "Block number must be a finalized block or else this function will revert to prevent misinformation.",
        "params": {
          "account": "The address of the account to check",
          "blockNumber": "The block number to get the vote balance at"
        },
        "returns": {
          "_0": "The number of votes the account had as of the given block"
        }
      },
      "increaseAllowance(address,uint256)": {
        "details": "Atomically increases the allowance granted to `spender` by the caller. This is an alternative to {approve} that can be used as a mitigation for problems described in {IERC20-approve}. Emits an {Approval} event indicating the updated allowance. Requirements: - `spender` cannot be the zero address."
      },
      "name()": {
        "details": "Returns the name of the token."
      },
      "owner()": {
        "details": "Returns the address of the current owner."
      },
      "renounceOwnership()": {
        "details": "Leaves the contract without owner. It will not be possible to call `onlyOwner` functions anymore. Can only be called by the current owner. NOTE: Renouncing ownership will leave the contract without an owner, thereby removing any functionality that is only available to the owner."
      },
      "symbol()": {
        "details": "Returns the symbol of the token, usually a shorter version of the name."
      },
      "totalSupply()": {
        "details": "See {IERC20-totalSupply}."
      },
      "transfer(address,uint256)": {
        "details": "See {IERC20-transfer}. Requirements: - `recipient` cannot be the zero address. - the caller must have a balance of at least `amount`."
      },
      "transferFrom(address,address,uint256)": {
        "details": "See {IERC20-transferFrom}. Emits an {Approval} event indicating the updated allowance. This is not required by the EIP. See the note at the beginning of {ERC20}; Requirements: - `sender` and `recipient` cannot be the zero address. - `sender` must have a balance of at least `amount`. - the caller must have allowance for ``sender``'s tokens of at least `amount`."
      },
      "transferOwnership(address)": {
        "details": "Transfers ownership of the contract to a new account (`newOwner`). Can only be called by the current owner."
      }
    },
    "version": 1
  },
  "userdoc": {
    "events": {
      "DelegateChanged(address,address,address)": {
        "notice": "An event thats emitted when an account changes its delegate"
      },
      "DelegateVotesChanged(address,uint256,uint256)": {
        "notice": "An event thats emitted when a delegate account's vote balance changes"
      }
    },
    "kind": "user",
    "methods": {
      "DELEGATION_TYPEHASH()": {
        "notice": "The EIP-712 typehash for the delegation struct used by the contract"
      },
      "DOMAIN_TYPEHASH()": {
        "notice": "The EIP-712 typehash for the contract's domain"
      },
      "checkpoints(address,uint32)": {
        "notice": "A record of votes checkpoints for each account, by index"
      },
      "delegate(address)": {
        "notice": "Delegate votes from `msg.sender` to `delegatee`"
      },
      "delegateBySig(address,uint256,uint256,uint8,bytes32,bytes32)": {
        "notice": "Delegates votes from signatory to `delegatee`"
      },
      "delegates(address)": {
        "notice": "Delegate votes from `msg.sender` to `delegatee`"
      },
      "getCurrentVotes(address)": {
        "notice": "Gets the current votes balance for `account`"
      },
      "getPriorVotes(address,uint256)": {
        "notice": "Determine the prior number of votes for an account as of a block number"
      },
      "nonces(address)": {
        "notice": "A record of states for signing / validating signatures"
      },
      "numCheckpoints(address)": {
        "notice": "The number of checkpoints for each account"
      }
    },
    "version": 1
  }
}