{
  "contractName": "TestFederalHarvestingRights",
  "abi": [
    {
      "inputs": [
        {
          "internalType": "address",
          "name": "master",
          "type": "address"
        }
      ],
      "stateMutability": "nonpayable",
      "type": "constructor"
    },
    {
      "anonymous": false,
      "inputs": [
        {
          "indexed": true,
          "internalType": "address",
          "name": "owner",
          "type": "address"
        },
        {
          "indexed": true,
          "internalType": "address",
          "name": "approved",
          "type": "address"
        },
        {
          "indexed": true,
          "internalType": "uint256",
          "name": "tokenId",
          "type": "uint256"
        }
      ],
      "name": "Approval",
      "type": "event"
    },
    {
      "anonymous": false,
      "inputs": [
        {
          "indexed": true,
          "internalType": "address",
          "name": "owner",
          "type": "address"
        },
        {
          "indexed": true,
          "internalType": "address",
          "name": "operator",
          "type": "address"
        },
        {
          "indexed": false,
          "internalType": "bool",
          "name": "approved",
          "type": "bool"
        }
      ],
      "name": "ApprovalForAll",
      "type": "event"
    },
    {
      "anonymous": false,
      "inputs": [
        {
          "indexed": false,
          "internalType": "address",
          "name": "to",
          "type": "address"
        },
        {
          "indexed": false,
          "internalType": "address",
          "name": "from",
          "type": "address"
        },
        {
          "indexed": false,
          "internalType": "uint256",
          "name": "id",
          "type": "uint256"
        }
      ],
      "name": "Mint",
      "type": "event"
    },
    {
      "anonymous": false,
      "inputs": [
        {
          "indexed": true,
          "internalType": "address",
          "name": "previousOwner",
          "type": "address"
        },
        {
          "indexed": true,
          "internalType": "address",
          "name": "newOwner",
          "type": "address"
        }
      ],
      "name": "OwnershipTransferred",
      "type": "event"
    },
    {
      "anonymous": false,
      "inputs": [
        {
          "indexed": true,
          "internalType": "address",
          "name": "from",
          "type": "address"
        },
        {
          "indexed": true,
          "internalType": "address",
          "name": "to",
          "type": "address"
        },
        {
          "indexed": true,
          "internalType": "uint256",
          "name": "tokenId",
          "type": "uint256"
        }
      ],
      "name": "Transfer",
      "type": "event"
    },
    {
      "inputs": [
        {
          "internalType": "address",
          "name": "_operator",
          "type": "address"
        }
      ],
      "name": "addOperator",
      "outputs": [],
      "stateMutability": "nonpayable",
      "type": "function"
    },
    {
      "inputs": [
        {
          "internalType": "address",
          "name": "to",
          "type": "address"
        },
        {
          "internalType": "uint256",
          "name": "tokenId",
          "type": "uint256"
        }
      ],
      "name": "approve",
      "outputs": [],
      "stateMutability": "nonpayable",
      "type": "function"
    },
    {
      "inputs": [
        {
          "internalType": "address",
          "name": "owner",
          "type": "address"
        }
      ],
      "name": "balanceOf",
      "outputs": [
        {
          "internalType": "uint256",
          "name": "",
          "type": "uint256"
        }
      ],
      "stateMutability": "view",
      "type": "function"
    },
    {
      "inputs": [],
      "name": "baseURI",
      "outputs": [
        {
          "internalType": "string",
          "name": "",
          "type": "string"
        }
      ],
      "stateMutability": "view",
      "type": "function"
    },
    {
      "inputs": [
        {
          "internalType": "uint256",
          "name": "tokenId",
          "type": "uint256"
        }
      ],
      "name": "getApproved",
      "outputs": [
        {
          "internalType": "address",
          "name": "",
          "type": "address"
        }
      ],
      "stateMutability": "view",
      "type": "function"
    },
    {
      "inputs": [
        {
          "internalType": "address",
          "name": "owner",
          "type": "address"
        },
        {
          "internalType": "address",
          "name": "operator",
          "type": "address"
        }
      ],
      "name": "isApprovedForAll",
      "outputs": [
        {
          "internalType": "bool",
          "name": "",
          "type": "bool"
        }
      ],
      "stateMutability": "view",
      "type": "function"
    },
    {
      "inputs": [
        {
          "internalType": "address",
          "name": "_to",
          "type": "address"
        },
        {
          "internalType": "uint256",
          "name": "_tokenId",
          "type": "uint256"
        }
      ],
      "name": "mint",
      "outputs": [],
      "stateMutability": "nonpayable",
      "type": "function"
    },
    {
      "inputs": [],
      "name": "name",
      "outputs": [
        {
          "internalType": "string",
          "name": "",
          "type": "string"
        }
      ],
      "stateMutability": "view",
      "type": "function"
    },
    {
      "inputs": [],
      "name": "owner",
      "outputs": [
        {
          "internalType": "address",
          "name": "",
          "type": "address"
        }
      ],
      "stateMutability": "view",
      "type": "function"
    },
    {
      "inputs": [
        {
          "internalType": "uint256",
          "name": "tokenId",
          "type": "uint256"
        }
      ],
      "name": "ownerOf",
      "outputs": [
        {
          "internalType": "address",
          "name": "",
          "type": "address"
        }
      ],
      "stateMutability": "view",
      "type": "function"
    },
    {
      "inputs": [],
      "name": "renounceOwnership",
      "outputs": [],
      "stateMutability": "nonpayable",
      "type": "function"
    },
    {
      "inputs": [
        {
          "internalType": "address",
          "name": "from",
          "type": "address"
        },
        {
          "internalType": "address",
          "name": "to",
          "type": "address"
        },
        {
          "internalType": "uint256",
          "name": "tokenId",
          "type": "uint256"
        }
      ],
      "name": "safeTransferFrom",
      "outputs": [],
      "stateMutability": "nonpayable",
      "type": "function"
    },
    {
      "inputs": [
        {
          "internalType": "address",
          "name": "from",
          "type": "address"
        },
        {
          "internalType": "address",
          "name": "to",
          "type": "address"
        },
        {
          "internalType": "uint256",
          "name": "tokenId",
          "type": "uint256"
        },
        {
          "internalType": "bytes",
          "name": "_data",
          "type": "bytes"
        }
      ],
      "name": "safeTransferFrom",
      "outputs": [],
      "stateMutability": "nonpayable",
      "type": "function"
    },
    {
      "inputs": [
        {
          "internalType": "address",
          "name": "operator",
          "type": "address"
        },
        {
          "internalType": "bool",
          "name": "approved",
          "type": "bool"
        }
      ],
      "name": "setApprovalForAll",
      "outputs": [],
      "stateMutability": "nonpayable",
      "type": "function"
    },
    {
      "inputs": [
        {
          "internalType": "bytes4",
          "name": "interfaceId",
          "type": "bytes4"
        }
      ],
      "name": "supportsInterface",
      "outputs": [
        {
          "internalType": "bool",
          "name": "",
          "type": "bool"
        }
      ],
      "stateMutability": "view",
      "type": "function"
    },
    {
      "inputs": [],
      "name": "symbol",
      "outputs": [
        {
          "internalType": "string",
          "name": "",
          "type": "string"
        }
      ],
      "stateMutability": "view",
      "type": "function"
    },
    {
      "inputs": [
        {
          "internalType": "uint256",
          "name": "index",
          "type": "uint256"
        }
      ],
      "name": "tokenByIndex",
      "outputs": [
        {
          "internalType": "uint256",
          "name": "",
          "type": "uint256"
        }
      ],
      "stateMutability": "view",
      "type": "function"
    },
    {
      "inputs": [
        {
          "internalType": "address",
          "name": "owner",
          "type": "address"
        },
        {
          "internalType": "uint256",
          "name": "index",
          "type": "uint256"
        }
      ],
      "name": "tokenOfOwnerByIndex",
      "outputs": [
        {
          "internalType": "uint256",
          "name": "",
          "type": "uint256"
        }
      ],
      "stateMutability": "view",
      "type": "function"
    },
    {
      "inputs": [
        {
          "internalType": "uint256",
          "name": "tokenId",
          "type": "uint256"
        }
      ],
      "name": "tokenURI",
      "outputs": [
        {
          "internalType": "string",
          "name": "",
          "type": "string"
        }
      ],
      "stateMutability": "view",
      "type": "function"
    },
    {
      "inputs": [],
      "name": "totalSupply",
      "outputs": [
        {
          "internalType": "uint256",
          "name": "",
          "type": "uint256"
        }
      ],
      "stateMutability": "view",
      "type": "function"
    },
    {
      "inputs": [
        {
          "internalType": "address",
          "name": "from",
          "type": "address"
        },
        {
          "internalType": "address",
          "name": "to",
          "type": "address"
        },
        {
          "internalType": "uint256",
          "name": "tokenId",
          "type": "uint256"
        }
      ],
      "name": "transferFrom",
      "outputs": [],
      "stateMutability": "nonpayable",
      "type": "function"
    },
    {
      "inputs": [
        {
          "internalType": "address",
          "name": "newOwner",
          "type": "address"
        }
      ],
      "name": "transferOwnership",
      "outputs": [],
      "stateMutability": "nonpayable",
      "type": "function"
    },
    {
      "inputs": [
        {
          "internalType": "address",
          "name": "_to",
          "type": "address"
        },
        {
          "internalType": "uint256",
          "name": "_tokenId",
          "type": "uint256"
        }
      ],
      "name": "testMint",
      "outputs": [],
      "stateMutability": "nonpayable",
      "type": "function"
    }
  ],
  "bytecode": "0x60806040523480156200001157600080fd5b5060405162002126380380620021268339810160408190526200003491620002c1565b604080518082018252601781527f4665646572616c48617276657374696e675269676874730000000000000000006020808301919091528251808401909352600383526223242960e91b908301528291620000966301ffc9a760e01b62000168565b8151620000ab90600690602085019062000225565b508051620000c190600790602084019062000225565b50620000d46380ac58cd60e01b62000168565b620000e6635b5e139f60e01b62000168565b620000f863780e9d6360e01b62000168565b506000905062000107620001c3565b600a80546001600160a01b0319166001600160a01b038316908117909155604051919250906000907f8be0079c531659141344cd1fd0a4f28419497f9722a3daafe3b4186f6b6457e0908290a3506200016081620001c7565b50506200035d565b6001600160e01b031980821614156200019e5760405162461bcd60e51b81526004016200019590620002f1565b60405180910390fd5b6001600160e01b0319166000908152602081905260409020805460ff19166001179055565b3390565b620001d1620001c3565b600a546001600160a01b03908116911614620002015760405162461bcd60e51b8152600401620001959062000328565b6001600160a01b03166000908152600b60205260409020805460ff19166001179055565b828054600181600116156101000203166002900490600052602060002090601f016020900481019282601f106200026857805160ff191683800117855562000298565b8280016001018555821562000298579182015b82811115620002985782518255916020019190600101906200027b565b50620002a6929150620002aa565b5090565b5b80821115620002a65760008155600101620002ab565b600060208284031215620002d3578081fd5b81516001600160a01b0381168114620002ea578182fd5b9392505050565b6020808252601c908201527f4552433136353a20696e76616c696420696e7465726661636520696400000000604082015260600190565b6020808252818101527f4f776e61626c653a2063616c6c6572206973206e6f7420746865206f776e6572604082015260600190565b611db9806200036d6000396000f3fe608060405234801561001057600080fd5b506004361061014d5760003560e01c80636c0360eb116100c3578063a22cb4651161007c578063a22cb46514610292578063b88d4fde146102a5578063c87b56dd146102b8578063e985e9c5146102cb578063f28e093d146102de578063f2fde38b146102f15761014d565b80636c0360eb1461024c57806370a0823114610254578063715018a6146102675780638da5cb5b1461026f57806395d89b41146102775780639870d7fe1461027f5761014d565b806323b872dd1161011557806323b872dd146101da5780632f745c59146101ed57806340c10f191461020057806342842e0e146102135780634f6ccce7146102265780636352211e146102395761014d565b806301ffc9a71461015257806306fdde031461017b578063081812fc14610190578063095ea7b3146101b057806318160ddd146101c5575b600080fd5b61016561016036600461161a565b610304565b60405161017291906117a8565b60405180910390f35b610183610327565b60405161017291906117b3565b6101a361019e366004611652565b6103bd565b6040516101729190611733565b6101c36101be3660046115f0565b610409565b005b6101cd6104a1565b6040516101729190611cc5565b6101c36101e83660046114af565b6104b2565b6101cd6101fb3660046115f0565b6104ea565b6101c361020e3660046115f0565b610515565b6101c36102213660046114af565b61058d565b6101cd610234366004611652565b6105a8565b6101a3610247366004611652565b6105be565b6101836105e6565b6101cd610262366004611460565b610647565b6101c3610690565b6101a361070f565b61018361071e565b6101c361028d366004611460565b61077f565b6101c36102a03660046115b5565b6107d8565b6101c36102b33660046114ef565b6108a6565b6101836102c6366004611652565b6108e5565b6101656102d936600461147b565b610a2f565b6101c36102ec3660046115f0565b610a5d565b6101c36102ff366004611460565b610a67565b6001600160e01b0319811660009081526020819052604090205460ff165b919050565b60068054604080516020601f60026000196101006001881615020190951694909404938401819004810282018101909252828152606093909290918301828280156103b35780601f10610388576101008083540402835291602001916103b3565b820191906000526020600020905b81548152906001019060200180831161039657829003601f168201915b5050505050905090565b60006103c882610b1e565b6103ed5760405162461bcd60e51b81526004016103e490611abc565b60405180910390fd5b506000908152600460205260409020546001600160a01b031690565b6000610414826105be565b9050806001600160a01b0316836001600160a01b031614156104485760405162461bcd60e51b81526004016103e490611bfc565b806001600160a01b031661045a610b2b565b6001600160a01b031614806104765750610476816102d9610b2b565b6104925760405162461bcd60e51b81526004016103e49061199e565b61049c8383610b2f565b505050565b60006104ad6002610b9d565b905090565b6104c36104bd610b2b565b82610ba8565b6104df5760405162461bcd60e51b81526004016103e490611c3d565b61049c838383610c2d565b6001600160a01b038216600090815260016020526040812061050c9083610d3b565b90505b92915050565b336000908152600b602052604090205460ff166105445760405162461bcd60e51b81526004016103e490611bd5565b7fab8530f87dc9b59234c4623bf917212bb2536d647574c8e7e5da92c2ede0c9f882338360405161057793929190611784565b60405180910390a16105898282610d47565b5050565b61049c838383604051806020016040528060008152506108a6565b6000806105b6600284610d61565b509392505050565b600061050f82604051806060016040528060298152602001611d5b6029913960029190610d7d565b60098054604080516020601f60026000196101006001881615020190951694909404938401819004810282018101909252828152606093909290918301828280156103b35780601f10610388576101008083540402835291602001916103b3565b60006001600160a01b03821661066f5760405162461bcd60e51b81526004016103e4906119fb565b6001600160a01b038216600090815260016020526040902061050f90610b9d565b610698610b2b565b600a546001600160a01b039081169116146106c55760405162461bcd60e51b81526004016103e490611b08565b600a546040516000916001600160a01b0316907f8be0079c531659141344cd1fd0a4f28419497f9722a3daafe3b4186f6b6457e0908390a3600a80546001600160a01b0319169055565b600a546001600160a01b031690565b60078054604080516020601f60026000196101006001881615020190951694909404938401819004810282018101909252828152606093909290918301828280156103b35780601f10610388576101008083540402835291602001916103b3565b610787610b2b565b600a546001600160a01b039081169116146107b45760405162461bcd60e51b81526004016103e490611b08565b6001600160a01b03166000908152600b60205260409020805460ff19166001179055565b6107e0610b2b565b6001600160a01b0316826001600160a01b031614156108115760405162461bcd60e51b81526004016103e49061191b565b806005600061081e610b2b565b6001600160a01b03908116825260208083019390935260409182016000908120918716808252919093529120805460ff191692151592909217909155610862610b2b565b6001600160a01b03167f17307eab39ab6107e8899845ad3d59bd9653f200f220920489ca2b5937696c318360405161089a91906117a8565b60405180910390a35050565b6108b76108b1610b2b565b83610ba8565b6108d35760405162461bcd60e51b81526004016103e490611c3d565b6108df84848484610d94565b50505050565b60606108f082610b1e565b61090c5760405162461bcd60e51b81526004016103e490611b86565b60008281526008602090815260409182902080548351601f60026000196101006001861615020190931692909204918201849004840281018401909452808452606093928301828280156109a15780601f10610976576101008083540402835291602001916109a1565b820191906000526020600020905b81548152906001019060200180831161098457829003601f168201915b5050600954939450505050600260001961010060018416150201909116046109ca579050610322565b8051156109fc576009816040516020016109e59291906116b2565b604051602081830303815290604052915050610322565b6009610a0784610dc7565b604051602001610a189291906116b2565b604051602081830303815290604052915050919050565b6001600160a01b03918216600090815260056020908152604080832093909416825291909152205460ff1690565b6105898282610d47565b610a6f610b2b565b600a546001600160a01b03908116911614610a9c5760405162461bcd60e51b81526004016103e490611b08565b6001600160a01b038116610ac25760405162461bcd60e51b81526004016103e49061185a565b600a546040516001600160a01b038084169216907f8be0079c531659141344cd1fd0a4f28419497f9722a3daafe3b4186f6b6457e090600090a3600a80546001600160a01b0319166001600160a01b0392909216919091179055565b600061050f600283610ea2565b3390565b600081815260046020526040902080546001600160a01b0319166001600160a01b0384169081179091558190610b64826105be565b6001600160a01b03167f8c5be1e5ebec7d5bd14f71427d1e84f3dd0314c0f7b2291e5b200ac8c7c3b92560405160405180910390a45050565b600061050f82610eae565b6000610bb382610b1e565b610bcf5760405162461bcd60e51b81526004016103e490611952565b6000610bda836105be565b9050806001600160a01b0316846001600160a01b03161480610c155750836001600160a01b0316610c0a846103bd565b6001600160a01b0316145b80610c255750610c258185610a2f565b949350505050565b826001600160a01b0316610c40826105be565b6001600160a01b031614610c665760405162461bcd60e51b81526004016103e490611b3d565b6001600160a01b038216610c8c5760405162461bcd60e51b81526004016103e4906118d7565b610c9783838361049c565b610ca2600082610b2f565b6001600160a01b0383166000908152600160205260409020610cc49082610eb2565b506001600160a01b0382166000908152600160205260409020610ce79082610ebe565b50610cf460028284610eca565b5080826001600160a01b0316846001600160a01b03167fddf252ad1be2c89b69c2b068fc378daa952ba7f163c4a11628f55a4df523b3ef60405160405180910390a4505050565b600061050c8383610ee0565b610589828260405180602001604052806000815250610f25565b6000808080610d708686610f58565b9097909650945050505050565b6000610d8a848484610fb4565b90505b9392505050565b610d9f848484610c2d565b610dab84848484611013565b6108df5760405162461bcd60e51b81526004016103e490611808565b606081610dec57506040805180820190915260018152600360fc1b6020820152610322565b8160005b8115610e0457600101600a82049150610df0565b60608167ffffffffffffffff81118015610e1d57600080fd5b506040519080825280601f01601f191660200182016040528015610e48576020820181803683370190505b50859350905060001982015b8315610e9957600a840660300160f81b82828060019003935081518110610e7757fe5b60200101906001600160f81b031916908160001a905350600a84049350610e54565b50949350505050565b600061050c83836110f2565b5490565b600061050c838361110a565b600061050c83836111d0565b6000610d8a84846001600160a01b03851661121a565b81546000908210610f035760405162461bcd60e51b81526004016103e4906117c6565b826000018281548110610f1257fe5b9060005260206000200154905092915050565b610f2f83836112b1565b610f3c6000848484611013565b61049c5760405162461bcd60e51b81526004016103e490611808565b815460009081908310610f7d5760405162461bcd60e51b81526004016103e490611a45565b6000846000018481548110610f8e57fe5b906000526020600020906002020190508060000154816001015492509250509250929050565b60008281526001840160205260408120548281610fe45760405162461bcd60e51b81526004016103e491906117b3565b50846000016001820381548110610ff757fe5b9060005260206000209060020201600101549150509392505050565b6000611027846001600160a01b0316611375565b61103357506001610c25565b60606110bb630a85bd0160e11b611048610b2b565b88878760405160240161105e9493929190611747565b604051602081830303815290604052906001600160e01b0319166020820180516001600160e01b038381831617835250505050604051806060016040528060328152602001611d29603291396001600160a01b038816919061137b565b90506000818060200190518101906110d39190611636565b6001600160e01b031916630a85bd0160e11b1492505050949350505050565b60009081526001919091016020526040902054151590565b600081815260018301602052604081205480156111c6578354600019808301919081019060009087908390811061113d57fe5b906000526020600020015490508087600001848154811061115a57fe5b60009182526020808320909101929092558281526001898101909252604090209084019055865487908061118a57fe5b6001900381819060005260206000200160009055905586600101600087815260200190815260200160002060009055600194505050505061050f565b600091505061050f565b60006111dc83836110f2565b6112125750815460018181018455600084815260208082209093018490558454848252828601909352604090209190915561050f565b50600061050f565b60008281526001840160205260408120548061127f575050604080518082018252838152602080820184815286546001818101895560008981528481209551600290930290950191825591519082015586548684528188019092529290912055610d8d565b8285600001600183038154811061129257fe5b9060005260206000209060020201600101819055506000915050610d8d565b6001600160a01b0382166112d75760405162461bcd60e51b81526004016103e490611a87565b6112e081610b1e565b156112fd5760405162461bcd60e51b81526004016103e4906118a0565b6113096000838361049c565b6001600160a01b038216600090815260016020526040902061132b9082610ebe565b5061133860028284610eca565b5060405181906001600160a01b038416906000907fddf252ad1be2c89b69c2b068fc378daa952ba7f163c4a11628f55a4df523b3ef908290a45050565b3b151590565b6060610d8a8484600085606061139085611375565b6113ac5760405162461bcd60e51b81526004016103e490611c8e565b60006060866001600160a01b031685876040516113c99190611696565b60006040518083038185875af1925050503d8060008114611406576040519150601f19603f3d011682016040523d82523d6000602084013e61140b565b606091505b5091509150811561141f579150610c259050565b80511561142f5780518082602001fd5b8360405162461bcd60e51b81526004016103e491906117b3565b80356001600160a01b038116811461050f57600080fd5b600060208284031215611471578081fd5b61050c8383611449565b6000806040838503121561148d578081fd5b6114978484611449565b91506114a68460208501611449565b90509250929050565b6000806000606084860312156114c3578081fd5b83356114ce81611cfa565b925060208401356114de81611cfa565b929592945050506040919091013590565b60008060008060808587031215611504578081fd5b61150e8686611449565b9350602061151e87828801611449565b935060408601359250606086013567ffffffffffffffff80821115611541578384fd5b818801915088601f830112611554578384fd5b813581811115611562578485fd5b604051601f8201601f1916810185018381118282101715611581578687fd5b60405281815283820185018b1015611597578586fd5b81858501868301379081019093019390935250939692955090935050565b600080604083850312156115c7578182fd5b6115d18484611449565b9150602083013580151581146115e5578182fd5b809150509250929050565b60008060408385031215611602578182fd5b61160c8484611449565b946020939093013593505050565b60006020828403121561162b578081fd5b8135610d8d81611d12565b600060208284031215611647578081fd5b8151610d8d81611d12565b600060208284031215611663578081fd5b5035919050565b60008151808452611682816020860160208601611cce565b601f01601f19169290920160200192915050565b600082516116a8818460208701611cce565b9190910192915050565b60008084546001808216600081146116d157600181146116e857611717565b60ff198316865260028304607f1686019350611717565b600283048886526020808720875b8381101561170f5781548a8201529085019082016116f6565b505050860193505b505050835161172a818360208801611cce565b01949350505050565b6001600160a01b0391909116815260200190565b6001600160a01b038581168252841660208201526040810183905260806060820181905260009061177a9083018461166a565b9695505050505050565b6001600160a01b039384168152919092166020820152604081019190915260600190565b901515815260200190565b60006020825261050c602083018461166a565b60208082526022908201527f456e756d657261626c655365743a20696e646578206f7574206f6620626f756e604082015261647360f01b606082015260800190565b60208082526032908201527f4552433732313a207472616e7366657220746f206e6f6e20455243373231526560408201527131b2b4bb32b91034b6b83632b6b2b73a32b960711b606082015260800190565b60208082526026908201527f4f776e61626c653a206e6577206f776e657220697320746865207a65726f206160408201526564647265737360d01b606082015260800190565b6020808252601c908201527f4552433732313a20746f6b656e20616c7265616479206d696e74656400000000604082015260600190565b60208082526024908201527f4552433732313a207472616e7366657220746f20746865207a65726f206164646040820152637265737360e01b606082015260800190565b60208082526019908201527f4552433732313a20617070726f766520746f2063616c6c657200000000000000604082015260600190565b6020808252602c908201527f4552433732313a206f70657261746f7220717565727920666f72206e6f6e657860408201526b34b9ba32b73a103a37b5b2b760a11b606082015260800190565b60208082526038908201527f4552433732313a20617070726f76652063616c6c6572206973206e6f74206f7760408201527f6e6572206e6f7220617070726f76656420666f7220616c6c0000000000000000606082015260800190565b6020808252602a908201527f4552433732313a2062616c616e636520717565727920666f7220746865207a65604082015269726f206164647265737360b01b606082015260800190565b60208082526022908201527f456e756d657261626c654d61703a20696e646578206f7574206f6620626f756e604082015261647360f01b606082015260800190565b6020808252818101527f4552433732313a206d696e7420746f20746865207a65726f2061646472657373604082015260600190565b6020808252602c908201527f4552433732313a20617070726f76656420717565727920666f72206e6f6e657860408201526b34b9ba32b73a103a37b5b2b760a11b606082015260800190565b6020808252818101527f4f776e61626c653a2063616c6c6572206973206e6f7420746865206f776e6572604082015260600190565b60208082526029908201527f4552433732313a207472616e73666572206f6620746f6b656e2074686174206960408201526839903737ba1037bbb760b91b606082015260800190565b6020808252602f908201527f4552433732314d657461646174613a2055524920717565727920666f72206e6f60408201526e3732bc34b9ba32b73a103a37b5b2b760891b606082015260800190565b6020808252600d908201526c27b7363c9027b832b930ba37b960991b604082015260600190565b60208082526021908201527f4552433732313a20617070726f76616c20746f2063757272656e74206f776e656040820152603960f91b606082015260800190565b60208082526031908201527f4552433732313a207472616e736665722063616c6c6572206973206e6f74206f6040820152701ddb995c881b9bdc88185c1c1c9bdd9959607a1b606082015260800190565b6020808252601d908201527f416464726573733a2063616c6c20746f206e6f6e2d636f6e7472616374000000604082015260600190565b90815260200190565b60005b83811015611ce9578181015183820152602001611cd1565b838111156108df5750506000910152565b6001600160a01b0381168114611d0f57600080fd5b50565b6001600160e01b031981168114611d0f57600080fdfe4552433732313a207472616e7366657220746f206e6f6e20455243373231526563656976657220696d706c656d656e7465724552433732313a206f776e657220717565727920666f72206e6f6e6578697374656e7420746f6b656ea2646970667358221220e06e18b5479110c65395e69c3eb48f071fecb440a5df6d88f20d61b9b7f72a0564736f6c634300060c0033",
  "immutableReferences": {},
  "source": "pragma solidity 0.6.12;\npragma experimental ABIEncoderV2;\n\nimport {FederalHarvestingRights} from '../FederalHarvestingRights.sol';\n\n/* solium-disable-next-line */\ncontract TestFederalHarvestingRights is FederalHarvestingRights {\n    function testMint(address _to, uint256 _tokenId) public {\n        _safeMint(_to, _tokenId);\n    }\n\n    constructor(address master) public FederalHarvestingRights(master) {}\n}\n",
  "sourcePath": "C:/Users/James/projects/tsuno-fe/contracts/testing/TestFederalHarvestingRights.sol",
  "compiler": {
    "name": "solc",
    "version": "0.6.12+commit.27d51765.Emscripten.clang"
  },
  "schemaVersion": "3.2.5",
  "updatedAt": "2020-11-02T11:13:18.916Z",
  "devdoc": {
    "kind": "dev",
    "methods": {
      "approve(address,uint256)": {
        "details": "See {IERC721-approve}."
      },
      "balanceOf(address)": {
        "details": "See {IERC721-balanceOf}."
      },
      "baseURI()": {
        "details": "Returns the base URI set via {_setBaseURI}. This will be automatically added as a prefix in {tokenURI} to each token's URI, or to the token ID if no specific URI is set for that token ID."
      },
      "getApproved(uint256)": {
        "details": "See {IERC721-getApproved}."
      },
      "isApprovedForAll(address,address)": {
        "details": "See {IERC721-isApprovedForAll}."
      },
      "name()": {
        "details": "See {IERC721Metadata-name}."
      },
      "owner()": {
        "details": "Returns the address of the current owner."
      },
      "ownerOf(uint256)": {
        "details": "See {IERC721-ownerOf}."
      },
      "renounceOwnership()": {
        "details": "Leaves the contract without owner. It will not be possible to call `onlyOwner` functions anymore. Can only be called by the current owner. NOTE: Renouncing ownership will leave the contract without an owner, thereby removing any functionality that is only available to the owner."
      },
      "safeTransferFrom(address,address,uint256)": {
        "details": "See {IERC721-safeTransferFrom}."
      },
      "safeTransferFrom(address,address,uint256,bytes)": {
        "details": "See {IERC721-safeTransferFrom}."
      },
      "setApprovalForAll(address,bool)": {
        "details": "See {IERC721-setApprovalForAll}."
      },
      "supportsInterface(bytes4)": {
        "details": "See {IERC165-supportsInterface}. Time complexity O(1), guaranteed to always use less than 30 000 gas."
      },
      "symbol()": {
        "details": "See {IERC721Metadata-symbol}."
      },
      "tokenByIndex(uint256)": {
        "details": "See {IERC721Enumerable-tokenByIndex}."
      },
      "tokenOfOwnerByIndex(address,uint256)": {
        "details": "See {IERC721Enumerable-tokenOfOwnerByIndex}."
      },
      "tokenURI(uint256)": {
        "details": "See {IERC721Metadata-tokenURI}."
      },
      "totalSupply()": {
        "details": "See {IERC721Enumerable-totalSupply}."
      },
      "transferFrom(address,address,uint256)": {
        "details": "See {IERC721-transferFrom}."
      },
      "transferOwnership(address)": {
        "details": "Transfers ownership of the contract to a new account (`newOwner`). Can only be called by the current owner."
      }
    },
    "version": 1
  },
  "userdoc": {
    "kind": "user",
    "methods": {},
    "version": 1
  }
}