{
  "contractName": "TestTreasury",
  "abi": [
    {
      "anonymous": false,
      "inputs": [
        {
          "indexed": true,
          "internalType": "address",
          "name": "previousOwner",
          "type": "address"
        },
        {
          "indexed": true,
          "internalType": "address",
          "name": "newOwner",
          "type": "address"
        }
      ],
      "name": "OwnershipTransferred",
      "type": "event"
    },
    {
      "inputs": [
        {
          "internalType": "address",
          "name": "_operator",
          "type": "address"
        }
      ],
      "name": "addOperator",
      "outputs": [],
      "stateMutability": "nonpayable",
      "type": "function"
    },
    {
      "inputs": [
        {
          "internalType": "address",
          "name": "_planets",
          "type": "address"
        },
        {
          "internalType": "address",
          "name": "_solar",
          "type": "address"
        },
        {
          "internalType": "address",
          "name": "_sats",
          "type": "address"
        },
        {
          "internalType": "address",
          "name": "_gameOperations",
          "type": "address"
        },
        {
          "internalType": "address",
          "name": "_planetManager",
          "type": "address"
        }
      ],
      "name": "initialize",
      "outputs": [],
      "stateMutability": "nonpayable",
      "type": "function"
    },
    {
      "inputs": [
        {
          "internalType": "address",
          "name": "_to",
          "type": "address"
        },
        {
          "internalType": "uint256",
          "name": "_tokenId",
          "type": "uint256"
        }
      ],
      "name": "mintPlanet",
      "outputs": [],
      "stateMutability": "nonpayable",
      "type": "function"
    },
    {
      "inputs": [
        {
          "internalType": "address",
          "name": "_to",
          "type": "address"
        },
        {
          "internalType": "uint256",
          "name": "_amount",
          "type": "uint256"
        }
      ],
      "name": "mintSolar",
      "outputs": [],
      "stateMutability": "nonpayable",
      "type": "function"
    },
    {
      "inputs": [
        {
          "internalType": "address",
          "name": "",
          "type": "address"
        },
        {
          "internalType": "address",
          "name": "",
          "type": "address"
        },
        {
          "internalType": "uint256[]",
          "name": "",
          "type": "uint256[]"
        },
        {
          "internalType": "uint256[]",
          "name": "",
          "type": "uint256[]"
        },
        {
          "internalType": "bytes",
          "name": "",
          "type": "bytes"
        }
      ],
      "name": "onERC1155BatchReceived",
      "outputs": [
        {
          "internalType": "bytes4",
          "name": "",
          "type": "bytes4"
        }
      ],
      "stateMutability": "nonpayable",
      "type": "function"
    },
    {
      "inputs": [
        {
          "internalType": "address",
          "name": "",
          "type": "address"
        },
        {
          "internalType": "address",
          "name": "",
          "type": "address"
        },
        {
          "internalType": "uint256",
          "name": "",
          "type": "uint256"
        },
        {
          "internalType": "uint256",
          "name": "",
          "type": "uint256"
        },
        {
          "internalType": "bytes",
          "name": "",
          "type": "bytes"
        }
      ],
      "name": "onERC1155Received",
      "outputs": [
        {
          "internalType": "bytes4",
          "name": "",
          "type": "bytes4"
        }
      ],
      "stateMutability": "nonpayable",
      "type": "function"
    },
    {
      "inputs": [
        {
          "internalType": "address",
          "name": "",
          "type": "address"
        },
        {
          "internalType": "address",
          "name": "",
          "type": "address"
        },
        {
          "internalType": "uint256",
          "name": "",
          "type": "uint256"
        },
        {
          "internalType": "bytes",
          "name": "",
          "type": "bytes"
        }
      ],
      "name": "onERC721Received",
      "outputs": [
        {
          "internalType": "bytes4",
          "name": "",
          "type": "bytes4"
        }
      ],
      "stateMutability": "nonpayable",
      "type": "function"
    },
    {
      "inputs": [],
      "name": "owner",
      "outputs": [
        {
          "internalType": "address",
          "name": "",
          "type": "address"
        }
      ],
      "stateMutability": "view",
      "type": "function",
      "constant": true
    },
    {
      "inputs": [
        {
          "internalType": "address",
          "name": "_from",
          "type": "address"
        },
        {
          "internalType": "uint256",
          "name": "_tokenId",
          "type": "uint256"
        }
      ],
      "name": "recievePlanet",
      "outputs": [],
      "stateMutability": "nonpayable",
      "type": "function"
    },
    {
      "inputs": [
        {
          "internalType": "address",
          "name": "_from",
          "type": "address"
        },
        {
          "internalType": "uint256[]",
          "name": "_ids",
          "type": "uint256[]"
        },
        {
          "internalType": "uint256[]",
          "name": "_amounts",
          "type": "uint256[]"
        }
      ],
      "name": "recieveSats",
      "outputs": [],
      "stateMutability": "nonpayable",
      "type": "function"
    },
    {
      "inputs": [
        {
          "internalType": "address",
          "name": "_from",
          "type": "address"
        },
        {
          "internalType": "uint256",
          "name": "_amount",
          "type": "uint256"
        }
      ],
      "name": "recieveSolar",
      "outputs": [],
      "stateMutability": "nonpayable",
      "type": "function"
    },
    {
      "inputs": [],
      "name": "renounceOwnership",
      "outputs": [],
      "stateMutability": "nonpayable",
      "type": "function"
    },
    {
      "inputs": [
        {
          "internalType": "address",
          "name": "_to",
          "type": "address"
        },
        {
          "internalType": "uint256",
          "name": "_tokenId",
          "type": "uint256"
        }
      ],
      "name": "sendPlanet",
      "outputs": [],
      "stateMutability": "nonpayable",
      "type": "function"
    },
    {
      "inputs": [
        {
          "internalType": "address",
          "name": "_to",
          "type": "address"
        },
        {
          "internalType": "uint256[]",
          "name": "_ids",
          "type": "uint256[]"
        },
        {
          "internalType": "uint256[]",
          "name": "_amounts",
          "type": "uint256[]"
        }
      ],
      "name": "sendSats",
      "outputs": [],
      "stateMutability": "nonpayable",
      "type": "function"
    },
    {
      "inputs": [
        {
          "internalType": "address",
          "name": "_to",
          "type": "address"
        },
        {
          "internalType": "uint256",
          "name": "_amount",
          "type": "uint256"
        }
      ],
      "name": "sendSolar",
      "outputs": [],
      "stateMutability": "nonpayable",
      "type": "function"
    },
    {
      "inputs": [
        {
          "internalType": "address",
          "name": "_to",
          "type": "address"
        },
        {
          "internalType": "uint256",
          "name": "_amount",
          "type": "uint256"
        },
        {
          "internalType": "uint256",
          "name": "_reward",
          "type": "uint256"
        }
      ],
      "name": "sendSolarReward",
      "outputs": [],
      "stateMutability": "nonpayable",
      "type": "function"
    },
    {
      "inputs": [
        {
          "internalType": "bytes4",
          "name": "interfaceId",
          "type": "bytes4"
        }
      ],
      "name": "supportsInterface",
      "outputs": [
        {
          "internalType": "bool",
          "name": "",
          "type": "bool"
        }
      ],
      "stateMutability": "view",
      "type": "function",
      "constant": true
    },
    {
      "inputs": [
        {
          "internalType": "address",
          "name": "newOwner",
          "type": "address"
        }
      ],
      "name": "transferOwnership",
      "outputs": [],
      "stateMutability": "nonpayable",
      "type": "function"
    },
    {
      "inputs": [
        {
          "internalType": "address",
          "name": "_from",
          "type": "address"
        },
        {
          "internalType": "address",
          "name": "_to",
          "type": "address"
        },
        {
          "internalType": "uint256",
          "name": "_tokenId",
          "type": "uint256"
        }
      ],
      "name": "transferPlanet",
      "outputs": [],
      "stateMutability": "nonpayable",
      "type": "function"
    },
    {
      "inputs": [
        {
          "internalType": "address",
          "name": "_to",
          "type": "address"
        },
        {
          "internalType": "uint256",
          "name": "_amount",
          "type": "uint256"
        }
      ],
      "name": "testMintSolar",
      "outputs": [],
      "stateMutability": "nonpayable",
      "type": "function"
    },
    {
      "inputs": [
        {
          "internalType": "address",
          "name": "_to",
          "type": "address"
        },
        {
          "internalType": "uint256[]",
          "name": "_ids",
          "type": "uint256[]"
        },
        {
          "internalType": "uint256[]",
          "name": "_amounts",
          "type": "uint256[]"
        }
      ],
      "name": "testSendSats",
      "outputs": [],
      "stateMutability": "nonpayable",
      "type": "function"
    }
  ],
  "bytecode": "0x608060405234801561001057600080fd5b506100216301ffc9a760e01b61008e565b610031630271189760e51b61008e565b600061003b6100e6565b600180546001600160a01b0319166001600160a01b038316908117909155604051919250906000907f8be0079c531659141344cd1fd0a4f28419497f9722a3daafe3b4186f6b6457e0908290a350610121565b6001600160e01b031980821614156100c15760405162461bcd60e51b81526004016100b8906100ea565b60405180910390fd5b6001600160e01b0319166000908152602081905260409020805460ff19166001179055565b3390565b6020808252601c908201527f4552433136353a20696e76616c696420696e7465726661636520696400000000604082015260600190565b611091806101306000396000f3fe608060405234801561001057600080fd5b50600436106101375760003560e01c806391cdef18116100b8578063dd78d1c41161007c578063dd78d1c414610275578063e9f40eb914610288578063f23a6e611461029b578063f2fde38b146102ae578063fb7a3a32146102c1578063feba2dd5146102d457610137565b806391cdef18146102165780639870d7fe14610229578063ba1edf171461023c578063bc197c811461024f578063be9c69861461026257610137565b80631f999fc9116100ff5780631f999fc9146101c0578063410f29d3146101d3578063715018a6146101e65780638da5cb5b146101ee57806391c137da1461020357610137565b806301ffc9a71461013c57806306a7d33f146101655780631459457a1461017a578063150b7a021461018d5780631879986d146101ad575b600080fd5b61014f61014a366004610e4f565b6102e7565b60405161015c9190610f5a565b60405180910390f35b610178610173366004610c72565b610306565b005b610178610188366004610b5f565b6103a9565b6101a061019b366004610cb2565b610454565b60405161015c9190610f65565b6101786101bb366004610e1c565b610464565b6101786101ce366004610df2565b610529565b6101786101e1366004610df2565b6105c0565b610178610621565b6101f66106a0565b60405161015c9190610eb1565b610178610211366004610df2565b6106af565b610178610224366004610df2565b610712565b610178610237366004610b3d565b610775565b61017861024a366004610d7f565b6107ce565b6101a061025d366004610bc8565b610832565b610178610270366004610df2565b610558565b610178610283366004610df2565b610843565b610178610296366004610df2565b6108a4565b6101a06102a9366004610d1a565b610907565b6101786102bc366004610b3d565b610918565b6101786102cf366004610d7f565b6107fd565b6101786102e2366004610d7f565b6109cf565b6001600160e01b03191660009081526020819052604090205460ff1690565b3360009081526005602052604090205460ff1661033e5760405162461bcd60e51b815260040161033590610ff5565b60405180910390fd5b600254604051632142170760e11b81526001600160a01b03909116906342842e0e9061037290869086908690600401610f1d565b600060405180830381600087803b15801561038c57600080fd5b505af11580156103a0573d6000803e3d6000fd5b50505050505050565b6103b1610a33565b6001546001600160a01b039081169116146103de5760405162461bcd60e51b815260040161033590610fc0565b600280546001600160a01b03199081166001600160a01b0397881617909155600380548216958716959095179094556004805490941692851692909217909255908216600090815260056020526040808220805460ff199081166001908117909255939094168252902080549091169091179055565b630a85bd0160e11b949350505050565b3360009081526005602052604090205460ff166104935760405162461bcd60e51b815260040161033590610ff5565b60035460405163a9059cbb60e01b81526001600160a01b039091169063a9059cbb906104c59086908690600401610f41565b600060405180830381600087803b1580156104df57600080fd5b505af11580156104f3573d6000803e3d6000fd5b50506003546040516340c10f1960e01b81526001600160a01b0390911692506340c10f1991506103729086908590600401610f41565b3360009081526005602052604090205460ff166105585760405162461bcd60e51b815260040161033590610ff5565b6003546040516340c10f1960e01b81526001600160a01b03909116906340c10f199061058a9085908590600401610f41565b600060405180830381600087803b1580156105a457600080fd5b505af11580156105b8573d6000803e3d6000fd5b505050505050565b3360009081526005602052604090205460ff166105ef5760405162461bcd60e51b815260040161033590610ff5565b60035460405163a9059cbb60e01b81526001600160a01b039091169063a9059cbb9061058a9085908590600401610f41565b610629610a33565b6001546001600160a01b039081169116146106565760405162461bcd60e51b815260040161033590610fc0565b6001546040516000916001600160a01b0316907f8be0079c531659141344cd1fd0a4f28419497f9722a3daafe3b4186f6b6457e0908390a3600180546001600160a01b0319169055565b6001546001600160a01b031690565b3360009081526005602052604090205460ff166106de5760405162461bcd60e51b815260040161033590610ff5565b600254604051632142170760e11b81526001600160a01b03909116906342842e0e9061058a90309086908690600401610f1d565b3360009081526005602052604090205460ff166107415760405162461bcd60e51b815260040161033590610ff5565b600254604051632142170760e11b81526001600160a01b03909116906342842e0e9061058a90859030908690600401610f1d565b61077d610a33565b6001546001600160a01b039081169116146107aa5760405162461bcd60e51b815260040161033590610fc0565b6001600160a01b03166000908152600560205260409020805460ff19166001179055565b3360009081526005602052604090205460ff166107fd5760405162461bcd60e51b815260040161033590610ff5565b60048054604051631759616b60e11b81526001600160a01b0390911691632eb2c2d69161037291309188918891889101610ec5565b63bc197c8160e01b95945050505050565b3360009081526005602052604090205460ff166108725760405162461bcd60e51b815260040161033590610ff5565b6002546040516340c10f1960e01b81526001600160a01b03909116906340c10f199061058a9085908590600401610f41565b3360009081526005602052604090205460ff166108d35760405162461bcd60e51b815260040161033590610ff5565b6003546040516323b872dd60e01b81526001600160a01b03909116906323b872dd9061058a90859030908690600401610f1d565b63f23a6e6160e01b95945050505050565b610920610a33565b6001546001600160a01b0390811691161461094d5760405162461bcd60e51b815260040161033590610fc0565b6001600160a01b0381166109735760405162461bcd60e51b815260040161033590610f7a565b6001546040516001600160a01b038084169216907f8be0079c531659141344cd1fd0a4f28419497f9722a3daafe3b4186f6b6457e090600090a3600180546001600160a01b0319166001600160a01b0392909216919091179055565b3360009081526005602052604090205460ff166109fe5760405162461bcd60e51b815260040161033590610ff5565b60048054604051631759616b60e11b81526001600160a01b0390911691632eb2c2d69161037291879130918891889101610ec5565b3390565b80356001600160a01b0381168114610a4e57600080fd5b92915050565b600082601f830112610a64578081fd5b813567ffffffffffffffff811115610a7a578182fd5b6020808202610a8a82820161101c565b83815293508184018583018287018401881015610aa657600080fd5b600092505b84831015610ac9578035825260019290920191908301908301610aab565b505050505092915050565b600082601f830112610ae4578081fd5b813567ffffffffffffffff811115610afa578182fd5b610b0d601f8201601f191660200161101c565b9150808252836020828501011115610b2457600080fd5b8060208401602084013760009082016020015292915050565b600060208284031215610b4e578081fd5b610b588383610a37565b9392505050565b600080600080600060a08688031215610b76578081fd5b610b808787610a37565b9450610b8f8760208801610a37565b9350610b9e8760408801610a37565b9250610bad8760608801610a37565b9150610bbc8760808801610a37565b90509295509295909350565b600080600080600060a08688031215610bdf578081fd5b8535610bea81611043565b94506020860135610bfa81611043565b9350604086013567ffffffffffffffff80821115610c16578283fd5b610c2289838a01610a54565b94506060880135915080821115610c37578283fd5b610c4389838a01610a54565b93506080880135915080821115610c58578283fd5b50610c6588828901610ad4565b9150509295509295909350565b600080600060608486031215610c86578283fd5b8335610c9181611043565b92506020840135610ca181611043565b929592945050506040919091013590565b60008060008060808587031215610cc7578384fd5b610cd18686610a37565b9350610ce08660208701610a37565b925060408501359150606085013567ffffffffffffffff811115610d02578182fd5b610d0e87828801610ad4565b91505092959194509250565b600080600080600060a08688031215610d31578081fd5b610d3b8787610a37565b9450610d4a8760208801610a37565b93506040860135925060608601359150608086013567ffffffffffffffff811115610d73578182fd5b610c6588828901610ad4565b600080600060608486031215610d93578283fd5b8335610d9e81611043565b9250602084013567ffffffffffffffff80821115610dba578384fd5b610dc687838801610a54565b93506040860135915080821115610ddb578283fd5b50610de886828701610a54565b9150509250925092565b60008060408385031215610e04578182fd5b610e0e8484610a37565b946020939093013593505050565b600080600060608486031215610e30578283fd5b610e3a8585610a37565b95602085013595506040909401359392505050565b600060208284031215610e60578081fd5b81356001600160e01b031981168114610b58578182fd5b6000815180845260208085019450808401835b83811015610ea657815187529582019590820190600101610e8a565b509495945050505050565b6001600160a01b0391909116815260200190565b6001600160a01b0385811682528416602082015260a060408201819052600090610ef190830185610e77565b8281036060840152610f038185610e77565b838103608090940193909352508152602001949350505050565b6001600160a01b039384168152919092166020820152604081019190915260600190565b6001600160a01b03929092168252602082015260400190565b901515815260200190565b6001600160e01b031991909116815260200190565b60208082526026908201527f4f776e61626c653a206e6577206f776e657220697320746865207a65726f206160408201526564647265737360d01b606082015260800190565b6020808252818101527f4f776e61626c653a2063616c6c6572206973206e6f7420746865206f776e6572604082015260600190565b6020808252600d908201526c27b7363c9027b832b930ba37b960991b604082015260600190565b60405181810167ffffffffffffffff8111828210171561103b57600080fd5b604052919050565b6001600160a01b038116811461105857600080fd5b5056fea26469706673582212200f3d99e1959ee87614839691f3f8a63fe52e9230988059877d4eba008b5e287f64736f6c634300060c0033",
  "immutableReferences": {},
  "source": "pragma solidity 0.6.12;\npragma experimental ABIEncoderV2;\n\nimport {Treasury} from '../Treasury.sol';\n\n/* solium-disable-next-line */\ncontract TestTreasury is Treasury {\n    function testMintSolar(address _to, uint256 _amount) public {\n        solar.mint(_to, _amount);\n    }\n\n    function testSendSats(\n        address _to,\n        uint256[] memory _ids,\n        uint256[] memory _amounts\n    ) public {\n        sats.safeBatchTransferFrom(address(this), _to, _ids, _amounts, '');\n    }\n}\n",
  "sourcePath": "C:/Users/James/projects/tsuno-fe/contracts/testing/TestTreasury.sol",
  "compiler": {
    "name": "solc",
    "version": "0.6.12+commit.27d51765.Emscripten.clang"
  },
  "schemaVersion": "3.2.5",
  "updatedAt": "2020-11-15T18:28:43.936Z",
  "networkType": "ethereum",
  "devdoc": {
    "kind": "dev",
    "methods": {
      "onERC721Received(address,address,uint256,bytes)": {
        "details": "See {IERC721Receiver-onERC721Received}. Always returns `IERC721Receiver.onERC721Received.selector`."
      },
      "owner()": {
        "details": "Returns the address of the current owner."
      },
      "renounceOwnership()": {
        "details": "Leaves the contract without owner. It will not be possible to call `onlyOwner` functions anymore. Can only be called by the current owner. NOTE: Renouncing ownership will leave the contract without an owner, thereby removing any functionality that is only available to the owner."
      },
      "supportsInterface(bytes4)": {
        "details": "See {IERC165-supportsInterface}. Time complexity O(1), guaranteed to always use less than 30 000 gas."
      },
      "transferOwnership(address)": {
        "details": "Transfers ownership of the contract to a new account (`newOwner`). Can only be called by the current owner."
      }
    },
    "version": 1
  },
  "userdoc": {
    "kind": "user",
    "methods": {},
    "version": 1
  }
}