{
  "contractName": "TestShipsAndTechnology",
  "abi": [
    {
      "inputs": [
        {
          "internalType": "address",
          "name": "holder",
          "type": "address"
        }
      ],
      "stateMutability": "nonpayable",
      "type": "constructor"
    },
    {
      "anonymous": false,
      "inputs": [
        {
          "indexed": true,
          "internalType": "address",
          "name": "account",
          "type": "address"
        },
        {
          "indexed": true,
          "internalType": "address",
          "name": "operator",
          "type": "address"
        },
        {
          "indexed": false,
          "internalType": "bool",
          "name": "approved",
          "type": "bool"
        }
      ],
      "name": "ApprovalForAll",
      "type": "event"
    },
    {
      "anonymous": false,
      "inputs": [
        {
          "indexed": true,
          "internalType": "address",
          "name": "previousOwner",
          "type": "address"
        },
        {
          "indexed": true,
          "internalType": "address",
          "name": "newOwner",
          "type": "address"
        }
      ],
      "name": "OwnershipTransferred",
      "type": "event"
    },
    {
      "anonymous": false,
      "inputs": [
        {
          "indexed": true,
          "internalType": "address",
          "name": "operator",
          "type": "address"
        },
        {
          "indexed": true,
          "internalType": "address",
          "name": "from",
          "type": "address"
        },
        {
          "indexed": true,
          "internalType": "address",
          "name": "to",
          "type": "address"
        },
        {
          "indexed": false,
          "internalType": "uint256[]",
          "name": "ids",
          "type": "uint256[]"
        },
        {
          "indexed": false,
          "internalType": "uint256[]",
          "name": "values",
          "type": "uint256[]"
        }
      ],
      "name": "TransferBatch",
      "type": "event"
    },
    {
      "anonymous": false,
      "inputs": [
        {
          "indexed": true,
          "internalType": "address",
          "name": "operator",
          "type": "address"
        },
        {
          "indexed": true,
          "internalType": "address",
          "name": "from",
          "type": "address"
        },
        {
          "indexed": true,
          "internalType": "address",
          "name": "to",
          "type": "address"
        },
        {
          "indexed": false,
          "internalType": "uint256",
          "name": "id",
          "type": "uint256"
        },
        {
          "indexed": false,
          "internalType": "uint256",
          "name": "value",
          "type": "uint256"
        }
      ],
      "name": "TransferSingle",
      "type": "event"
    },
    {
      "anonymous": false,
      "inputs": [
        {
          "indexed": false,
          "internalType": "string",
          "name": "value",
          "type": "string"
        },
        {
          "indexed": true,
          "internalType": "uint256",
          "name": "id",
          "type": "uint256"
        }
      ],
      "name": "URI",
      "type": "event"
    },
    {
      "inputs": [
        {
          "internalType": "address",
          "name": "_operator",
          "type": "address"
        }
      ],
      "name": "addOperator",
      "outputs": [],
      "stateMutability": "nonpayable",
      "type": "function"
    },
    {
      "inputs": [
        {
          "internalType": "address",
          "name": "account",
          "type": "address"
        },
        {
          "internalType": "uint256",
          "name": "id",
          "type": "uint256"
        }
      ],
      "name": "balanceOf",
      "outputs": [
        {
          "internalType": "uint256",
          "name": "",
          "type": "uint256"
        }
      ],
      "stateMutability": "view",
      "type": "function",
      "constant": true
    },
    {
      "inputs": [
        {
          "internalType": "address[]",
          "name": "accounts",
          "type": "address[]"
        },
        {
          "internalType": "uint256[]",
          "name": "ids",
          "type": "uint256[]"
        }
      ],
      "name": "balanceOfBatch",
      "outputs": [
        {
          "internalType": "uint256[]",
          "name": "",
          "type": "uint256[]"
        }
      ],
      "stateMutability": "view",
      "type": "function",
      "constant": true
    },
    {
      "inputs": [
        {
          "internalType": "address",
          "name": "account",
          "type": "address"
        },
        {
          "internalType": "address",
          "name": "operator",
          "type": "address"
        }
      ],
      "name": "isApprovedForAll",
      "outputs": [
        {
          "internalType": "bool",
          "name": "",
          "type": "bool"
        }
      ],
      "stateMutability": "view",
      "type": "function",
      "constant": true
    },
    {
      "inputs": [],
      "name": "owner",
      "outputs": [
        {
          "internalType": "address",
          "name": "",
          "type": "address"
        }
      ],
      "stateMutability": "view",
      "type": "function",
      "constant": true
    },
    {
      "inputs": [],
      "name": "renounceOwnership",
      "outputs": [],
      "stateMutability": "nonpayable",
      "type": "function"
    },
    {
      "inputs": [
        {
          "internalType": "address",
          "name": "from",
          "type": "address"
        },
        {
          "internalType": "address",
          "name": "to",
          "type": "address"
        },
        {
          "internalType": "uint256[]",
          "name": "ids",
          "type": "uint256[]"
        },
        {
          "internalType": "uint256[]",
          "name": "amounts",
          "type": "uint256[]"
        },
        {
          "internalType": "bytes",
          "name": "data",
          "type": "bytes"
        }
      ],
      "name": "safeBatchTransferFrom",
      "outputs": [],
      "stateMutability": "nonpayable",
      "type": "function"
    },
    {
      "inputs": [
        {
          "internalType": "address",
          "name": "from",
          "type": "address"
        },
        {
          "internalType": "address",
          "name": "to",
          "type": "address"
        },
        {
          "internalType": "uint256",
          "name": "id",
          "type": "uint256"
        },
        {
          "internalType": "uint256",
          "name": "amount",
          "type": "uint256"
        },
        {
          "internalType": "bytes",
          "name": "data",
          "type": "bytes"
        }
      ],
      "name": "safeTransferFrom",
      "outputs": [],
      "stateMutability": "nonpayable",
      "type": "function"
    },
    {
      "inputs": [
        {
          "internalType": "address",
          "name": "operator",
          "type": "address"
        },
        {
          "internalType": "bool",
          "name": "approved",
          "type": "bool"
        }
      ],
      "name": "setApprovalForAll",
      "outputs": [],
      "stateMutability": "nonpayable",
      "type": "function"
    },
    {
      "inputs": [
        {
          "internalType": "bytes4",
          "name": "interfaceId",
          "type": "bytes4"
        }
      ],
      "name": "supportsInterface",
      "outputs": [
        {
          "internalType": "bool",
          "name": "",
          "type": "bool"
        }
      ],
      "stateMutability": "view",
      "type": "function",
      "constant": true
    },
    {
      "inputs": [
        {
          "internalType": "address",
          "name": "newOwner",
          "type": "address"
        }
      ],
      "name": "transferOwnership",
      "outputs": [],
      "stateMutability": "nonpayable",
      "type": "function"
    },
    {
      "inputs": [
        {
          "internalType": "uint256",
          "name": "",
          "type": "uint256"
        }
      ],
      "name": "uri",
      "outputs": [
        {
          "internalType": "string",
          "name": "",
          "type": "string"
        }
      ],
      "stateMutability": "view",
      "type": "function",
      "constant": true
    }
  ],
  "bytecode": "0x60806040523480156200001157600080fd5b50604051620020f1380380620020f18339810160408190526200003491620005d8565b80604051806060016040528060268152602001620020cb6026913960006200005b62000137565b600080546001600160a01b0319166001600160a01b0383169081178255604051929350917f8be0079c531659141344cd1fd0a4f28419497f9722a3daafe3b4186f6b6457e0908290a350620000b76301ffc9a760e01b6200013c565b620000c2816200019a565b620000d4636cdb3d1360e11b6200013c565b620000e66303a24d0760e21b6200013c565b5060005b602e81101562000123576200011a82826200010581620001b3565b60408051602081019091526000815262000210565b600101620000ea565b506200012f8162000325565b505062000922565b335b90565b6001600160e01b03198082161415620001725760405162461bcd60e51b815260040162000169906200077a565b60405180910390fd5b6001600160e01b0319166000908152600160208190526040909120805460ff19169091179055565b8051620001af9060049060208401906200053c565b5050565b6000600d821415620001c957506103e86200020b565b600e821415620001dd57506101906200020b565b600c821415620001f05750600a6200020b565b600f8214156200020457506127106200020b565b50633b9aca005b919050565b6001600160a01b038416620002395760405162461bcd60e51b815260040162000169906200081d565b60006200024562000137565b90506200026c816000876200025a8862000383565b620002658862000383565b87620003c8565b60008481526002602090815260408083206001600160a01b0389168452825290912054620002a591859062000a72620003d0821b17901c565b60008581526002602090815260408083206001600160a01b03808b16808652919093528184209490945551908416907fc3d58168c5ae7397731d063d5bbf3d657854427343f4c083240f7aacaa2d0f62906200030590899089906200085e565b60405180910390a46200031e81600087878787620003ff565b5050505050565b6200032f62000137565b6000546001600160a01b039081169116146200035f5760405162461bcd60e51b81526004016200016990620007e8565b6001600160a01b03166000908152600660205260409020805460ff19166001179055565b604080516001808252818301909252606091829190602080830190803683370190505090508281600081518110620003b757fe5b602090810291909101015292915050565b505050505050565b600082820183811015620003f85760405162461bcd60e51b81526004016200016990620007b1565b9392505050565b6200041e846001600160a01b03166200053660201b62000a9e1760201c565b15620003c85760405163f23a6e6160e01b81526001600160a01b0385169063f23a6e61906200045a908990899088908890889060040162000679565b602060405180830381600087803b1580156200047557600080fd5b505af1925050508015620004a8575060408051601f3d908101601f19168201909252620004a59181019062000601565b60015b620004fa57620004b762000872565b80620004c45750620004e0565b8060405162461bcd60e51b8152600401620001699190620006c0565b60405162461bcd60e51b81526004016200016990620006d5565b6001600160e01b0319811663f23a6e6160e01b146200052d5760405162461bcd60e51b8152600401620001699062000732565b50505050505050565b3b151590565b828054600181600116156101000203166002900490600052602060002090601f016020900481019282601f106200057f57805160ff1916838001178555620005af565b82800160010185558215620005af579182015b82811115620005af57825182559160200191906001019062000592565b50620005bd929150620005c1565b5090565b5b80821115620005bd5760008155600101620005c2565b600060208284031215620005ea578081fd5b81516001600160a01b0381168114620003f8578182fd5b60006020828403121562000613578081fd5b81516001600160e01b031981168114620003f8578182fd5b60008151808452815b81811015620006525760208185018101518683018201520162000634565b81811115620006645782602083870101525b50601f01601f19169290920160200192915050565b6001600160a01b03868116825285166020820152604081018490526060810183905260a060808201819052600090620006b5908301846200062b565b979650505050505050565b600060208252620003f860208301846200062b565b60208082526034908201527f455243313135353a207472616e7366657220746f206e6f6e204552433131353560408201527f526563656976657220696d706c656d656e746572000000000000000000000000606082015260800190565b60208082526028908201527f455243313135353a204552433131353552656365697665722072656a656374656040820152676420746f6b656e7360c01b606082015260800190565b6020808252601c908201527f4552433136353a20696e76616c696420696e7465726661636520696400000000604082015260600190565b6020808252601b908201527f536166654d6174683a206164646974696f6e206f766572666c6f770000000000604082015260600190565b6020808252818101527f4f776e61626c653a2063616c6c6572206973206e6f7420746865206f776e6572604082015260600190565b60208082526021908201527f455243313135353a206d696e7420746f20746865207a65726f206164647265736040820152607360f81b606082015260800190565b918252602082015260400190565b60e01c90565b600060443d1015620008845762000139565b600481823e6308c379a06200089a82516200086c565b14620008a65762000139565b6040513d600319016004823e80513d6001600160401b038083116024840183101715620008d7575050505062000139565b82840192508251915080821115620008f3575050505062000139565b503d830160208284010111156200090d5750505062000139565b601f01601f1916810160200160405291505090565b61179980620009326000396000f3fe608060405234801561001057600080fd5b50600436106100b35760003560e01c80638da5cb5b116100715780638da5cb5b1461015e5780639870d7fe14610173578063a22cb46514610186578063e985e9c514610199578063f242432a146101ac578063f2fde38b146101bf576100b3565b8062fdd58e146100b857806301ffc9a7146100e15780630e89341c146101015780632eb2c2d6146101215780634e1273f414610136578063715018a614610156575b600080fd5b6100cb6100c6366004610f87565b6101d2565b6040516100d89190611602565b60405180910390f35b6100f46100ef366004611073565b61022e565b6040516100d89190611240565b61011461010f3660046110ab565b61024d565b6040516100d8919061124b565b61013461012f366004610e3d565b6102e5565b005b610149610144366004610fb1565b610504565b6040516100d891906111ff565b610134610644565b6101666106c3565b6040516100d89190611148565b610134610181366004610dee565b6106d3565b610134610194366004610f4c565b61072c565b6100f46101a7366004610e09565b6107fa565b6101346101ba366004610ee7565b610828565b6101346101cd366004610dee565b6109bc565b60006001600160a01b0383166102035760405162461bcd60e51b81526004016101fa906112fa565b60405180910390fd5b5060008181526002602090815260408083206001600160a01b03861684529091529020545b92915050565b6001600160e01b03191660009081526001602052604090205460ff1690565b60048054604080516020601f60026000196101006001881615020190951694909404938401819004810282018101909252828152606093909290918301828280156102d95780601f106102ae576101008083540402835291602001916102d9565b820191906000526020600020905b8154815290600101906020018083116102bc57829003601f168201915b50505050509050919050565b81518351146103065760405162461bcd60e51b81526004016101fa906115ba565b6001600160a01b03841661032c5760405162461bcd60e51b81526004016101fa9061145c565b610334610aa4565b6001600160a01b0316856001600160a01b0316148061035a575061035a856101a7610aa4565b6103765760405162461bcd60e51b81526004016101fa906114a1565b6000610380610aa4565b90506103908187878787876104fc565b60005b84518110156104965760008582815181106103aa57fe5b6020026020010151905060008583815181106103c257fe5b6020026020010151905061042f816040518060600160405280602a815260200161173a602a91396002600086815260200190815260200160002060008d6001600160a01b03166001600160a01b0316815260200190815260200160002054610aa89092919063ffffffff16565b60008381526002602090815260408083206001600160a01b038e811685529252808320939093558a16815220546104669082610a72565b60009283526002602090815260408085206001600160a01b038c1686529091529092209190915550600101610393565b50846001600160a01b0316866001600160a01b0316826001600160a01b03167f4a39dc06d4c0dbc64b70af90fd698a233a518aa5d07e595d983b8c0526c8f7fb87876040516104e6929190611212565b60405180910390a46104fc818787878787610ad4565b505050505050565b606081518351146105275760405162461bcd60e51b81526004016101fa90611571565b6060835167ffffffffffffffff8111801561054157600080fd5b5060405190808252806020026020018201604052801561056b578160200160208202803683370190505b50905060005b845181101561063c5760006001600160a01b031685828151811061059157fe5b60200260200101516001600160a01b031614156105c05760405162461bcd60e51b81526004016101fa90611345565b600260008583815181106105d057fe5b6020026020010151815260200190815260200160002060008683815181106105f457fe5b60200260200101516001600160a01b03166001600160a01b031681526020019081526020016000205482828151811061062957fe5b6020908102919091010152600101610571565b509392505050565b61064c610aa4565b6000546001600160a01b039081169116146106795760405162461bcd60e51b81526004016101fa906114f3565b600080546040516001600160a01b03909116907f8be0079c531659141344cd1fd0a4f28419497f9722a3daafe3b4186f6b6457e0908390a3600080546001600160a01b0319169055565b6000546001600160a01b03165b90565b6106db610aa4565b6000546001600160a01b039081169116146107085760405162461bcd60e51b81526004016101fa906114f3565b6001600160a01b03166000908152600660205260409020805460ff19166001179055565b816001600160a01b031661073e610aa4565b6001600160a01b031614156107655760405162461bcd60e51b81526004016101fa90611528565b8060036000610772610aa4565b6001600160a01b03908116825260208083019390935260409182016000908120918716808252919093529120805460ff1916921515929092179091556107b6610aa4565b6001600160a01b03167f17307eab39ab6107e8899845ad3d59bd9653f200f220920489ca2b5937696c31836040516107ee9190611240565b60405180910390a35050565b6001600160a01b03918216600090815260036020908152604080832093909416825291909152205460ff1690565b6001600160a01b03841661084e5760405162461bcd60e51b81526004016101fa9061145c565b610856610aa4565b6001600160a01b0316856001600160a01b0316148061087c575061087c856101a7610aa4565b6108985760405162461bcd60e51b81526004016101fa90611413565b60006108a2610aa4565b90506108c28187876108b388610beb565b6108bc88610beb565b876104fc565b610909836040518060600160405280602a815260200161173a602a913960008781526002602090815260408083206001600160a01b038d1684529091529020549190610aa8565b60008581526002602090815260408083206001600160a01b038b811685529252808320939093558716815220546109409084610a72565b60008581526002602090815260408083206001600160a01b03808b168086529190935292819020939093559151909188811691908416907fc3d58168c5ae7397731d063d5bbf3d657854427343f4c083240f7aacaa2d0f62906109a6908990899061160b565b60405180910390a46104fc818787878787610c2f565b6109c4610aa4565b6000546001600160a01b039081169116146109f15760405162461bcd60e51b81526004016101fa906114f3565b6001600160a01b038116610a175760405162461bcd60e51b81526004016101fa90611396565b600080546040516001600160a01b03808516939216917f8be0079c531659141344cd1fd0a4f28419497f9722a3daafe3b4186f6b6457e091a3600080546001600160a01b0319166001600160a01b0392909216919091179055565b600082820183811015610a975760405162461bcd60e51b81526004016101fa906113dc565b9392505050565b3b151590565b3390565b60008184841115610acc5760405162461bcd60e51b81526004016101fa919061124b565b505050900390565b610ae6846001600160a01b0316610a9e565b156104fc5760405163bc197c8160e01b81526001600160a01b0385169063bc197c8190610b1f908990899088908890889060040161115c565b602060405180830381600087803b158015610b3957600080fd5b505af1925050508015610b69575060408051601f3d908101601f19168201909252610b669181019061108f565b60015b610bb257610b75611666565b80610b805750610b9a565b8060405162461bcd60e51b81526004016101fa919061124b565b60405162461bcd60e51b81526004016101fa9061125e565b6001600160e01b0319811663bc197c8160e01b14610be25760405162461bcd60e51b81526004016101fa906112b2565b50505050505050565b604080516001808252818301909252606091829190602080830190803683370190505090508281600081518110610c1e57fe5b602090810291909101015292915050565b610c41846001600160a01b0316610a9e565b156104fc5760405163f23a6e6160e01b81526001600160a01b0385169063f23a6e6190610c7a90899089908890889088906004016111ba565b602060405180830381600087803b158015610c9457600080fd5b505af1925050508015610cc4575060408051601f3d908101601f19168201909252610cc19181019061108f565b60015b610cd057610b75611666565b6001600160e01b0319811663f23a6e6160e01b14610be25760405162461bcd60e51b81526004016101fa906112b2565b80356001600160a01b038116811461022857600080fd5b600082601f830112610d27578081fd5b8135610d3a610d3582611640565b611619565b818152915060208083019084810181840286018201871015610d5b57600080fd5b60005b84811015610d7a57813584529282019290820190600101610d5e565b505050505092915050565b600082601f830112610d95578081fd5b813567ffffffffffffffff811115610dab578182fd5b610dbe601f8201601f1916602001611619565b9150808252836020828501011115610dd557600080fd5b8060208401602084013760009082016020015292915050565b600060208284031215610dff578081fd5b610a978383610d00565b60008060408385031215610e1b578081fd5b610e258484610d00565b9150610e348460208501610d00565b90509250929050565b600080600080600060a08688031215610e54578081fd5b8535610e5f8161170b565b94506020860135610e6f8161170b565b9350604086013567ffffffffffffffff80821115610e8b578283fd5b610e9789838a01610d17565b94506060880135915080821115610eac578283fd5b610eb889838a01610d17565b93506080880135915080821115610ecd578283fd5b50610eda88828901610d85565b9150509295509295909350565b600080600080600060a08688031215610efe578081fd5b610f088787610d00565b9450610f178760208801610d00565b93506040860135925060608601359150608086013567ffffffffffffffff811115610f40578182fd5b610eda88828901610d85565b60008060408385031215610f5e578182fd5b610f688484610d00565b915060208301358015158114610f7c578182fd5b809150509250929050565b60008060408385031215610f99578182fd5b610fa38484610d00565b946020939093013593505050565b60008060408385031215610fc3578182fd5b823567ffffffffffffffff80821115610fda578384fd5b818501915085601f830112610fed578384fd5b8135610ffb610d3582611640565b80828252602080830192508086018a82838702890101111561101b578889fd5b8896505b84871015611045576110318b82610d00565b84526001969096019592810192810161101f565b50909650870135935050508082111561105c578283fd5b5061106985828601610d17565b9150509250929050565b600060208284031215611084578081fd5b8135610a9781611723565b6000602082840312156110a0578081fd5b8151610a9781611723565b6000602082840312156110bc578081fd5b5035919050565b6000815180845260208085019450808401835b838110156110f2578151875295820195908201906001016110d6565b509495945050505050565b60008151808452815b8181101561112257602081850181015186830182015201611106565b818111156111335782602083870101525b50601f01601f19169290920160200192915050565b6001600160a01b0391909116815260200190565b6001600160a01b0386811682528516602082015260a060408201819052600090611188908301866110c3565b828103606084015261119a81866110c3565b905082810360808401526111ae81856110fd565b98975050505050505050565b6001600160a01b03868116825285166020820152604081018490526060810183905260a0608082018190526000906111f4908301846110fd565b979650505050505050565b600060208252610a9760208301846110c3565b60006040825261122560408301856110c3565b828103602084015261123781856110c3565b95945050505050565b901515815260200190565b600060208252610a9760208301846110fd565b60208082526034908201527f455243313135353a207472616e7366657220746f206e6f6e20455243313135356040820152732932b1b2b4bb32b91034b6b83632b6b2b73a32b960611b606082015260800190565b60208082526028908201527f455243313135353a204552433131353552656365697665722072656a656374656040820152676420746f6b656e7360c01b606082015260800190565b6020808252602b908201527f455243313135353a2062616c616e636520717565727920666f7220746865207a60408201526a65726f206164647265737360a81b606082015260800190565b60208082526031908201527f455243313135353a2062617463682062616c616e636520717565727920666f7260408201527020746865207a65726f206164647265737360781b606082015260800190565b60208082526026908201527f4f776e61626c653a206e6577206f776e657220697320746865207a65726f206160408201526564647265737360d01b606082015260800190565b6020808252601b908201527f536166654d6174683a206164646974696f6e206f766572666c6f770000000000604082015260600190565b60208082526029908201527f455243313135353a2063616c6c6572206973206e6f74206f776e6572206e6f7260408201526808185c1c1c9bdd995960ba1b606082015260800190565b60208082526025908201527f455243313135353a207472616e7366657220746f20746865207a65726f206164604082015264647265737360d81b606082015260800190565b60208082526032908201527f455243313135353a207472616e736665722063616c6c6572206973206e6f74206040820152711bdddb995c881b9bdc88185c1c1c9bdd995960721b606082015260800190565b6020808252818101527f4f776e61626c653a2063616c6c6572206973206e6f7420746865206f776e6572604082015260600190565b60208082526029908201527f455243313135353a2073657474696e6720617070726f76616c20737461747573604082015268103337b91039b2b63360b91b606082015260800190565b60208082526029908201527f455243313135353a206163636f756e747320616e6420696473206c656e677468604082015268040dad2e6dac2e8c6d60bb1b606082015260800190565b60208082526028908201527f455243313135353a2069647320616e6420616d6f756e7473206c656e677468206040820152670dad2e6dac2e8c6d60c31b606082015260800190565b90815260200190565b918252602082015260400190565b60405181810167ffffffffffffffff8111828210171561163857600080fd5b604052919050565b600067ffffffffffffffff821115611656578081fd5b5060209081020190565b60e01c90565b600060443d1015611676576106d0565b600481823e6308c379a061168a8251611660565b14611694576106d0565b6040513d600319016004823e80513d67ffffffffffffffff81602484011181841117156116c457505050506106d0565b828401925082519150808211156116de57505050506106d0565b503d830160208284010111156116f6575050506106d0565b601f01601f1916810160200160405291505090565b6001600160a01b038116811461172057600080fd5b50565b6001600160e01b03198116811461172057600080fdfe455243313135353a20696e73756666696369656e742062616c616e636520666f72207472616e73666572a26469706673582212204406e027e7f788db8e1b96b240fc8a3a25a4d3a638a143507fbcfa9b7bb227af64736f6c634300060c003368747470733a2f2f67616d652e6578616d706c652f6170692f6974656d2f7b317d2e6a736f6e",
  "immutableReferences": {},
  "source": "pragma solidity 0.6.12;\npragma experimental ABIEncoderV2;\n\nimport {ShipsAndTechnology} from '../ShipsAndTechnology.sol';\n\n/* solium-disable-next-line */\ncontract TestShipsAndTechnology is ShipsAndTechnology {\n    constructor(address holder) public ShipsAndTechnology(holder) {}\n}\n",
  "sourcePath": "C:/Users/James/projects/tsuno-fe/contracts/testing/TestShipsAndTechnology.sol",
  "compiler": {
    "name": "solc",
    "version": "0.6.12+commit.27d51765.Emscripten.clang"
  },
  "schemaVersion": "3.2.5",
  "updatedAt": "2020-11-15T18:28:43.933Z",
  "networkType": "ethereum",
  "devdoc": {
    "kind": "dev",
    "methods": {
      "balanceOf(address,uint256)": {
        "details": "See {IERC1155-balanceOf}. Requirements: - `account` cannot be the zero address."
      },
      "balanceOfBatch(address[],uint256[])": {
        "details": "See {IERC1155-balanceOfBatch}. Requirements: - `accounts` and `ids` must have the same length."
      },
      "isApprovedForAll(address,address)": {
        "details": "See {IERC1155-isApprovedForAll}."
      },
      "owner()": {
        "details": "Returns the address of the current owner."
      },
      "renounceOwnership()": {
        "details": "Leaves the contract without owner. It will not be possible to call `onlyOwner` functions anymore. Can only be called by the current owner. NOTE: Renouncing ownership will leave the contract without an owner, thereby removing any functionality that is only available to the owner."
      },
      "safeBatchTransferFrom(address,address,uint256[],uint256[],bytes)": {
        "details": "See {IERC1155-safeBatchTransferFrom}."
      },
      "safeTransferFrom(address,address,uint256,uint256,bytes)": {
        "details": "See {IERC1155-safeTransferFrom}."
      },
      "setApprovalForAll(address,bool)": {
        "details": "See {IERC1155-setApprovalForAll}."
      },
      "supportsInterface(bytes4)": {
        "details": "See {IERC165-supportsInterface}. Time complexity O(1), guaranteed to always use less than 30 000 gas."
      },
      "transferOwnership(address)": {
        "details": "Transfers ownership of the contract to a new account (`newOwner`). Can only be called by the current owner."
      },
      "uri(uint256)": {
        "details": "See {IERC1155MetadataURI-uri}. This implementation returns the same URI for *all* token types. It relies on the token type ID substitution mechanism https://eips.ethereum.org/EIPS/eip-1155#metadata[defined in the EIP]. Clients calling this function must replace the `\\{id\\}` substring with the actual token type ID."
      }
    },
    "version": 1
  },
  "userdoc": {
    "kind": "user",
    "methods": {},
    "version": 1
  }
}