{
  "contractName": "TimelockV2",
  "abi": [
    {
      "inputs": [
        {
          "internalType": "address",
          "name": "admin_",
          "type": "address"
        },
        {
          "internalType": "uint256",
          "name": "delay_",
          "type": "uint256"
        }
      ],
      "stateMutability": "nonpayable",
      "type": "constructor"
    },
    {
      "anonymous": false,
      "inputs": [
        {
          "indexed": true,
          "internalType": "bytes32",
          "name": "txHash",
          "type": "bytes32"
        },
        {
          "indexed": true,
          "internalType": "address",
          "name": "target",
          "type": "address"
        },
        {
          "indexed": false,
          "internalType": "uint256",
          "name": "value",
          "type": "uint256"
        },
        {
          "indexed": false,
          "internalType": "string",
          "name": "signature",
          "type": "string"
        },
        {
          "indexed": false,
          "internalType": "bytes",
          "name": "data",
          "type": "bytes"
        },
        {
          "indexed": false,
          "internalType": "uint256",
          "name": "eta",
          "type": "uint256"
        }
      ],
      "name": "CancelTransaction",
      "type": "event"
    },
    {
      "anonymous": false,
      "inputs": [
        {
          "indexed": true,
          "internalType": "bytes32",
          "name": "txHash",
          "type": "bytes32"
        },
        {
          "indexed": true,
          "internalType": "address",
          "name": "target",
          "type": "address"
        },
        {
          "indexed": false,
          "internalType": "uint256",
          "name": "value",
          "type": "uint256"
        },
        {
          "indexed": false,
          "internalType": "string",
          "name": "signature",
          "type": "string"
        },
        {
          "indexed": false,
          "internalType": "bytes",
          "name": "data",
          "type": "bytes"
        },
        {
          "indexed": false,
          "internalType": "uint256",
          "name": "eta",
          "type": "uint256"
        }
      ],
      "name": "ExecuteTransaction",
      "type": "event"
    },
    {
      "anonymous": false,
      "inputs": [
        {
          "indexed": true,
          "internalType": "address",
          "name": "newAdmin",
          "type": "address"
        }
      ],
      "name": "NewAdmin",
      "type": "event"
    },
    {
      "anonymous": false,
      "inputs": [
        {
          "indexed": true,
          "internalType": "uint256",
          "name": "newDelay",
          "type": "uint256"
        }
      ],
      "name": "NewDelay",
      "type": "event"
    },
    {
      "anonymous": false,
      "inputs": [
        {
          "indexed": true,
          "internalType": "address",
          "name": "newPendingAdmin",
          "type": "address"
        }
      ],
      "name": "NewPendingAdmin",
      "type": "event"
    },
    {
      "anonymous": false,
      "inputs": [
        {
          "indexed": true,
          "internalType": "bytes32",
          "name": "txHash",
          "type": "bytes32"
        },
        {
          "indexed": true,
          "internalType": "address",
          "name": "target",
          "type": "address"
        },
        {
          "indexed": false,
          "internalType": "uint256",
          "name": "value",
          "type": "uint256"
        },
        {
          "indexed": false,
          "internalType": "string",
          "name": "signature",
          "type": "string"
        },
        {
          "indexed": false,
          "internalType": "bytes",
          "name": "data",
          "type": "bytes"
        },
        {
          "indexed": false,
          "internalType": "uint256",
          "name": "eta",
          "type": "uint256"
        }
      ],
      "name": "QueueTransaction",
      "type": "event"
    },
    {
      "inputs": [],
      "name": "GRACE_PERIOD",
      "outputs": [
        {
          "internalType": "uint256",
          "name": "",
          "type": "uint256"
        }
      ],
      "stateMutability": "view",
      "type": "function",
      "constant": true
    },
    {
      "inputs": [],
      "name": "MAXIMUM_DELAY",
      "outputs": [
        {
          "internalType": "uint256",
          "name": "",
          "type": "uint256"
        }
      ],
      "stateMutability": "view",
      "type": "function",
      "constant": true
    },
    {
      "inputs": [],
      "name": "MINIMUM_DELAY",
      "outputs": [
        {
          "internalType": "uint256",
          "name": "",
          "type": "uint256"
        }
      ],
      "stateMutability": "view",
      "type": "function",
      "constant": true
    },
    {
      "inputs": [],
      "name": "admin",
      "outputs": [
        {
          "internalType": "address",
          "name": "",
          "type": "address"
        }
      ],
      "stateMutability": "view",
      "type": "function",
      "constant": true
    },
    {
      "inputs": [],
      "name": "admin_initialized",
      "outputs": [
        {
          "internalType": "bool",
          "name": "",
          "type": "bool"
        }
      ],
      "stateMutability": "view",
      "type": "function",
      "constant": true
    },
    {
      "inputs": [],
      "name": "delay",
      "outputs": [
        {
          "internalType": "uint256",
          "name": "",
          "type": "uint256"
        }
      ],
      "stateMutability": "view",
      "type": "function",
      "constant": true
    },
    {
      "inputs": [],
      "name": "pendingAdmin",
      "outputs": [
        {
          "internalType": "address",
          "name": "",
          "type": "address"
        }
      ],
      "stateMutability": "view",
      "type": "function",
      "constant": true
    },
    {
      "inputs": [
        {
          "internalType": "bytes32",
          "name": "",
          "type": "bytes32"
        }
      ],
      "name": "queuedTransactions",
      "outputs": [
        {
          "internalType": "bool",
          "name": "",
          "type": "bool"
        }
      ],
      "stateMutability": "view",
      "type": "function",
      "constant": true
    },
    {
      "stateMutability": "payable",
      "type": "receive",
      "payable": true
    },
    {
      "inputs": [
        {
          "internalType": "uint256",
          "name": "delay_",
          "type": "uint256"
        }
      ],
      "name": "setDelay",
      "outputs": [],
      "stateMutability": "nonpayable",
      "type": "function"
    },
    {
      "inputs": [],
      "name": "acceptAdmin",
      "outputs": [],
      "stateMutability": "nonpayable",
      "type": "function"
    },
    {
      "inputs": [
        {
          "internalType": "address",
          "name": "pendingAdmin_",
          "type": "address"
        }
      ],
      "name": "setPendingAdmin",
      "outputs": [],
      "stateMutability": "nonpayable",
      "type": "function"
    },
    {
      "inputs": [
        {
          "internalType": "address",
          "name": "target",
          "type": "address"
        },
        {
          "internalType": "uint256",
          "name": "value",
          "type": "uint256"
        },
        {
          "internalType": "string",
          "name": "signature",
          "type": "string"
        },
        {
          "internalType": "bytes",
          "name": "data",
          "type": "bytes"
        },
        {
          "internalType": "uint256",
          "name": "eta",
          "type": "uint256"
        }
      ],
      "name": "queueTransaction",
      "outputs": [
        {
          "internalType": "bytes32",
          "name": "",
          "type": "bytes32"
        }
      ],
      "stateMutability": "nonpayable",
      "type": "function"
    },
    {
      "inputs": [
        {
          "internalType": "address",
          "name": "target",
          "type": "address"
        },
        {
          "internalType": "uint256",
          "name": "value",
          "type": "uint256"
        },
        {
          "internalType": "string",
          "name": "signature",
          "type": "string"
        },
        {
          "internalType": "bytes",
          "name": "data",
          "type": "bytes"
        },
        {
          "internalType": "uint256",
          "name": "eta",
          "type": "uint256"
        }
      ],
      "name": "cancelTransaction",
      "outputs": [],
      "stateMutability": "nonpayable",
      "type": "function"
    },
    {
      "inputs": [
        {
          "internalType": "uint256",
          "name": "amount",
          "type": "uint256"
        },
        {
          "internalType": "bool",
          "name": "pause_",
          "type": "bool"
        }
      ],
      "name": "addVotes",
      "outputs": [],
      "stateMutability": "nonpayable",
      "type": "function"
    },
    {
      "inputs": [
        {
          "internalType": "uint256",
          "name": "amount",
          "type": "uint256"
        },
        {
          "internalType": "bool",
          "name": "pause_",
          "type": "bool"
        }
      ],
      "name": "removeVotes",
      "outputs": [],
      "stateMutability": "nonpayable",
      "type": "function"
    },
    {
      "inputs": [],
      "name": "paused",
      "outputs": [
        {
          "internalType": "bool",
          "name": "",
          "type": "bool"
        }
      ],
      "stateMutability": "view",
      "type": "function",
      "constant": true
    },
    {
      "inputs": [
        {
          "internalType": "address",
          "name": "target",
          "type": "address"
        },
        {
          "internalType": "uint256",
          "name": "value",
          "type": "uint256"
        },
        {
          "internalType": "string",
          "name": "signature",
          "type": "string"
        },
        {
          "internalType": "bytes",
          "name": "data",
          "type": "bytes"
        },
        {
          "internalType": "uint256",
          "name": "eta",
          "type": "uint256"
        }
      ],
      "name": "executeTransaction",
      "outputs": [
        {
          "internalType": "bytes",
          "name": "",
          "type": "bytes"
        }
      ],
      "stateMutability": "payable",
      "type": "function",
      "payable": true
    }
  ],
  "bytecode": "0x608060405234801561001057600080fd5b50604051611db1380380611db18339818101604052604081101561003357600080fd5b5080516020909101516202a30081101561007e5760405162461bcd60e51b8152600401808060200182810382526037815260200180611d7a6037913960400191505060405180910390fd5b62278d008111156100c05760405162461bcd60e51b815260040180806020018281038252603b815260200180611d3f603b913960400191505060405180910390fd5b600080546001600160a01b039093166001600160a01b0319909316929092179091556002556003805460ff19169055611c41806100fe6000396000f3fe6080604052600436106101025760003560e01c80636a42b8f811610095578063b1b43ae511610064578063b1b43ae5146106b6578063c1a287e2146106cb578063e177246e146106e0578063f2b065371461070a578063f851a4401461073457610109565b80636a42b8f8146106455780636fc1f57e1461065a5780637d645fab1461066f578063834a71bf1461068457610109565b80634dd18bf5116100d15780634dd18bf51461046a578063591fcdfe1461049d5780635c975abb146105ea578063652bff2a1461061357610109565b80630825f38f1461010e5780630e18b681146102c357806326782247146102da5780633a66f9011461030b57610109565b3661010957005b600080fd5b61024e600480360360a081101561012457600080fd5b6001600160a01b0382351691602081013591810190606081016040820135600160201b81111561015357600080fd5b82018360208201111561016557600080fd5b803590602001918460018302840111600160201b8311171561018657600080fd5b91908080601f0160208091040260200160405190810160405280939291908181526020018383808284376000920191909152509295949360208101935035915050600160201b8111156101d857600080fd5b8201836020820111156101ea57600080fd5b803590602001918460018302840111600160201b8311171561020b57600080fd5b91908080601f0160208091040260200160405190810160405280939291908181526020018383808284376000920191909152509295505091359250610749915050565b6040805160208082528351818301528351919283929083019185019080838360005b83811015610288578181015183820152602001610270565b50505050905090810190601f1680156102b55780820380516001836020036101000a031916815260200191505b509250505060405180910390f35b3480156102cf57600080fd5b506102d8610c7e565b005b3480156102e657600080fd5b506102ef610d1a565b604080516001600160a01b039092168252519081900360200190f35b34801561031757600080fd5b50610458600480360360a081101561032e57600080fd5b6001600160a01b0382351691602081013591810190606081016040820135600160201b81111561035d57600080fd5b82018360208201111561036f57600080fd5b803590602001918460018302840111600160201b8311171561039057600080fd5b91908080601f0160208091040260200160405190810160405280939291908181526020018383808284376000920191909152509295949360208101935035915050600160201b8111156103e257600080fd5b8201836020820111156103f457600080fd5b803590602001918460018302840111600160201b8311171561041557600080fd5b91908080601f0160208091040260200160405190810160405280939291908181526020018383808284376000920191909152509295505091359250610d29915050565b60408051918252519081900360200190f35b34801561047657600080fd5b506102d86004803603602081101561048d57600080fd5b50356001600160a01b031661106a565b3480156104a957600080fd5b506102d8600480360360a08110156104c057600080fd5b6001600160a01b0382351691602081013591810190606081016040820135600160201b8111156104ef57600080fd5b82018360208201111561050157600080fd5b803590602001918460018302840111600160201b8311171561052257600080fd5b91908080601f0160208091040260200160405190810160405280939291908181526020018383808284376000920191909152509295949360208101935035915050600160201b81111561057457600080fd5b82018360208201111561058657600080fd5b803590602001918460018302840111600160201b831117156105a757600080fd5b91908080601f016020809104026020016040519081016040528093929190818152602001838380828437600092019190915250929550509135925061115f915050565b3480156105f657600080fd5b506105ff61140c565b604080519115158252519081900360200190f35b34801561061f57600080fd5b506102d86004803603604081101561063657600080fd5b508035906020013515156114a7565b34801561065157600080fd5b506104586115f4565b34801561066657600080fd5b506105ff6115fa565b34801561067b57600080fd5b50610458611603565b34801561069057600080fd5b506102d8600480360360408110156106a757600080fd5b5080359060200135151561160a565b3480156106c257600080fd5b506104586116ea565b3480156106d757600080fd5b506104586116f1565b3480156106ec57600080fd5b506102d86004803603602081101561070357600080fd5b50356116f8565b34801561071657600080fd5b506105ff6004803603602081101561072d57600080fd5b50356117ed565b34801561074057600080fd5b506102ef611802565b606061075361140c565b1561078f5760405162461bcd60e51b8152600401808060200182810382526024815260200180611a8b6024913960400191505060405180910390fd5b6000546001600160a01b031633146107d85760405162461bcd60e51b81526004018080602001828103825260388152602001806118c06038913960400191505060405180910390fd5b6000868686868660405160200180866001600160a01b031681526020018581526020018060200180602001848152602001838103835286818151815260200191508051906020019080838360005b8381101561083e578181015183820152602001610826565b50505050905090810190601f16801561086b5780820380516001836020036101000a031916815260200191505b50838103825285518152855160209182019187019080838360005b8381101561089e578181015183820152602001610886565b50505050905090810190601f1680156108cb5780820380516001836020036101000a031916815260200191505b5060408051601f1981840301815291815281516020928301206000818152600490935291205490995060ff16975061093c96505050505050505760405162461bcd60e51b815260040180806020018281038252603d815260200180611a4e603d913960400191505060405180910390fd5b8242101561097b5760405162461bcd60e51b81526004018080602001828103825260458152602001806119626045913960600191505060405180910390fd5b6109888362127500611811565b4211156109c65760405162461bcd60e51b815260040180806020018281038252603381526020018061192f6033913960400191505060405180910390fd5b6000818152600460205260409020805460ff1916905584516060906109ec575083610a6f565b85805190602001208560405160200180836001600160e01b031916815260040182805190602001908083835b60208310610a375780518252601f199092019160209182019101610a18565b6001836020036101000a0380198251168184511680821785525050505050509050019250505060405160208183030381529060405290505b60006060896001600160a01b031689846040518082805190602001908083835b60208310610aae5780518252601f199092019160209182019101610a8f565b6001836020036101000a03801982511681845116808217855250505050505090500191505060006040518083038185875af1925050503d8060008114610b10576040519150601f19603f3d011682016040523d82523d6000602084013e610b15565b606091505b509150915081610b565760405162461bcd60e51b815260040180806020018281038252603d815260200180611b55603d913960400191505060405180910390fd5b896001600160a01b0316847fa560e3198060a2f10670c1ec5b403077ea6ae93ca8de1c32b451dc1a943cd6e78b8b8b8b604051808581526020018060200180602001848152602001838103835286818151815260200191508051906020019080838360005b83811015610bd3578181015183820152602001610bbb565b50505050905090810190601f168015610c005780820380516001836020036101000a031916815260200191505b50838103825285518152855160209182019187019080838360005b83811015610c33578181015183820152602001610c1b565b50505050905090810190601f168015610c605780820380516001836020036101000a031916815260200191505b50965050505050505060405180910390a39998505050505050505050565b6001546001600160a01b03163314610cc75760405162461bcd60e51b8152600401808060200182810382526038815260200180611aaf6038913960400191505060405180910390fd5b60008054336001600160a01b031991821617808355600180549092169091556040516001600160a01b03909116917f71614071b88dee5e0b2ae578a9dd7b2ebbe9ae832ba419dc0242cd065a290b6c91a2565b6001546001600160a01b031681565b6000610d3361140c565b15610d6f5760405162461bcd60e51b8152600401808060200182810382526024815260200180611a8b6024913960400191505060405180910390fd5b6000546001600160a01b03163314610db85760405162461bcd60e51b8152600401808060200182810382526036815260200180611b1f6036913960400191505060405180910390fd5b600254610dc6904290611811565b821015610e045760405162461bcd60e51b8152600401808060200182810382526049815260200180611b926049913960600191505060405180910390fd5b6000868686868660405160200180866001600160a01b031681526020018581526020018060200180602001848152602001838103835286818151815260200191508051906020019080838360005b83811015610e6a578181015183820152602001610e52565b50505050905090810190601f168015610e975780820380516001836020036101000a031916815260200191505b50838103825285518152855160209182019187019080838360005b83811015610eca578181015183820152602001610eb2565b50505050905090810190601f168015610ef75780820380516001836020036101000a031916815260200191505b5097505050505050505060405160208183030381529060405280519060200120905060016004600083815260200190815260200160002060006101000a81548160ff021916908315150217905550866001600160a01b0316817f76e2796dc3a81d57b0e8504b647febcbeeb5f4af818e164f11eef8131a6a763f88888888604051808581526020018060200180602001848152602001838103835286818151815260200191508051906020019080838360005b83811015610fc2578181015183820152602001610faa565b50505050905090810190601f168015610fef5780820380516001836020036101000a031916815260200191505b50838103825285518152855160209182019187019080838360005b8381101561102257818101518382015260200161100a565b50505050905090810190601f16801561104f5780820380516001836020036101000a031916815260200191505b50965050505050505060405180910390a39695505050505050565b60035460ff16156110b8573330146110b35760405162461bcd60e51b8152600401808060200182810382526038815260200180611ae76038913960400191505060405180910390fd5b61110f565b6000546001600160a01b031633146111015760405162461bcd60e51b815260040180806020018281038252603b8152602001806119db603b913960400191505060405180910390fd5b6003805460ff191660011790555b600180546001600160a01b0319166001600160a01b0383811691909117918290556040519116907f69d78e38a01985fbb1462961809b4b2d65531bc93b2b94037f3334b82ca4a75690600090a250565b6000546001600160a01b031633146111a85760405162461bcd60e51b81526004018080602001828103825260378152602001806118f86037913960400191505060405180910390fd5b6000858585858560405160200180866001600160a01b031681526020018581526020018060200180602001848152602001838103835286818151815260200191508051906020019080838360005b8381101561120e5781810151838201526020016111f6565b50505050905090810190601f16801561123b5780820380516001836020036101000a031916815260200191505b50838103825285518152855160209182019187019080838360005b8381101561126e578181015183820152602001611256565b50505050905090810190601f16801561129b5780820380516001836020036101000a031916815260200191505b5097505050505050505060405160208183030381529060405280519060200120905060006004600083815260200190815260200160002060006101000a81548160ff021916908315150217905550856001600160a01b0316817f2fffc091a501fd91bfbff27141450d3acb40fb8e6d8382b243ec7a812a3aaf8787878787604051808581526020018060200180602001848152602001838103835286818151815260200191508051906020019080838360005b8381101561136657818101518382015260200161134e565b50505050905090810190601f1680156113935780820380516001836020036101000a031916815260200191505b50838103825285518152855160209182019187019080838360005b838110156113c65781810151838201526020016113ae565b50505050905090810190601f1680156113f35780820380516001836020036101000a031916815260200191505b50965050505050505060405180910390a3505050505050565b60006007546114a16005738798249c2e607446efb7ad49ec89dd1865ff42726001600160a01b03166318160ddd6040518163ffffffff1660e01b815260040160206040518083038186803b15801561146357600080fd5b505afa158015611477573d6000803e3d6000fd5b505050506040513d602081101561148d57600080fd5b50518161149657fe5b600854919004611811565b10905090565b80156114ec57336000908152600560205260409020546114c7908361186f565b336000908152600560205260409020556007546114e4908361186f565b600755611527565b33600090815260066020526040902054611506908361186f565b33600090815260066020526040902055600854611523908361186f565b6008555b6040805163a9059cbb60e01b8152336004820152602481018490529051738798249c2e607446efb7ad49ec89dd1865ff42729163a9059cbb9160448083019260209291908290030181600087803b15801561158157600080fd5b505af1158015611595573d6000803e3d6000fd5b505050506040513d60208110156115ab57600080fd5b50516115f0576040805162461bcd60e51b815260206004820152600f60248201526e1d1c985b9cd9995c8819985a5b1959608a1b604482015290519081900360640190fd5b5050565b60025481565b60035460ff1681565b62278d0081565b801561164f573360009081526005602052604090205461162a9083611811565b336000908152600560205260409020556007546116479083611811565b60075561168a565b336000908152600660205260409020546116699083611811565b336000908152600660205260409020556008546116869083611811565b6008555b604080516323b872dd60e01b8152336004820152306024820152604481018490529051738798249c2e607446efb7ad49ec89dd1865ff4272916323b872dd9160648083019260209291908290030181600087803b15801561158157600080fd5b6202a30081565b6212750081565b3330146117365760405162461bcd60e51b8152600401808060200182810382526031815260200180611bdb6031913960400191505060405180910390fd5b6202a3008110156117785760405162461bcd60e51b81526004018080602001828103825260348152602001806119a76034913960400191505060405180910390fd5b62278d008111156117ba5760405162461bcd60e51b8152600401808060200182810382526038815260200180611a166038913960400191505060405180910390fd5b600281905560405181907f948b1f6a42ee138b7e34058ba85a37f716d55ff25ff05a763f15bed6a04c8d2c90600090a250565b60046020526000908152604090205460ff1681565b6000546001600160a01b031681565b81810181811015611869576040805162461bcd60e51b815260206004820152601860248201527f426f72696e674d6174683a20416464204f766572666c6f770000000000000000604482015290519081900360640190fd5b92915050565b80820382811115611869576040805162461bcd60e51b8152602060048201526015602482015274426f72696e674d6174683a20556e646572666c6f7760581b604482015290519081900360640190fdfe54696d656c6f636b3a3a657865637574655472616e73616374696f6e3a2043616c6c206d75737420636f6d652066726f6d2061646d696e2e54696d656c6f636b3a3a63616e63656c5472616e73616374696f6e3a2043616c6c206d75737420636f6d652066726f6d2061646d696e2e54696d656c6f636b3a3a657865637574655472616e73616374696f6e3a205472616e73616374696f6e206973207374616c652e54696d656c6f636b3a3a657865637574655472616e73616374696f6e3a205472616e73616374696f6e206861736e2774207375727061737365642074696d65206c6f636b2e54696d656c6f636b3a3a73657444656c61793a2044656c6179206d75737420657863656564206d696e696d756d2064656c61792e54696d656c6f636b3a3a73657450656e64696e6741646d696e3a2046697273742063616c6c206d75737420636f6d652066726f6d2061646d696e2e54696d656c6f636b3a3a73657444656c61793a2044656c6179206d757374206e6f7420657863656564206d6178696d756d2064656c61792e54696d656c6f636b3a3a657865637574655472616e73616374696f6e3a205472616e73616374696f6e206861736e2774206265656e207175657565642e54696d656c6f636b3a3a657865637574655472616e73616374696f6e3a2070617573656454696d656c6f636b3a3a61636365707441646d696e3a2043616c6c206d75737420636f6d652066726f6d2070656e64696e6741646d696e2e54696d656c6f636b3a3a73657450656e64696e6741646d696e3a2043616c6c206d75737420636f6d652066726f6d2054696d656c6f636b2e54696d656c6f636b3a3a71756575655472616e73616374696f6e3a2043616c6c206d75737420636f6d652066726f6d2061646d696e2e54696d656c6f636b3a3a657865637574655472616e73616374696f6e3a205472616e73616374696f6e20657865637574696f6e2072657665727465642e54696d656c6f636b3a3a71756575655472616e73616374696f6e3a20457374696d6174656420657865637574696f6e20626c6f636b206d75737420736174697366792064656c61792e54696d656c6f636b3a3a73657444656c61793a2043616c6c206d75737420636f6d652066726f6d2054696d656c6f636b2ea26469706673582212206c563de4f3d25dc343b5b28b59f21f03d87beca7f8533c7e2b6e083f1f4f8d4f64736f6c634300060c003354696d656c6f636b3a3a636f6e7374727563746f723a2044656c6179206d757374206e6f7420657863656564206d6178696d756d2064656c61792e54696d656c6f636b3a3a636f6e7374727563746f723a2044656c6179206d75737420657863656564206d696e696d756d2064656c61792e",
  "immutableReferences": {},
  "source": "pragma solidity ^0.6.12;\n\n// a library for performing overflow-safe math, updated with awesomeness from of DappHub (https://github.com/dapphub/ds-math)\nlibrary BoringMath {\n    function add(uint256 a, uint256 b) internal pure returns (uint256 c) {\n        require((c = a + b) >= b, 'BoringMath: Add Overflow');\n    }\n\n    function sub(uint256 a, uint256 b) internal pure returns (uint256 c) {\n        require((c = a - b) <= a, 'BoringMath: Underflow');\n    }\n\n    function mul(uint256 a, uint256 b) internal pure returns (uint256 c) {\n        require(b == 0 || (c = a * b) / b == a, 'BoringMath: Mul Overflow');\n    }\n}\n\ninterface IERC20 {\n    function totalSupply() external view returns (uint256);\n\n    function transfer(address recipient, uint256 amount) external returns (bool);\n\n    function transferFrom(\n        address sender,\n        address recipient,\n        uint256 amount\n    ) external returns (bool);\n}\n\n// File: contracts/Timelock.sol\n\n// COPIED FROM https://github.com/compound-finance/compound-protocol/blob/master/contracts/Governance/GovernorAlpha.sol\n// Copyright 2020 Compound Labs, Inc.\n// Redistribution and use in source and binary forms, with or without modification, are permitted provided that the following conditions are met:\n// 1. Redistributions of source code must retain the above copyright notice, this list of conditions and the following disclaimer.\n// 2. Redistributions in binary form must reproduce the above copyright notice, this list of conditions and the following disclaimer in the documentation and/or other materials provided with the distribution.\n// 3. Neither the name of the copyright holder nor the names of its contributors may be used to endorse or promote products derived from this software without specific prior written permission.\n// THIS SOFTWARE IS PROVIDED BY THE COPYRIGHT HOLDERS AND CONTRIBUTORS \"AS IS\" AND ANY EXPRESS OR IMPLIED WARRANTIES, INCLUDING, BUT NOT LIMITED TO, THE IMPLIED WARRANTIES OF MERCHANTABILITY AND FITNESS FOR A PARTICULAR PURPOSE ARE DISCLAIMED. IN NO EVENT SHALL THE COPYRIGHT HOLDER OR CONTRIBUTORS BE LIABLE FOR ANY DIRECT, INDIRECT, INCIDENTAL, SPECIAL, EXEMPLARY, OR CONSEQUENTIAL DAMAGES (INCLUDING, BUT NOT LIMITED TO, PROCUREMENT OF SUBSTITUTE GOODS OR SERVICES; LOSS OF USE, DATA, OR PROFITS; OR BUSINESS INTERRUPTION) HOWEVER CAUSED AND ON ANY THEORY OF LIABILITY, WHETHER IN CONTRACT, STRICT LIABILITY, OR TORT (INCLUDING NEGLIGENCE OR OTHERWISE) ARISING IN ANY WAY OUT OF THE USE OF THIS SOFTWARE, EVEN IF ADVISED OF THE POSSIBILITY OF SUCH DAMAGE.\n// Edited by ChefNomi and BoringCrypto\n\ncontract TimelockV2 {\n    using BoringMath for uint256;\n\n    event NewAdmin(address indexed newAdmin);\n    event NewPendingAdmin(address indexed newPendingAdmin);\n    event NewDelay(uint256 indexed newDelay);\n    event CancelTransaction(\n        bytes32 indexed txHash,\n        address indexed target,\n        uint256 value,\n        string signature,\n        bytes data,\n        uint256 eta\n    );\n    event ExecuteTransaction(\n        bytes32 indexed txHash,\n        address indexed target,\n        uint256 value,\n        string signature,\n        bytes data,\n        uint256 eta\n    );\n    event QueueTransaction(\n        bytes32 indexed txHash,\n        address indexed target,\n        uint256 value,\n        string signature,\n        bytes data,\n        uint256 eta\n    );\n\n    uint256 public constant GRACE_PERIOD = 14 days;\n    uint256 public constant MINIMUM_DELAY = 2 days;\n    uint256 public constant MAXIMUM_DELAY = 30 days;\n\n    address public admin;\n    address public pendingAdmin;\n    uint256 public delay;\n    bool public admin_initialized;\n\n    mapping(bytes32 => bool) public queuedTransactions;\n\n    constructor(address admin_, uint256 delay_) public {\n        require(delay_ >= MINIMUM_DELAY, 'Timelock::constructor: Delay must exceed minimum delay.');\n        require(delay_ <= MAXIMUM_DELAY, 'Timelock::constructor: Delay must not exceed maximum delay.');\n\n        admin = admin_;\n        delay = delay_;\n        admin_initialized = false;\n    }\n\n    // What is this for??\n    receive() external payable {}\n\n    function setDelay(uint256 delay_) public {\n        require(msg.sender == address(this), 'Timelock::setDelay: Call must come from Timelock.');\n        require(delay_ >= MINIMUM_DELAY, 'Timelock::setDelay: Delay must exceed minimum delay.');\n        require(delay_ <= MAXIMUM_DELAY, 'Timelock::setDelay: Delay must not exceed maximum delay.');\n        delay = delay_;\n\n        emit NewDelay(delay);\n    }\n\n    function acceptAdmin() public {\n        require(msg.sender == pendingAdmin, 'Timelock::acceptAdmin: Call must come from pendingAdmin.');\n        admin = msg.sender;\n        pendingAdmin = address(0);\n\n        emit NewAdmin(admin);\n    }\n\n    function setPendingAdmin(address pendingAdmin_) public {\n        // allows one time setting of admin for deployment purposes\n        if (admin_initialized) {\n            require(msg.sender == address(this), 'Timelock::setPendingAdmin: Call must come from Timelock.');\n        } else {\n            require(msg.sender == admin, 'Timelock::setPendingAdmin: First call must come from admin.');\n            admin_initialized = true;\n        }\n        pendingAdmin = pendingAdmin_;\n\n        emit NewPendingAdmin(pendingAdmin);\n    }\n\n    function queueTransaction(\n        address target,\n        uint256 value,\n        string memory signature,\n        bytes memory data,\n        uint256 eta\n    ) public returns (bytes32) {\n        require(!paused(), 'Timelock::executeTransaction: paused');\n        require(msg.sender == admin, 'Timelock::queueTransaction: Call must come from admin.');\n        require(\n            eta >= block.timestamp.add(delay),\n            'Timelock::queueTransaction: Estimated execution block must satisfy delay.'\n        );\n\n        bytes32 txHash = keccak256(abi.encode(target, value, signature, data, eta));\n        queuedTransactions[txHash] = true;\n\n        emit QueueTransaction(txHash, target, value, signature, data, eta);\n        return txHash;\n    }\n\n    function cancelTransaction(\n        address target,\n        uint256 value,\n        string memory signature,\n        bytes memory data,\n        uint256 eta\n    ) public {\n        require(msg.sender == admin, 'Timelock::cancelTransaction: Call must come from admin.');\n\n        bytes32 txHash = keccak256(abi.encode(target, value, signature, data, eta));\n        queuedTransactions[txHash] = false;\n\n        emit CancelTransaction(txHash, target, value, signature, data, eta);\n    }\n\n    address constant votingToken = 0x8798249c2E607446EfB7Ad49eC89dD1865Ff4272;\n    mapping(address => uint256) pauseVotes;\n    mapping(address => uint256) unpauseVotes;\n    uint256 pause;\n    uint256 unpause;\n\n    function addVotes(uint256 amount, bool pause_) public {\n        if (pause_) {\n            pauseVotes[msg.sender] = pauseVotes[msg.sender].add(amount);\n            pause = pause.add(amount);\n        } else {\n            unpauseVotes[msg.sender] = unpauseVotes[msg.sender].add(amount);\n            unpause = unpause.add(amount);\n        }\n        require(IERC20(votingToken).transferFrom(msg.sender, address(this), amount), 'transfer failed');\n    }\n\n    function removeVotes(uint256 amount, bool pause_) public {\n        if (pause_) {\n            pauseVotes[msg.sender] = pauseVotes[msg.sender].sub(amount);\n            pause = pause.sub(amount);\n        } else {\n            unpauseVotes[msg.sender] = unpauseVotes[msg.sender].sub(amount);\n            unpause = unpause.sub(amount);\n        }\n        require(IERC20(votingToken).transfer(msg.sender, amount), 'transfer failed');\n    }\n\n    function paused() public view returns (bool) {\n        return unpause.add(IERC20(votingToken).totalSupply() / 5) < pause;\n    }\n\n    function executeTransaction(\n        address target,\n        uint256 value,\n        string memory signature,\n        bytes memory data,\n        uint256 eta\n    ) public payable returns (bytes memory) {\n        require(!paused(), 'Timelock::executeTransaction: paused');\n        require(msg.sender == admin, 'Timelock::executeTransaction: Call must come from admin.');\n\n        bytes32 txHash = keccak256(abi.encode(target, value, signature, data, eta));\n        require(queuedTransactions[txHash], \"Timelock::executeTransaction: Transaction hasn't been queued.\");\n        require(\n            block.timestamp >= eta,\n            \"Timelock::executeTransaction: Transaction hasn't surpassed time lock.\"\n        );\n        require(\n            block.timestamp <= eta.add(GRACE_PERIOD),\n            'Timelock::executeTransaction: Transaction is stale.'\n        );\n\n        queuedTransactions[txHash] = false;\n\n        bytes memory callData;\n\n        if (bytes(signature).length == 0) {\n            callData = data;\n        } else {\n            callData = abi.encodePacked(bytes4(keccak256(bytes(signature))), data);\n        }\n\n        // solium-disable-next-line security/no-call-value\n        (bool success, bytes memory returnData) = target.call{value: value}(callData);\n        require(success, 'Timelock::executeTransaction: Transaction execution reverted.');\n\n        emit ExecuteTransaction(txHash, target, value, signature, data, eta);\n\n        return returnData;\n    }\n}\n",
  "sourcePath": "C:/Users/James/projects/signo/blockchain/contracts/TimeLockV2.sol",
  "compiler": {
    "name": "solc",
    "version": "0.6.12+commit.27d51765.Emscripten.clang"
  },
  "schemaVersion": "3.3.2",
  "updatedAt": "2020-12-15T21:51:30.144Z",
  "networkType": "ethereum",
  "devdoc": {
    "kind": "dev",
    "methods": {},
    "version": 1
  },
  "userdoc": {
    "kind": "user",
    "methods": {},
    "version": 1
  }
}