{
  "contractName": "Traverse",
  "abi": [
    {
      "anonymous": false,
      "inputs": [
        {
          "indexed": false,
          "internalType": "uint8",
          "name": "quadrant",
          "type": "uint8"
        },
        {
          "indexed": false,
          "internalType": "uint8",
          "name": "district",
          "type": "uint8"
        },
        {
          "indexed": false,
          "internalType": "uint8",
          "name": "sector",
          "type": "uint8"
        },
        {
          "indexed": false,
          "internalType": "uint256",
          "name": "star",
          "type": "uint256"
        }
      ],
      "name": "LogMove",
      "type": "event"
    },
    {
      "inputs": [
        {
          "internalType": "address",
          "name": "_gameStorage",
          "type": "address"
        }
      ],
      "name": "initialize",
      "outputs": [],
      "stateMutability": "nonpayable",
      "type": "function"
    },
    {
      "inputs": [
        {
          "components": [
            {
              "internalType": "uint8",
              "name": "quadrant",
              "type": "uint8"
            },
            {
              "internalType": "uint8",
              "name": "sector",
              "type": "uint8"
            },
            {
              "internalType": "uint8",
              "name": "district",
              "type": "uint8"
            },
            {
              "internalType": "uint256",
              "name": "star",
              "type": "uint256"
            }
          ],
          "internalType": "struct Types.Position",
          "name": "to",
          "type": "tuple"
        }
      ],
      "name": "move",
      "outputs": [],
      "stateMutability": "nonpayable",
      "type": "function"
    }
  ],
  "bytecode": "0x608060405234801561001057600080fd5b50610a23806100206000396000f3fe608060405234801561001057600080fd5b50600436106100365760003560e01c80638e905cfd1461003b578063c4d66de814610050575b600080fd5b61004e61004936600461073b565b610063565b005b61004e61005e366004610703565b610457565b6100f281603360009054906101000a90046001600160a01b03166001600160a01b031663cf677f576040518163ffffffff1660e01b815260040160806040518083038186803b1580156100b557600080fd5b505afa1580156100c9573d6000803e3d6000fd5b505050506040513d601f19601f820116820180604052508101906100ed919061079c565b61058f565b6101175760405162461bcd60e51b815260040161010e90610888565b60405180910390fd5b61011f6106dc565b603354604051633495a7e360e11b81526001600160a01b039091169063692b4fc69061014f903390600401610815565b60806040518083038186803b15801561016757600080fd5b505afa15801561017b573d6000803e3d6000fd5b505050506040513d601f19601f8201168201806040525081019061019f919061079c565b90506101aa81610643565b1561023c57603360009054906101000a90046001600160a01b03166001600160a01b0316636d18c9706040518163ffffffff1660e01b815260040160806040518083038186803b1580156101fd57600080fd5b505afa158015610211573d6000803e3d6000fd5b505050506040513d601f19601f82011682018060405250810190610235919061079c565b905061029f565b603454604051636f6ff40560e01b81526001600160a01b0390911690636f6ff4059061026c903390600401610815565b600060405180830381600087803b15801561028657600080fd5b505af115801561029a573d6000803e3d6000fd5b505050505b6102a9828261067b565b156102c65760405162461bcd60e51b815260040161010e90610933565b60335460345460408051630a86ef0d60e21b815290516001600160a01b039384169363c774a94e933393911691632a1bbc34916004808201926020929091908290030181600087803b15801561031b57600080fd5b505af115801561032f573d6000803e3d6000fd5b505050506040513d601f19601f8201168201806040525081019061035391906107fd565b6040518363ffffffff1660e01b815260040161037092919061086f565b600060405180830381600087803b15801561038a57600080fd5b505af115801561039e573d6000803e3d6000fd5b505060335460405163bedc6d2760e01b81526001600160a01b03909116925063bedc6d2791506103d49033908690600401610829565b600060405180830381600087803b1580156103ee57600080fd5b505af1158015610402573d6000803e3d6000fd5b505050507f067ed149b8be43d30a47ed69bc882367f66239804079b28dd002d36fc3f46ed4826000015183604001518460200151856060015160405161044b949392919061097b565b60405180910390a15050565b600054610100900460ff168061047057506104706106d6565b8061047e575060005460ff16155b61049a5760405162461bcd60e51b815260040161010e906108e5565b600054610100900460ff161580156104c5576000805460ff1961ff0019909116610100171660011790555b603380546001600160a01b0319166001600160a01b03848116919091179182905560408051636ec6883d60e01b815290519290911691636ec6883d91600480820192602092909190829003018186803b15801561052157600080fd5b505afa158015610535573d6000803e3d6000fd5b505050506040513d601f19601f82011682018060405250810190610559919061071f565b603480546001600160a01b0319166001600160a01b0392909216919091179055801561058b576000805461ff00191690555b5050565b815160009060ff1615806105ab57508151835160ff9182169116115b156105b85750600061063d565b604083015160ff1615806105d95750816040015160ff16836040015160ff16115b156105e65750600061063d565b602083015160ff1615806106075750816020015160ff16836020015160ff16115b156106145750600061063d565b6060830151158061062c575081606001518360600151115b156106395750600061063d565b5060015b92915050565b805160009060ff16158061065c5750604082015160ff16155b8061066c5750602082015160ff16155b8061063d575050606001511590565b8051825160009160ff91821691161480156106a35750816040015160ff16836040015160ff16145b80156106bc5750816020015160ff16836020015160ff16145b80156106cf575081606001518360600151145b9392505050565b303b1590565b60408051608081018252600080825260208201819052918101829052606081019190915290565b600060208284031215610714578081fd5b81356106cf816109c6565b600060208284031215610730578081fd5b81516106cf816109c6565b60006080828403121561074c578081fd5b610756608061099f565b8235610761816109de565b81526020830135610771816109de565b60208201526040830135610784816109de565b60408201526060928301359281019290925250919050565b6000608082840312156107ad578081fd5b6107b7608061099f565b82516107c2816109de565b815260208301516107d2816109de565b602082015260408301516107e5816109de565b60408201526060928301519281019290925250919050565b60006020828403121561080e578081fd5b5051919050565b6001600160a01b0391909116815260200190565b6001600160a01b03929092168252805160ff9081166020808501919091528201518116604080850191909152820151166060808401919091520151608082015260a00190565b6001600160a01b03929092168252602082015260400190565b60208082526038908201527f506f736974696f6e206d7573742062652077697468696e20736574206c696d6960408201527f7473206f6620746865206b6e6f776e20756e6976657273650000000000000000606082015260800190565b6020808252602e908201527f436f6e747261637420696e7374616e63652068617320616c726561647920626560408201526d195b881a5b9a5d1a585b1a5e995960921b606082015260800190565b60208082526028908201527f596f752063616e6e6f74206d6f766520746f20796f75722063757272656e74206040820152673637b1b0ba34b7b760c11b606082015260800190565b60ff9485168152928416602084015292166040820152606081019190915260800190565b60405181810167ffffffffffffffff811182821017156109be57600080fd5b604052919050565b6001600160a01b03811681146109db57600080fd5b50565b60ff811681146109db57600080fdfea2646970667358221220355c1efd5c947982e52f740396c6cc4ecc286511c7cf21e305c653ee293d00d564736f6c634300060c0033",
  "immutableReferences": {},
  "source": "// SPDX-License-Identifier: MIT\n\npragma solidity 0.6.12;\npragma experimental ABIEncoderV2;\n\nimport {Initializable} from '@openzeppelin/upgrades-core/contracts/Initializable.sol';\nimport {Types} from './lib/Types.sol';\nimport {GameStorage} from './GameStorage.sol';\nimport {GameEvents} from './GameEvents.sol';\n\n/**\n * @title Operation\n * @author Big Beluga\n *\n * Primary public function for entering into the protocol\n */\ncontract Traverse is Initializable {\n    GameStorage GS;\n    GameEvents GE;\n\n    // ============ Events ============\n    event LogMove(uint8 quadrant, uint8 district, uint8 sector, uint256 star);\n\n    /**\n     *   Initialize - init function\n     *   @param _gameStorage - the address of the games eternal storage\n     */\n    function initialize(address _gameStorage) public initializer {\n        GS = GameStorage(_gameStorage);\n        GE = GameEvents(GS.getGameEventsAddress());\n    }\n\n    /**\n     *   Move - Moves a Star fleet to a new position.\n     *   @param to - the location the user wishes to move their fleet to.\n     */\n    function move(Types.Position memory to) public {\n        require(\n            Types.positionWithinBoundaries(to, GS.getBoundaries()),\n            'Position must be within set limits of the known universe'\n        );\n\n        // Get the fleets current position.\n        Types.Position memory from = GS.getMasterFleetPosition(msg.sender);\n\n        // If an addresses position is not on chain we have a new user.\n        // We shall set the users from position to be the Generic start position\n        // Events can not be triggered on a users first move into space\n        if (Types.positionNotSet(from)) {\n            from = GS.getStartPosition();\n        } else {\n            // Trigger Event\n            GE.trigger(msg.sender);\n        }\n\n        require(!Types.positionIsEqual(to, from), 'You cannot move to your current location');\n\n        // Create and store the next event in store for the user in a private mapping\n        GS.setUserAddressToGameEvent(msg.sender, GE.generate());\n\n        GS.setMasterFleetPosition(msg.sender, to);\n        emit LogMove(to.quadrant, to.district, to.sector, to.star);\n    }\n}\n",
  "sourcePath": "C:/Users/James/projects/tsuno-fe/contracts/Traverse.sol",
  "compiler": {
    "name": "solc",
    "version": "0.6.12+commit.27d51765.Emscripten.clang"
  },
  "schemaVersion": "3.2.5",
  "updatedAt": "2020-11-15T18:28:43.942Z",
  "networkType": "ethereum",
  "devdoc": {
    "author": "Big Beluga Primary public function for entering into the protocol",
    "kind": "dev",
    "methods": {
      "initialize(address)": {
        "params": {
          "_gameStorage": "- the address of the games eternal storage"
        }
      },
      "move((uint8,uint8,uint8,uint256))": {
        "params": {
          "to": "- the location the user wishes to move their fleet to."
        }
      }
    },
    "title": "Operation",
    "version": 1
  },
  "userdoc": {
    "kind": "user",
    "methods": {
      "initialize(address)": {
        "notice": "Initialize - init function"
      },
      "move((uint8,uint8,uint8,uint256))": {
        "notice": "Move - Moves a Star fleet to a new position."
      }
    },
    "version": 1
  }
}