{
  "contractName": "Treasury",
  "abi": [
    {
      "anonymous": false,
      "inputs": [
        {
          "indexed": true,
          "internalType": "address",
          "name": "previousOwner",
          "type": "address"
        },
        {
          "indexed": true,
          "internalType": "address",
          "name": "newOwner",
          "type": "address"
        }
      ],
      "name": "OwnershipTransferred",
      "type": "event"
    },
    {
      "inputs": [
        {
          "internalType": "address",
          "name": "",
          "type": "address"
        },
        {
          "internalType": "address",
          "name": "",
          "type": "address"
        },
        {
          "internalType": "uint256[]",
          "name": "",
          "type": "uint256[]"
        },
        {
          "internalType": "uint256[]",
          "name": "",
          "type": "uint256[]"
        },
        {
          "internalType": "bytes",
          "name": "",
          "type": "bytes"
        }
      ],
      "name": "onERC1155BatchReceived",
      "outputs": [
        {
          "internalType": "bytes4",
          "name": "",
          "type": "bytes4"
        }
      ],
      "stateMutability": "nonpayable",
      "type": "function"
    },
    {
      "inputs": [
        {
          "internalType": "address",
          "name": "",
          "type": "address"
        },
        {
          "internalType": "address",
          "name": "",
          "type": "address"
        },
        {
          "internalType": "uint256",
          "name": "",
          "type": "uint256"
        },
        {
          "internalType": "uint256",
          "name": "",
          "type": "uint256"
        },
        {
          "internalType": "bytes",
          "name": "",
          "type": "bytes"
        }
      ],
      "name": "onERC1155Received",
      "outputs": [
        {
          "internalType": "bytes4",
          "name": "",
          "type": "bytes4"
        }
      ],
      "stateMutability": "nonpayable",
      "type": "function"
    },
    {
      "inputs": [
        {
          "internalType": "address",
          "name": "",
          "type": "address"
        },
        {
          "internalType": "address",
          "name": "",
          "type": "address"
        },
        {
          "internalType": "uint256",
          "name": "",
          "type": "uint256"
        },
        {
          "internalType": "bytes",
          "name": "",
          "type": "bytes"
        }
      ],
      "name": "onERC721Received",
      "outputs": [
        {
          "internalType": "bytes4",
          "name": "",
          "type": "bytes4"
        }
      ],
      "stateMutability": "nonpayable",
      "type": "function"
    },
    {
      "inputs": [],
      "name": "owner",
      "outputs": [
        {
          "internalType": "address",
          "name": "",
          "type": "address"
        }
      ],
      "stateMutability": "view",
      "type": "function"
    },
    {
      "inputs": [],
      "name": "renounceOwnership",
      "outputs": [],
      "stateMutability": "nonpayable",
      "type": "function"
    },
    {
      "inputs": [
        {
          "internalType": "bytes4",
          "name": "interfaceId",
          "type": "bytes4"
        }
      ],
      "name": "supportsInterface",
      "outputs": [
        {
          "internalType": "bool",
          "name": "",
          "type": "bool"
        }
      ],
      "stateMutability": "view",
      "type": "function"
    },
    {
      "inputs": [
        {
          "internalType": "address",
          "name": "newOwner",
          "type": "address"
        }
      ],
      "name": "transferOwnership",
      "outputs": [],
      "stateMutability": "nonpayable",
      "type": "function"
    },
    {
      "inputs": [
        {
          "internalType": "address",
          "name": "_planets",
          "type": "address"
        },
        {
          "internalType": "address",
          "name": "_solar",
          "type": "address"
        },
        {
          "internalType": "address",
          "name": "_sats",
          "type": "address"
        },
        {
          "internalType": "address",
          "name": "_gameOperations",
          "type": "address"
        },
        {
          "internalType": "address",
          "name": "_planetManager",
          "type": "address"
        }
      ],
      "name": "initialize",
      "outputs": [],
      "stateMutability": "nonpayable",
      "type": "function"
    },
    {
      "inputs": [
        {
          "internalType": "address",
          "name": "_operator",
          "type": "address"
        }
      ],
      "name": "addOperator",
      "outputs": [],
      "stateMutability": "nonpayable",
      "type": "function"
    },
    {
      "inputs": [
        {
          "internalType": "address",
          "name": "_to",
          "type": "address"
        },
        {
          "internalType": "uint256[]",
          "name": "_ids",
          "type": "uint256[]"
        },
        {
          "internalType": "uint256[]",
          "name": "_amounts",
          "type": "uint256[]"
        }
      ],
      "name": "sendSats",
      "outputs": [],
      "stateMutability": "nonpayable",
      "type": "function"
    },
    {
      "inputs": [
        {
          "internalType": "address",
          "name": "_from",
          "type": "address"
        },
        {
          "internalType": "uint256[]",
          "name": "_ids",
          "type": "uint256[]"
        },
        {
          "internalType": "uint256[]",
          "name": "_amounts",
          "type": "uint256[]"
        }
      ],
      "name": "recieveSats",
      "outputs": [],
      "stateMutability": "nonpayable",
      "type": "function"
    },
    {
      "inputs": [
        {
          "internalType": "address",
          "name": "_to",
          "type": "address"
        },
        {
          "internalType": "uint256",
          "name": "_tokenId",
          "type": "uint256"
        }
      ],
      "name": "mintPlanet",
      "outputs": [],
      "stateMutability": "nonpayable",
      "type": "function"
    },
    {
      "inputs": [
        {
          "internalType": "address",
          "name": "_from",
          "type": "address"
        },
        {
          "internalType": "uint256",
          "name": "_tokenId",
          "type": "uint256"
        }
      ],
      "name": "recievePlanet",
      "outputs": [],
      "stateMutability": "nonpayable",
      "type": "function"
    },
    {
      "inputs": [
        {
          "internalType": "address",
          "name": "_from",
          "type": "address"
        },
        {
          "internalType": "address",
          "name": "_to",
          "type": "address"
        },
        {
          "internalType": "uint256",
          "name": "_tokenId",
          "type": "uint256"
        }
      ],
      "name": "transferPlanet",
      "outputs": [],
      "stateMutability": "nonpayable",
      "type": "function"
    },
    {
      "inputs": [
        {
          "internalType": "address",
          "name": "_to",
          "type": "address"
        },
        {
          "internalType": "uint256",
          "name": "_tokenId",
          "type": "uint256"
        }
      ],
      "name": "sendPlanet",
      "outputs": [],
      "stateMutability": "nonpayable",
      "type": "function"
    },
    {
      "inputs": [
        {
          "internalType": "address",
          "name": "_to",
          "type": "address"
        },
        {
          "internalType": "uint256",
          "name": "_amount",
          "type": "uint256"
        }
      ],
      "name": "mintSolar",
      "outputs": [],
      "stateMutability": "nonpayable",
      "type": "function"
    },
    {
      "inputs": [
        {
          "internalType": "address",
          "name": "_to",
          "type": "address"
        },
        {
          "internalType": "uint256",
          "name": "_amount",
          "type": "uint256"
        }
      ],
      "name": "sendSolar",
      "outputs": [],
      "stateMutability": "nonpayable",
      "type": "function"
    },
    {
      "inputs": [
        {
          "internalType": "address",
          "name": "_to",
          "type": "address"
        },
        {
          "internalType": "uint256",
          "name": "_amount",
          "type": "uint256"
        },
        {
          "internalType": "uint256",
          "name": "_reward",
          "type": "uint256"
        }
      ],
      "name": "sendSolarReward",
      "outputs": [],
      "stateMutability": "nonpayable",
      "type": "function"
    },
    {
      "inputs": [
        {
          "internalType": "address",
          "name": "_from",
          "type": "address"
        },
        {
          "internalType": "uint256",
          "name": "_amount",
          "type": "uint256"
        }
      ],
      "name": "recieveSolar",
      "outputs": [],
      "stateMutability": "nonpayable",
      "type": "function"
    }
  ],
  "bytecode": "0x608060405234801561001057600080fd5b506100216301ffc9a760e01b61008e565b610031630271189760e51b61008e565b600061003b6100e6565b600180546001600160a01b0319166001600160a01b038316908117909155604051919250906000907f8be0079c531659141344cd1fd0a4f28419497f9722a3daafe3b4186f6b6457e0908290a350610121565b6001600160e01b031980821614156100c15760405162461bcd60e51b81526004016100b8906100ea565b60405180910390fd5b6001600160e01b0319166000908152602081905260409020805460ff19166001179055565b3390565b6020808252601c908201527f4552433136353a20696e76616c696420696e7465726661636520696400000000604082015260600190565b611055806101306000396000f3fe608060405234801561001057600080fd5b50600436106101215760003560e01c806391c137da116100ad578063dd78d1c411610071578063dd78d1c41461024c578063e9f40eb91461025f578063f23a6e6114610272578063f2fde38b14610285578063feba2dd51461029857610121565b806391c137da146101ed57806391cdef18146102005780639870d7fe14610213578063ba1edf1714610226578063bc197c811461023957610121565b80631879986d116100f45780631879986d146101975780631f999fc9146101aa578063410f29d3146101bd578063715018a6146101d05780638da5cb5b146101d857610121565b806301ffc9a71461012657806306a7d33f1461014f5780631459457a14610164578063150b7a0214610177575b600080fd5b610139610134366004610e13565b6102ab565b6040516101469190610f1e565b60405180910390f35b61016261015d366004610c36565b6102ca565b005b610162610172366004610b23565b61036d565b61018a610185366004610c76565b610418565b6040516101469190610f29565b6101626101a5366004610de0565b610428565b6101626101b8366004610db6565b6104ed565b6101626101cb366004610db6565b610584565b6101626105e5565b6101e0610664565b6040516101469190610e75565b6101626101fb366004610db6565b610673565b61016261020e366004610db6565b6106d6565b610162610221366004610b01565b610739565b610162610234366004610d43565b610792565b61018a610247366004610b8c565b6107f6565b61016261025a366004610db6565b610807565b61016261026d366004610db6565b610868565b61018a610280366004610cde565b6108cb565b610162610293366004610b01565b6108dc565b6101626102a6366004610d43565b610993565b6001600160e01b03191660009081526020819052604090205460ff1690565b3360009081526005602052604090205460ff166103025760405162461bcd60e51b81526004016102f990610fb9565b60405180910390fd5b600254604051632142170760e11b81526001600160a01b03909116906342842e0e9061033690869086908690600401610ee1565b600060405180830381600087803b15801561035057600080fd5b505af1158015610364573d6000803e3d6000fd5b50505050505050565b6103756109f7565b6001546001600160a01b039081169116146103a25760405162461bcd60e51b81526004016102f990610f84565b600280546001600160a01b03199081166001600160a01b0397881617909155600380548216958716959095179094556004805490941692851692909217909255908216600090815260056020526040808220805460ff199081166001908117909255939094168252902080549091169091179055565b630a85bd0160e11b949350505050565b3360009081526005602052604090205460ff166104575760405162461bcd60e51b81526004016102f990610fb9565b60035460405163a9059cbb60e01b81526001600160a01b039091169063a9059cbb906104899086908690600401610f05565b600060405180830381600087803b1580156104a357600080fd5b505af11580156104b7573d6000803e3d6000fd5b50506003546040516340c10f1960e01b81526001600160a01b0390911692506340c10f1991506103369086908590600401610f05565b3360009081526005602052604090205460ff1661051c5760405162461bcd60e51b81526004016102f990610fb9565b6003546040516340c10f1960e01b81526001600160a01b03909116906340c10f199061054e9085908590600401610f05565b600060405180830381600087803b15801561056857600080fd5b505af115801561057c573d6000803e3d6000fd5b505050505050565b3360009081526005602052604090205460ff166105b35760405162461bcd60e51b81526004016102f990610fb9565b60035460405163a9059cbb60e01b81526001600160a01b039091169063a9059cbb9061054e9085908590600401610f05565b6105ed6109f7565b6001546001600160a01b0390811691161461061a5760405162461bcd60e51b81526004016102f990610f84565b6001546040516000916001600160a01b0316907f8be0079c531659141344cd1fd0a4f28419497f9722a3daafe3b4186f6b6457e0908390a3600180546001600160a01b0319169055565b6001546001600160a01b031690565b3360009081526005602052604090205460ff166106a25760405162461bcd60e51b81526004016102f990610fb9565b600254604051632142170760e11b81526001600160a01b03909116906342842e0e9061054e90309086908690600401610ee1565b3360009081526005602052604090205460ff166107055760405162461bcd60e51b81526004016102f990610fb9565b600254604051632142170760e11b81526001600160a01b03909116906342842e0e9061054e90859030908690600401610ee1565b6107416109f7565b6001546001600160a01b0390811691161461076e5760405162461bcd60e51b81526004016102f990610f84565b6001600160a01b03166000908152600560205260409020805460ff19166001179055565b3360009081526005602052604090205460ff166107c15760405162461bcd60e51b81526004016102f990610fb9565b60048054604051631759616b60e11b81526001600160a01b0390911691632eb2c2d69161033691309188918891889101610e89565b63bc197c8160e01b95945050505050565b3360009081526005602052604090205460ff166108365760405162461bcd60e51b81526004016102f990610fb9565b6002546040516340c10f1960e01b81526001600160a01b03909116906340c10f199061054e9085908590600401610f05565b3360009081526005602052604090205460ff166108975760405162461bcd60e51b81526004016102f990610fb9565b6003546040516323b872dd60e01b81526001600160a01b03909116906323b872dd9061054e90859030908690600401610ee1565b63f23a6e6160e01b95945050505050565b6108e46109f7565b6001546001600160a01b039081169116146109115760405162461bcd60e51b81526004016102f990610f84565b6001600160a01b0381166109375760405162461bcd60e51b81526004016102f990610f3e565b6001546040516001600160a01b038084169216907f8be0079c531659141344cd1fd0a4f28419497f9722a3daafe3b4186f6b6457e090600090a3600180546001600160a01b0319166001600160a01b0392909216919091179055565b3360009081526005602052604090205460ff166109c25760405162461bcd60e51b81526004016102f990610fb9565b60048054604051631759616b60e11b81526001600160a01b0390911691632eb2c2d69161033691879130918891889101610e89565b3390565b80356001600160a01b0381168114610a1257600080fd5b92915050565b600082601f830112610a28578081fd5b813567ffffffffffffffff811115610a3e578182fd5b6020808202610a4e828201610fe0565b83815293508184018583018287018401881015610a6a57600080fd5b600092505b84831015610a8d578035825260019290920191908301908301610a6f565b505050505092915050565b600082601f830112610aa8578081fd5b813567ffffffffffffffff811115610abe578182fd5b610ad1601f8201601f1916602001610fe0565b9150808252836020828501011115610ae857600080fd5b8060208401602084013760009082016020015292915050565b600060208284031215610b12578081fd5b610b1c83836109fb565b9392505050565b600080600080600060a08688031215610b3a578081fd5b610b4487876109fb565b9450610b5387602088016109fb565b9350610b6287604088016109fb565b9250610b7187606088016109fb565b9150610b8087608088016109fb565b90509295509295909350565b600080600080600060a08688031215610ba3578081fd5b8535610bae81611007565b94506020860135610bbe81611007565b9350604086013567ffffffffffffffff80821115610bda578283fd5b610be689838a01610a18565b94506060880135915080821115610bfb578283fd5b610c0789838a01610a18565b93506080880135915080821115610c1c578283fd5b50610c2988828901610a98565b9150509295509295909350565b600080600060608486031215610c4a578283fd5b8335610c5581611007565b92506020840135610c6581611007565b929592945050506040919091013590565b60008060008060808587031215610c8b578384fd5b610c9586866109fb565b9350610ca486602087016109fb565b925060408501359150606085013567ffffffffffffffff811115610cc6578182fd5b610cd287828801610a98565b91505092959194509250565b600080600080600060a08688031215610cf5578081fd5b610cff87876109fb565b9450610d0e87602088016109fb565b93506040860135925060608601359150608086013567ffffffffffffffff811115610d37578182fd5b610c2988828901610a98565b600080600060608486031215610d57578283fd5b8335610d6281611007565b9250602084013567ffffffffffffffff80821115610d7e578384fd5b610d8a87838801610a18565b93506040860135915080821115610d9f578283fd5b50610dac86828701610a18565b9150509250925092565b60008060408385031215610dc8578182fd5b610dd284846109fb565b946020939093013593505050565b600080600060608486031215610df4578283fd5b610dfe85856109fb565b95602085013595506040909401359392505050565b600060208284031215610e24578081fd5b81356001600160e01b031981168114610b1c578182fd5b6000815180845260208085019450808401835b83811015610e6a57815187529582019590820190600101610e4e565b509495945050505050565b6001600160a01b0391909116815260200190565b6001600160a01b0385811682528416602082015260a060408201819052600090610eb590830185610e3b565b8281036060840152610ec78185610e3b565b838103608090940193909352508152602001949350505050565b6001600160a01b039384168152919092166020820152604081019190915260600190565b6001600160a01b03929092168252602082015260400190565b901515815260200190565b6001600160e01b031991909116815260200190565b60208082526026908201527f4f776e61626c653a206e6577206f776e657220697320746865207a65726f206160408201526564647265737360d01b606082015260800190565b6020808252818101527f4f776e61626c653a2063616c6c6572206973206e6f7420746865206f776e6572604082015260600190565b6020808252600d908201526c27b7363c9027b832b930ba37b960991b604082015260600190565b60405181810167ffffffffffffffff81118282101715610fff57600080fd5b604052919050565b6001600160a01b038116811461101c57600080fd5b5056fea264697066735822122065fbe1f1e015bfb694915ab8f77707b44f166ce7c56e907ee233d69a141b0b5964736f6c634300060c0033",
  "immutableReferences": {},
  "source": "// SPDX-License-Identifier: MIT\n\npragma solidity 0.6.12;\npragma experimental ABIEncoderV2;\nimport {IPlanets} from './interfaces/IPlanets.sol';\nimport {ISolar} from './interfaces/ISolar.sol';\nimport {ISat} from './interfaces/ISat.sol';\nimport {EternalStorage} from './EternalStorage.sol';\nimport {ERC1155Holder} from '@openzeppelin/contracts/token/ERC1155/ERC1155Holder.sol';\nimport {ERC721Holder} from '@openzeppelin/contracts/token/ERC721/ERC721Holder.sol';\nimport {Ownable} from '@openzeppelin/contracts/access/Ownable.sol';\n\ncontract Treasury is ERC1155Holder, ERC721Holder, Ownable {\n    IPlanets planets;\n    ISolar solar;\n    ISat sats;\n    mapping(address => bool) operators;\n\n    modifier onlyOperator() {\n        // Make sure the access is permitted to only contracts in our Dapp\n        require(operators[msg.sender], 'Only Operator');\n        _;\n    }\n\n    function initialize(\n        address _planets,\n        address _solar,\n        address _sats,\n        address _gameOperations,\n        address _planetManager\n    ) public onlyOwner {\n        planets = IPlanets(_planets);\n        solar = ISolar(_solar);\n        sats = ISat(_sats);\n        operators[_gameOperations] = true;\n        operators[_planetManager] = true;\n    }\n\n    function addOperator(address _operator) public onlyOwner {\n        operators[_operator] = true;\n    }\n\n    function sendSats(\n        address _to,\n        uint256[] memory _ids,\n        uint256[] memory _amounts\n    ) public onlyOperator {\n        sats.safeBatchTransferFrom(address(this), _to, _ids, _amounts, '');\n    }\n\n    function recieveSats(\n        address _from,\n        uint256[] memory _ids,\n        uint256[] memory _amounts\n    ) public onlyOperator {\n        sats.safeBatchTransferFrom(_from, address(this), _ids, _amounts, '');\n    }\n\n    function mintPlanet(address _to, uint256 _tokenId) public onlyOperator {\n        planets.mint(_to, _tokenId);\n    }\n\n    function recievePlanet(address _from, uint256 _tokenId) public onlyOperator {\n        planets.safeTransferFrom(_from, address(this), _tokenId);\n    }\n\n    function transferPlanet(\n        address _from,\n        address _to,\n        uint256 _tokenId\n    ) public onlyOperator {\n        planets.safeTransferFrom(_from, _to, _tokenId);\n    }\n\n    function sendPlanet(address _to, uint256 _tokenId) public onlyOperator {\n        planets.safeTransferFrom(address(this), _to, _tokenId);\n    }\n\n    function mintSolar(address _to, uint256 _amount) public onlyOperator {\n        solar.mint(_to, _amount);\n    }\n\n    function sendSolar(address _to, uint256 _amount) public onlyOperator {\n        solar.transfer(_to, _amount);\n    }\n\n    function sendSolarReward(\n        address _to,\n        uint256 _amount,\n        uint256 _reward\n    ) public onlyOperator {\n        solar.transfer(_to, _amount);\n        solar.mint(_to, _reward);\n    }\n\n    function recieveSolar(address _from, uint256 _amount) public onlyOperator {\n        solar.transferFrom(_from, address(this), _amount);\n    }\n}\n",
  "sourcePath": "C:\\Users\\James\\projects\\tsuno-fe\\contracts\\Treasury.sol",
  "compiler": {
    "name": "solc",
    "version": "0.6.12+commit.27d51765.Emscripten.clang"
  },
  "schemaVersion": "3.2.5",
  "updatedAt": "2020-11-15T18:28:43.903Z",
  "networkType": "ethereum",
  "devdoc": {
    "kind": "dev",
    "methods": {
      "onERC721Received(address,address,uint256,bytes)": {
        "details": "See {IERC721Receiver-onERC721Received}. Always returns `IERC721Receiver.onERC721Received.selector`."
      },
      "owner()": {
        "details": "Returns the address of the current owner."
      },
      "renounceOwnership()": {
        "details": "Leaves the contract without owner. It will not be possible to call `onlyOwner` functions anymore. Can only be called by the current owner. NOTE: Renouncing ownership will leave the contract without an owner, thereby removing any functionality that is only available to the owner."
      },
      "supportsInterface(bytes4)": {
        "details": "See {IERC165-supportsInterface}. Time complexity O(1), guaranteed to always use less than 30 000 gas."
      },
      "transferOwnership(address)": {
        "details": "Transfers ownership of the contract to a new account (`newOwner`). Can only be called by the current owner."
      }
    },
    "version": 1
  },
  "userdoc": {
    "kind": "user",
    "methods": {},
    "version": 1
  }
}