{
  "contractName": "Types",
  "abi": [
    {
      "inputs": [],
      "name": "getFederationShips",
      "outputs": [
        {
          "internalType": "uint256[4]",
          "name": "",
          "type": "uint256[4]"
        }
      ],
      "stateMutability": "pure",
      "type": "function",
      "constant": true
    },
    {
      "inputs": [],
      "name": "getAlienShips",
      "outputs": [
        {
          "internalType": "uint256[4]",
          "name": "",
          "type": "uint256[4]"
        }
      ],
      "stateMutability": "pure",
      "type": "function",
      "constant": true
    },
    {
      "inputs": [],
      "name": "getAdvancedRaceShips",
      "outputs": [
        {
          "internalType": "uint256[4]",
          "name": "",
          "type": "uint256[4]"
        }
      ],
      "stateMutability": "pure",
      "type": "function",
      "constant": true
    },
    {
      "inputs": [],
      "name": "getAnecienteShips",
      "outputs": [
        {
          "internalType": "uint256[4]",
          "name": "",
          "type": "uint256[4]"
        }
      ],
      "stateMutability": "pure",
      "type": "function",
      "constant": true
    },
    {
      "inputs": [],
      "name": "getPirateShips",
      "outputs": [
        {
          "internalType": "uint256[1]",
          "name": "",
          "type": "uint256[1]"
        }
      ],
      "stateMutability": "pure",
      "type": "function",
      "constant": true
    },
    {
      "inputs": [],
      "name": "getAllNonAncientShips",
      "outputs": [
        {
          "internalType": "uint256[12]",
          "name": "",
          "type": "uint256[12]"
        }
      ],
      "stateMutability": "pure",
      "type": "function",
      "constant": true
    },
    {
      "inputs": [],
      "name": "getAllShips",
      "outputs": [
        {
          "internalType": "uint256[17]",
          "name": "",
          "type": "uint256[17]"
        }
      ],
      "stateMutability": "pure",
      "type": "function",
      "constant": true
    }
  ],
  "bytecode": "0x6103ab610026600b82828239805160001a60731461001957fe5b30600052607381538281f3fe73000000000000000000000000000000000000000030146080604052600436106100875760003560e01c806387b4450e1161006557806387b4450e146100f0578063c075a79b146100f8578063c0e6aff114610100578063d0ac5c1f1461011e57610087565b80633385d93b1461008c578063644767a9146100cc5780637785001d146100d4575b600080fd5b61009461013c565b6040518082608080838360005b838110156100b95781810151838201526020016100a1565b5050505090500191505060405180910390f35b61009461016f565b6100dc6101a0565b6040518151815280826020808383826100a1565b6100946101bb565b6100946101eb565b61010861021b565b60405181518152808261018080838360206100a1565b61012661026f565b60405181518152808261022080838360206100a1565b6101446102fb565b604080516080810190915280600d8152602001600e8152602001600c8152602001600f5b9052905090565b6101776102fb565b60408051608081019091528060095b8152602001600a815260200160088152602001600b610168565b6101a8610319565b6040805160208101909152806011610168565b6101c36102fb565b6040805160808101909152806001815260200160028152602001600081526020016003610168565b6101f36102fb565b6040805160808101909152806005815260200160068152602001600481526020016007610168565b610223610337565b6040805161018081019091528060018152602001600281526020016000815260200160038152602001600581526020016006815260200160048152602001600781526020016009610186565b610277610356565b60408051610220810190915280600181526020016002815260200160008152602001600381526020016005815260200160068152602001600481526020016007815260200160098152602001600a815260200160088152602001600b8152602001600d8152602001600e8152602001600c8152602001600f81526020016011610168565b60405180608001604052806004906020820280368337509192915050565b60405180602001604052806001906020820280368337509192915050565b604051806101800160405280600c906020820280368337509192915050565b604051806102200160405280601190602082028036833750919291505056fea2646970667358221220762a253fe3b1823d8536703fd5e4657ec048a5f1996dae6b4d62f3ff9d119dce64736f6c634300060c0033",
  "immutableReferences": {},
  "source": "pragma solidity 0.6.12;\n\nlibrary Types {\n    // STAR POSITION\n    struct Position {\n        uint8 quadrant;\n        uint8 sector;\n        uint8 district;\n        uint256 star;\n    }\n\n    function positionIsEqual(Position memory a, Position memory b) internal returns (bool) {\n        return (a.quadrant == b.quadrant &&\n            a.district == b.district &&\n            a.sector == b.sector &&\n            a.star == b.star);\n    }\n\n    function positionIsEqualUint(uint256 a, uint256 b) internal returns (bool) {\n        return a == b;\n    }\n\n    function positionNotSet(Position memory a) internal returns (bool) {\n        return (a.quadrant == 0 || a.district == 0 || a.sector == 0 || a.star == 0);\n    }\n\n    function positionWithinBoundaries(Position memory a, Position memory boundaries) internal returns (bool) {\n        if (a.quadrant <= 0 || a.quadrant > boundaries.quadrant) return false;\n        if (a.district <= 0 || a.district > boundaries.district) return false;\n        if (a.sector <= 0 || a.sector > boundaries.sector) return false;\n        if (a.star <= 0 || a.star > boundaries.star) return false;\n        return true;\n    }\n\n    // STAR SYSTEM\n\n    enum SystemType {\n        Undiscovered,\n        AncientFleetAggressive,\n        SuperComputerEvent,\n        AdvancedAlienFleetAggressive,\n        AiFleetAggressive,\n        AlienFleetAggressive,\n        PiratesEvent,\n        SolarWinds,\n        Asteroids,\n        Empty,\n        GovermentOwned,\n        LowYieldSystem,\n        RandomEvent,\n        MediumYieldSystem,\n        ShipWreck,\n        HighYieldSystem,\n        AncientMiningSystem,\n        AncientWeaponSystem,\n        AncientShipWreck,\n        InsaneYieldSystem,\n        AncientRacePassive\n    }\n    struct StarSystem {\n        SystemType systemType;\n        uint256 investment;\n        uint256 tokenId;\n        uint16 yield;\n        bool hasFleet;\n    }\n\n    enum ShipAndTechList {\n        FEDERATION_MASTER_VESSEL,\n        FEDERATION_CRUISER,\n        FEDERATION_DESTROYER,\n        FEDERATION_FIGHTER_PLANE,\n        ALIEN_MASTER_VESSEL,\n        ALIEN_CRUISER,\n        ALIEN_DESTROYER,\n        ALIEN_FIGHTER_PLANE,\n        ADVANCED_RACE_MASTER_VESSEL,\n        ADVANCED_RACE_CRUISER,\n        ADVANCED_RACE_DESTROYER,\n        ADVANCED_RACE_FIGHTER_PLANE,\n        ANCIENT_MASTER_VESSEL,\n        ANCIENT_CRUISER,\n        ANCIENT_DESTROYER,\n        ANCIENT_FIGHTER_PLANE,\n        ANCIENT_MARKET_SHIP,\n        PIRATE_SHIP\n    }\n\n    // SHIPS AND TECHNOLOGY\n    struct SatInfo {\n        uint256 amount;\n        uint256 id;\n    }\n\n    struct SatStats {\n        uint8 offense;\n        uint8 defense;\n    }\n\n    struct RangeUint8 {\n        uint8 low;\n        uint8 high;\n    }\n\n    struct Range {\n        uint256 low;\n        uint256 high;\n    }\n\n    function getFederationShips() public pure returns (uint256[4] memory) {\n        return [\n            uint256(ShipAndTechList.FEDERATION_CRUISER),\n            uint256(ShipAndTechList.FEDERATION_DESTROYER),\n            uint256(ShipAndTechList.FEDERATION_MASTER_VESSEL),\n            uint256(ShipAndTechList.FEDERATION_FIGHTER_PLANE)\n        ];\n    }\n\n    function getAlienShips() public pure returns (uint256[4] memory) {\n        return [\n            uint256(ShipAndTechList.ALIEN_CRUISER),\n            uint256(ShipAndTechList.ALIEN_DESTROYER),\n            uint256(ShipAndTechList.ALIEN_MASTER_VESSEL),\n            uint256(ShipAndTechList.ALIEN_FIGHTER_PLANE)\n        ];\n    }\n\n    function getAdvancedRaceShips() public pure returns (uint256[4] memory) {\n        return [\n            uint256(ShipAndTechList.ADVANCED_RACE_CRUISER),\n            uint256(ShipAndTechList.ADVANCED_RACE_DESTROYER),\n            uint256(ShipAndTechList.ADVANCED_RACE_MASTER_VESSEL),\n            uint256(ShipAndTechList.ADVANCED_RACE_FIGHTER_PLANE)\n        ];\n    }\n\n    function getAnecienteShips() public pure returns (uint256[4] memory) {\n        return [\n            uint256(ShipAndTechList.ANCIENT_CRUISER),\n            uint256(ShipAndTechList.ANCIENT_DESTROYER),\n            uint256(ShipAndTechList.ANCIENT_MASTER_VESSEL),\n            uint256(ShipAndTechList.ANCIENT_FIGHTER_PLANE)\n        ];\n    }\n\n    function getPirateShips() public pure returns (uint256[1] memory) {\n        return [uint256(ShipAndTechList.PIRATE_SHIP)];\n    }\n\n    function getAllNonAncientShips() public pure returns (uint256[12] memory) {\n        return [\n            uint256(ShipAndTechList.FEDERATION_CRUISER),\n            uint256(ShipAndTechList.FEDERATION_DESTROYER),\n            uint256(ShipAndTechList.FEDERATION_MASTER_VESSEL),\n            uint256(ShipAndTechList.FEDERATION_FIGHTER_PLANE),\n            uint256(ShipAndTechList.ALIEN_CRUISER),\n            uint256(ShipAndTechList.ALIEN_DESTROYER),\n            uint256(ShipAndTechList.ALIEN_MASTER_VESSEL),\n            uint256(ShipAndTechList.ALIEN_FIGHTER_PLANE),\n            uint256(ShipAndTechList.ADVANCED_RACE_CRUISER),\n            uint256(ShipAndTechList.ADVANCED_RACE_DESTROYER),\n            uint256(ShipAndTechList.ADVANCED_RACE_MASTER_VESSEL),\n            uint256(ShipAndTechList.ADVANCED_RACE_FIGHTER_PLANE)\n        ];\n    }\n\n    function getAllShips() public pure returns (uint256[17] memory) {\n        return [\n            uint256(ShipAndTechList.FEDERATION_CRUISER),\n            uint256(ShipAndTechList.FEDERATION_DESTROYER),\n            uint256(ShipAndTechList.FEDERATION_MASTER_VESSEL),\n            uint256(ShipAndTechList.FEDERATION_FIGHTER_PLANE),\n            uint256(ShipAndTechList.ALIEN_CRUISER),\n            uint256(ShipAndTechList.ALIEN_DESTROYER),\n            uint256(ShipAndTechList.ALIEN_MASTER_VESSEL),\n            uint256(ShipAndTechList.ALIEN_FIGHTER_PLANE),\n            uint256(ShipAndTechList.ADVANCED_RACE_CRUISER),\n            uint256(ShipAndTechList.ADVANCED_RACE_DESTROYER),\n            uint256(ShipAndTechList.ADVANCED_RACE_MASTER_VESSEL),\n            uint256(ShipAndTechList.ADVANCED_RACE_FIGHTER_PLANE),\n            uint256(ShipAndTechList.ANCIENT_CRUISER),\n            uint256(ShipAndTechList.ANCIENT_DESTROYER),\n            uint256(ShipAndTechList.ANCIENT_MASTER_VESSEL),\n            uint256(ShipAndTechList.ANCIENT_FIGHTER_PLANE),\n            uint256(ShipAndTechList.PIRATE_SHIP)\n        ];\n    }\n}\n",
  "sourcePath": "C:\\Users\\James\\projects\\tsuno-fe\\contracts\\lib\\Types.sol",
  "compiler": {
    "name": "solc",
    "version": "0.6.12+commit.27d51765.Emscripten.clang"
  },
  "schemaVersion": "3.2.5",
  "updatedAt": "2020-11-15T18:28:43.919Z",
  "networkType": "ethereum",
  "devdoc": {
    "kind": "dev",
    "methods": {},
    "version": 1
  },
  "userdoc": {
    "kind": "user",
    "methods": {},
    "version": 1
  }
}