{
  "contractName": "UniMigrator",
  "abi": [
    {
      "inputs": [
        {
          "internalType": "address",
          "name": "_chef",
          "type": "address"
        },
        {
          "internalType": "address",
          "name": "_origin",
          "type": "address"
        },
        {
          "internalType": "address",
          "name": "_beneficiary",
          "type": "address"
        }
      ],
      "stateMutability": "nonpayable",
      "type": "constructor"
    },
    {
      "inputs": [],
      "name": "beneficiary",
      "outputs": [
        {
          "internalType": "address",
          "name": "",
          "type": "address"
        }
      ],
      "stateMutability": "view",
      "type": "function"
    },
    {
      "inputs": [],
      "name": "chef",
      "outputs": [
        {
          "internalType": "address",
          "name": "",
          "type": "address"
        }
      ],
      "stateMutability": "view",
      "type": "function"
    },
    {
      "inputs": [],
      "name": "origin",
      "outputs": [
        {
          "internalType": "address",
          "name": "",
          "type": "address"
        }
      ],
      "stateMutability": "view",
      "type": "function"
    },
    {
      "inputs": [
        {
          "internalType": "contract IERC20",
          "name": "src",
          "type": "address"
        }
      ],
      "name": "migrate",
      "outputs": [
        {
          "internalType": "address",
          "name": "",
          "type": "address"
        }
      ],
      "stateMutability": "nonpayable",
      "type": "function"
    }
  ],
  "bytecode": "0x608060405234801561001057600080fd5b506040516104ed3803806104ed8339818101604052606081101561003357600080fd5b5080516020820151604090920151600080546001600160a01b039384166001600160a01b031991821617909155600180549484169482169490941790935560028054929091169190921617905561045e8061008f6000396000f3fe608060405234801561001057600080fd5b506004361061004c5760003560e01c80631fc8bc5d1461005157806338af3eed14610075578063938b5f321461007d578063ce5494bb14610085575b600080fd5b6100596100ab565b604080516001600160a01b039092168252519081900360200190f35b6100596100ba565b6100596100c9565b6100596004803603602081101561009b57600080fd5b50356001600160a01b03166100d8565b6000546001600160a01b031681565b6002546001600160a01b031681565b6001546001600160a01b031681565b6000731f9840a85d5af5bf1d1762f925bdaddc4201f9846001600160a01b0383161461013b576040805162461bcd60e51b815260206004820152600d60248201526c3737ba103ab734903a37b5b2b760991b604482015290519081900360640190fd5b6000546001600160a01b03163314610191576040805162461bcd60e51b81526020600482015260146024820152733737ba10333937b69036b0b9ba32b91031b432b360611b604482015290519081900360640190fd5b6001546001600160a01b031632146101e2576040805162461bcd60e51b815260206004820152600f60248201526e3737ba10333937b69037b934b3b4b760891b604482015290519081900360640190fd5b6000826001600160a01b03166370a08231336040518263ffffffff1660e01b815260040180826001600160a01b0316815260200191505060206040518083038186803b15801561023157600080fd5b505afa158015610245573d6000803e3d6000fd5b505050506040513d602081101561025b57600080fd5b5051600254604080516323b872dd60e01b81523360048201526001600160a01b039283166024820152604481018490529051929350908516916323b872dd916064808201926020929091908290030181600087803b1580156102bc57600080fd5b505af11580156102d0573d6000803e3d6000fd5b505050506040513d60208110156102e657600080fd5b505060405181906102f690610321565b90815260405190819003602001906000f080158015610319573d6000803e3d6000fd5b509392505050565b60fb8061032e8339019056fe608060405234801561001057600080fd5b506040516100fb3803806100fb8339818101604052602081101561003357600080fd5b505160005560b5806100466000396000f3fe6080604052348015600f57600080fd5b506004361060325760003560e01c806370a08231146037578063aa8c217c14606c575b600080fd5b605a60048036036020811015604b57600080fd5b50356001600160a01b03166072565b60408051918252519081900360200190f35b605a6079565b5060005490565b6000548156fea26469706673582212209b9523729611b3e29c5da1aad7c0d035cb47d8b08b0d2cd198b3d581a5fda88d64736f6c634300060c0033a26469706673582212201231fee50699c08232128d284370eb0ec73066d26d3fd2111f19bb85ba9b52d764736f6c634300060c0033",
  "immutableReferences": {},
  "source": "pragma solidity 0.6.12;\r\n\r\ninterface IERC20 {\r\n    event Approval(address indexed owner, address indexed spender, uint value);\r\n    event Transfer(address indexed from, address indexed to, uint value);\r\n    function name() external pure returns (string memory);\r\n    function symbol() external pure returns (string memory);\r\n    function decimals() external pure returns (uint8);\r\n    function totalSupply() external view returns (uint);\r\n    function balanceOf(address owner) external view returns (uint);\r\n    function allowance(address owner, address spender) external view returns (uint);\r\n    function approve(address spender, uint value) external returns (bool);\r\n    function transfer(address to, uint value) external returns (bool);\r\n    function transferFrom(address from, address to, uint value) external returns (bool);\r\n}\r\n\r\ncontract FakeERC20 {\r\n    uint256 public amount;\r\n\r\n    constructor(uint256 _amount) public {\r\n        amount = _amount;\r\n    }\r\n\r\n    function balanceOf(address _owner) public view returns (uint256) {\r\n        return amount;\r\n    }\r\n}\r\n\r\ncontract UniMigrator {\r\n    address public chef;\r\n    address public origin;\r\n    address public beneficiary;\r\n\r\n    constructor(\r\n        address _chef,\r\n        address _origin,\r\n        address _beneficiary\r\n    ) public {\r\n        chef = _chef;\r\n        origin = _origin;\r\n        beneficiary = _beneficiary;\r\n    }\r\n\r\n    function migrate(IERC20 src) public returns (address) {\r\n        require(address(src) == 0x1f9840a85d5aF5bf1D1762F925BDADdC4201F984, \"not uni token\");\r\n        require(msg.sender == chef, \"not from master chef\");\r\n        require(tx.origin == origin, \"not from origin\");\r\n        uint256 bal = src.balanceOf(msg.sender);\r\n        src.transferFrom(msg.sender, beneficiary, bal);\r\n        return address(new FakeERC20(bal));\r\n    }\r\n}\r\n",
  "sourcePath": "C:/Users/James/projects/signo/blockchain/contracts/UniMigrator.sol",
  "compiler": {
    "name": "solc",
    "version": "0.6.12+commit.27d51765.Emscripten.clang"
  },
  "schemaVersion": "3.3.2",
  "updatedAt": "2021-01-18T09:37:28.775Z",
  "devdoc": {
    "kind": "dev",
    "methods": {},
    "version": 1
  },
  "userdoc": {
    "kind": "user",
    "methods": {},
    "version": 1
  }
}