{
  "contractName": "UniswapV2Factory",
  "abi": [
    {
      "inputs": [
        {
          "internalType": "address",
          "name": "_feeToSetter",
          "type": "address"
        }
      ],
      "stateMutability": "nonpayable",
      "type": "constructor"
    },
    {
      "anonymous": false,
      "inputs": [
        {
          "indexed": true,
          "internalType": "address",
          "name": "token0",
          "type": "address"
        },
        {
          "indexed": true,
          "internalType": "address",
          "name": "token1",
          "type": "address"
        },
        {
          "indexed": true,
          "internalType": "bytes",
          "name": "bytecode",
          "type": "bytes"
        },
        {
          "indexed": false,
          "internalType": "address",
          "name": "pair",
          "type": "address"
        },
        {
          "indexed": false,
          "internalType": "uint256",
          "name": "",
          "type": "uint256"
        }
      ],
      "name": "PairCreated",
      "type": "event"
    },
    {
      "anonymous": false,
      "inputs": [
        {
          "indexed": true,
          "internalType": "address",
          "name": "token0",
          "type": "address"
        },
        {
          "indexed": true,
          "internalType": "address",
          "name": "token1",
          "type": "address"
        },
        {
          "indexed": false,
          "internalType": "address",
          "name": "pair",
          "type": "address"
        },
        {
          "indexed": false,
          "internalType": "uint256",
          "name": "",
          "type": "uint256"
        }
      ],
      "name": "PairCreated",
      "type": "event"
    },
    {
      "inputs": [
        {
          "internalType": "uint256",
          "name": "",
          "type": "uint256"
        }
      ],
      "name": "allPairs",
      "outputs": [
        {
          "internalType": "address",
          "name": "",
          "type": "address"
        }
      ],
      "stateMutability": "view",
      "type": "function",
      "constant": true
    },
    {
      "inputs": [],
      "name": "feeTo",
      "outputs": [
        {
          "internalType": "address",
          "name": "",
          "type": "address"
        }
      ],
      "stateMutability": "view",
      "type": "function",
      "constant": true
    },
    {
      "inputs": [],
      "name": "feeToSetter",
      "outputs": [
        {
          "internalType": "address",
          "name": "",
          "type": "address"
        }
      ],
      "stateMutability": "view",
      "type": "function",
      "constant": true
    },
    {
      "inputs": [
        {
          "internalType": "address",
          "name": "",
          "type": "address"
        },
        {
          "internalType": "address",
          "name": "",
          "type": "address"
        }
      ],
      "name": "getPair",
      "outputs": [
        {
          "internalType": "address",
          "name": "",
          "type": "address"
        }
      ],
      "stateMutability": "view",
      "type": "function",
      "constant": true
    },
    {
      "inputs": [],
      "name": "migrator",
      "outputs": [
        {
          "internalType": "address",
          "name": "",
          "type": "address"
        }
      ],
      "stateMutability": "view",
      "type": "function",
      "constant": true
    },
    {
      "inputs": [],
      "name": "allPairsLength",
      "outputs": [
        {
          "internalType": "uint256",
          "name": "",
          "type": "uint256"
        }
      ],
      "stateMutability": "view",
      "type": "function",
      "constant": true
    },
    {
      "inputs": [],
      "name": "pairCodeHash",
      "outputs": [
        {
          "internalType": "bytes32",
          "name": "",
          "type": "bytes32"
        }
      ],
      "stateMutability": "pure",
      "type": "function",
      "constant": true
    },
    {
      "inputs": [
        {
          "internalType": "address",
          "name": "tokenA",
          "type": "address"
        },
        {
          "internalType": "address",
          "name": "tokenB",
          "type": "address"
        }
      ],
      "name": "createPair",
      "outputs": [
        {
          "internalType": "address",
          "name": "pair",
          "type": "address"
        }
      ],
      "stateMutability": "nonpayable",
      "type": "function"
    },
    {
      "inputs": [
        {
          "internalType": "address",
          "name": "_feeTo",
          "type": "address"
        }
      ],
      "name": "setFeeTo",
      "outputs": [],
      "stateMutability": "nonpayable",
      "type": "function"
    },
    {
      "inputs": [
        {
          "internalType": "address",
          "name": "_migrator",
          "type": "address"
        }
      ],
      "name": "setMigrator",
      "outputs": [],
      "stateMutability": "nonpayable",
      "type": "function"
    },
    {
      "inputs": [
        {
          "internalType": "address",
          "name": "_feeToSetter",
          "type": "address"
        }
      ],
      "name": "setFeeToSetter",
      "outputs": [],
      "stateMutability": "nonpayable",
      "type": "function"
    }
  ],
  "bytecode": "0x608060405234801561001057600080fd5b50604051612bd6380380612bd68339818101604052602081101561003357600080fd5b5051600180546001600160a01b0319166001600160a01b03909216919091179055612b73806100636000396000f3fe608060405234801561001057600080fd5b50600436106100a95760003560e01c80637cd07e47116100715780637cd07e47146101395780639aab924814610141578063a2e74af614610149578063c9c653961461016f578063e6a439051461019d578063f46901ed146101cb576100a9565b8063017e7e58146100ae578063094b7415146100d25780631e3dd18b146100da57806323cf3118146100f7578063574f2ba31461011f575b600080fd5b6100b66101f1565b604080516001600160a01b039092168252519081900360200190f35b6100b6610200565b6100b6600480360360208110156100f057600080fd5b503561020f565b61011d6004803603602081101561010d57600080fd5b50356001600160a01b0316610236565b005b6101276102ae565b60408051918252519081900360200190f35b6100b66102b4565b6101276102c3565b61011d6004803603602081101561015f57600080fd5b50356001600160a01b03166102f5565b6100b66004803603604081101561018557600080fd5b506001600160a01b038135811691602001351661036d565b6100b6600480360360408110156101b357600080fd5b506001600160a01b0381358116916020013516610701565b61011d600480360360208110156101e157600080fd5b50356001600160a01b0316610727565b6000546001600160a01b031681565b6001546001600160a01b031681565b6004818154811061021c57fe5b6000918252602090912001546001600160a01b0316905081565b6001546001600160a01b0316331461028c576040805162461bcd60e51b81526020600482015260146024820152732ab734b9bbb0b82b191d102327a92124a22222a760611b604482015290519081900360640190fd5b600280546001600160a01b0319166001600160a01b0392909216919091179055565b60045490565b6002546001600160a01b031681565b6000604051806020016102d59061079f565b6020820181038252601f19601f8201166040525080519060200120905090565b6001546001600160a01b0316331461034b576040805162461bcd60e51b81526020600482015260146024820152732ab734b9bbb0b82b191d102327a92124a22222a760611b604482015290519081900360640190fd5b600180546001600160a01b0319166001600160a01b0392909216919091179055565b6000816001600160a01b0316836001600160a01b031614156103d6576040805162461bcd60e51b815260206004820152601e60248201527f556e697377617056323a204944454e544943414c5f4144445245535345530000604482015290519081900360640190fd5b600080836001600160a01b0316856001600160a01b0316106103f95783856103fc565b84845b90925090506001600160a01b03821661045c576040805162461bcd60e51b815260206004820152601760248201527f556e697377617056323a205a45524f5f41444452455353000000000000000000604482015290519081900360640190fd5b6001600160a01b038281166000908152600360209081526040808320858516845290915290205416156104cf576040805162461bcd60e51b8152602060048201526016602482015275556e697377617056323a20504149525f45584953545360501b604482015290519081900360640190fd5b6060604051806020016104e19061079f565b6020820181038252601f19601f8201166040525090506000838360405160200180836001600160a01b031660601b8152601401826001600160a01b031660601b815260140192505050604051602081830303815290604052805190602001209050808251602084016000f59450846001600160a01b031663485cc95585856040518363ffffffff1660e01b815260040180836001600160a01b03168152602001826001600160a01b0316815260200192505050600060405180830381600087803b1580156105ae57600080fd5b505af11580156105c2573d6000803e3d6000fd5b5050506001600160a01b0380861660008181526003602081815260408084208a8716855282528084208054968d166001600160a01b0319978816811790915592825280842094845293815283832080548616831790556004805460018101825593527f8a35acfbc15ff81a39ae7d344fd709f28e8600b4aa8c65c6b64bfe7fe36bd19b90920180549094161790925551845185935090918291908401908083835b602083106106825780518252601f199092019160209182019101610663565b51815160209384036101000a6000190180199092169116179052604080519290940182900382206004546001600160a01b038d811685529284015284519096508982169550908a16937f7ea2072fc1f99da9dbe3b83004525165a5ef24f88c235970ee705142acba9a9b93509181900390910190a45050505092915050565b60036020908152600092835260408084209091529082529020546001600160a01b031681565b6001546001600160a01b0316331461077d576040805162461bcd60e51b81526020600482015260146024820152732ab734b9bbb0b82b191d102327a92124a22222a760611b604482015290519081900360640190fd5b600080546001600160a01b0319166001600160a01b0392909216919091179055565b612391806107ad8339019056fe60806040526001600c5534801561001557600080fd5b50604080518082018252601281527129bab9b434a9bbb0b8102628102a37b5b2b760711b6020918201528151808301835260018152603160f81b9082015281517f8b73c3c69bb8fe3d512ecc4cf759cc79239f7b179b0ffacaa9a75d522b39400f818301527fefbffe65652a145845c9bc8d0532945be6b9830fe1e9966c887bd298e551ac83818401527fc89efdaa54c0f20c7adf612882df0950f5a951637e0307cdcb4c672f298b8bc660608201524660808201523060a0808301919091528351808303909101815260c09091019092528151910120600355600580546001600160a01b03191633179055612281806101106000396000f3fe608060405234801561001057600080fd5b50600436106101a95760003560e01c80636a627842116100f9578063ba9a7a5611610097578063d21220a711610071578063d21220a714610534578063d505accf1461053c578063dd62ed3e1461058d578063fff6cae9146105bb576101a9565b8063ba9a7a56146104fe578063bc25cf7714610506578063c45a01551461052c576101a9565b80637ecebe00116100d35780637ecebe001461046557806389afcb441461048b57806395d89b41146104ca578063a9059cbb146104d2576101a9565b80636a6278421461041157806370a08231146104375780637464fc3d1461045d576101a9565b806323b872dd116101665780633644e515116101405780633644e515146103cb578063485cc955146103d35780635909c0d5146104015780635a3d549314610409576101a9565b806323b872dd1461036f57806330adf81f146103a5578063313ce567146103ad576101a9565b8063022c0d9f146101ae57806306fdde031461023c5780630902f1ac146102b9578063095ea7b3146102f15780630dfe16811461033157806318160ddd14610355575b600080fd5b61023a600480360360808110156101c457600080fd5b8135916020810135916001600160a01b0360408301351691908101906080810160608201356401000000008111156101fb57600080fd5b82018360208201111561020d57600080fd5b8035906020019184600183028401116401000000008311171561022f57600080fd5b5090925090506105c3565b005b610244610acb565b6040805160208082528351818301528351919283929083019185019080838360005b8381101561027e578181015183820152602001610266565b50505050905090810190601f1680156102ab5780820380516001836020036101000a031916815260200191505b509250505060405180910390f35b6102c1610af9565b604080516001600160701b03948516815292909316602083015263ffffffff168183015290519081900360600190f35b61031d6004803603604081101561030757600080fd5b506001600160a01b038135169060200135610b23565b604080519115158252519081900360200190f35b610339610b3a565b604080516001600160a01b039092168252519081900360200190f35b61035d610b49565b60408051918252519081900360200190f35b61031d6004803603606081101561038557600080fd5b506001600160a01b03813581169160208101359091169060400135610b4f565b61035d610be3565b6103b5610c07565b6040805160ff9092168252519081900360200190f35b61035d610c0c565b61023a600480360360408110156103e957600080fd5b506001600160a01b0381358116916020013516610c12565b61035d610c96565b61035d610c9c565b61035d6004803603602081101561042757600080fd5b50356001600160a01b0316610ca2565b61035d6004803603602081101561044d57600080fd5b50356001600160a01b0316611028565b61035d61103a565b61035d6004803603602081101561047b57600080fd5b50356001600160a01b0316611040565b6104b1600480360360208110156104a157600080fd5b50356001600160a01b0316611052565b6040805192835260208301919091528051918290030190f35b6102446113e6565b61031d600480360360408110156104e857600080fd5b506001600160a01b038135169060200135611405565b61035d611412565b61023a6004803603602081101561051c57600080fd5b50356001600160a01b0316611418565b61033961158a565b610339611599565b61023a600480360360e081101561055257600080fd5b506001600160a01b03813581169160208101359091169060408101359060608101359060ff6080820135169060a08101359060c001356115a8565b61035d600480360360408110156105a357600080fd5b506001600160a01b03813581169160200135166117aa565b61023a6117c7565b600c5460011461060e576040805162461bcd60e51b8152602060048201526011602482015270155b9a5cddd85c158c8e881313d0d2d151607a1b604482015290519081900360640190fd5b6000600c55841515806106215750600084115b61065c5760405162461bcd60e51b81526004018080602001828103825260258152602001806121926025913960400191505060405180910390fd5b600080610667610af9565b5091509150816001600160701b03168710801561068c5750806001600160701b031686105b6106c75760405162461bcd60e51b81526004018080602001828103825260218152602001806121db6021913960400191505060405180910390fd5b60065460075460009182916001600160a01b039182169190811690891682148015906107055750806001600160a01b0316896001600160a01b031614155b61074e576040805162461bcd60e51b8152602060048201526015602482015274556e697377617056323a20494e56414c49445f544f60581b604482015290519081900360640190fd5b8a1561075f5761075f828a8d611929565b891561077057610770818a8c611929565b861561082257886001600160a01b03166310d1e85c338d8d8c8c6040518663ffffffff1660e01b815260040180866001600160a01b03168152602001858152602001848152602001806020018281038252848482818152602001925080828437600081840152601f19601f8201169050808301925050509650505050505050600060405180830381600087803b15801561080957600080fd5b505af115801561081d573d6000803e3d6000fd5b505050505b604080516370a0823160e01b815230600482015290516001600160a01b038416916370a08231916024808301926020929190829003018186803b15801561086857600080fd5b505afa15801561087c573d6000803e3d6000fd5b505050506040513d602081101561089257600080fd5b5051604080516370a0823160e01b815230600482015290519195506001600160a01b038316916370a0823191602480820192602092909190829003018186803b1580156108de57600080fd5b505afa1580156108f2573d6000803e3d6000fd5b505050506040513d602081101561090857600080fd5b5051925060009150506001600160701b0385168a9003831161092b57600061093a565b89856001600160701b03160383035b9050600089856001600160701b0316038311610957576000610966565b89856001600160701b03160383035b905060008211806109775750600081115b6109b25760405162461bcd60e51b81526004018080602001828103825260248152602001806121b76024913960400191505060405180910390fd5b60006109d46109c2846003611ac3565b6109ce876103e8611ac3565b90611b26565b905060006109e66109c2846003611ac3565b9050610a0b620f4240610a056001600160701b038b8116908b16611ac3565b90611ac3565b610a158383611ac3565b1015610a57576040805162461bcd60e51b815260206004820152600c60248201526b556e697377617056323a204b60a01b604482015290519081900360640190fd5b5050610a6584848888611b76565b60408051838152602081018390528082018d9052606081018c905290516001600160a01b038b169133917fd78ad95fa46c994b6551d0da85fc275fe613ce37657fb8d5e3d130840159d8229181900360800190a350506001600c55505050505050505050565b6040518060400160405280601281526020017129bab9b434a9bbb0b8102628102a37b5b2b760711b81525081565b6008546001600160701b0380821692600160701b830490911691600160e01b900463ffffffff1690565b6000610b30338484611d35565b5060015b92915050565b6006546001600160a01b031681565b60005481565b6001600160a01b038316600090815260026020908152604080832033845290915281205460001914610bce576001600160a01b0384166000908152600260209081526040808320338452909152902054610ba99083611b26565b6001600160a01b03851660009081526002602090815260408083203384529091529020555b610bd9848484611d97565b5060019392505050565b7f6e71edae12b1b97f4d1f60370fef10105fa2faae0126114a169c64845d6126c981565b601281565b60035481565b6005546001600160a01b03163314610c68576040805162461bcd60e51b81526020600482015260146024820152732ab734b9bbb0b82b191d102327a92124a22222a760611b604482015290519081900360640190fd5b600680546001600160a01b039384166001600160a01b03199182161790915560078054929093169116179055565b60095481565b600a5481565b6000600c54600114610cef576040805162461bcd60e51b8152602060048201526011602482015270155b9a5cddd85c158c8e881313d0d2d151607a1b604482015290519081900360640190fd5b6000600c81905580610cff610af9565b50600654604080516370a0823160e01b815230600482015290519395509193506000926001600160a01b03909116916370a08231916024808301926020929190829003018186803b158015610d5357600080fd5b505afa158015610d67573d6000803e3d6000fd5b505050506040513d6020811015610d7d57600080fd5b5051600754604080516370a0823160e01b815230600482015290519293506000926001600160a01b03909216916370a0823191602480820192602092909190829003018186803b158015610dd057600080fd5b505afa158015610de4573d6000803e3d6000fd5b505050506040513d6020811015610dfa57600080fd5b505190506000610e13836001600160701b038716611b26565b90506000610e2a836001600160701b038716611b26565b905060008411610e81576040805162461bcd60e51b815260206004820152601d60248201527f42616e616365206d7573742062652067726561746572207468616e2030000000604482015290519081900360640190fd5b60008311610ed6576040805162461bcd60e51b815260206004820152601e60248201527f42616e61636531206d7573742062652067726561746572207468616e20300000604482015290519081900360640190fd5b6000610ee28787611e45565b60005490915080610f1957610f056103e86109ce610f008787611ac3565b611f85565b9850610f1460006103e8611fd7565b610f5c565b610f596001600160701b038916610f308684611ac3565b81610f3757fe5b046001600160701b038916610f4c8685611ac3565b81610f5357fe5b04612061565b98505b60008911610f9b5760405162461bcd60e51b81526004018080602001828103825260288152602001806122246028913960400191505060405180910390fd5b610fa58a8a611fd7565b610fb186868a8a611b76565b8115610fdb57600854610fd7906001600160701b0380821691600160701b900416611ac3565b600b555b6040805185815260208101859052815133927f4c209b5fc8ad50758f13e2e1088ba56a560dff690a1c6fef26394f4c03821c4f928290030190a250506001600c5550949695505050505050565b60016020526000908152604090205481565b600b5481565b60046020526000908152604090205481565b600080600c546001146110a0576040805162461bcd60e51b8152602060048201526011602482015270155b9a5cddd85c158c8e881313d0d2d151607a1b604482015290519081900360640190fd5b6000600c819055806110b0610af9565b50600654600754604080516370a0823160e01b815230600482015290519496509294506001600160a01b039182169391169160009184916370a08231916024808301926020929190829003018186803b15801561110c57600080fd5b505afa158015611120573d6000803e3d6000fd5b505050506040513d602081101561113657600080fd5b5051604080516370a0823160e01b815230600482015290519192506000916001600160a01b038516916370a08231916024808301926020929190829003018186803b15801561118457600080fd5b505afa158015611198573d6000803e3d6000fd5b505050506040513d60208110156111ae57600080fd5b5051306000908152600160205260408120549192506111cd8888611e45565b600054909150806111de8487611ac3565b816111e557fe5b049a50806111f38486611ac3565b816111fa57fe5b04995060008b11801561120d575060008a115b6112485760405162461bcd60e51b81526004018080602001828103825260288152602001806121fc6028913960400191505060405180910390fd5b6112523084612079565b61125d878d8d611929565b611268868d8c611929565b604080516370a0823160e01b815230600482015290516001600160a01b038916916370a08231916024808301926020929190829003018186803b1580156112ae57600080fd5b505afa1580156112c2573d6000803e3d6000fd5b505050506040513d60208110156112d857600080fd5b5051604080516370a0823160e01b815230600482015290519196506001600160a01b038816916370a0823191602480820192602092909190829003018186803b15801561132457600080fd5b505afa158015611338573d6000803e3d6000fd5b505050506040513d602081101561134e57600080fd5b5051935061135e85858b8b611b76565b811561138857600854611384906001600160701b0380821691600160701b900416611ac3565b600b555b604080518c8152602081018c905281516001600160a01b038f169233927fdccd412f0b1252819cb1fd330b93224ca42612892bb3f4f789976e6d81936496929081900390910190a35050505050505050506001600c81905550915091565b604051806040016040528060038152602001620534c560ec1b81525081565b6000610b30338484611d97565b6103e881565b600c54600114611463576040805162461bcd60e51b8152602060048201526011602482015270155b9a5cddd85c158c8e881313d0d2d151607a1b604482015290519081900360640190fd5b6000600c55600654600754600854604080516370a0823160e01b815230600482015290516001600160a01b03948516949093169261150c9285928792611507926001600160701b03169185916370a0823191602480820192602092909190829003018186803b1580156114d557600080fd5b505afa1580156114e9573d6000803e3d6000fd5b505050506040513d60208110156114ff57600080fd5b505190611b26565b611929565b61158081846115076008600e9054906101000a90046001600160701b03166001600160701b0316856001600160a01b03166370a08231306040518263ffffffff1660e01b815260040180826001600160a01b0316815260200191505060206040518083038186803b1580156114d557600080fd5b50506001600c5550565b6005546001600160a01b031681565b6007546001600160a01b031681565b428410156115f2576040805162461bcd60e51b8152602060048201526012602482015271155b9a5cddd85c158c8e881156141254915160721b604482015290519081900360640190fd5b6003546001600160a01b0380891660008181526004602090815260408083208054600180820190925582517f6e71edae12b1b97f4d1f60370fef10105fa2faae0126114a169c64845d6126c98186015280840196909652958d166060860152608085018c905260a085019590955260c08085018b90528151808603909101815260e08501825280519083012061190160f01b6101008601526101028501969096526101228085019690965280518085039096018652610142840180825286519683019690962095839052610162840180825286905260ff89166101828501526101a284018890526101c28401879052519193926101e280820193601f1981019281900390910190855afa15801561170d573d6000803e3d6000fd5b5050604051601f1901519150506001600160a01b038116158015906117435750886001600160a01b0316816001600160a01b0316145b611794576040805162461bcd60e51b815260206004820152601c60248201527f556e697377617056323a20494e56414c49445f5349474e415455524500000000604482015290519081900360640190fd5b61179f898989611d35565b505050505050505050565b600260209081526000928352604080842090915290825290205481565b600c54600114611812576040805162461bcd60e51b8152602060048201526011602482015270155b9a5cddd85c158c8e881313d0d2d151607a1b604482015290519081900360640190fd5b6000600c55600654604080516370a0823160e01b81523060048201529051611922926001600160a01b0316916370a08231916024808301926020929190829003018186803b15801561186357600080fd5b505afa158015611877573d6000803e3d6000fd5b505050506040513d602081101561188d57600080fd5b5051600754604080516370a0823160e01b815230600482015290516001600160a01b03909216916370a0823191602480820192602092909190829003018186803b1580156118da57600080fd5b505afa1580156118ee573d6000803e3d6000fd5b505050506040513d602081101561190457600080fd5b50516008546001600160701b0380821691600160701b900416611b76565b6001600c55565b604080518082018252601981527f7472616e7366657228616464726573732c75696e74323536290000000000000060209182015281516001600160a01b0385811660248301526044808301869052845180840390910181526064909201845291810180516001600160e01b031663a9059cbb60e01b1781529251815160009460609489169392918291908083835b602083106119d65780518252601f1990920191602091820191016119b7565b6001836020036101000a0380198251168184511680821785525050505050509050019150506000604051808303816000865af19150503d8060008114611a38576040519150601f19603f3d011682016040523d82523d6000602084013e611a3d565b606091505b5091509150818015611a6b575080511580611a6b5750808060200190516020811015611a6857600080fd5b50515b611abc576040805162461bcd60e51b815260206004820152601a60248201527f556e697377617056323a205452414e534645525f4641494c4544000000000000604482015290519081900360640190fd5b5050505050565b6000811580611ade57505080820282828281611adb57fe5b04145b610b34576040805162461bcd60e51b815260206004820152601460248201527364732d6d6174682d6d756c2d6f766572666c6f7760601b604482015290519081900360640190fd5b80820382811115610b34576040805162461bcd60e51b815260206004820152601560248201527464732d6d6174682d7375622d756e646572666c6f7760581b604482015290519081900360640190fd5b6001600160701b038411801590611b9457506001600160701b038311155b611bdb576040805162461bcd60e51b8152602060048201526013602482015272556e697377617056323a204f564552464c4f5760681b604482015290519081900360640190fd5b60085463ffffffff42811691600160e01b90048116820390811615801590611c0b57506001600160701b03841615155b8015611c1f57506001600160701b03831615155b15611c8a578063ffffffff16611c4785611c388661210b565b6001600160e01b03169061211d565b600980546001600160e01b03929092169290920201905563ffffffff8116611c7284611c388761210b565b600a80546001600160e01b0392909216929092020190555b600880546dffffffffffffffffffffffffffff19166001600160701b03888116919091176dffffffffffffffffffffffffffff60701b1916600160701b8883168102919091176001600160e01b0316600160e01b63ffffffff871602179283905560408051848416815291909304909116602082015281517f1c411e9a96e071241c2f21f7726b17ae89e3cab4c78be50e062b03a9fffbbad1929181900390910190a1505050505050565b6001600160a01b03808416600081815260026020908152604080832094871680845294825291829020859055815185815291517f8c5be1e5ebec7d5bd14f71427d1e84f3dd0314c0f7b2291e5b200ac8c7c3b9259281900390910190a3505050565b6001600160a01b038316600090815260016020526040902054611dba9082611b26565b6001600160a01b038085166000908152600160205260408082209390935590841681522054611de99082612142565b6001600160a01b0380841660008181526001602090815260409182902094909455805185815290519193928716927fddf252ad1be2c89b69c2b068fc378daa952ba7f163c4a11628f55a4df523b3ef92918290030190a3505050565b600080600560009054906101000a90046001600160a01b03166001600160a01b031663017e7e586040518163ffffffff1660e01b815260040160206040518083038186803b158015611e9657600080fd5b505afa158015611eaa573d6000803e3d6000fd5b505050506040513d6020811015611ec057600080fd5b5051600b546001600160a01b038216158015945091925090611f71578015611f6c576000611efd610f006001600160701b03888116908816611ac3565b90506000611f0a83611f85565b905080821115611f69576000611f2c611f238484611b26565b60005490611ac3565b90506000611f4583611f3f866005611ac3565b90612142565b90506000818381611f5257fe5b0490508015611f6557611f658782611fd7565b5050505b50505b611f7d565b8015611f7d576000600b555b505092915050565b60006003821115611fc8575080600160028204015b81811015611fc257809150600281828581611fb157fe5b040181611fba57fe5b049050611f9a565b50611fd2565b8115611fd2575060015b919050565b600054611fe49082612142565b60009081556001600160a01b0383168152600160205260409020546120099082612142565b6001600160a01b03831660008181526001602090815260408083209490945583518581529351929391927fddf252ad1be2c89b69c2b068fc378daa952ba7f163c4a11628f55a4df523b3ef9281900390910190a35050565b60008183106120705781612072565b825b9392505050565b6001600160a01b03821660009081526001602052604090205461209c9082611b26565b6001600160a01b038316600090815260016020526040812091909155546120c39082611b26565b60009081556040805183815290516001600160a01b038516917fddf252ad1be2c89b69c2b068fc378daa952ba7f163c4a11628f55a4df523b3ef919081900360200190a35050565b6001600160701b0316600160701b0290565b60006001600160701b0382166001600160e01b0384168161213a57fe5b049392505050565b80820182811015610b34576040805162461bcd60e51b815260206004820152601460248201527364732d6d6174682d6164642d6f766572666c6f7760601b604482015290519081900360640190fdfe556e697377617056323a20494e53554646494349454e545f4f55545055545f414d4f554e54556e697377617056323a20494e53554646494349454e545f494e5055545f414d4f554e54556e697377617056323a20494e53554646494349454e545f4c4951554944495459556e697377617056323a20494e53554646494349454e545f4c49515549444954595f4255524e4544556e697377617056323a20494e53554646494349454e545f4c49515549444954595f4d494e544544a2646970667358221220b970f5195ce42633a9ad37671b350c8cb5f6d9ce7fb5ef56b8b5800ecb2f136d64736f6c634300060c0033a2646970667358221220a8a9409f6cf275e72478b1d7236c6ae03361435b2246adeeb122f9c1fcf73d3464736f6c634300060c0033",
  "immutableReferences": {},
  "source": "pragma solidity =0.6.12;\r\n\r\nimport './interfaces/IUniswapV2Factory.sol';\r\nimport './UniswapV2Pair.sol';\r\n\r\ncontract UniswapV2Factory is IUniswapV2Factory {\r\n    address public override feeTo;\r\n    address public override feeToSetter;\r\n    address public override migrator;\r\n\r\n    mapping(address => mapping(address => address)) public override getPair;\r\n    address[] public override allPairs;\r\n\r\n    event PairCreated(\r\n        address indexed token0,\r\n        address indexed token1,\r\n        bytes indexed bytecode,\r\n        address pair,\r\n        uint256\r\n    );\r\n\r\n    constructor(address _feeToSetter) public {\r\n        feeToSetter = _feeToSetter;\r\n    }\r\n\r\n    function allPairsLength() external view override returns (uint256) {\r\n        return allPairs.length;\r\n    }\r\n\r\n    function pairCodeHash() external pure returns (bytes32) {\r\n        return keccak256(type(UniswapV2Pair).creationCode);\r\n    }\r\n\r\n    function createPair(address tokenA, address tokenB) external override returns (address pair) {\r\n        require(tokenA != tokenB, 'UniswapV2: IDENTICAL_ADDRESSES');\r\n        (address token0, address token1) = tokenA < tokenB ? (tokenA, tokenB) : (tokenB, tokenA);\r\n        require(token0 != address(0), 'UniswapV2: ZERO_ADDRESS');\r\n        require(getPair[token0][token1] == address(0), 'UniswapV2: PAIR_EXISTS'); // single check is sufficient\r\n        bytes memory bytecode = type(UniswapV2Pair).creationCode;\r\n        bytes32 salt = keccak256(abi.encodePacked(token0, token1));\r\n        assembly {\r\n            pair := create2(0, add(bytecode, 32), mload(bytecode), salt)\r\n        }\r\n        UniswapV2Pair(pair).initialize(token0, token1);\r\n        getPair[token0][token1] = pair;\r\n        getPair[token1][token0] = pair; // populate mapping in the reverse direction\r\n        allPairs.push(pair);\r\n        emit PairCreated(token0, token1, bytecode, pair, allPairs.length);\r\n    }\r\n\r\n    function setFeeTo(address _feeTo) external override {\r\n        require(msg.sender == feeToSetter, 'UniswapV2: FORBIDDEN');\r\n        feeTo = _feeTo;\r\n    }\r\n\r\n    function setMigrator(address _migrator) external override {\r\n        require(msg.sender == feeToSetter, 'UniswapV2: FORBIDDEN');\r\n        migrator = _migrator;\r\n    }\r\n\r\n    function setFeeToSetter(address _feeToSetter) external override {\r\n        require(msg.sender == feeToSetter, 'UniswapV2: FORBIDDEN');\r\n        feeToSetter = _feeToSetter;\r\n    }\r\n}\r\n",
  "sourcePath": "C:/Users/James/projects/signo/blockchain/contracts/uniswapv2/UniswapV2Factory.sol",
  "compiler": {
    "name": "solc",
    "version": "0.6.12+commit.27d51765.Emscripten.clang"
  },
  "schemaVersion": "3.3.2",
  "updatedAt": "2021-01-19T19:17:14.015Z",
  "networkType": "ethereum",
  "devdoc": {
    "kind": "dev",
    "methods": {},
    "version": 1
  },
  "userdoc": {
    "kind": "user",
    "methods": {},
    "version": 1
  }
}