{
  "contractName": "ZygoProtocol",
  "abi": [
    {
      "inputs": [
        {
          "internalType": "address",
          "name": "_zygoToken",
          "type": "address"
        },
        {
          "internalType": "address",
          "name": "_weth",
          "type": "address"
        },
        {
          "internalType": "address",
          "name": "_aave",
          "type": "address"
        },
        {
          "internalType": "address",
          "name": "_simpleOracle",
          "type": "address"
        }
      ],
      "stateMutability": "nonpayable",
      "type": "constructor"
    },
    {
      "anonymous": false,
      "inputs": [
        {
          "indexed": true,
          "internalType": "address",
          "name": "filledBy",
          "type": "address"
        },
        {
          "indexed": true,
          "internalType": "address",
          "name": "owner",
          "type": "address"
        },
        {
          "indexed": false,
          "internalType": "uint256",
          "name": "fillAmount",
          "type": "uint256"
        },
        {
          "indexed": false,
          "internalType": "uint256",
          "name": "recievedAmount",
          "type": "uint256"
        },
        {
          "indexed": false,
          "internalType": "uint256",
          "name": "reward",
          "type": "uint256"
        }
      ],
      "name": "FillOrder",
      "type": "event"
    },
    {
      "anonymous": false,
      "inputs": [
        {
          "indexed": true,
          "internalType": "uint256",
          "name": "orderId",
          "type": "uint256"
        }
      ],
      "name": "NewOrder",
      "type": "event"
    },
    {
      "anonymous": false,
      "inputs": [
        {
          "indexed": true,
          "internalType": "address",
          "name": "previousOwner",
          "type": "address"
        },
        {
          "indexed": true,
          "internalType": "address",
          "name": "newOwner",
          "type": "address"
        }
      ],
      "name": "OwnershipTransferred",
      "type": "event"
    },
    {
      "anonymous": false,
      "inputs": [
        {
          "indexed": true,
          "internalType": "uint256",
          "name": "start",
          "type": "uint256"
        },
        {
          "indexed": false,
          "internalType": "uint256",
          "name": "end",
          "type": "uint256"
        },
        {
          "indexed": false,
          "internalType": "uint256",
          "name": "price",
          "type": "uint256"
        },
        {
          "indexed": false,
          "internalType": "uint256",
          "name": "zygo",
          "type": "uint256"
        }
      ],
      "name": "Test",
      "type": "event"
    },
    {
      "inputs": [],
      "name": "BURN_RATE",
      "outputs": [
        {
          "internalType": "uint256",
          "name": "",
          "type": "uint256"
        }
      ],
      "stateMutability": "view",
      "type": "function"
    },
    {
      "inputs": [],
      "name": "FIX_REWARD",
      "outputs": [
        {
          "internalType": "uint256",
          "name": "",
          "type": "uint256"
        }
      ],
      "stateMutability": "view",
      "type": "function"
    },
    {
      "inputs": [],
      "name": "feeSMA",
      "outputs": [
        {
          "internalType": "uint256",
          "name": "",
          "type": "uint256"
        }
      ],
      "stateMutability": "view",
      "type": "function"
    },
    {
      "inputs": [
        {
          "internalType": "uint256",
          "name": "",
          "type": "uint256"
        }
      ],
      "name": "orders",
      "outputs": [
        {
          "internalType": "address",
          "name": "creator",
          "type": "address"
        },
        {
          "internalType": "address",
          "name": "from",
          "type": "address"
        },
        {
          "internalType": "uint256",
          "name": "fromAmount",
          "type": "uint256"
        },
        {
          "internalType": "address",
          "name": "to",
          "type": "address"
        },
        {
          "internalType": "uint256",
          "name": "toAmount",
          "type": "uint256"
        },
        {
          "internalType": "uint256",
          "name": "id",
          "type": "uint256"
        },
        {
          "internalType": "bool",
          "name": "closed",
          "type": "bool"
        }
      ],
      "stateMutability": "view",
      "type": "function"
    },
    {
      "inputs": [],
      "name": "owner",
      "outputs": [
        {
          "internalType": "address",
          "name": "",
          "type": "address"
        }
      ],
      "stateMutability": "view",
      "type": "function"
    },
    {
      "inputs": [],
      "name": "renounceOwnership",
      "outputs": [],
      "stateMutability": "nonpayable",
      "type": "function"
    },
    {
      "inputs": [],
      "name": "totalFills",
      "outputs": [
        {
          "internalType": "uint256",
          "name": "",
          "type": "uint256"
        }
      ],
      "stateMutability": "view",
      "type": "function"
    },
    {
      "inputs": [
        {
          "internalType": "address",
          "name": "newOwner",
          "type": "address"
        }
      ],
      "name": "transferOwnership",
      "outputs": [],
      "stateMutability": "nonpayable",
      "type": "function"
    },
    {
      "inputs": [
        {
          "internalType": "address",
          "name": "_from",
          "type": "address"
        },
        {
          "internalType": "uint256",
          "name": "_fromAmount",
          "type": "uint256"
        },
        {
          "internalType": "address",
          "name": "_to",
          "type": "address"
        },
        {
          "internalType": "uint256",
          "name": "_toAmount",
          "type": "uint256"
        }
      ],
      "name": "createWithAave",
      "outputs": [
        {
          "internalType": "uint256",
          "name": "",
          "type": "uint256"
        }
      ],
      "stateMutability": "nonpayable",
      "type": "function"
    },
    {
      "inputs": [
        {
          "internalType": "uint256",
          "name": "_orderId",
          "type": "uint256"
        }
      ],
      "name": "fillOrder",
      "outputs": [],
      "stateMutability": "nonpayable",
      "type": "function"
    }
  ],
  "bytecode": "0x608060405234801561001057600080fd5b50604051610e54380380610e548339818101604052608081101561003357600080fd5b50805160208201516040830151606090930151919290916000610054610101565b600080546001600160a01b0319166001600160a01b0383169081178255604051929350917f8be0079c531659141344cd1fd0a4f28419497f9722a3daafe3b4186f6b6457e0908290a350600180546001600160a01b039586166001600160a01b03199182161790915560028054948616948216949094179093556003805491851691841691909117905560048054919093169116179055670de0b6b3a76400006006556000600755610105565b3390565b610d40806101146000396000f3fe608060405234801561001057600080fd5b506004361061009e5760003560e01c8063a063f27811610066578063a063f27814610110578063a85c38ef1461014a578063ae512f08146101b1578063f2fde38b146101b9578063f846a885146101df5761009e565b8063310a8f3d146100a357806367b830ad146100bd578063715018a6146100dc5780637c9c0cb9146100e45780638da5cb5b146100ec575b600080fd5b6100ab6101e7565b60408051918252519081900360200190f35b6100da600480360360208110156100d357600080fd5b50356101ed565b005b6100da610350565b6100ab610404565b6100f4610410565b604080516001600160a01b039092168252519081900360200190f35b6100ab6004803603608081101561012657600080fd5b506001600160a01b038135811691602081013591604082013516906060013561041f565b6101676004803603602081101561016057600080fd5b503561050f565b604080516001600160a01b039889168152968816602088015286810195909552929095166060850152608084015260a083019390935291151560c082015290519081900360e00190f35b6100ab610570565b6100da600480360360208110156101cf57600080fd5b50356001600160a01b0316610576565b6100ab610680565b60075481565b6101f5610c7e565b50600081815260096020908152604091829020825160608101845281548152600182015492810192909252600201546001600160a01b03169181019190915261023c610ca8565b6005838154811061024957fe5b600091825260208083206040805160e081018252600790940290910180546001600160a01b039081168552600182015481168585018190526002830154868501526003830154821660608701526004808401546080880152600584015460a088015260069093015460ff16151560c08701528254898601518a8601518651631a4ca37b60e21b81529586019390935260248501529082166044840152925194965091909116936369328dec93606480840194939192918390030190829087803b15801561031557600080fd5b505af1158015610329573d6000803e3d6000fd5b505050506040513d602081101561033f57600080fd5b5061034b90508161068c565b505050565b610358610955565b6000546001600160a01b039081169116146103ba576040805162461bcd60e51b815260206004820181905260248201527f4f776e61626c653a2063616c6c6572206973206e6f7420746865206f776e6572604482015290519081900360640190fd5b600080546040516001600160a01b03909116907f8be0079c531659141344cd1fd0a4f28419497f9722a3daafe3b4186f6b6457e0908390a3600080546001600160a01b0319169055565b674563918244f4000081565b6000546001600160a01b031690565b60008061042e86868686610959565b600480546040805163e8eda9df60e01b81526001600160a01b038b811694820194909452602481018a90523360448201526000606482018190529151949550929091169263e8eda9df92608480820193929182900301818387803b15801561049557600080fd5b505af11580156104a9573d6000803e3d6000fd5b5050604080516060810182524281526020808201998a52338284019081526000968752600990915291909420935184559651600184015550509351600290940180546001600160a01b0319166001600160a01b0390951694909417909355509092915050565b6005818154811061051f57600080fd5b600091825260209091206007909102018054600182015460028301546003840154600485015460058601546006909601546001600160a01b0395861697509385169592949091169290919060ff1687565b60065481565b61057e610955565b6000546001600160a01b039081169116146105e0576040805162461bcd60e51b815260206004820181905260248201527f4f776e61626c653a2063616c6c6572206973206e6f7420746865206f776e6572604482015290519081900360640190fd5b6001600160a01b0381166106255760405162461bcd60e51b8152600401808060200182810382526026815260200180610ce56026913960400191505060405180910390fd5b600080546040516001600160a01b03808516939216917f8be0079c531659141344cd1fd0a4f28419497f9722a3daafe3b4186f6b6457e091a3600080546001600160a01b0319166001600160a01b0392909216919091179055565b671bc16d674ec8000081565b60005a602080840151606085015185516080870151604080516323b872dd60e01b81523360048201526001600160a01b03938416602482015260448101929092525195965092949193908416926323b872dd92606480830193928290030181600087803b1580156106fc57600080fd5b505af1158015610710573d6000803e3d6000fd5b505050506040513d602081101561072657600080fd5b505060408085015181516323b872dd60e01b8152306004820152336024820152604481019190915290516001600160a01b038416916323b872dd9160648083019260209291908290030181600087803b15801561078257600080fd5b505af1158015610796573d6000803e3d6000fd5b505050506040513d60208110156107ac57600080fd5b5050600160c085015260035460025460408051633ddac95360e01b81526001600160a01b039283166004820152670de0b6b3a7640000602482015290516000939290921691633ddac95391604480820192602092909190829003018186803b15801561081757600080fd5b505afa15801561082b573d6000803e3d6000fd5b505050506040513d602081101561084157600080fd5b5051600780546001019055905060005a600154604080516340c10f1960e01b8152336004820152670de0b6b3a76400003a858b0302870204674563918244f400000160248201819052915193945090926001600160a01b03909216916340c10f199160448082019260009290919082900301818387803b1580156108c457600080fd5b505af11580156108d8573d6000803e3d6000fd5b5050505060075481816108e757fe5b6006805492909104919091019055865160808801516040808a015181519283526020830152818101849052516001600160a01b039092169133917fc502d15bc34ef10b202870ddf65420f99c5f6f418c62901a45645ff8811453b6919081900360600190a350505050505050565b3390565b604080516323b872dd60e01b815233600482015230602482015260448101859052905160009186916001600160a01b038316916323b872dd91606480830192602092919082900301818887803b1580156109b257600080fd5b505af11580156109c6573d6000803e3d6000fd5b505050506040513d60208110156109dc57600080fd5b5050600154600654604080516323b872dd60e01b8152336004820152306024820152671bc16d674ec800009092016044830152516001600160a01b03909216916323b872dd916064808201926020929091908290030181600087803b158015610a4457600080fd5b505af1158015610a58573d6000803e3d6000fd5b505050506040513d6020811015610a6e57600080fd5b50610a799050610ca8565b506040805160e081018252338082526001600160a01b0389811660208085019182528486018b81528a841660608701908152608087018b81526005805460a08a01818152600060c08c01818152600180850186558583528d517f036b6384b5eca791c62761152d0c79bb0604c104a5fb6f4eb0703f3154bb3db0600790960295860180546001600160a01b0319908116928f169290921790559a517f036b6384b5eca791c62761152d0c79bb0604c104a5fb6f4eb0703f3154bb3db1860180548d16918e1691909117905597517f036b6384b5eca791c62761152d0c79bb0604c104a5fb6f4eb0703f3154bb3db285015595517f036b6384b5eca791c62761152d0c79bb0604c104a5fb6f4eb0703f3154bb3db384018054909a169a169990991790975591517f036b6384b5eca791c62761152d0c79bb0604c104a5fb6f4eb0703f3154bb3db483015594517f036b6384b5eca791c62761152d0c79bb0604c104a5fb6f4eb0703f3154bb3db582015590517f036b6384b5eca791c62761152d0c79bb0604c104a5fb6f4eb0703f3154bb3db6909101805460ff1916911515919091179055938352600881528583208254815495860182559084529083206000199182019401939093555493519293909101917fd56de72b04be4cf70c2bab5e6905fb51e28beb22f7a5d40a6dc4103149d611069190a2505060055495945050505050565b6040518060600160405280600081526020016000815260200160006001600160a01b031681525090565b6040805160e081018252600080825260208201819052918101829052606081018290526080810182905260a0810182905260c08101919091529056fe4f776e61626c653a206e6577206f776e657220697320746865207a65726f2061646472657373a264697066735822122025c32d06270053f62bc5e801fe2386e9407fdeec04334b1751807becca63f99064736f6c63430007050033",
  "immutableReferences": {},
  "source": "pragma solidity 0.7.5;\nimport '@openzeppelin/contracts/token/ERC20/ERC20.sol';\nimport '@openzeppelin/contracts/access/Ownable.sol';\nimport './ZygoToken.sol';\nimport './uniswapv2/interfaces/IUniswapV2Pair.sol';\nimport './uniswapv2/interfaces/ISimpleOracle.sol';\nimport './uniswapv2/interfaces/IWETH.sol';\nimport './interfaces/ILendingPool.sol';\n\ncontract ZygoProtocol is Ownable {\n    // constants\n    uint256 public constant FIX_REWARD = 5 ether;\n    uint256 public constant BURN_RATE = 2 ether;\n\n    event NewOrder(uint256 indexed orderId);\n    event Test(uint256 indexed start, uint256 end, uint256 price, uint256 zygo);\n    event FillOrder(\n        address indexed filledBy,\n        address indexed owner,\n        uint256 fillAmount,\n        uint256 recievedAmount,\n        uint256 reward\n    );\n    struct Order {\n        address creator;\n        address from;\n        uint256 fromAmount;\n        address to;\n        uint256 toAmount;\n        uint256 id;\n        bool closed;\n    }\n\n    enum LendingPool {Aave}\n\n    struct Receipt {\n        uint256 locked;\n        uint256 aTokens;\n        address receipient;\n    }\n\n    ZygoToken zygo;\n    IWETH weth;\n    ISimpleOracle oracle;\n    ILendingPool aave;\n    Order[] public orders;\n    uint256 public feeSMA;\n    uint256 public totalFills;\n    mapping(address => uint256[]) addressToOrders;\n    mapping(uint256 => Receipt) receipts;\n\n    constructor(\n        address _zygoToken,\n        address _weth,\n        address _aave,\n        address _simpleOracle\n    ) public {\n        zygo = ZygoToken(_zygoToken);\n        weth = IWETH(_weth);\n        oracle = ISimpleOracle(_simpleOracle);\n        aave = ILendingPool(_aave);\n        feeSMA = 1 ether;\n        totalFills = 0;\n    }\n\n    /**\n        @dev creates an order\n        @param _to - the token the sender wishes to\n     */\n    function _create(\n        address _from,\n        uint256 _fromAmount,\n        address _to,\n        uint256 _toAmount\n    ) private returns (uint256) {\n        IERC20 from = IERC20(_from);\n        from.transferFrom(msg.sender, address(this), _fromAmount);\n        zygo.transferFrom(msg.sender, address(this), feeSMA + BURN_RATE);\n        Order memory order =\n            Order({\n                creator: msg.sender,\n                from: _from,\n                fromAmount: _fromAmount,\n                to: _to,\n                toAmount: _toAmount,\n                id: orders.length,\n                closed: false\n            });\n        orders.push(order);\n        addressToOrders[msg.sender].push(orders.length - 1);\n        emit NewOrder(orders.length - 1);\n        return orders.length;\n    }\n\n    /**\n        @dev creates an order\n        @param _to - the token the sender wishes to\n     */\n    function createWithAave(\n        address _from,\n        uint256 _fromAmount,\n        address _to,\n        uint256 _toAmount\n    ) external returns (uint256) {\n        uint256 orderId = _create(_from, _fromAmount, _to, _toAmount);\n        aave.deposit(_from, _fromAmount, msg.sender, 0);\n        receipts[orderId] = Receipt({aTokens: _fromAmount, locked: block.timestamp, receipient: msg.sender});\n    }\n\n    function _fill(Order memory order) private {\n        // start counting the gas cost\n        uint256 gasStart = gasleft();\n\n        IERC20 from = IERC20(order.from);\n        IERC20 to = IERC20(order.to);\n\n        to.transferFrom(msg.sender, order.creator, order.toAmount);\n        from.transferFrom(address(this), msg.sender, order.fromAmount);\n\n        order.closed = true;\n\n        uint256 wethToZygo = oracle.consult(address(weth), 1 ether);\n        totalFills = totalFills + 1;\n\n        //end of gas compensation\n        uint256 gasEnd = gasleft();\n        uint256 reward = (((gasStart - gasEnd) * tx.gasprice) * wethToZygo) / 1 ether + FIX_REWARD;\n\n        zygo.mint(msg.sender, reward);\n        feeSMA = feeSMA + reward / totalFills;\n\n        emit FillOrder(msg.sender, order.creator, order.toAmount, order.fromAmount, reward);\n    }\n\n    function fillOrder(uint256 _orderId) external {\n        Receipt memory _receipt = receipts[_orderId];\n        Order memory _order = orders[_orderId];\n        aave.withdraw(_order.from, _receipt.aTokens, _receipt.receipient);\n        _fill(_order);\n    }\n}\n",
  "sourcePath": "C:/Users/James/projects/zygo/blockchain/contracts/ZygoProtocol.sol",
  "compiler": {
    "name": "solc",
    "version": "0.7.5+commit.eb77ed08.Emscripten.clang"
  },
  "schemaVersion": "3.3.2",
  "updatedAt": "2021-01-31T12:25:23.934Z",
  "devdoc": {
    "kind": "dev",
    "methods": {
      "createWithAave(address,uint256,address,uint256)": {
        "details": "creates an order",
        "params": {
          "_to": "- the token the sender wishes to"
        }
      },
      "owner()": {
        "details": "Returns the address of the current owner."
      },
      "renounceOwnership()": {
        "details": "Leaves the contract without owner. It will not be possible to call `onlyOwner` functions anymore. Can only be called by the current owner. NOTE: Renouncing ownership will leave the contract without an owner, thereby removing any functionality that is only available to the owner."
      },
      "transferOwnership(address)": {
        "details": "Transfers ownership of the contract to a new account (`newOwner`). Can only be called by the current owner."
      }
    },
    "version": 1
  },
  "userdoc": {
    "kind": "user",
    "methods": {},
    "version": 1
  }
}