{
  "contractName": "ZygoProtocol",
  "abi": [
    {
      "inputs": [
        {
          "internalType": "address",
          "name": "_zygoToken",
          "type": "address"
        },
        {
          "internalType": "address",
          "name": "_ethZygoPair",
          "type": "address"
        },
        {
          "internalType": "address",
          "name": "_simpleOracle",
          "type": "address"
        }
      ],
      "stateMutability": "nonpayable",
      "type": "constructor"
    },
    {
      "anonymous": false,
      "inputs": [
        {
          "indexed": true,
          "internalType": "address",
          "name": "filledBy",
          "type": "address"
        },
        {
          "indexed": true,
          "internalType": "address",
          "name": "owner",
          "type": "address"
        },
        {
          "indexed": false,
          "internalType": "uint256",
          "name": "fillAmount",
          "type": "uint256"
        },
        {
          "indexed": false,
          "internalType": "uint256",
          "name": "recievedAmount",
          "type": "uint256"
        },
        {
          "indexed": false,
          "internalType": "uint256",
          "name": "reward",
          "type": "uint256"
        }
      ],
      "name": "FillOrder",
      "type": "event"
    },
    {
      "anonymous": false,
      "inputs": [
        {
          "indexed": true,
          "internalType": "uint256",
          "name": "orderId",
          "type": "uint256"
        }
      ],
      "name": "NewOrder",
      "type": "event"
    },
    {
      "anonymous": false,
      "inputs": [
        {
          "indexed": true,
          "internalType": "address",
          "name": "previousOwner",
          "type": "address"
        },
        {
          "indexed": true,
          "internalType": "address",
          "name": "newOwner",
          "type": "address"
        }
      ],
      "name": "OwnershipTransferred",
      "type": "event"
    },
    {
      "anonymous": false,
      "inputs": [
        {
          "indexed": true,
          "internalType": "uint256",
          "name": "price",
          "type": "uint256"
        }
      ],
      "name": "Test",
      "type": "event"
    },
    {
      "inputs": [],
      "name": "BONUS_MULTIPLIER",
      "outputs": [
        {
          "internalType": "uint256",
          "name": "",
          "type": "uint256"
        }
      ],
      "stateMutability": "view",
      "type": "function"
    },
    {
      "inputs": [],
      "name": "FILL_REWARD",
      "outputs": [
        {
          "internalType": "uint256",
          "name": "",
          "type": "uint256"
        }
      ],
      "stateMutability": "view",
      "type": "function"
    },
    {
      "inputs": [],
      "name": "MIN_GAS_FEE",
      "outputs": [
        {
          "internalType": "uint256",
          "name": "",
          "type": "uint256"
        }
      ],
      "stateMutability": "view",
      "type": "function"
    },
    {
      "inputs": [],
      "name": "MIN_REWARD_FEE",
      "outputs": [
        {
          "internalType": "uint256",
          "name": "",
          "type": "uint256"
        }
      ],
      "stateMutability": "view",
      "type": "function"
    },
    {
      "inputs": [],
      "name": "blockTimestampPrevious",
      "outputs": [
        {
          "internalType": "uint32",
          "name": "",
          "type": "uint32"
        }
      ],
      "stateMutability": "view",
      "type": "function"
    },
    {
      "inputs": [],
      "name": "owner",
      "outputs": [
        {
          "internalType": "address",
          "name": "",
          "type": "address"
        }
      ],
      "stateMutability": "view",
      "type": "function"
    },
    {
      "inputs": [],
      "name": "price0CumulativePrevious",
      "outputs": [
        {
          "internalType": "uint256",
          "name": "",
          "type": "uint256"
        }
      ],
      "stateMutability": "view",
      "type": "function"
    },
    {
      "inputs": [],
      "name": "price1CumulativePrevious",
      "outputs": [
        {
          "internalType": "uint256",
          "name": "",
          "type": "uint256"
        }
      ],
      "stateMutability": "view",
      "type": "function"
    },
    {
      "inputs": [],
      "name": "renounceOwnership",
      "outputs": [],
      "stateMutability": "nonpayable",
      "type": "function"
    },
    {
      "inputs": [
        {
          "internalType": "address",
          "name": "newOwner",
          "type": "address"
        }
      ],
      "name": "transferOwnership",
      "outputs": [],
      "stateMutability": "nonpayable",
      "type": "function"
    },
    {
      "inputs": [
        {
          "internalType": "address",
          "name": "_from",
          "type": "address"
        },
        {
          "internalType": "uint256",
          "name": "_fromAmount",
          "type": "uint256"
        },
        {
          "internalType": "address",
          "name": "_to",
          "type": "address"
        },
        {
          "internalType": "uint256",
          "name": "_toAmount",
          "type": "uint256"
        },
        {
          "internalType": "uint256",
          "name": "_rewardFee",
          "type": "uint256"
        }
      ],
      "name": "createOrder",
      "outputs": [],
      "stateMutability": "nonpayable",
      "type": "function"
    },
    {
      "inputs": [
        {
          "internalType": "uint256",
          "name": "_orderId",
          "type": "uint256"
        }
      ],
      "name": "fillOrder",
      "outputs": [],
      "stateMutability": "nonpayable",
      "type": "function"
    }
  ],
  "bytecode": "0x608060405234801561001057600080fd5b50604051610d76380380610d768339818101604052606081101561003357600080fd5b5080516020820151604090920151909190600061004e6101c2565b600080546001600160a01b0319166001600160a01b0383169081178255604051929350917f8be0079c531659141344cd1fd0a4f28419497f9722a3daafe3b4186f6b6457e0908290a350600180546001600160a01b03199081166001600160a01b03868116919091179092556002805490911684831617908190556006805463ffffffff19164263ffffffff1617905560408051635909c0d560e01b815290519190921691635909c0d5916004808301926020929190829003018186803b15801561011857600080fd5b505afa15801561012c573d6000803e3d6000fd5b505050506040513d602081101561014257600080fd5b5051600490815560025460408051635a3d549360e01b815290516001600160a01b0390921692635a3d5493928282019260209290829003018186803b15801561018a57600080fd5b505afa15801561019e573d6000803e3d6000fd5b505050506040513d60208110156101b457600080fd5b5051600555506101c6915050565b3390565b610ba1806101d56000396000f3fe608060405234801561001057600080fd5b50600436106100b45760003560e01c80638aa28550116100715780638aa28550146101125780638da5cb5b1461011a5780639103735d1461010a57806396d4f6401461013e578063cfc021a91461017e578063f2fde38b1461019f576100b4565b80631019aa97146100b9578063155ef672146100d357806367b830ad146100db578063715018a6146100fa57806386c6230e1461010257806388c043311461010a575b600080fd5b6100c16101c5565b60408051918252519081900360200190f35b6100c16101cb565b6100f8600480360360208110156100f157600080fd5b50356101d1565b005b6100f86105be565b6100c1610672565b6100c161067a565b6100c1610682565b610122610687565b604080516001600160a01b039092168252519081900360200190f35b6100f8600480360360a081101561015457600080fd5b506001600160a01b0381358116916020810135916040820135169060608101359060800135610696565b6101866109ef565b6040805163ffffffff9092168252519081900360200190f35b6100f8600480360360208110156101b557600080fd5b50356001600160a01b03166109fb565b60045481565b60055481565b6101d9610b09565b600382815481106101e657fe5b600091825260208083206040805160e081018252600790940290910180546001600160a01b0390811685526001820154811685850181905260028084015487860152600384015483166060880181905260048086015460808a0152600586015460a08a015260069095015460ff16151560c089015290548551635909c0d560e01b8152955197995091979096429691959290931693635909c0d59383820193909190829003018186803b15801561029c57600080fd5b505afa1580156102b0573d6000803e3d6000fd5b505050506040513d60208110156102c657600080fd5b505160065460045491925060009163ffffffff9182168503909116908303816102eb57fe5b049050836001600160a01b03166323b872dd33886000015189608001516040518463ffffffff1660e01b815260040180846001600160a01b03168152602001836001600160a01b031681526020018281526020019350505050602060405180830381600087803b15801561035e57600080fd5b505af1158015610372573d6000803e3d6000fd5b505050506040513d602081101561038857600080fd5b505060408087015181516323b872dd60e01b8152306004820152336024820152604481019190915290516001600160a01b038716916323b872dd9160648083019260209291908290030181600087803b1580156103e457600080fd5b505af11580156103f8573d6000803e3d6000fd5b505050506040513d602081101561040e57600080fd5b505060015460a0870151604080516323b872dd60e01b81523060048201523360248201526044810192909252516001600160a01b03909216916323b872dd916064808201926020929091908290030181600087803b15801561046f57600080fd5b505af1158015610483573d6000803e3d6000fd5b505050506040513d602081101561049957600080fd5b505060048290556006805463ffffffff191663ffffffff8516179055600160c087015260038054879190899081106104cd57fe5b600091825260209182902083516007929092020180546001600160a01b03199081166001600160a01b03938416178255848401516001830180548316918516919091179055604080860151600284015560608087015160038501805490941690861617909255608080870151600485015560a080880151600586015560c0909701516006909401805460ff1916941515949094179093558b51928c01518c820151968d015182519182529581019690965285810194909452925191169233927fc502d15bc34ef10b202870ddf65420f99c5f6f418c62901a45645ff8811453b692918290030190a350505050505050565b6105c6610b05565b6000546001600160a01b03908116911614610628576040805162461bcd60e51b815260206004820181905260248201527f4f776e61626c653a2063616c6c6572206973206e6f7420746865206f776e6572604482015290519081900360640190fd5b600080546040516001600160a01b03909116907f8be0079c531659141344cd1fd0a4f28419497f9722a3daafe3b4186f6b6457e0908390a3600080546001600160a01b0319169055565b6305f5e10081565b6301312d0081565b600a81565b6000546001600160a01b031690565b6301312d0081116106e5576040805162461bcd60e51b815260206004820152601460248201527314995dd85c9908199959481d1bdbc81cdb585b1b60621b604482015290519081900360640190fd5b604080516323b872dd60e01b815233600482015230602482015260448101869052905186916001600160a01b038316916323b872dd916064808201926020929091908290030181600087803b15801561073d57600080fd5b505af1158015610751573d6000803e3d6000fd5b505050506040513d602081101561076757600080fd5b5050600154604080516323b872dd60e01b81523360048201523060248201526044810185905290516001600160a01b03909216916323b872dd916064808201926020929091908290030181600087803b1580156107c357600080fd5b505af11580156107d7573d6000803e3d6000fd5b505050506040513d60208110156107ed57600080fd5b506107f89050610b09565b506040805160e081018252338082526001600160a01b0389811660208085019182528486018b81528a841660608701908152608087018b815260a088018b8152600060c08a0181815260038054600181810183558285528d5160079283027fc2575a0e9e593c00f959f8c92f12db2869c3395a3b0502d05e2516446f71f85b81018054928f166001600160a01b03199384161790559b517fc2575a0e9e593c00f959f8c92f12db2869c3395a3b0502d05e2516446f71f85c8d018054918f1691831691909117905598517fc2575a0e9e593c00f959f8c92f12db2869c3395a3b0502d05e2516446f71f85d8c015596517fc2575a0e9e593c00f959f8c92f12db2869c3395a3b0502d05e2516446f71f85e8b01805491909c1698169790971790995592517fc2575a0e9e593c00f959f8c92f12db2869c3395a3b0502d05e2516446f71f85f88015590517fc2575a0e9e593c00f959f8c92f12db2869c3395a3b0502d05e2516446f71f86087015590517fc2575a0e9e593c00f959f8c92f12db2869c3395a3b0502d05e2516446f71f861909501805495151560ff19909616959095179094559483528152858220835481549586018255908352908220909301929092555492519192917fd56de72b04be4cf70c2bab5e6905fb51e28beb22f7a5d40a6dc4103149d611069190a250505050505050565b60065463ffffffff1681565b610a03610b05565b6000546001600160a01b03908116911614610a65576040805162461bcd60e51b815260206004820181905260248201527f4f776e61626c653a2063616c6c6572206973206e6f7420746865206f776e6572604482015290519081900360640190fd5b6001600160a01b038116610aaa5760405162461bcd60e51b8152600401808060200182810382526026815260200180610b466026913960400191505060405180910390fd5b600080546040516001600160a01b03808516939216917f8be0079c531659141344cd1fd0a4f28419497f9722a3daafe3b4186f6b6457e091a3600080546001600160a01b0319166001600160a01b0392909216919091179055565b3390565b6040805160e081018252600080825260208201819052918101829052606081018290526080810182905260a0810182905260c08101919091529056fe4f776e61626c653a206e6577206f776e657220697320746865207a65726f2061646472657373a26469706673582212208296f26b551d4c8fa4ee8f19bd3e903b2b2415597954a5a26677299a91aabba264736f6c634300060c0033",
  "immutableReferences": {},
  "source": "pragma solidity 0.6.12;\nimport '@openzeppelin/contracts/token/ERC20/ERC20.sol';\nimport '@openzeppelin/contracts/access/Ownable.sol';\nimport './ZygoToken.sol';\nimport './uniswapv2/interfaces/IUniswapV2Pair.sol';\nimport './uniswapv2/interfaces/ISimpleOracle.sol';\n\ncontract ZygoProtocol is Ownable {\n    // constants\n    uint256 public constant MIN_GAS_FEE = 20000000;\n    uint256 public constant MIN_REWARD_FEE = 20000000;\n    uint256 public constant BONUS_MULTIPLIER = 10;\n    uint256 public constant FILL_REWARD = 100000000;\n    event NewOrder(uint256 indexed orderId);\n    event FillOrder(\n        address indexed filledBy,\n        address indexed owner,\n        uint256 fillAmount,\n        uint256 recievedAmount,\n        uint256 reward\n    );\n    event Test(uint256 indexed price);\n    struct Order {\n        address creator;\n        address from;\n        uint256 fromAmount;\n        address to;\n        uint256 toAmount;\n        uint256 rewardFee;\n        bool closed;\n    }\n\n    ZygoToken zygo;\n    IUniswapV2Pair ethZygoPair;\n    Order[] orders;\n\n    uint256 public price0CumulativePrevious;\n    uint256 public price1CumulativePrevious;\n    uint32 public blockTimestampPrevious;\n\n    mapping(address => uint256[]) addressToOrders;\n\n    constructor(\n        address _zygoToken,\n        address _ethZygoPair,\n        address _simpleOracle\n    ) public {\n        zygo = ZygoToken(_zygoToken);\n        ethZygoPair = IUniswapV2Pair(_ethZygoPair);\n        blockTimestampPrevious = uint32(block.timestamp);\n        price0CumulativePrevious = ethZygoPair.price0CumulativeLast();\n        price1CumulativePrevious = ethZygoPair.price1CumulativeLast();\n    }\n\n    /**\n        @dev creates an order\n        @param _to - the token the sender wishes to\n     */\n    function createOrder(\n        address _from,\n        uint256 _fromAmount,\n        address _to,\n        uint256 _toAmount,\n        uint256 _rewardFee\n    ) public {\n        require(_rewardFee > MIN_REWARD_FEE, 'Reward fee too small');\n\n        IERC20 from = IERC20(_from);\n        from.transferFrom(msg.sender, address(this), _fromAmount);\n        zygo.transferFrom(msg.sender, address(this), _rewardFee);\n\n        Order memory order =\n            Order({\n                creator: msg.sender,\n                from: _from,\n                fromAmount: _fromAmount,\n                to: _to,\n                toAmount: _toAmount,\n                rewardFee: _rewardFee,\n                closed: false\n            });\n        orders.push(order);\n        addressToOrders[msg.sender].push(orders.length);\n\n        emit NewOrder(orders.length);\n    }\n\n    function fillOrder(uint256 _orderId) public {\n        Order memory order = orders[_orderId];\n\n        IERC20 from = IERC20(order.from);\n        IERC20 to = IERC20(order.to);\n\n        uint32 timestamp = uint32(block.timestamp);\n        uint256 price0CumulativeLastest = ethZygoPair.price0CumulativeLast();\n        uint256 price =\n            (price0CumulativeLastest - price0CumulativePrevious) / (timestamp - blockTimestampPrevious);\n\n        to.transferFrom(msg.sender, order.creator, order.toAmount);\n        from.transferFrom(address(this), msg.sender, order.fromAmount);\n        zygo.transferFrom(address(this), msg.sender, order.rewardFee);\n\n        price0CumulativePrevious = price0CumulativeLastest;\n        blockTimestampPrevious = timestamp;\n\n        order.closed = true;\n        orders[_orderId] = order;\n\n        emit FillOrder(msg.sender, order.creator, order.toAmount, order.fromAmount, order.rewardFee);\n    }\n}\n",
  "sourcePath": "C:/Users/James/projects/zygo/blockchain/contracts/ZygoProtocol.sol",
  "compiler": {
    "name": "solc",
    "version": "0.6.12+commit.27d51765.Emscripten.clang"
  },
  "schemaVersion": "3.3.2",
  "updatedAt": "2021-01-20T15:37:46.003Z",
  "devdoc": {
    "kind": "dev",
    "methods": {
      "createOrder(address,uint256,address,uint256,uint256)": {
        "details": "creates an order",
        "params": {
          "_to": "- the token the sender wishes to"
        }
      },
      "owner()": {
        "details": "Returns the address of the current owner."
      },
      "renounceOwnership()": {
        "details": "Leaves the contract without owner. It will not be possible to call `onlyOwner` functions anymore. Can only be called by the current owner. NOTE: Renouncing ownership will leave the contract without an owner, thereby removing any functionality that is only available to the owner."
      },
      "transferOwnership(address)": {
        "details": "Transfers ownership of the contract to a new account (`newOwner`). Can only be called by the current owner."
      }
    },
    "version": 1
  },
  "userdoc": {
    "kind": "user",
    "methods": {},
    "version": 1
  }
}